:04000000AAEF3AF039
:1000080000C019F001C018F002C017F00CC016F0BB
:100018000DC015F0E1CF1AF0E2CF1BF07EA44DD051
:100028007DA44BD004018651FF0A02E1898C0ED0D1
:100038008651000A02E1899C09D0000EEB5D02E1BD
:100048008651EA5D03E3897CEA6BEB6B0201E751B9
:10005800FF0A02E18A8611D0E751000A02E18A9676
:100068000CD0000E0401E95D04E10201E75104012E
:10007800E85D03E38A76E86BE96B0101F351FF0A57
:1000880002E18A8811D0F351000A02E18A980CD063
:10009800000E0401315D04E10101F3510401305DFA
:1000A80003E38A78306B316B0401EA4BEB2BE84BA6
:1000B800E92B304B312B7E9402D1F2A40DD0F2AA59
:1000C8000BD00101572B592B010E586F3C0ED76EE0
:1000D800B00ED66EF294F3D09EAAF1D09DAAEFD0BE
:1000E80001010A0EF36F0A01359535B502D0359135
:1000F80001D0358135B102D0359301D035833587AC
:100108003C6B3D6B3E6B3F6B366B35B18DD035B379
:100118008BD035B589D09EAA70D0ABB403D0ABB222
:1001280001D016D0AB98ABB802D0AC9A01D0AC8A4B
:10013800ACBA02D0AB9E01D0AB8EAB88ABB802D0C4
:10014800AC9A01D0AC8AACBA02D0AB9E01D0AB8ECF
:100158000A01AECF36FA010E405D016E000E41591C
:10016800026E02503F5D02E101503E5D44E23953A8
:100178002FE037531AE036511F0812E27A0E3E2557
:10018800E16E0A0E3F21E26E36CAE6FF010E3E25F9
:10019800006E000E3F21016E00C03EFA01C03FFA1A
:1001A80036513819D8B4358512D07A0E3E25E16E0D
:1001B8000A0E3F21E26E36CAE6FF010E3E25006EAA
:1001C800000E3F21016E00C03EFA01C03FFA12D076
:1001D8007A0E3E25E16E0A0E3F21E26E36CAE6FF30
:1001E800010E3E25006E000E3F21016E00C03EFA52
:1001F80001C03FFA02D035813597010E3C25006ECB
:10020800000E3D21016E00C03CFA01C03DFA3D518F
:100218003B5D02E13C513A5DD8A03583020E0D6E7C
:100228000D2EFED7000071D77A0E3E25E16E0A0E1C
:100238003F21E26EE66A35A307D0395305E037530C
:1002480003E035B501D0359735A138D0340E0C6EA2
:10025800F10E0D6E0D2EFED70C2EFCD700000000FF
:100268009EAA2BD0ABB403D0ABB201D016D0AB98BA
:10027800ABB802D0AC9A01D0AC8AACBA02D0AB9E73
:1002880001D0AB8EAB88ABB802D0AC9A01D0AC8AA7
:10029800ACBA02D0AB9E01D0AB8E7A0EE16E0A0EDC
:1002A800E26E3651E126D8B0E22AAECFE6FF1A0E4A
:1002B8000D6E0D2EFED70000D3D7359700D019C08C
:1002C80000F018C001F017C002F016C00CF015C0FD
:0C02D8000DF01AC0E1FF1BC0E2FF110096
:0E02E400026A016A006A086A036A000E1200CC
:1002F200800E0B01D719006E800E005C02E1000E29
:10030200D65D08E2D6510008006ED7CB01F0000E90
:0E031200015604D0D6CB00F0D7CB01F012007C
:10032000800E0B01D65D04E2400ED75D01E201D0E4
:100330007FD0040166533EE0D7CB00F00032009E30
:100340000032009E0032009E00C003F0000E046EDA
:10035000070E026E03C000F004C001F0025005E079
:10036000003600900136FF0FFAD70B01D651002658
:10037000000E0122F40E0024026E040E0120036E12
:10038000070ED715006E00C001F0010E006E01507F
:1003900004E000360090FF0FFBD702C0E9FF03C066
:1003A000EAFFEE50001202C0E1FF03C0E2FF00C00E
:1003B000E6FF3ED0D7CB00F00032009E0032009E18
:1003C0000032009E00C003F0000E046E070E026EA5
:1003D00003C000F004C001F0025005E000360090B8
:1003E0000136FF0FFAD70B01D6510026000E01226D
:1003F000F40E0024026E040E0120036E070ED715C2
:10040000006E00C001F0010E006E015004E00036E5
:100410000090FF0FFBD7001E02C0E9FF03C0EAFFF8
:10042000EE50001602C0E1FF03C0E2FF00C0E6FF8D
:020430001200B8
:100432000B840BAE24EF02F0010E036E026A016A16
:0A044200006A0A360232FF0E1200B3
:08044C000AAE029E000E120030
:100454000B820BAE34EF02F0036802680168006897
:080464000A360232FF0E1200FD
:10046C000CB078EF02F00CA21EEF03F00E6A000E37
:10047C0002648FEF02F0F00E0214D8A45AEF02F0CF
:10048C00023A01380F0B02260138F00B016E0038CE
:10049C000F0B01260038F00B006E08380F0B0026EE
:1004AC000838F00B086E0E84D89002BE73EF02F081
:1004BC0008360036013602360E2A02BE73EF02F001
:1004CC0008360036013602360E2A02BE73EF02F0F1
:1004DC0008360036013602360E2A0E50036414EF2D
:1004EC0003F0035E0BBC08AE19EF03F0D880800E4E
:1004FC0008640030000E002201220222D8A019EF5D
:10050C0003F0023201320032034A1EEF03F019EFFE
:10051C0003F001C002F000C001F008C000F0086A4E
:10052C00000E0E860264C6EF02F0F00E0214D8A480
:10053C00AEEF02F0023A01380F0B02260138F00B35
:10054C00016E00380F0B01260038F00B006E0E8484
:10055C00D89002BE73EF02F00036013602360E2A36
:10056C0002BE73EF02F00036013602360E2A02BECE
:10057C0073EF02F00036013602360E2A73EF02F0EA
:10058C0001C002F000C001F0006A000E0E960E8849
:10059C000264F3EF02F0F00E0214D8A4DEEF02F0C6
:1005AC00023A01380F0B02260138F00B016E0E8453
:1005BC00D89002BE73EF02F0013602360E2A02BE4C
:1005CC0073EF02F0013602360E2A02BE73EF02F010
:1005DC00013602360E2A73EF02F001C002F0016AF6
:1005EC00000E0E86026423EF03F0F00E0214D8A462
:1005FC0002EF03F0023A0E84D89002BE73EF02F0C1
:10060C0002360E2A02BE73EF02F002360E2A02BE2A
:10061C0073EF02F002360E2A73EF02F0010E0C6E2D
:10062C0002DF26EF03F0020E0C6E0ADF26EF03F05A
:10063C00040E0C6E09DF26EF03F0080E0C6E4CDE78
:02064C0012009A
:10064E000B01C051C45DD66FC151C559D76F4ADE7B
:10065E0000C0D4FB01C0D5FBBE51C25DD66FBF51E9
:10066E00C359D76F3FDE800E0118026E800ED5196A
:10067E00025C02E1D451005C010ED8B0000E026E95
:10068E0002C0CEFB025218E0BECBC6FBBFCBC7FBEF
:10069E00C0CBBEFBC1CBBFFBC6CBC0FBC7CBC1FB28
:1006AE00C2CBC8FBC3CBC9FBC4CBC2FBC5CBC3FB00
:1006BE00C8CBC4FBC9CBC5FB800EC319006E800E20
:1006CE00BF19005C02E1BE51C25D18E2BECBCAFB8F
:1006DE00BFCBCBFBC2CBBEFBC3CBBFFBCACBC2FBDC
:1006EE00CBCBC3FBC0CBCCFBC1CBCDFBC4CBC0FBB8
:1006FE00C5CBC1FBCCCBC4FBCDCBC5FBBE51C25DC4
:10070E00D06FC051C45DD66FC151C559D76FEADDE8
:10071E0000C0D1FBD0CBD2FB000ED36FD233D29F11
:10072E00000ED36F800EC119006E800EC519005CCD
:10073E0002E1C451C05D03E2010ECF6F02D0FF0E85
:10074E00CF6F800EC319006E800EBF19005C02E1E0
:10075E00BE51C25D2EE3CE5306E0C0CBD6FBBECB60
:10076E00D7FBD7DD05D0BECBD6FBC0CBD7FBD1DDBB
:10077E000B01D151D25D016E000ED359026E01C034
:10078E00D2FB02C0D3FB800E0218006E800E005CFE
:10079E0002E1000E015C0AE2CF51C027000ECFBF6E
:1007AE00FF0EC123D051D227000ED323BE4BBF2B39
:0407BE00C8D7120086
:1007C200BECBC9FFC7B002D00000FCD7C9CF00F032
:0207D200120013
:1007D400BECB6FFF6DB002D00000FCD76FCF00F02E
:0207E400120001
:1007E600025006180E6E086A096A0B6A03500764FF
:1007F600E6EF04F006500A6E068E028E03500B6E6C
:100806000750036E000E0B6436EF04F00B50075EC4
:10081600D8B4D7EF04F0070E0764A5EF04F0075E1F
:1008260000C008F001C000F002C001F0026A074EE5
:10083600D7EF04F007647AEF04F0075E00C008F013
:1008460001C000F0016A074ED7EF04F0076458EFC5
:1008560004F0075E00C008F0006A074ED7EF04F008
:1008660007643FEF04F00AC002F005C001F004C0BF
:1008760000F0086A00EF06F0030E07644AEF04F082
:10088600075E08380F0B086E074ED7EF04F0D890B6
:100896000832074ED7EF04F0D8900832074ED7EF4C
:1008A60004F0D8900832D7EF04F0030E076469EF1E
:1008B60004F0075E08380F0B086E0038F00B0826A8
:1008C60000380F0B006E074ED7EF04F0D8900032B9
:1008D6000832074ED7EF04F0D89000320832074EA0
:1008E600D7EF04F0D89000320832D7EF04F0030EA9
:1008F600076491EF04F0075E08380F0B086E0038A6
:10090600F00B082600380F0B006E0138F00B00269E
:1009160001380F0B016E074ED7EF04F0D890013265
:1009260000320832074ED7EF04F0D8900132003279
:100936000832074ED7EF04F0D89001320032083261
:10094600D7EF04F0030E0764C2EF04F0075E083821
:100956000F0B086E0038F00B082600380F0B006EE0
:100966000138F00B002601380F0B016E0238F00B30
:10097600012602380F0B026E074ED7EF04F0D8900F
:100986000232013200320832074ED7EF04F0D89017
:100996000232013200320832074ED7EF04F0D89007
:1009A6000232013200320832096A000E0EAECBEF77
:1009B60005F0081E001E011E021E082A0022012242
:1009C6000222CBEF05F00750D8A4ECEF04F000EFBD
:1009D60006F0096A02C00AF0028E068E0750035C12
:1009E600076ED8B4BEEF05F0070E07648CEF05F06E
:1009F600075E0450096E0550046E0650056E066AC1
:100A0600074EBEEF05F0070E076461EF05F0075EBF
:100A16000450096E0550046E056A074EBEEF05F0D8
:100A2600070E07643FEF05F0075E0450096E046A7F
:100A3600074EBEEF05F0070E076426EF05F00AC065
:100A460002F000EF06F0030E076431EF05F0075ED3
:100A560009380F0B096E074EBEEF05F0D890093224
:100A6600074EBEEF05F0D8900932074EBEEF05F0EF
:100A7600D8900932BEEF05F0030E076450EF05F07B
:100A8600075E09380F0B096E0438F00B0926043887
:100A96000F0B046E074EBEEF05F0D89004320932F4
:100AA600074EBEEF05F0D89004320932074EBEEF6E
:100AB60005F0D89004320932BEEF05F0030E076444
:100AC60078EF05F0075E09380F0B096E0438F00B56
:100AD600092604380F0B046E0538F00B042605387A
:100AE6000F0B056E074EBEEF05F0D89005320432A7
:100AF6000932074EBEEF05F0D890053204320932AE
:100B0600074EBEEF05F0D890053204320932BEEF2B
:100B160005F0030E0764A9EF05F0075E09380F0B11
:100B2600096E0438F00B092604380F0B046E0538DD
:100B3600F00B042605380F0B056E0638F00B05265C
:100B460006380F0B066E074EBEEF05F0D89006323C
:100B5600053204320932074EBEEF05F0D890063250
:100B6600053204320932074EBEEF05F0D890063240
:100B7600053204320932086A000E0EAECBEF05F0DC
:100B8600091E041E051E061E092A04220522062227
:100B96000950082604500022055001220650022260
:100BA6000EBEE2EF05F0D8A0F1EF05F002320132F9
:100BB60000320832033EF1EF05F0FBEF05F0D8B046
:100BC600F6EF05F0000E081E001E011E021E082A82
:100BD6000022012202220A7EF6EF05F0010E0C6EBB
:100BE60042DC02EF06F0020E0C6E3DDC02EF06F070
:100BF600040E0C6E2CDC02EF06F0000E0C6E1200DA
:100C0600086A080E0C6E003408360450085ED8B028
:0E0C160002D00826D89000360C2EF5D712001A
:100C24000B800BAE1EEF06F0026A0AAEFF0E026ED8
:0C0C3400016E006E0A360232FF0E120044
:100C40000D6A086A0050D8B4000C04180A6E0ABE77
:100C50000D1E0B6A04AE02D0041E042A00AE02D0A0
:100C6000001E002A005004100A6E0ABE1FD0045055
:100C7000085E003600340836045008260036060E9A
:100C80000C6E00340836045000B0085E00A0082640
:100C900000360C2EF6D700A008260BB015D00DAEEE
:100CA000000C001E002A081E082A000C04AE09D001
:100CB00000BE04D00050086E006AF1D7006A002A16
:100CC000000C001E0B2AD3D7082A0450085CD8A4B5
:0E0CD000E6D7086A002A00AEE2D7FF0C120039
:100CDE000134083609360450085E0550D8A0053C8C
:100CEE00095E003601360F0E0C6E013408360936D9
:100CFE00045000A006D0085E0550D8A0053C095E41
:100D0E0005D008260550D8B0053C09260036013618
:100D1E000C2EEBD700B006D0045008260550D8B0E4
:080D2E00053C0926000012003B
:080D36000B6A0B86FF0E120090
:100D3E00086A096A000E0762036424EF07F0025086
:100D4E0006180A6E075003267E0ED8A0B5EF06F0E1
:100D5E00035ED8B029EF07F0B9EF06F0035ED8A016
:100D6E002EEF07F0028E068E02C00EF001C00BF0C1
:100D7E0000C00DF000500402F4CF0CF0015005023B
:100D8E00F4CF00F0F3CF08F00402F3500C26F45029
:100D9E000822000E00220D500502F3500C26F450CE
:100DAE000822000E002202500402F3500826F450CE
:100DBE00002202500502016A000E0122F3500026A5
:100DCE00F45001220D500602F3500826F450002272
:100DDE00026A000E012202220B500602F350002678
:100DEE00F4500122000E02220E500602F35001268C
:100DFE00F450022202BE0CEF07F008360036013620
:100E0E0002360306D8B42EEF07F01FEF07F0D88096
:100E1E00800E08640030000E002201220222D8A0AB
:100E2E001FEF07F0023201320032034A29EF07F0BA
:100E3E000AAE029E000E31EF07F0010E72EC01F0C9
:100E4E0031EF07F0020E2AEC02F031EF07F0040E3C
:060E5E0019EC02F0120085
:100E6400BBCBBEFB000E0B01BF6FBCCBC0FB000EA7
:100E7400C16FBBCBC2FB000EC36FBD51BC25C46F99
:100E8400C56B000EC523010EC45F000EC55B27ECC5
:040E940003F0120055
:100E9800F250026EF29E0500FF6A0150FE6E00508D
:080EA800FD6E02BEF28E120085
:100EB0006DB409D01F0E6B14016E0150000A03E1DE
:0A0EC000010E006E01D0006A12005E
:100ECA0019C1B7FB1AC1B8FB1BC1B9FB1CC1BAFBDC
:100EDA000B01B56BB66BB651120802E1B5518E081B
:100EEA0008E3E1DF005201E004D00B01B54BB62B59
:100EFA00F2D70B01120EB65D02E18F0EB55D03E368
:100F0A007B0E006E26D06B806BA022D00101195196
:100F1A001A111B111C111BE00B01B751B811B911A1
:100F2A00BA110EE13CCBE1FF3DCBE2FF050EE66EC6
:100F3A003ACB00F03BCB01F0AADF010E006E09D0DC
:100F4A00010E0B01B75F000EB85BB95BBA5BDCD769
:040F5A00006A120017
:100F5E000450000A08E10550000A05E1FF0E006E7C
:100F6E007F0E016E57D00D6A096A086A0150001093
:100F7E00D8B4000C015005180A6E0ABE0D1E0B6A7D
:100F8E0005AE05D0041E051E042AD8B4052A01AEEE
:100F9E0005D0001E011E002AD8B4012A01500510EA
:100FAE000A6E0ABE10D094DE0BB020D00DAE000C2F
:100FBE00001E011E002AD8B4012A081E091E082A86
:100FCE00D8B4092A000C05AE0DD001BE07D00150D1
:100FDE00096E0050086E016A006AE8D7016A006A5D
:100FEE00002A000C011E001E0B2ADDD7082AD8B4D9
:100FFE00092A0450085CD8A4D9D70550095CD8A496
:10100E00D5D7096A086A002AD8B4012A01AECED70C
:06101E000000FF0C1200AF
:1010240003500718D8A426EF08F002500618D8A4D5
:1010340026EF08F001500518D8A426EF08F0005058
:0E1044000418D8B4D8841200D89412001200F8
:10105200800E0B01B519006E800E000A005CD8B03C
:1010620064D1B5510008016E01C0B5FB800E0118B4
:10107200006E800E6E0A005CD8A0BAD0640E046EB8
:10108200B5CB00F0DCDD120E0024056E000E00BEB2
:10109200FF0E066E000E062205C000F006C001F02B
:1010A200000E06BEFF0E026E036E00360090013681
:1010B2000236033600360090013602360336730ECE
:1010C2000024F66E8D0E0120F76E000E0220F86EDF
:1010D2000900F5CFB6FB0900F5CFB7FB0900F5CF44
:1010E200B8FB0900F5CFB9FB640E046EB5CB00F076
:1010F200A6DD08C000F00A0E046EA1DD090E002470
:10110200056E000E00BEFF0E066E000E062205C022
:1011120000F006C001F0000E06BEFF0E026E036E66
:101122000036009001360236033600360090013652
:1011320002360336730E0024F66E8D0E0120F76E12
:10114200000E0220F86E0900F5CF00F00900F5CF7D
:1011520001F00900F5CF02F00900F5CF03F0B6CB9C
:1011620004F0B7CB05F0B8CB06F0B9CB07F0E6DD5B
:1011720000C0B6FB01C0B7FB02C0B8FB03C0B9FB9D
:101182000A0E046EB5CB00F05ADD08C000F000C0B4
:1011920001F0000E00BEFF0E026E036E046E0136F9
:1011A20001900236033604360136019002360336C8
:1011B2000436730E0124F66E8D0E0220F76E000EB9
:1011C2000320F86E0900F5CF00F00900F5CF01F019
:1011D2000900F5CF02F00900F5CF03F0B6CB04F019
:1011E200B7CB05F0B8CB06F0B9CB07F0A7DDFFD13E
:1011F200800E0A0A006E800EB519005C6EE20A0EBD
:10120200046EB5CB00F01BDD090E0024056E000E46
:1012120000BEFF0E066E000E062205C000F006C0DC
:1012220001F0000E06BEFF0E026E036E0036009045
:101232000136023603360036009001360236033696
:10124200730E0024F66E8D0E0120F76E000E022042
:10125200F86E0900F5CFB6FB0900F5CFB7FB090020
:10126200F5CFB8FB0900F5CFB9FB0A0E046EB5CB7A
:1012720000F0E5DC08C000F000C001F0000E00BE86
:10128200FF0E026E036E046E0136019002360336C3
:10129200043601360190023603360436730E0124F9
:1012A200F66E8D0E0220F76E000E0320F86E090016
:1012B200F5CF00F00900F5CF01F00900F5CF02F0FB
:1012C2000900F5CF03F0B6CB04F0B7CB05F0B8CBED
:1012D20006F0B9CB07F032DD8AD1B5CB00F0000EB3
:1012E200B5BFFF0E016E026E036E0036009001362E
:1012F2000236033600360090013602360336730E8C
:101302000024F66E8D0E0120F76E000E0220F86E9C
:101312000900F5CF00F00900F5CF01F00900F5CF83
:1013220002F00900F5CF03F062D1800EB519006E0C
:10133200800E6E0A005CD8A0BBD0640E046EB5CBE2
:1013420000F07DDC120E0024056E000E00BEFF0EC2
:10135200066E000E062205C000F006C001F0000E67
:1013620006BEFF0E026E036E003600900136023694
:10137200033600360090013602360336A70E0024EB
:10138200F66E8D0E0120F76E000E0220F86E090037
:10139200F5CFB6FB0900F5CFB7FB0900F5CFB8FBD7
:1013A2000900F5CFB9FB640E046EB5CB00F047DC43
:1013B20008C000F00A0E046E42DC090E0024056E1D
:1013C200000E00BEFF0E066E000E062205C000F0E3
:1013D20006C001F0000E06BEFF0E026E036E00365E
:1013E200009001360236033600360090013602368E
:1013F2000336A70E0024F66E8D0E0120F76E000E46
:101402000220F86E0900F5CF00F00900F5CF01F0D7
:101412000900F5CF02F00900F5CF03F0B6CB04F0D6
:10142200B7CB05F0B8CB06F0B9CB07F087DC00C02C
:10143200B6FB01C0B7FB02C0B8FB03C0B9FB0A0E82
:10144200046EB5CB00F020EC06F008C000F000C03E
:1014520001F0000E00BEFF0E026E036E046E013636
:101462000190023603360436013601900236033605
:101472000436A70E0124F66E8D0E0220F76E000EC2
:101482000320F86E0900F5CF00F00900F5CF01F056
:101492000900F5CF02F00900F5CF03F0B6CB04F056
:1014A200B7CB05F0B8CB06F0B9CB07F047DC9FD03D
:1014B200800E0A0A006E800EB519005C71E20A0EF7
:1014C200046EB5CB00F020EC06F0090E0024056E88
:1014D200000E00BEFF0E066E000E062205C000F0D2
:1014E20006C001F0000E06BEFF0E026E036E00364D
:1014F200009001360236033600360090013602367D
:101502000336A70E0024F66E8D0E0120F76E000E34
:101512000220F86E0900F5CFB6FB0900F5CFB7FB44
:101522000900F5CFB8FB0900F5CFB9FB0A0E046E2E
:10153200B5CB00F020EC06F008C000F000C001F0CE
:10154200000E00BEFF0E026E036E046E01360190A5
:10155200023603360436013601900236033604366B
:10156200A70E0124F66E8D0E0220F76E000E0320E8
:10157200F86E0900F5CF00F00900F5CF01F009007F
:10158200F5CF02F00900F5CF03F0B6CB04F0B7CBEC
:1015920005F0B8CB06F0B9CB07F09FEC06F027D0E8
:1015A200B5CB00F0000EB5BFFF0E016E026E036EEA
:1015B20000360090013602360336003600900136BE
:1015C20002360336A70E0024F66E8D0E0120F76E4A
:1015D200000E0220F86E0900F5CF00F00900F5CFE9
:1015E20001F00900F5CF02F00900F5CF03F0120077
:1015F2000450000A12E10550000A0FE10650000AE9
:101602000CE10750000A09E1FF0E006EFF0E016EA9
:101612007F0E026EFF0E036EA8D0086A096A075099
:10162200D8B4A4EF0BF00350D8B4A9EF0BF00250DA
:1016320006180A6E028E068E0E6A02C008F001C0FB
:101642000CF000C00DF004500D5E0550D8A0053C12
:101652000C5E0650D8A0063C085E086A0C6A0D6A49
:10166200D8A03BEF0BF0D8900232013200320832A0
:10167200010E0E6E0750035ED8A048EF0BF07E0EEF
:101682000E240326D8B0AEEF0BF04EEF0BF07E0E19
:101692000E240326D8A0B3EF0BF0180E0B6E0D36F6
:1016A2000C3608360036013602360E360450005E1D
:1016B2000550D8A0053C015E0650D8A0063C025E4B
:1016C20006340E120EA069EF0BF00D8074EF0BF0D2
:1016D200045000260550D8B0053C01260650D8B06B
:1016E200062802260D900B2E50EF0BF09AEF0BF00E
:1016F200D8900036013602360E360450005E055090
:10170200D8A0053C015E0650D8A0063C025E063415
:101712000E10010B0D26D8B00C2AD8B4082AD8A472
:101722009AEF0BF008320C320D32032AD8B4AEEF26
:101732000BF00AAE089E0850026E0C50016E0D505E
:10174200006EB6EF0BF0010E9BEC06F0B6EF0BF05D
:10175200020E72EC01F0B6EF0BF0040E2AEC02F06E
:0C176200B6EF0BF0080E19EC02F01200BC
:10176E000B6A0A6A096A086A0E6A0334083604505C
:10177E00085E0550D8A0053C095E0650D8A0063C70
:10178E000A5E0750D8A0073C0B5EE86AD8A0010E8F
:10179E000E5E0336070E0C6E0334083609360A3613
:1017AE000B360E36045003A012D0085E0550D8A09A
:1017BE00053C095E0650D8A0063C0A5E0750D8A02C
:1017CE00073C0B5EE86AD8A0010E0E5E11D008260B
:1017DE000550D8B0053C09260650D8B0063C0A265E
:1017EE000750D8B0073C0B26E86AD8B0010E0E267B
:1017FE0003360C2ED1D70234083609360A360B368C
:10180E000E36045003A012D0085E0550D8A0053C39
:10181E00095E0650D8A0063C0A5E0750D8A0073CC9
:10182E000B5EE86AD8A0010E0E5E11D00826055098
:10183E00D8B0053C09260650D8B0063C0A260750FB
:10184E00D8B0073C0B26E86AD8B0010E0E26023639
:10185E00070E0C6E0234083609360A360B360E3673
:10186E00045002A012D0085E0550D8A0053C095EB7
:10187E000650D8A0063C0A5E0750D8A0073C0B5E67
:10188E00E86AD8A0010E0E5E11D008260550D8B019
:10189E00053C09260650D8B0063C0A260750D8B09B
:1018AE00073C0B26E86AD8B0010E0E2602360C2E27
:1018BE00D1D70134083609360A360B360E360450A7
:1018CE0002A012D0085E0550D8A0053C095E065055
:1018DE00D8A0063C0A5E0750D8A0073C0B5EE86A0B
:1018EE00D8A0010E0E5E11D008260550D8B0053CCA
:1018FE0009260650D8B0063C0A260750D8B0073C39
:10190E000B26E86AD8B0010E0E260136070E0C6EB5
:10191E000134083609360A360B360E36045001A04D
:10192E0012D0085E0550D8A0053C095E0650D8A01E
:10193E00063C0A5E0750D8A0073C0B5EE86AD8A0AA
:10194E00010E0E5E11D008260550D8B0053C0926B2
:10195E000650D8B0063C0A260750D8B0073C0B26D6
:10196E00E86AD8B0010E0E2601360C2ED1D70034FF
:10197E00083609360A360B360E36045001A012D040
:10198E00085E0550D8A0053C095E0650D8A0063C5E
:10199E000A5E0750D8A0073C0B5EE86AD8A0010E7D
:1019AE000E5E11D008260550D8B0053C092606500B
:1019BE00D8B0063C0A260750D8B0073C0B26E86A7A
:1019CE00D8B0010E0E260036070E0C6E0034083607
:1019DE0009360A360B360E36045000A012D0085EB9
:1019EE000550D8A0053C095E0650D8A0063C0A5EFC
:1019FE000750D8A0073C0B5EE86AD8A0010E0E5E19
:101A0E0011D008260550D8B0053C09260650D8B08E
:101A1E00063C0A260750D8B0073C0B26E86AD8B019
:101A2E00010E0E2600360C2ED1D700B00ED004506B
:101A3E0008260550D8B0053C09260650D8B0063CFD
:0C1A4E000A260750D8B0073C0B261200F7
:101A5A00220E0C6E086A096A0A6A0B6A0C06D8B466
:101A6A001FD0D8900B320A320932083203320232BE
:101A7A0001320032D8A0F2D70C06D8B409D00450EB
:101A8A0008260550092206500A2207500B22EAD7D7
:101A9A00045008260550092206500A2207500B2234
:021AAA00120028
:101AAC000450085E0550D8A0053C095E0650D8A02D
:101ABC00063C0A5E0750D8A0073C0B5E0336070EA7
:101ACC000C6E0334083609360A360B36045003A064
:101ADC000ED0085E0550D8A0053C095E0650D8A073
:101AEC00063C0A5E0750D8A0073C0B5E0DD00826BA
:101AFC000550D8B0053C09260650D8B0063C0A263D
:101B0C000750D8B0073C0B2603360C2EDAD702341C
:101B1C00083609360A360B36045003A00ED0085E80
:101B2C000550D8A0053C095E0650D8A0063C0A5EBC
:101B3C000750D8A0073C0B5E0DD008260550D8B036
:101B4C00053C09260650D8B0063C0A260750D8B0EA
:101B5C00073C0B260236070E0C6E0234083609368B
:101B6C000A360B36045002A00ED0085E0550D8A0E1
:101B7C00053C095E0650D8A0063C0A5E0750D8A06A
:101B8C00073C0B5E0DD008260550D8B0053C092645
:101B9C000650D8B0063C0A260750D8B0073C0B2696
:101BAC0002360C2EDAD70134083609360A360B36D3
:101BBC00045002A00ED0085E0550D8A0053C095E6A
:101BCC000650D8A0063C0A5E0750D8A0073C0B5E16
:101BDC000DD008260550D8B0053C09260650D8B0C3
:101BEC00063C0A260750D8B0073C0B260136070ED8
:101BFC000C6E0134083609360A360B36045001A037
:101C0C000ED0085E0550D8A0053C095E0650D8A041
:101C1C00063C0A5E0750D8A0073C0B5E0DD0082688
:101C2C000550D8B0053C09260650D8B0063C0A260B
:101C3C000750D8B0073C0B2601360C2EDAD70034EF
:101C4C00083609360A360B36045001A00ED0085E51
:101C5C000550D8A0053C095E0650D8A0063C0A5E8B
:101C6C000750D8A0073C0B5E0DD008260550D8B005
:101C7C00053C09260650D8B0063C0A260750D8B0B9
:101C8C00073C0B260036070E0C6E0034083609365E
:101C9C000A360B36045000A00ED0085E0550D8A0B2
:101CAC00053C095E0650D8A0063C0A5E0750D8A039
:101CBC00073C0B5E0DD008260550D8B0053C092614
:101CCC000650D8B0063C0A260750D8B0073C0B2665
:101CDC0000360C2EDAD700B00ED004500826055072
:101CEC00D8B0053C09260650D8B0063C0A26075049
:081CFC00D8B0073C0B261200D2
:101D04000B1E0A1E091E081E082AD8B4092AD8B4B4
:081D14000A2AD8B40B2A1200C0
:101D1C000C6A0E6A0250D8A4A7EF0EF001C002F0B4
:101D2C0000C001F0006A0E860250D8A4A7EF0EF096
:101D3C0001C002F0016A0E960E880250D8B4B9EFB9
:101D4C000EF00E50035ED8A4D8A0BFEF0EF0D890C2
:101D5C0002BEC5EF0EF0003601360236032EAEEF92
:101D6C000EF0BFEF0EF0010E0C6E72EC01F0C9EF2D
:101D7C000EF0020E0C6E19EC02F0C9EF0EF0040E10
:081D8C000C6E26EC02F01200BF
:0A1D94001D0E0D6E0D2EFED712007D
:101D9E000A6A0350D8A40A800750D8A40A820A50AF
:101DAE00D8B432EF0FF0030AD8B4EBEF0EF00AB04E
:101DBE00E6EF0EF006AE30EF0FF02EEF0FF002AEA4
:101DCE002EEF0FF030EF0FF00250800B0A6E029ED6
:101DDE000650800B069E0A18D8B4FCEF0EF00A507F
:101DEE00D8B42EEF0FF030EF0FF00750035CD8B4DD
:101DFE0006EF0FF0D8A022EF0FF028EF0FF00650ED
:101E0E00025CD8B410EF0FF0D8A022EF0FF028EF3D
:101E1E000FF00550015CD8B41AEF0FF0D8A022EFE6
:101E2E000FF028EF0FF00450005CD8B432EF0FF033
:101E3E00D8B028EF0FF00A52D8B430EF0FF02EEFD3
:101E4E000FF00A52D8B42EEF0FF030EF0FF0D8800B
:0E1E5E001200D8901200D880D8841200120012
:101E6C000B6A0A6A096A00500402F4CF09F0F3CF36
:101E7C0008F001500502F4CF0BF0F3CF0AF000503C
:101E8C000502F3500926F4500A22E86A0B2201508D
:101E9C000402F3500926F4500A22E86A0B2208C007
:101EAC0000F009C001F00AC002F00BC003F01200F0
:101EBC000B01B551390806E3300EB55D03E3010E95
:081ECC00006E01D0006A120053
:041ED4006B84120009
:101ED800B5CBB9FB000E0B01BA6FB751B525016E32
:101EE800026A000E0222800EBA19006E800E0218D5
:101EF800005C02E10150B95D0BE2B9CBBBFBB6CB8C
:101F0800BCFBB8CBBDFB32EC07F0B94BBA2BE5D71D
:021F18001200B5
:101F1A00A49EB5CB6FFF19C1B6FB1AC1B7FB1BC193
:101F2A00B8FB1CC1B9FB6DA423D0010119511A11C8
:101F3A001B111C111CE00B01B651B711B811B911D4
:101F4A000FE13CCBE1FF3DCBE2FF040EE66E3ACB5C
:101F5A0000F03BCB01F04CEC07F0010E006E3CD0D8
:101F6A00010E0B01B65F000EB75BB85BB95BDBD73E
:101F7A0019C1B6FB1AC1B7FB1BC1B8FB1CC1B9FB1F
:101F8A00A4BE23D0010119511A111B111C111CE006
:101F9A000B01B651B711B811B9110FE13CCBE1FFF2
:101FAA003DCBE2FF040EE66E3ACB00F03BCB01F0EC
:101FBA004CEC07F0010E006E0FD0010E0B01B65F5C
:101FCA00000EB75BB85BB95BDBD76BBC02D0006AAB
:0A1FDA0003D06B84020E006E1200AB
:101FE4000B6A0C6A086A0350D8B476EF10F002C08A
:101FF4000AF0028E9E0E035E03AE66EF10F0036CD1
:10200400080E035CD8A033EF10F0036E083600C04E
:1020140008F001C000F002C001F0026A080E035C7F
:10202400D8A033EF10F0036E083600C008F001C0EA
:1020340000F0016A080E035CD8A033EF10F0036EC1
:10204400083600C008F0006A080E035CD8A033EF1D
:1020540010F0036E0836086A0350D8A4D8903FEFF6
:1020640010F00350D8B43FEF10F0D8900232013290
:1020740000320832032E37EF10F00BBC08A050EFEB
:1020840010F0D8A050EF10F0082AD8B4002AD8B421
:10209400012AD8B4022A02BE7AEF10F00AAE76EF13
:1020A40010F0021E011E001E081E082AD8B4002AC1
:1020B400D8B4012AD8B4022A76EF10F0026A016A71
:1020C400006A086A76EF10F00B800BAE81EF10F017
:1020D400026A0AAE81EF10F0026E016E006E086EA5
:1020E4000A36023281EF10F00C6A000E82EF10F013
:1020F400010E0C6E000E12EC06F082EF10F0FF0ED3
:102104000250036E0150026E0050016E0850006EC2
:022114001200B7
:102116006E0E0B01B55DD8A0CAD0640E046EB5CBA9
:1021260000F003EC06F0120E0024056E066A000E9F
:10213600062205C000F006C001F0000E06BEFF0E26
:10214600026E036E00360090013602360336003604
:102156000090013602360336730E0024F66E8D0E9D
:102166000120F76E000E0220F86E0900F5CF00F090
:102176000900F5CF01F00900F5CF02F00900F5CF0F
:1021860003F0000E046E000E056E000E066E7E0E47
:10219600076E9FEC06F000C0B6FB01C0B7FB02C09D
:1021A600B8FB03C0B9FB640E046EB5CB00F003ECBC
:1021B60006F008C000F00A0E046E03EC06F0090EE5
:1021C6000024056E066A000E062205C000F006C051
:1021D60001F0000E06BEFF0E026E036E0036009082
:1021E60001360236033600360090013602360336D3
:1021F600730E0024F66E8D0E0120F76E000E02207F
:10220600F86E0900F5CF00F00900F5CF01F00900DE
:10221600F5CF02F00900F5CF03F0B6CB04F0B7CB4B
:1022260005F0B8CB06F0B9CB07F09FEC06F000C07E
:10223600B6FB01C0B7FB02C0B8FB03C0B9FB0A0E70
:10224600046EB5CB00F003EC06F008C000F000C049
:1022560001F0000E026E036E046E01360190023626
:102266000336043601360190023603360436730E01
:102276000124F66E8D0E0220F76E000E0320F86E16
:102286000900F5CF00F00900F5CF01F00900F5CF00
:1022960002F00900F5CF03F0B6CB04F0B7CB05F09A
:1022A600B8CB06F0B9CB07F09FEC06F0B1D0B5512C
:1022B6000A08D8B07ED00A0E046EB5CB00F003EC47
:1022C60006F0090E0024056E066A000E062205C0F9
:1022D60000F006C001F0000E06BEFF0E026E036E91
:1022E600003600900136023603360036009001367D
:1022F60002360336730E0024F66E8D0E0120F76E3D
:10230600000E0220F86E0900F5CF00F00900F5CFA7
:1023160001F00900F5CF02F00900F5CF03F0000E39
:10232600046E000E056E000E066E7E0E076E9FECA6
:1023360006F000C0B6FB01C0B7FB02C0B8FB03C085
:10234600B9FB0A0E046EB5CB00F003EC06F008C02C
:1023560000F000C001F0000E026E036E046E01363E
:1023660001900236033604360136019002360336F2
:102376000436730E0124F66E8D0E0220F76E000EE3
:102386000320F86E0900F5CF00F00900F5CF01F043
:102396000900F5CF02F00900F5CF03F0B6CB04F043
:1023A600B7CB05F0B8CB06F0B9CB07F09FEC06F03B
:1023B6002FD0B5CB00F0000E016E026E036E003614
:1023C600009001360236033600360090013602369A
:1023D6000336730E0024F66E8D0E0120F76E000E86
:1023E6000220F86E0900F5CF00F00900F5CF01F0E4
:1023F6000900F5CF02F00900F5CF03F0000E046ED8
:10240600000E056E000E066E7E0E076E9FEC06F041
:022416001200B2
:102418000050086E0150006E0250016E0350026EAB
:10242800036A0B6A0C6A9E0E036E0A6A020E0C6E31
:0624380036EC02F0120078
:10243E000B6A0C6A0A6A086A0350D8B4A7EF12F046
:10244E00028E9E0E035E03BE32EF12F0D8B432EF50
:10245E0012F097EF12F0036C080E035CD8A064EF35
:10246E0012F0036E083600C008F001C000F002C082
:10247E0001F0026A080E035CD8A064EF12F0036E3E
:10248E00083600C008F001C000F0016A080E035CB7
:10249E00D8A064EF12F0036E083600C008F0006A90
:1024AE00080E035CD8A064EF12F0036E0836086ABB
:1024BE000350D8A4D89070EF12F00350D8B470EF38
:1024CE0012F0D8900232013200320832032E68EF39
:1024DE0012F00BBC08A081EF12F0D8A081EF12F021
:1024EE00082AD8B4002AD8B4012AD8B4022A02BEC7
:1024FE00ABEF12F00AAEA7EF12F0021E011E001E85
:10250E00081E082AD8B4002AD8B4012AD8B4022A40
:10251E00A7EF12F0026A016A006A086AA7EF12F0CA
:10252E000B800BAEB1EF12F0026A0AAEB1EF12F0F1
:10253E00026E016E006E086E0A360232B1EF12F0B4
:10254E00000E0C6AB2EF12F0010E0C6E12EC06F0D9
:10255E00B2EF12F0FF0E0250036E0150026E0050E9
:08256E00016E0850006E12001E
:08257600067EF3EC03F01200F5
:10257E000B01AD6BAE6BA16BA26B8FCB00F090CB52
:10258E0001F091CB02F0010E8F27000E90239123C4
:10259E0000C0F6FF01C0F7FF02C0F8FF0900F5CF3B
:1025AE0000F000C09EFB0052D8B4CDEF22F09E5139
:1025BE00250A0BE08DCBE1FF8ECBE2FF9ECBE6FF33
:1025CE008D4B8E2BAD4BAE2BD8D79F6BA06BA16BCB
:1025DE00A26B23D0A187010E8F27000E902391238B
:1025EE0059D0A181010E8F27000E9023912352D036
:1025FE00A183010E8F27000E902391234BD0A2872B
:10260E00010E8F27000E9023912344D0A185010E39
:10261E008F27000E902391233DD08FCBF6FF90CBCA
:10262E00F7FF91CBF8FF0900F5CF01F001502D0A0D
:10263E00D1E08FCBF6FF90CBF7FF91CBF8FF0900DF
:10264E00F5CF01F00150200ACCE08FCBF6FF90CBF6
:10265E00F7FF91CBF8FF0900F5CF01F001502B0ADF
:10266E00C7E08FCBF6FF90CBF7FF91CBF8FF0900B9
:10267E00F5CF01F00150230AC2E08FCBF6FF90CBCD
:10268E00F7FF91CBF8FF0900F5CF01F00150300AAA
:10269E00BDE001D09ED7A1A301D0A191A1A701D0E9
:1026AE00A1958FCBF6FF90CBF7FF91CBF8FF0900EA
:1026BE00F5CF00F0000E016E00C0B5FB5EEC0FF022
:1026CE00005236E09F6BA06B9FCB00F0A0CB01F0C9
:1026DE000A0E046E000E056E36EC0FF08FCBF6FF71
:1026EE0090CBF7FF91CBF8FF0900F5CF02F0025027
:1026FE0000249F6F000E0120A06F300E9F5F000E12
:10270E00A05B010E8F27000E902391238FCBF6FF37
:10271E0090CBF7FF91CBF8FF0900F5CF00F0000E3C
:10272E00016E00C0B5FB5EEC0FF00052CDE133D070
:10273E008FCBF6FF90CBF7FF91CBF8FF0900F5CFCB
:10274E0001F001502A0A27E192CBE9FF93CBEAFF71
:10275E00EECF00F0EECF01F000C0E9FF01C0EAFFBE
:10276E00EECF9FFBEECFA0FB92CBE9FF93CBEAFF20
:10277E00020EEE24006E000EEE20016E92CBE1FFF3
:10278E0093CBE2FF00C0E6FF01C0E6FF010E8F27EC
:10279E00000E902391238FCBF6FF90CBF7FF91CBBA
:1027AE00F8FF0900F5CF01F001502E0A70E1010E7D
:1027BE008F27000E902391238FCBF6FF90CBF7FF40
:1027CE0091CBF8FF0900F5CF01F001502A0A28E15C
:1027DE0092CBE9FF93CBEAFFEECF00F0EECF01F004
:1027EE0000C0E9FF01C0EAFFEECF9CFBEECF9DFBE0
:1027FE0092CBE9FF93CBEAFF020EEE24006E000EA1
:10280E00EE20016E92CBE1FF93CBE2FF00C0E6FF1C
:10281E0001C0E6FF010E8F27000E9023912336D0C4
:10282E009C6B9D6B8FCBF6FF90CBF7FF91CBF8FF98
:10283E000900F5CF00F0000E016E00C0B5FB5EEC96
:10284E000FF0005223E09CCB00F09DCB01F00A0E5E
:10285E00046E000E056E36EC0FF08FCBF6FF90CBAC
:10286E00F7FF91CBF8FF0900F5CF02F002500024DC
:10287E009C6F000E01209D6F300E9C5F000E9D5BC5
:10288E00010E8F27000E90239123CCD703D09C6B83
:10289E009D6BA2898FCB00F090CB01F091CB02F013
:1028AE00010E8F27000E9023912300C0F6FF01C06A
:1028BE00F7FF02C0F8FF0900F5CF9EFBF9D0ADCBB4
:1028CE0000F0AECB01F0D1EF22F0A189E3D7A285C3
:1028DE002ED1A18BA2812BD1A28329D1A18D27D15B
:1028EE0026D1A18BA18F23D192CBE9FF93CBEAFF07
:1028FE00EECF00F0EECF01F000C0E9FF01C0EAFF1D
:10290E00EECFA9FBEECFAAFB92CBE9FF93CBEAFF6A
:10291E00020EEE24006E000EEE20016E92CBE1FF51
:10292E0093CBE2FF00C0E6FF01C0E6FF000EAA193E
:10293E0002E1000EA91904E1ED0EA96F040EAA6FB3
:10294E00AB6BAC6BAB51A925E96EAC51AA21EA6E0B
:10295E00EE520BE0010EAB25006E000EAC21016EA7
:10296E0000C0ABFB01C0ACFBEDD79C519D110AE042
:10297E00AC519D5D02E1AB519C5D04E29CCBABFB87
:10298E009DCBACFBA051AC5D02E19F51AB5D05E26E
:10299E00AB519F5FAC51A05B02D09F6BA06BA1B7F8
:1029AE0016D09FCB00F0A0CB01F0010E9F5F000E62
:1029BE00A05B005001100BE08DCBE1FF8ECBE2FF50
:1029CE00200EE66E8D4B8E2BAD4BAE2BEAD7ABCBDE
:1029DE0002F0ACCB03F0010EAB5D006E000EAC59F5
:1029EE00016E00C0ABFB01C0ACFB0250031019E03E
:1029FE00A9CBE9FFAACBEAFF8DCBE1FF8ECBE2FF9D
:102A0E00EECFE6FF8D4B8E2B010EA925006E000E2C
:102A1E00AA21016E00C0A9FB01C0AAFBAD4BAE2BD3
:102A2E00D6D7A1A716D09FCB00F0A0CB01F0010EF8
:102A3E009F5F000EA05B005001100BE08DCBE1FFFD
:102A4E008ECBE2FF200EE66E8D4B8E2BAD4BAE2B5A
:102A5E00EAD793D592CBE9FF93CBEAFFEECF00F006
:102A6E00EECF01F000C0E9FF01C0EAFFEECF9EFB02
:102A7E0092CBE9FF93CBEAFF020EEE24006E000E1E
:102A8E00EE20016E92CBE1FF93CBE2FF00C0E6FF9A
:102A9E0001C0E6FF9E0EA96F0B0EAA6F010EAB6F63
:102AAE00000EAC6F62D7C00EA113000EA2133FD062
:102ABE009E51000AD8B403D79E516C0AD8B405D7DC
:102ACE009E514C0AD8B401D79E51660AD8B4FFD68F
:102ADE009E51450AD8B4FDD69E51650AD8B4FAD691
:102AEE009E51670AD8B4F8D69E516F0AD8B4F6D65E
:102AFE009E51640AD8B4F4D69E51690AD8B4F0D661
:102B0E009E51700AD8B4EDD69E51580AD8B4E9D663
:102B1E009E51780AD8B4E6D69E51730AD8B4E4D63C
:102B2E009E51630A97E09E51750ABDE0B3D7000E21
:102B3E00A115006EA251070B016E00500110D8B402
:102B4E0074EF1EF0A2A904D0060E9C6F000E9D6FAE
:102B5E0092CBE9FF93CBEAFFEECF00F0EECF01F080
:102B6E0000C0E9FF01C0EAFFEECFA3FBEECFA4FB4E
:102B7E00EECFA5FBEECFA6FB92CBE9FF93CBEAFF00
:102B8E00040EEE24006E000EEE20016E92CBE1FFDD
:102B9E0093CBE2FF00C0E6FF01C0E6FF046A056AC0
:102BAE00066A076AA3CB00F0A4CB01F0A5CB02F016
:102BBE00A6CB03F0CFEC0EF0010ED8B0000E006ED7
:102BCE00005205E0A57F030EA113000EA213A76B02
:102BDE00A86BA3CB00F0A4CB01F0A5CB02F0A6CB43
:102BEE0003F0046A056A066A076A12EC08F0000E22
:102BFE00D8A4010E006E0052D8B48AD0A6CB00F035
:102C0E00016A026A036AFF0E0016000E01167E0E9E
:102C1E00005E000E015A00C0A7FB01C0A8FB010E0A
:102C2E00005E000E015A00C0A7FB01C0A8FB030EF8
:102C3E00046E000E056E36EC0FF000C0A7FB01C04F
:102C4E00A8FB0A0E046E000E056EAFEC07F000C076
:102C5E00A7FB01C0A8FB800E0118026E800E025C5D
:102C6E0002E1000E005C05E2010E0B01A75F000EF3
:102C7E00A85B0B01A7510008B56F29EC08F0A3CB98
:102C8E0004F0A4CB05F0A5CB06F0A6CB07F09FEC85
:102C9E0006F000C0A9FB01C0AAFB02C0ABFB03C03B
:102CAE00ACFB000E046E000E056E000E066E7F0E5F
:102CBE00076EA9CB00F0AACB01F0ABCB02F0ACCBE8
:102CCE0003F0CFEC0EF0010ED8B0000E006E0052E5
:102CDE0005E0010EA75F000EA85B1AD0000E046E71
:102CEE00000E056E200E066E820E076EA9CB00F04A
:102CFE00AACB01F0ABCB02F0ACCB03F0CFEC0EF0D5
:102D0E00000ED8B0010E006E005202E0A74BA82BA9
:102D1E00800E006E800EA819005C02E1A75100081B
:102D2E0003E3010E9E6F02D0A7CB9EFBA2B118D07B
:102D3E00A2A315D0800EA819006E7F0E005C02E1D2
:102D4E00FC0EA75D0BE3800EA819006E800E9D1978
:102D5E00005C02E19C51A75D01E201D001D0EFD3EE
:102D6E009C519D1106E0A2A304D0010E9C5F000EA3
:102D7E009D5B9D51000802E19C51080803E2080E7C
:102D8E009E6F02D09CCB9EFBA3CB00F0A4CB01F098
:102D9E00A5CB02F0A6CB03F0046A056A066A076AA1
:102DAE0012EC08F0000ED8A4010E006E0052D8B43A
:102DBE004BD1A7CBB5FB29EC08F000C004F001C045
:102DCE0005F002C006F003C007F0A3CB00F0A4CBC1
:102DDE0001F0A5CB02F0A6CB03F0F9EC0AF000C08F
:102DEE00A3FB01C0A4FB02C0A5FB03C0A6FB0B0105
:102DFE009E510008B56F29EC08F000C004F001C028
:102E0E0005F002C006F003C007F0A3CB00F0A4CB80
:102E1E0001F0A5CB02F0A6CB03F0F9EC0AF000C04E
:102E2E00AFFB01C0B0FB02C0B1FB03C0B2FBAFCB26
:102E3E00A3FBB0CBA4FBB1CBA5FBB2CBA6FBAFCB18
:102E4E0000F0B0CB01F0B1CB02F0B2CB03F01FEC2F
:102E5E0012F00CEC12F000C004F001C005F002C03C
:102E6E0006F003C007F0AFCB00F0B0CB01F0B1CB52
:102E7E0002F0B2CB03F0BBEC12F0000E046E000EAB
:102E8E00056E000E066E7E0E076ECFEC0EF0000E77
:102E9E00D8B0010E006E00521AE0A3CB00F0A4CB06
:102EAE0001F0A5CB02F0A6CB03F0000E046E000ECF
:102EBE00056E000E066E7E0E076EF3EC03F000C07C
:102ECE00A3FB01C0A4FB02C0A5FB03C0A6FBA3CBC2
:102EDE0000F0A4CB01F0A5CB02F0A6CB03F01FECC3
:102EEE0012F00B019E51010F096E0A6A000E0A22A2
:102EFE0009C004F00AC005F0000E0ABEFF0E066EF1
:102F0E00076E0436049005360636073604360490EE
:102F1E000536063607363F0E0424F66E8E0E052055
:102F2E00F76E000E0620F86E0900F5CF05F00900C9
:102F3E00F5CF06F00900F5CF07F00900F5CF08F040
:102F4E000850035C08E10750025C05E10650015C85
:102F5E0002E10550005C1EE30B01A3CB00F0A4CBF5
:102F6E0001F0A5CB02F0A6CB03F0CD0E046ECC0E75
:102F7E00056E4C0E066E7B0E076E9FEC06F000C0C3
:102F8E00A3FB01C0A4FB02C0A5FB03C0A6FBA74B7D
:102F9E00A82B5AD0A3CB00F0A4CB01F0A5CB02F006
:102FAE00A6CB03F01FEC12F09ECB04F0000E056EC4
:102FBE00066E076E0436049005360636073604365E
:102FCE0004900536063607363F0E0424F66E8E0E36
:102FDE000520F76E000E0620F86E0900F5CF05F0FD
:102FEE000900F5CF06F00900F5CF07F00900F5CF7F
:102FFE0008F00850035C08E10750025C05E106503A
:10300E00015C02E10550005C1FE20B01A3CB00F056
:10301E00A4CB01F0A5CB02F0A6CB03F0000E046EFC
:10302E00000E056E200E066E820E076E9FEC06F0E9
:10303E0000C0A3FB01C0A4FB02C0A5FB03C0A6FBFE
:10304E00010EA75F000EA85B0B01A2A393D0A2B73F
:10305E0091D0800E000A006E800E9D19005C02E178
:10306E009C510A0804E20A0E9C6F000E9D6FA3CBC2
:10307E0000F0A4CB01F0A5CB02F0A6CB03F01FEC21
:10308E0012F000C0A9FB01C0AAFB02C0ABFB03C03B
:10309E00ACFBA951AA11AB11AC1142E00A0E046EA1
:1030AE00000E056E066E076EA9CB00F0AACB01F0DE
:1030BE00ABCB02F0ACCB03F0B7EC0BF008C000F0DA
:1030CE0009C001F00AC002F00BC003F0000E046E3E
:1030DE00031808E10450021805E10450011802E13A
:1030EE000050000A1DE1010E9C5F000E9D5B0A0E52
:1030FE00046E000E056E066E076EA9CB00F0AACB0D
:10310E0001F0ABCB02F0ACCB03F0B7EC0BF000C090
:10311E00A9FB01C0AAFB02C0ABFB03C0ACFBB9D735
:10312E00800E9D19006E800E005C02E19E519C5D2A
:10313E0021E29C519E5DB56F29EC08F000C004F0B1
:10314E0001C005F002C006F003C007F0A3CB00F0EB
:10315E00A4CB01F0A5CB02F0A6CB03F0F9EC0AF05C
:10316E0000C0A3FB01C0A4FB02C0A5FB03C0A6FBCD
:10317E009CCB9EFB050E0B019C25006E000E9D2127
:10318E00016E00509F5F0150A05B9C519D1103E1A9
:10319E00A2B701D004D0010E9F5F000EA05B030EFC
:1031AE00A115006EA2CB01F0000E01160050011009
:1031BE0004E0010E9F5F000EA05BA1A539D0A1A374
:1031CE0012D0A1A103D02D0E946F02D02B0E946FAE
:1031DE008DCBE1FF8ECBE2FF94CBE6FF8D4B8E2B9A
:1031EE00AD4BAE2B0CD0A1A10AD08DCBE1FF8ECB77
:1031FE00E2FF200EE66E8D4B8E2BAD4BAE2B800E6E
:10320E00006E800EA019005C02E19F5100080FE2D3
:10321E008DCBE1FF8ECBE2FF300EE66E8D4B8E2B0B
:10322E00AD4BAE2B010E9F5F000EA05BE8D73AD0E0
:10323E00A1B718D0800E006E800EA019005C02E1BE
:10324E009F5100080FE28DCBE1FF8ECBE2FF200EE7
:10325E00E66E8D4B8E2BAD4BAE2B010E9F5F000E8F
:10326E00A05BE8D7A1A312D0A1A103D02D0E956F1C
:10327E0002D02B0E956F8DCBE1FF8ECBE2FF95CB5F
:10328E00E6FF8D4B8E2BAD4BAE2B0CD0A1A10AD0F1
:10329E008DCBE1FF8ECBE2FF200EE66E8D4B8E2B9B
:1032AE00AD4BAE2BA3CB00F0A4CB01F0A5CB02F01F
:1032BE00A6CB03F01FEC12F000C0A9FB01C0AAFBC5
:1032CE0002C0ABFB03C0ACFB9ECB00F0000E016E48
:1032DE00026E036E0036009001360236033600365B
:1032EE0000900136023603363F0E0024F66E8E0E27
:1032FE000120F76E000E0220F86E0900F5CF04F0E3
:10330E000900F5CF05F00900F5CF06F00900F5CF5D
:10331E0007F0A9CB00F0AACB01F0ABCB02F0ACCBFF
:10332E0003F0B7EC0BF0300E00268DCBE1FF8ECB09
:10333E00E2FF00C0E6FF8D4B8E2BAD4BAE2B9C51AA
:10334E009D1103E1A2B701D06FD08DCBE1FF8ECBE3
:10335E00E2FF2E0EE66E8D4B8E2BAD4BAE2B9E519D
:10336E009C5F000E9D5B9E534DE09E079ECB00F032
:10337E00000E016E026E036E0036009001360236AC
:10338E000336003600900136023603363F0E002417
:10339E00F66E8E0E0120F76E000E0220F86E0900FA
:1033AE00F5CF04F00900F5CF05F00900F5CF06F0D2
:1033BE000900F5CF07F0A9CB00F0AACB01F0ABCBFB
:1033CE0002F0ACCB03F0B7EC0BF00A0E046E000E5D
:1033DE00056E066E076EB7EC0BF008C000F009C064
:1033EE0001F00AC002F00BC003F0300E00268DCBA8
:1033FE00E1FF8ECBE2FF00C0E6FF8D4B8E2BAD4B77
:10340E00AE2BB1D79C519D110FE08DCBE1FF8ECB32
:10341E00E2FF300EE66E8D4B8E2BAD4BAE2B010EBA
:10342E009C5F000E9D5BEED7A1AB0BD08DCBE1FF69
:10343E008ECBE2FF450EE66E8D4B8E2BAD4BAE2B3B
:10344E000AD08DCBE1FF8ECBE2FF650EE66E8D4B83
:10345E008E2BAD4BAE2B800EA819006E800E005C2D
:10346E0002E1000EA75D11E2A7510008A76FA85157
:10347E00000EA8578DCBE1FF8ECBE2FF2D0EE66E30
:10348E008D4B8E2BAD4BAE2B0AD08DCBE1FF8ECB61
:10349E00E2FF2B0EE66E8D4B8E2BAD4BAE2B0A0E36
:1034AE00046E000E056EA7CB00F0A8CB01F0AFECBA
:1034BE0007F0300E00268DCBE1FF8ECBE2FF00C071
:1034CE00E6FF0B018D4B8E2BAD4BAE2B0A0E046E11
:1034DE00000E056EA7CB00F0A8CB01F0AFEC07F005
:1034EE0008C000F009C001F0300E00268DCBE1FFC0
:1034FE008ECBE2FF00C0E6FF0B018D4B8E2BAD4B4A
:10350E00AE2BA1A71AD0800E006E800EA019005C03
:10351E0002E19F51000811E28DCBE1FF8ECBE2FF5D
:10352E00200EE66E8D4B8E2BAD4BAE2B010E9F5F9C
:10353E00000EA05B9F51A011EFE1C4EF12F0A2A309
:10354E00F3D0800EA819006E800E005C02E1000E12
:10355E00A75D0AE2010EA75D006E000EA859016E6E
:10356E0000509C5F01509D5BA3CB00F0A4CB01F0FB
:10357E00A5CB02F0A6CB03F01FEC12F000C0A9FB06
:10358E0001C0AAFB02C0ABFB03C0ACFB010E9E6FD9
:10359E009E510A0A34E09ECB00F0000E016E026EC0
:1035AE00036E003600900136023603360036009068
:1035BE000136023603363F0E0024F66E8E0E0120C3
:1035CE00F76E000E0220F86E0900F5CF01F009002B
:1035DE00F5CF02F00900F5CF03F00900F5CF04F0A6
:1035EE000450AC5D08E10350AB5D05E10250AA5DED
:1035FE0002E10150A95D01E202D09E2BC9D79E5176
:10360E009C5DB36F000E9D59B46FB3CB9CFBB4CBD6
:10361E009DFBA9CB00F0AACB01F0ABCB02F0ACCB5B
:10362E0003F00CEC12F000C004F001C005F002C073
:10363E0006F003C007F0A3CB00F0A4CB01F0A5CB9E
:10364E0002F0A6CB03F0BBEC12F000C0AFFB01C042
:10365E00B0FB02C0B1FB03C0B2FBB3CBB5FB29EC90
:10366E0008F0AFCB04F0B0CB05F0B1CB06F0B2CB87
:10367E0007F09FEC06F0000E046E000E056E000EB5
:10368E00066E7E0E076EF3EC03F01FEC12F000C018
:10369E00A9FB01C0AAFB02C0ABFB03C0ACFB9C5153
:1036AE009D1142E00A0E046E000E056E066E076E48
:1036BE00A9CB00F0AACB01F0ABCB02F0ACCB03F060
:1036CE00B7EC0BF008C000F009C001F00AC002F020
:1036DE000BC003F0000E046E031808E1045002182C
:1036EE0005E10450011802E10050000A1DE10A0E26
:1036FE00046E000E056E066E076EA9CB00F0AACB07
:10370E0001F0ABCB02F0ACCB03F0B7EC0BF000C08A
:10371E00A9FB01C0AAFB02C0ABFB03C0ACFB010EB0
:10372E009C5F000E9D5BBBD7800E006E800E9D19B8
:10373E00005C02E19C510C0816E39CCBB5FB8BECB4
:10374E0010F0A3CB04F0A4CB05F0A5CB06F0A6CBCE
:10375E0007F0F3EC03F000C0A3FB01C0A4FB02C012
:10376E00A5FB03C0A6FBA3CB00F0A4CB01F0A5CB19
:10377E0002F0A6CB03F0046A056A066A076A12EC29
:10378E0008F0000ED8A4010E006E0052D8B477D007
:10379E00A3CB00F0A4CB01F0A5CB02F0A6CB03F097
:1037AE001FEC12F0000E046E031808E1045002180C
:1037BE0005E10450011802E10050000A60E1800E9C
:1037CE00006E800EA819005C02E1A751010857E2B5
:1037DE00A7CBB5FB29EC08F000C004F001C005F042
:1037EE0002C006F003C007F0A3CB00F0A4CB01F09B
:1037FE00A5CB02F0A6CB03F0F9EC0AF05F0E046E37
:10380E00700E056E090E066E810E076ECFEC0EF071
:10381E00010ED8B0000E006E005206E0090E0B012C
:10382E00A75F000EA85B05D00B01080EA75F000E68
:10383E00A85BA7CBB5FB29EC08F000C004F001C0D3
:10384E0005F002C006F003C007F0A3CB00F0A4CB36
:10385E0001F0A5CB02F0A6CB03F0F9EC0AF01FECB9
:10386E0012F000C0A9FB01C0AAFB02C0ABFB03C053
:10387E00ACFB0B01A36BA46BA56BA66B38D0A3CBD3
:10388E0000F0A4CB01F0A5CB02F0A6CB03F01FEC09
:10389E0012F000C0A9FB01C0AAFB02C0ABFB03C023
:1038AE00ACFBA9CB00F0AACB01F0ABCB02F0ACCBBA
:1038BE0003F00CEC12F000C004F001C005F002C0E1
:1038CE0006F003C007F0A3CB00F0A4CB01F0A5CB0C
:1038DE0002F0A6CB03F0BBEC12F000C0A3FB01C0BC
:1038EE00A4FB02C0A5FB03C0A6FBA76BA86B010E31
:1038FE009E6F9E510A0A34E09ECB00F0000E016EC0
:10390E00026E036E00360090013602360336003624
:10391E0000900136023603363F0E0024F66E8E0EF0
:10392E000120F76E000E0220F86E0900F5CF01F0AF
:10393E000900F5CF02F00900F5CF03F00900F5CF2D
:10394E0004F00450AC5D08E10350AB5D05E102509C
:10395E00AA5D02E10150A95D01E202D09E2BC9D7FA
:10396E009E519C25006E000E9D21016EA7510026D2
:10397E00A851012200509F5F0150A05BA2B704D056
:10398E009C519D1101E104D0010E9F5F000EA05BC2
:10399E00030EA115006EA2CB01F0000E0116005011
:1039AE00011004E0010E9F5F000EA05BA1A539D0AF
:1039BE00A1A312D0A1A103D02D0E966F02D02B0E73
:1039CE00966F8DCBE1FF8ECBE2FF96CBE6FF8D4B54
:1039DE008E2BAD4BAE2B0CD0A1A10AD08DCBE1FF1F
:1039EE008ECBE2FF200EE66E8D4B8E2BAD4BAE2BAB
:1039FE00800E006E800EA019005C02E19F5100083F
:103A0E000FE28DCBE1FF8ECBE2FF300EE66E8D4BDB
:103A1E008E2BAD4BAE2B010E9F5F000EA05BE8D739
:103A2E003AD0A1B718D0800E006E800EA019005C9F
:103A3E0002E19F5100080FE28DCBE1FF8ECBE2FF3A
:103A4E00200EE66E8D4B8E2BAD4BAE2B010E9F5F77
:103A5E00000EA05BE8D7A1A312D0A1A103D02D0E1A
:103A6E00976F02D02B0E976F8DCBE1FF8ECBE2FFBF
:103A7E0097CBE6FF8D4B8E2BAD4BAE2B0CD0A1A171
:103A8E000AD08DCBE1FF8ECBE2FF200EE66E8D4B82
:103A9E008E2BAD4BAE2B9ECB00F09E0700524CE012
:103AAE009ECB00F0000E016E026E036E003600908B
:103ABE0001360236033600360090013602360336E2
:103ACE003F0E0024F66E8E0E0120F76E000E0220C1
:103ADE00F86E0900F5CF04F00900F5CF05F00900E6
:103AEE00F5CF06F00900F5CF07F0A9CB00F0AACB71
:103AFE0001F0ABCB02F0ACCB03F0B7EC0BF00A0E3F
:103B0E00046E000E056E066E076EB7EC0BF008C065
:103B1E0000F009C001F00AC002F00BC003F0300E35
:103B2E0000268DCBE1FF8ECBE2FF00C0E6FF8D4B72
:103B3E008E2BAD4BAE2BAFD7800E006E800EA8191C
:103B4E00005C02E1A75100080FE28DCBE1FF8ECBA6
:103B5E00E2FF300EE66E8D4B8E2BAD4BAE2B010E73
:103B6E00A75F000EA85BE8D7800E000A006E800EDD
:103B7E009D19005C02E19C51080803E2080E9E6F3D
:103B8E0002D09CCB9EFB9E519C5F000E9D5B9E5374
:103B9E0003E1A2B701D00AD08DCBE1FF8ECBE2FFBD
:103BAE002E0EE66E8D4B8E2BAD4BAE2B9ECBB5FBFC
:103BBE0029EC08F0A3CB04F0A4CB05F0A5CB06F0BE
:103BCE00A6CB07F09FEC06F0F2EC0FF000C0A9FBBD
:103BDE0001C0AAFB02C0ABFB03C0ACFB9E534DE081
:103BEE009E079ECB00F0000E016E026E036E003635
:103BFE00009001360236033600360090013602364A
:103C0E0003363F0E0024F66E8E0E0120F76E000E68
:103C1E000220F86E0900F5CF04F00900F5CF05F08B
:103C2E000900F5CF06F00900F5CF07F0A9CB00F09B
:103C3E00AACB01F0ABCB02F0ACCB03F0B7EC0BF0A0
:103C4E000A0E046E000E056E066E076EB7EC0BF0D4
:103C5E0008C000F009C001F00AC002F00BC003F06A
:103C6E00300E00268DCBE1FF8ECBE2FF00C0E6FFCB
:103C7E008D4B8E2BAD4BAE2BB1D79C519D110FE0C2
:103C8E008DCBE1FF8ECBE2FF300EE66E8D4B8E2B91
:103C9E00AD4BAE2B010E9C5F000E9D5BEED7A1A728
:103CAE001AD0800E006E800EA019005C02E19F51AA
:103CBE00000811E28DCBE1FF8ECBE2FF200EE66E07
:103CCE008D4B8E2BAD4BAE2B010E9F5F000EA05B6E
:103CDE009F51A011EFE1C4EF12F0C00EA115016EBD
:103CEE00A2CB02F0000E0216000E021802E1000E28
:103CFE000118D8A480D0A1A927D092CBE9FF93CBED
:103D0E00EAFFEECF00F0EECF01F000C0E9FF01C0F8
:103D1E00EAFFEECFA9FBEECFAAFBEECFABFBEECFC9
:103D2E00ACFB92CBE9FF93CBEAFF040EEE24006EC0
:103D3E00000EEE20016E92CBE1FF93CBE2FF00C0AE
:103D4E00E6FF01C0E6FF2FD092CBE9FF93CBEAFF4F
:103D5E00EECF00F0EECF01F000C0E9FF01C0EAFFA8
:103D6E00EECF00F0EECF01F0000E01BEFF0E026EA0
:103D7E00036E00C0A9FB01C0AAFB02C0ABFB03C0CF
:103D8E00ACFB92CBE9FF93CBEAFF020EEE24006E62
:103D9E00000EEE20016E92CBE1FF93CBE2FF00C04E
:103DAE00E6FF01C0E6FF800EAC19006E800E005CCF
:103DBE0008E1000EAB5D05E1000EAA5D02E1000E0A
:103DCE00A95D18E2030EA113000EA213006A016A88
:103DDE00026A036AA951005EAA51015AAB51025AF6
:103DEE00AC51035A00C0A9FB01C0AAFB02C0ABFB39
:103DFE0003C0ACFB4ED0A1A927D092CBE9FF93CB49
:103E0E00EAFFEECF00F0EECF01F000C0E9FF01C0F7
:103E1E00EAFFEECFA9FBEECFAAFBEECFABFBEECFC8
:103E2E00ACFB92CBE9FF93CBEAFF040EEE24006EBF
:103E3E00000EEE20016E92CBE1FF93CBE2FF00C0AD
:103E4E00E6FF01C0E6FF25D092CBE9FF93CBEAFF58
:103E5E00EECF00F0EECF01F000C0E9FF01C0EAFFA7
:103E6E00EECFA9FBEECFAAFB000EAB6FAC6F92CBE1
:103E7E00E9FF93CBEAFF020EEE24006E000EEE2059
:103E8E00016E92CBE1FF93CBE2FF00C0E6FF01C0D3
:103E9E00E6FF000E9D1902E1000E9C190FE1000EC7
:103EAE00006EAC1908E10050AB1905E10050AA19DB
:103EBE0002E1A951000A02E19C4B9D2BC00EA115F7
:103ECE00006E00C005F0AED0010E9E6F9E510A0A24
:103EDE0034E09ECB00F0000E016E026E036E0036D3
:103EEE000090013602360336003600900136023657
:103EFE0003363F0E0024F66E8E0E0120F76E000E76
:103F0E000220F86E0900F5CF01F00900F5CF02F09E
:103F1E000900F5CF03F00900F5CF04F00450AC5DB5
:103F2E0008E10350AB5D05E10250AA5D02E10150CC
:103F3E00A95D01E202D09E2BC9D782D0010E9E6FE1
:103F4E009E51080A34E09ECB00F0000E016E026E08
:103F5E00036E0036009001360236033600360090AE
:103F6E00013602360336670E0024F66E8E0E0120E1
:103F7E00F76E000E0220F86E0900F5CF01F0090071
:103F8E00F5CF02F00900F5CF03F00900F5CF04F0EC
:103F9E000450AC5D08E10350AB5D05E10250AA5D33
:103FAE0002E10150A95D01E202D09E2BC9D748D093
:103FBE00010E9E6F9E510C0A34E09ECB00F0000E57
:103FCE00016E026E036E0036009001360236033625
:103FDE00003600900136023603360F0E0024F66EC0
:103FEE008E0E0120F76E000E0220F86E0900F5CF3E
:103FFE0001F00900F5CF02F00900F5CF03F009003A
:10400E00F5CF04F00450AC5D08E10350AB5D05E163
:10401E000250AA5D02E10150A95D01E202D09E2B81
:10402E00C9D70ED00550000AD8B44ED70550C00AD5
:10403E00D8B44AD70550800A81E00550400AB8E04E
:10404E00800E006E800E9D19005C02E19C519E5DFB
:10405E0003E29CCB9EFB0DD0800E9D19006E800E50
:10406E00005C02E19E519C5D04E29ECB9CFB000E27
:10407E009D6F9F51A0110EE0030EA115006EA2CBF5
:10408E0001F0000E01160050011004E0010E9F5FBA
:10409E00000EA05B800E9D19006E800EA019005CB4
:1040AE0002E19F519C5D05E29C519F5F9D51A05B7B
:1040BE0002D09F6BA06BC40EA115016EA251080B0E
:1040CE00026E0250080A02E1400E011808E19F51EB
:1040DE00A01104E0010E9F5F000EA05B1CD0C00E6D
:1040EE00A115016EA251080B026E0250080A02E1E0
:1040FE00800E011810E1800E006E800EA019005C7B
:10410E0002E19F51020805E2020E9F5F000EA05BC6
:10411E0002D09F6BA06BA1A55DD0A1A312D0A1A1CF
:10412E0003D02D0E986F02D02B0E986F8DCBE1FF22
:10413E008ECBE2FF98CBE6FF8D4B8E2BAD4BAE2B8D
:10414E0034D0A1A10BD08DCBE1FF8ECBE2FF200EA0
:10415E00E66E8D4B8E2BAD4BAE2B27D0C00EA11520
:10416E00016EA251080B026E0250080A02E1800E87
:10417E0001181BE18DCBE1FF8ECBE2FF300EE66E18
:10418E008D4B8E2BAD4BAE2BA1AB03D0580E996F32
:10419E0002D0780E996F8DCBE1FF8ECBE2FF99CBDB
:1041AE00E6FF8D4B8E2BAD4BAE2B9F51A01111E028
:1041BE008DCBE1FF8ECBE2FF300EE66E8D4B8E2B5C
:1041CE00AD4BAE2B010E9F5F000EA05B9F51A01159
:1041DE00EFE174D09F51A01113E0A1B711D08DCB98
:1041EE00E1FF8ECBE2FF200EE66E8D4B8E2BAD4B9C
:1041FE00AE2B010E9F5F000EA05B9F51A011EFE151
:10420E00A1A312D0A1A103D02D0E9A6F02D02B0E16
:10421E009A6F8DCBE1FF8ECBE2FF9ACBE6FF8D4BF3
:10422E008E2BAD4BAE2B0CD0A1A10AD08DCBE1FFC6
:10423E008ECBE2FF200EE66E8D4B8E2BAD4BAE2B52
:10424E00C00EA115016EA251080B026E0250080A93
:10425E0002E1400E01180BE18DCBE1FF8ECBE2FFA8
:10426E00300EE66E8D4B8E2BAD4BAE2B27D0C00E87
:10427E00A115016EA251080B026E0250080A02E14E
:10428E00800E01181BE18DCBE1FF8ECBE2FF300ECD
:10429E00E66E8D4B8E2BAD4BAE2BA1AB03D0580ED5
:1042AE009B6F02D0780E9B6F8DCBE1FF8ECBE2FF22
:1042BE009BCBE6FF8D4B8E2BAD4BAE2B800E006E47
:1042CE00800E9D19005C02E19C519E5D0BE28DCB30
:1042DE00E1FF8ECBE2FF300EE66E8D4B8E2BAD4B9B
:1042EE00AE2BECD79CCB00F09DCB01F0010E9C5F6A
:1042FE00000E9D5B00500110D8B42AD1C00EA1153E
:10430E00006E00C0AFFB0AD19CCB00F09DCB01F03C
:10431E00000E9DBFFF0E026E036E0036009001363A
:10432E0002360336003600900136023603363F0E53
:10433E000024F66E8E0E0120F76E000E0220F86E2F
:10434E000900F5CF04F00900F5CF05F00900F5CF0F
:10435E0006F00900F5CF07F0A9CB00F0AACB01F0CB
:10436E00ABCB02F0ACCB03F0B7EC0BF00A0E046E45
:10437E00000E056E066E076EB7EC0BF008C000F06F
:10438E0009C001F00AC002F00BC003F0300E002489
:10439E009E6FD3D0A1AB45D09CCB00F09DCB01F04E
:1043AE00000E9DBFFF0E026E036E003600900136AA
:1043BE000236033600360090013602360336670E9B
:1043CE000024F66E8E0E0120F76E000E0220F86E9F
:1043DE000900F5CF04F00900F5CF05F00900F5CF7F
:1043EE0006F00900F5CF07F0A9CB00F0AACB01F03B
:1043FE00ABCB02F0ACCB03F0B7EC0BF00F0E00160C
:10440E00000E011602160316B10E0024F66E8E0E65
:10441E000120F76E000E0220F86E0900F5CF9EFB0C
:10442E0044D09CCB00F09DCB01F0000E9DBFFF0E43
:10443E00026E036E003600900136023603360036E9
:10444E000090013602360336670E0024F66E8E0E8D
:10445E000120F76E000E0220F86E0900F5CF04F071
:10446E000900F5CF05F00900F5CF06F00900F5CFEC
:10447E0007F0A9CB00F0AACB01F0ABCB02F0ACCB8E
:10448E0003F0B7EC0BF00F0E0016000E011602161D
:10449E000316A00E0024F66E8E0E0120F76E000E8F
:1044AE000220F86E0900F5CF9EFB47D09CCB00F0A2
:1044BE009DCB01F0000E9DBFFF0E026E036E003607
:1044CE000090013602360336003600900136023671
:1044DE0003360F0E0024F66E8E0E0120F76E000EC0
:1044EE000220F86E0900F5CF04F00900F5CF05F0B3
:1044FE000900F5CF06F00900F5CF07F0A9CB00F0C3
:10450E00AACB01F0ABCB02F0ACCB03F0B7EC0BF0C7
:10451E00070E00149E6F300E9E270FD0AF51000A6B
:10452E00D8B4F2D6AF51C00AD8B4EED6AF51800A85
:10453E00D8B430D7AF51400AB9E08DCBE1FF8ECB66
:10454E00E2FF9ECBE6FF8D4B8E2BAD4BAE2BCAD62C
:10455E00A1A71AD0800E006E800EA019005C02E199
:10456E009F51000811E28DCBE1FF8ECBE2FF200EB2
:10457E00E66E8D4B8E2BAD4BAE2B010E9F5F000E5C
:10458E00A05B9F51A011EFE1C4EF12F0ADCB00F094
:06459E00AECB01F012009B
:1045A4000B6A0C6A0A6A0350D8B407EF23F00A9E18
:1045B400028E860E035E03BEE5EF22F0D8B4E5EF6B
:1045C40022F00AEF23F0036C080E035CD8A0F3EF8B
:1045D40022F0036E0236026A0350D8A4D890FCEF8E
:1045E40022F00350D8B4FCEF22F0D8900232032E0C
:1045F400F7EF22F00BBC02A007EF23F0D8A007EFDF
:1046040023F0022AD8B411EF23F0016A17EF23F044
:104614000B800BAE1BEF23F0016A1BEF23F0010E9E
:104624000C6E12EC06F01DEF23F0000E0C6E1DEF65
:0C46340023F0FF0E0C6E0250006E12000E
:1046400000C008F00150006E016A026A036A0B6A3A
:104650000C6A016A026A036A960E036E0A6A00AE69
:1046600038EF23F0081E001E082AD8B4002A0A8E4C
:1046700000C001F008C000F0086A026A8EEC0EF07B
:02468000120026
:10468200086A096A100E0C6E0134083609360450A5
:10469200085E0550D8A0053C095ED8B007D004508A
:1046A20008260550D8B0053C0926D89000360136B8
:0646B2000C2EEAD71200F5
:1046B8000B01906B030E905D0AE290518E25E16E1E
:1046C800000E8F21E26E200EE66E902BF3D79051EC
:1046D8008E25E16E000E8F21E26EE66A90079051FA
:1046E8008E25916F000E8F21926F0A0E046E8DCB6E
:1046F80000F003EC06F008C000F0300E002691CB65
:10470800E1FF92CBE2FF00C0E6FF0A0E046E8DCBFC
:1047180000F003EC06F000C08DFB0050000A01E138
:0847280002D09007DCD712005B
:104730000450000A12E10550000A0FE10650000A79
:104740000CE10750000A09E1FF0E006EFF0E016E3A
:10475000FF0E026E7F0E036E99D00C6A07BE0C2A04
:104760000D6A0B6A0A6A096A086A0350021001108E
:104770000010D8B485D0035007180E6E0EBE0D1E63
:1047800007AE0BD0041E051E061E071E042AD8B451
:10479000052AD8B4062AD8B4072A03AE0BD0001EC7
:1047A000011E021E031E002AD8B4012AD8B4022A10
:1047B000D8B4032A035007100E6E0EBE1DD056EC5F
:1047C0000DF00CBE36D00DAE5BD0001E011E021ED9
:1047D000031E002AD8B4012AD8B4022AD8B4032A66
:1047E000081E091E0A1E0B1E082AD8B4092AD8B4AE
:1047F0000A2AD8B40B2A44D007AE15D003BE0DD078
:1048000003500B6E02500A6E0150096E0050086E84
:10481000036A026A016A006AD6D7036A026A016AF9
:10482000006A002A000C031E021E011E001E0C8ED0
:10483000C6D7082AD8B4092AD8B40A2AD8B40B2A69
:104840000450085CD8A4BFD70550095CD8A4BBD7D6
:1048500006500A5CD8A4B7D707500B5CD8A4B3D7CE
:104860000B6A0A6A096A086A002AD8B4012AD8B40D
:10487000022AD8B4032A03AEA6D70E6A0E88FF0C0C
:0E4880000E6A0CA002D082EC0EF0000F1200A7
:10488E008DCBC9FFC7B002D00000FCD7C9CF00F056
:02489E00120006
:1048A000C69A8E0E0B01446F480E456F8D0E466FF3
:1048B0000B0E476FC20E486F070E496FBE0E4A6F50
:1048C0000B0E4B6F949A8D51040A02E1948601D02D
:1048D00094969488C66AC79CC79E8D51C6128F5104
:1048E000C6128E51C7128F5305E09051000AD8B4FA
:0E48F000C78C03D09053D8A4C78CC68A120080
:1048FE000B018D51070A05E10401116B09014B6B88
:10490E001DD10B018D51080A1AE1060E0801F403A0
:10491E00F3CF01F0F4CF02F0800E006E800E02187D
:10492E00005C03E1015009014B5D09E3060E08012D
:10493E00F403F3CF00F0005009014B5FFFD00B01E1
:10494E008D510D0A03E109014B6BF8D00B018D510E
:10495E000A0A27E1F4C800F00036009000360090F5
:10496E0000360090005004011125026E02C011F4B1
:10497E00070E0801F403F3CF00F0F4CF01F002505C
:10498E000024026E000E0120036E800E0318006ECE
:10499E00800E005C02E1400E025C02E30401116B2A
:1049AE00CDD0200E0B018D5D04E38D517E0801E309
:1049BE0002D03F0E8D6F8E6B050E8E5D5FE2200E68
:1049CE008D5D006E016A000E015A050E046E000E1A
:1049DE00056E36EC0FF08E510026000E0122980E59
:1049EE000024F66E8B0E0120F76E000EF86E000E90
:1049FE0001BEFF0EF8220900F5CF90FB8F6B070E5C
:104A0E008F5D3AE290A104D0010E0401666F02D0D0
:104A1E000401666B0801F451010A0EE10B018E517F
:104A2E0009014B250B01D66F8F51040111250B0186
:104A3E00D76F90EC01F01BD00B018E510801F403DF
:104A4E00F3CF00F0005009014B250B01B56F8F51CC
:104A5E000801F403F3CF00F00050040111250B01FF
:104A6E00B66FF4C8B7FBF4C8B8FB6CEC0FF00B01D3
:104A7E008F2B9033909FC3D78E2B9ED70401666BDE
:104A8E00050E0801F403F3CF00F0005009014B2589
:104A9E000B01B56F11C4B6FBF4C8B7FB070E0801C6
:104AAE00F403F3CFB8FB6CEC0FF0060E0801F40321
:104ABE00F3CF00F0005009014B270401EC533EE008
:104ACE00050E0801F403F3CF00F0F4CF01F0090155
:104ADE004B510024026E000E0120036E800E03184F
:104AEE00006E800E005C02E1800E025C27E34B6BD1
:104AFE00F4C800F0003600900036009000360090AA
:104B0E00005004011125026E02C011F4070E0801B7
:104B1E00F403F3CF00F0F4CF01F002500024026E44
:104B2E00000E0120036E800E0318006E800E005CD6
:0E4B3E0002E1400E025C02E30401116B120062
:104B4C0065EC07F043CBB5FB8DEC0FF00B01B56BAF
:104B5C008DEC0FF08DCBB5FB8DEC0FF06AEC0FF0FC
:024B6C00120035
:104B6E000B01906B916B8ECB00F08FCB01F0000E92
:104B7E00026E036E640E046E000E056E066E076EF8
:104B8E002DEC0DF000C0F5F801C0F6F802C0F7F8F4
:104B9E0003C0F8F824C304F025C305F0000E066E1A
:104BAE00076EB7EC0BF000C0F5F801C0F6F802C0C6
:104BBE00F7F803C0F8F8000E035C08E1000E025C83
:104BCE0005E1030E015C02E1FF0E005C08E3FF0E3F
:104BDE000801F56F030EF66F000EF76FF86FF5C84C
:104BEE0090FBF6C891FB0B018D51010A61E1010E9C
:104BFE000801F515016EF6C802F0F7C803F0F8C803
:104C0E0004F0000E021603160416000E006E0418B1
:104C1E0008E10050031805E10050021802E10150AE
:104C2E00010A03E10F015D8902D00F015D99020EA9
:104C3E000801F515016EF6C802F0F7C803F0F8C8C2
:104C4E0004F0000E021603160416000E006E041871
:104C5E0008E10050031805E10050021802E101506E
:104C6E00020A03E10F015D8B02D00F015D9BF5C8B7
:104C7E0000F0F6C801F0F7C802F0F8C803F00332EE
:104C8E00023201320032039E03320232013200320E
:104C9E00039E00C0F5F801C0F6F802C0F7F803C095
:104CAE00F8F800C05EFF90CB00F091CB01F065D01C
:104CBE000B018D51020A61E1010E0801F515016E1D
:104CCE00F6C802F0F7C803F0F8C804F0000E02169A
:104CDE0003160416000E006E041808E100500318A7
:104CEE0005E10050021802E10150010A03E10F0133
:104CFE00548902D00F015499020E0801F515016E68
:104D0E00F6C802F0F7C803F0F8C804F0000E021659
:104D1E0003160416000E006E041808E10050031866
:104D2E0005E10050021802E10150020A03E10F01F1
:104D3E00548B02D00F01549BF5C800F0F6C801F059
:104D4E00F7C802F0F8C803F0033202320132003223
:104D5E00039E0332023201320032039E00C0F5F888
:104D6E0001C0F6F802C0F7F803C0F8F800C055FF0E
:0C4D7E0090CB00F091CB01F000D01200AF
:104D8A00830EC2168DCB00F00036009000360090DC
:104D9A000050C212CAEC0EF0C282C2A201D0FDD7E4
:104DAA00C4CF01F0006A00C08EFB01C08FFBC35064
:104DBA000012000E011200C08EFB01C08FFB000E14
:104DCA000014026E0150800B036E000E031802E1FC
:104DDA00000E021803E00B018E6B8F6B8ECB00F076
:064DEA008FCB01F0120066
:104DF0000050086E0150006E016A026A036A0B6A75
:104E00000C6A960E036E0A6A00C001F008C000F03A
:0A4E1000086A026A8EEC0EF0120030
:104E1A00A69C8ECBAAFF8DCBA9FFA69EA680A8CF63
:044E2A0000F0120082
:104E2E006CCBE9FF6DCBEAFFEE501F0820E20B01C1
:104E3E006B51010A0CE16CCBE9FF6DCBEAFFEECFB3
:104E4E00ADFF6C4B6D2BACB201D0FDD70FD00B016B
:104E5E006B51020A0BE16CCBE9FF6DCBEAFFEECF93
:104E6E0073FF6C4B6D2B72B201D0FDD7D9D71200E8
:104E7E006CCB00F00032009E0032009E0032009E8D
:104E8E000032009EC20E0024F66E8E0EF76E000EDD
:104E9E00F722000EF86E000EF8220900F5CF00F092
:104EAE006DCBE1FF6ECBE2FF00C0E6FF010E0B0102
:104EBE006D25E16E000E6E21E26E0F0E6C15006E0A
:104ECE00C20E0024F66E8E0EF76E000EF722000E46
:104EDE00F86E000EF8220900F5CF00F000C0E6FFD4
:104EEE00020E6D25E16E000E6E21E26E6BCB00F0B0
:104EFE000032009E0032009E0032009E0032009E64
:104F0E00C20E0024F66E8E0EF76E000EF722000E05
:104F1E00F86E000EF8220900F5CF00F000C0E6FF93
:104F2E00030E6D25E16E000E6E21E26E0F0E6B15F7
:104F3E00006EC20E0024F66E8E0EF76E000EF72275
:104F4E00000EF86E000EF8220900F5CF00F000C03A
:104F5E00E6FF040E6D25E16E000E6E21E26EE66A2E
:024F6E0012002F
:104F70000B01706B716B6BCB72FB000E6BBFFF0E86
:104F8000736F800E6B19006E800E000A005C0AE2DF
:104F9000704B712B6B510008726F736B000E6BBFFF
:104FA000FF0E735B72CB8DFB6CCB8EFB6DCB8FFBDF
:104FB0005CEC23F0040E6E6F000E6F6F000E006E3F
:104FC0006F51005C02E16E51000819E26E516C25D0
:104FD000E16E6F516D21E26E010E6E5D006E000E8E
:104FE0006F59016E00506C25E96E01506D21EA6E1B
:104FF000EECFE6FF010E6E5F000E6F5BDFD76CCB6E
:10500000E1FF6DCBE2FF200EE66E705171111AE0E8
:105010006E6B6F6B6E516C25E96E6F516D21EA6E90
:10502000EE50200A03E16E4B6F2BF4D7010E6E5F3A
:10503000000E6F5B6E516C25E16E6F516D21E26E5B
:065040002D0EE66E1200C9
:105046006BCB02F06CCB03F002C000F003C001F0A2
:10505600024A032A00C0E9FF01C0EAFFEE5201E05E
:10506600F3D70B016B51025C006E6C510358016E55
:0A507600010E005E000E015A120048
:10508000020E0B018D6F800E8E6F8F6B906B08DCA4
:10509000340E0C6EF10E0D6E0D2EFED70C2EFCD7BD
:1050A000000000008B926CCB00F0016A00C08DFB09
:1050B00047EC24F000C06DFB6BCB8DFB47EC24F07C
:1050C0008B826DCB03F0026A000E016E0250002647
:0650D00003500122120052
:1050D6000B016F6B050E6F5D0AE26F516D25E16E78
:1050E600000E6E21E26E200EE66E6F2BF3D76F5127
:1050F6006D25E16E000E6E21E26EE66A6F076F5156
:105106006D25706F000E6E21716F0A0E046E000E13
:10511600056E6BCB00F06CCB01F041EC23F008C0C0
:1051260000F009C001F0300E002670CBE1FF71CB14
:10513600E2FF00C0E6FF0A0E046E000E056E6BCBA2
:1051460000F06CCB01F041EC23F000C06BFB01C01A
:105156006CFB000E011802E1000E001801E102D0FE
:065166006F07CDD7120017
:10516C000B016D6B6D516B25E96E000E6C21EA6EB7
:10517C00EE50000A21E06D516B25E96E000E6C219A
:10518C00EA6EEE50200A0AE109014B51000A06E1D1
:10519C000401EC5303E00B016D2B0DD00B016D5191
:1051AC006B25E96E000E6C21EA6EEECF8DFB7FEC69
:0A51BC0024F00B016D2BD6D7120072
:1051C60000C06DFB01C06EFB0B018D6B8E6B22DE8A
:1051D60000C06FFB000E706F6FCB01F0006A00C05D
:1051E6006FFB01C070FB010E8D6F000E8E6F12DE1D
:1051F600000E016E6F5100267051012200C06FFB38
:1052060001C070FB020E8D6F000E8E6F03DE00C0B4
:1052160071FB030E8D6F000E8E6FFCDD00C072FBFE
:10522600040E8D6F000E8E6FF5DD00C073FB050E4C
:10523600006E6DCBE1FF6ECBE2FF6F0EE96E0B0EDB
:0C524600EA6EEECFE6FF0006FCE112006D
:0A5252000F01586B5799579B12008B
:10525C008A0E0B01366F4D0E376F8D0E386F0B0E9D
:10526C00396FC26A1C1C006E0050C1160F0EC012A2
:06527C00C08EC28012008A
:10528200898C030E0B6E080E0C6E770E0D6E0D2EB2
:10529200FED70C2EFCD70B2EFAD7899C8A86030EDA
:1052A2000B6E080E0C6E770E0D6E0D2EFED70C2EA9
:1052B200FCD70B2EFAD78A968A88030E0B6E080E3D
:1052C2000C6E770E0D6E0D2EFED70C2EFCD70B2E0C
:0652D200FAD78A981200D1
:1052D800BB50010F006E016A000E01226BCB04F077
:1052E800000E056E36EC0FF0060E026E00C004F0DC
:1052F80001C005F0025005E005320432059EFF0F9B
:10530800FAD7040E016E04C000F0015004E0003624
:105318000090FF0FFBD7300E0014036E04C000F09E
:1053280005C001F001320032019E01320032019EB7
:1053380000C058FF0F0E0F015717035057131200E4
:105348000C0E0F01546F48954885FF0E526F51851A
:10535800020E0B018D6F6BCB8EFB6CCB8FFB03DCCE
:02536800120031
:10536A000B016B51010A0BE10A0EAD6EACB201D012
:10537A00FDD70D0EAD6EACB201D0FDD70AD00A0E24
:10538A00736E72B201D0FDD70D0E736E72B201D078
:04539A00FDD7120029
:10539E000C0E0F015D6F499D498DFF0E526F5185A9
:1053AE00010E0B018D6F6BCB8EFB6CCB8FFBB7ECB5
:0453BE0025F01200C4
:1053C200210E0B018D6FA6EC25F00B018D6BA6EC67
:1053D20025F07F0E0B018D6FA6EC25F0220E0B013E
:1053E2008D6FA6EC25F00B018D6BA6EC25F0070E58
:1053F2000B018D6FA6EC25F00B016B6B6C6B040E31
:105402006C5D02E1000E6B5D28E265EC07F043CBB8
:10541200B5FB8DEC0FF0400E0B01B56F8DEC0FF06C
:105422000B016D6B100E6D5D0FE2F40E6B25E96ED4
:10543200040E6C21EA6EEECFB5FB8DEC0FF00B0182
:105442006B4B6C2B6D2BEED7010E6B5F000E6C5B02
:0C5452006AEC0FF06B4B6C2BD2D71200F1
:10545E00800E0B016B5D04E2400E6C5D01E201D02B
:0C546E0004D06BCB4BF96CCB11F4120096
:0C547A009390BA840C0E0F01571312001F
:10548600016A026A800E0218006E800E040A005C31
:1054960002E1000E015C0AE2F40E0124E16E040E44
:0E54A6000220E26EE66A014A022AECD71200EA
:1054B4000B01746B756B6C516E5D706F6D516F5930
:1054C400716F6CCB72FB6DCB73FB6B51000A05E102
:1054D400D20E746F000E756F07D06B51010A04E190
:1054E400AA0E746F000E756F000E0A01016F000E94
:1054F400026F200E036F800E046F9A0E2F6F990EA9
:10550400306F190E316F7E0E326F000E056F000E74
:10551400066F000E076F7F0E086F70CB00F071CB23
:1055240001F020EC23F0000E046E000E056EA00EB8
:10553400066E800E076E9FEC06F000C09EF901C057
:105544009FF902C0A0F903C0A1F90B0170515425C1
:10555400016E71515521026E01C054FB02C055FB0E
:10556400800E09016819006E800E0218005C02E1C9
:105574000150675D04E267C954FB68C955FB800E9E
:105584000B015519006E800E09016A19005C03E1D4
:1055940069510B01545D04E269C954FB6AC955FBA6
:1055A400000E0A012F190B01766F000E0A01301943
:1055B4000B01776F800E0A0131190B01786F000E11
:1055C4000A0132190B01796F54CB00F055CB01F06D
:1055D40020EC23F076CB04F077CB05F078CB06F003
:1055E40079CB07F09FEC06F000C07AFB01C07BFB8F
:1055F40002C07CFB03C07DFB7ACB63F97BCB64F9EF
:105604007CCB65F97DCB66F9000E0A0105190B0107
:10561400766F000E0A0106190B01776F800E0A01DE
:1056240007190B01786F000E0A0108190B01796F35
:105634007251525D006E73515359016E20EC23F088
:1056440076CB04F077CB05F078CB06F079CB07F076
:105654009FEC06F000C076FB01C077FB02C078FB2C
:1056640003C079FB76CB4CF977CB4DF978CB4EF967
:1056740079CB4FF972CB52FB73CB53FB9EC900F02D
:105684009FC901F0A0C902F0A1C903F07ACB04F0CC
:105694007BCB05F07CCB06F07DCB07F0F3EC03F07D
:1056A40076CB04F077CB05F078CB06F079CB07F016
:1056B400F3EC03F000C076FB01C077FB02C078FB7B
:1056C40003C079FB76CB6BF977CB6CF978CB6DF9AA
:1056D40079CB6EF974CB00F075CB01F0F8EC26F0C1
:1056E40076CB04F077CB05F078CB06F079CB07F0D6
:1056F400CFEC0EF0010ED8B0000E006E00520EE09A
:1057040074CB00F075CB01F0F8EC26F000C06BF917
:1057140001C06CF902C06DF903C06EF9046A056A30
:10572400066A076A6BC900F06CC901F06DC902F022
:105734006EC903F0CFEC0EF0010ED8B0000E006E6F
:10574400005205E009016B6B6C6B6D6B6E6B6BC982
:1057540000F06CC901F06DC902F06EC903F0D2EC1F
:0857640022F0000E016E12009C
:10576C000B6A0350D8B4FCEF2BF002500A6E028E79
:10577C008E0E035E03AE00EF2CF0036C080E035C80
:10578C00D8A0DBEF2BF0036E013602C001F0026AE9
:10579C00080E035CD8A0DBEF2BF0036E0136016A18
:1057AC000350D8A4D890E5EF2BF00350D8B4E5EF14
:1057BC002BF0D89002320132032EDFEF2BF00BBC12
:1057CC0001A0F2EF2BF0D8A0F2EF2BF0012AD8B405
:1057DC00022A02BE0FEF2CF00AAE15EF2CF0021EBF
:1057EC00011E012AD8B4022A15EF2CF0026A016AB4
:1057FC0015EF2CF00B800BAE19EF2CF0026A0AAEF1
:10580C0019EF2CF0FF0E026E016E0A36023219EF00
:10581C002CF0010E0C6E12EC06F01BEF2CF0000EAF
:10582C000C6E1BEF2CF0FF0E0C6E0150006E025034
:04583C00016E1200E7
:10584000700E0B01746F0B0E756F6BCB8DFB6CCBF9
:105850008EFB6DCB8FFB6ECB90FB6FCB91FB740EF1
:10586000926F0B0E936FBFEC12F000C072FB01C081
:1058700073FB00506B25E16E01506C21E26EE66A0D
:0A58800072CB00F073CB01F01200B0
:10588A000B01706B716B726B736B746B756B766BF0
:10589A00776B786B796B7A6B7B6B7C6B7D6B7E6BD2
:1058AA007F6B806B816B826B836B846B856B866B82
:1058BA00876B886B6DCBE9FF6ECBEAFFEECF80FB7F
:1058CA00EECF81FB000E83BFFF0E826F836F000E47
:1058DA0081BFFF0E826F836F6F05036E046A000E2D
:1058EA00045A03C000F004C001F0003600900136EB
:1058FA0000506D25E96E01506E21EA6EEECF84FBF1
:10590A00EECF85FB000E87BFFF0E866F876F000EF6
:10591A0085BFFF0E866F876F800E8319006E800E1B
:10592A006CBF7F0E005C0AE1000E6CBFFF0E825D49
:10593A0005E16C51815D02E16B51805D12E36FCB31
:10594A0000F0000E016E00360090013600506D2501
:10595A00E96E01506E21EA6EEECF00F0EECF01F053
:10596A005ED1800E6CBF7F0E006E800E8719005CC0
:10597A000CE1000E6CBFFF0E006E8651005C05E163
:10598A0085516C5D02E184516B5D1EE36F516F2599
:10599A00006E016A000E0122010E005C036E000E09
:1059AA000158046E03C000F004C001F000360090F4
:1059BA00013600506D25E96E01506E21EA6EEECF78
:1059CA0000F0EECF01F02BD188CB00F0000E016E73
:1059DA0000360090013600506D25E96E01506E21A7
:1059EA00EA6EEECF70FBEECF71FB000E73BFFF0EB7
:1059FA00726F736F000E71BFFF0E726F736F000EBE
:105A0A006CBFFF0E006E731908E10050721905E1B0
:105A1A006C51711902E170516B1918E16F518825A7
:105A2A00036E046A000E042203C000F004C001F0F1
