:04000000B2EF3AF031
:1000080000C019F001C018F002C017F00CC016F0BB
:100018000DC015F0E1CF1AF0E2CF1BF07EA450D04E
:100028007DA44ED00701FE51FF0A02E1898C11D050
:10003800FE51000A02E1899C0CD0000E0801A05D67
:1000480004E10701FE5108019F5D03E3897C9F6B72
:10005800A06B0601CC51FF0A02E18A8611D0CC516F
:10006800000A02E18A960CD0000E0801955D04E1B1
:100078000601CC510801945D03E38A76946B956B75
:100088000601CF51FF0A02E18A8811D0CF51000A38
:1000980002E18A980CD0000E0801975D04E1060180
:1000A800CF510801965D03E38A78966B976B080138
:1000B8009F4BA02B944B952B964B972B7E9402D15C
:1000C800F2A40DD0F2AA0BD005012D2B402A010E67
:1000D8002C6F3C0ED76EB00ED66EF294F3D09EAA5B
:1000E800F1D09DAAEFD00A0E0601CF6F0A015C95E8
:1000F8005CB502D05C9101D05C815CB102D05C93AC
:1001080001D05C835C87636B646B656B666B5D6B4E
:100118005CB18DD05CB38BD05CB589D09EAA70D011
:10012800ABB403D0ABB201D016D0AB98ABB802D009
:10013800AC9A01D0AC8AACBA02D0AB9E01D0AB8EDF
:10014800AB88ABB802D0AC9A01D0AC8AACBA02D0BA
:10015800AB9E01D0AB8E0A01AECF5DFA010E675D92
:10016800016E000E6859026E0250665D02E1015090
:10017800655D44E260532FE05E531AE05D511F084D
:1001880012E2890E6525E16E0A0E6621E26E5DCAED
:10019800E6FF010E6525006E000E6621016E00C0A7
:1001A80065FA01C066FA5D515F19D8B45C8512D052
:1001B800890E6525E16E0A0E6621E26E5DCAE6FFCC
:1001C800010E6525006E000E6621016E00C065FAFD
:1001D80001C066FA12D0890E6525E16E0A0E662105
:1001E800E26E5DCAE6FF010E6525006E000E66210F
:1001F800016E00C065FA01C066FA02D05C815C97A6
:10020800010E6325006E000E6421016E00C063FAC2
:1002180001C064FA6451625D02E16351615DD8A076
:100228005C83020E0D6E0D2EFED7000071D7890E6D
:100238006525E16E0A0E6621E26EE66A5CA307D0C8
:10024800605305E05E5303E05CB501D05C975CA1A8
:1002580038D0340E0C6EF10E0D6E0D2EFED70C2E0E
:10026800FCD7000000009EAA2BD0ABB403D0ABB2E1
:1002780001D016D0AB98ABB802D0AC9A01D0AC8AFA
:10028800ACBA02D0AB9E01D0AB8EAB88ABB802D073
:10029800AC9A01D0AC8AACBA02D0AB9E01D0AB8E7E
:1002A800890EE16E0A0EE26E5D51E126D8B0E22AAF
:1002B800AECFE6FF1A0E0D6E0D2EFED70000D3D777
:1002C8005C9700D019C000F018C001F017C002F008
:1002D80016C00CF015C00DF01AC0E1FF1BC0E2FFFC
:0202E800110003
:1002EA000B820BAE7FEF01F00368026801680068B9
:0802FA000A360232FF0E120069
:0E030200026A016A006A086A036A000E1200AD
:10031000800E0B01D219006E800E005C02E1000E0F
:10032000D15D08E2D1510008006ED2CB01F0000E81
:0E033000015604D0D1CB00F0D2CB01F0120068
:10033E00800E0B01D15D04E2400ED25D01E201D0D0
:10034E007FD00601DA533EE0D2CB00F00032009EA1
:10035E000032009E0032009E00C003F0000E046EBC
:10036E00070E026E03C000F004C001F0025005E05B
:10037E00003600900136FF0FFAD70B01D15100263F
:10038E00000E0122490E0024026E000E0120036EA3
:10039E00070ED215006E00C001F0010E006E015066
:1003AE0004E000360090FF0FFBD702C0E9FF03C048
:1003BE00EAFFEE50001202C0E1FF03C0E2FF00C0F0
:1003CE00E6FF3ED0D2CB00F00032009E0032009EFF
:1003DE000032009E00C003F0000E046E070E026E87
:1003EE0003C000F004C001F0025005E0003600909A
:1003FE000136FF0FFAD70B01D1510026000E012254
:10040E00490E0024026E000E0120036E070ED21557
:10041E00006E00C001F0010E006E015004E00036C7
:10042E000090FF0FFBD7001E02C0E9FF03C0EAFFDA
:10043E00EE50001602C0E1FF03C0E2FF00C0E6FF6F
:02044E0012009A
:100450000B840BAE33EF02F0010E036E026A016AE9
:0A046000006A0A360232FF0E120095
:08046A000AAE029E000E120012
:100472000B01BB51BF5DD16FBC51C059D26F47DF79
:1004820000C0CFFB01C0D0FBB951BD5DD16FBA51E5
:10049200BE59D26F3CDF800E0118026E800ED01959
:1004A200025C02E1CF51005C010ED8B0000E026E78
:1004B20002C0C9FB025218E0B9CBC1FBBACBC2FBE6
:1004C200BBCBB9FBBCCBBAFBC1CBBBFBC2CBBCFB2E
:1004D200BDCBC3FBBECBC4FBBFCBBDFBC0CBBEFB06
:1004E200C3CBBFFBC4CBC0FB800EBE19006E800E17
:1004F200BA19005C02E1B951BD5D18E2B9CBC5FB86
:10050200BACBC6FBBDCBB9FBBECBBAFBC5CBBDFBE1
:10051200C6CBBEFBBBCBC7FBBCCBC8FBBFCBBBFBBD
:10052200C0CBBCFBC7CBBFFBC8CBC0FBB951BD5DC9
:10053200CB6FBB51BF5DD16FBC51C059D26FE7DEEB
:1005420000C0CCFBCBCBCDFB000ECE6FCD33CD9F0D
:10055200000ECE6F800EBC19006E800EC019005CBA
:1005620002E1BF51BB5D03E2010ECA6F02D0FF0E72
:10057200CA6F800EBE19006E800EBA19005C02E1CD
:10058200B951BD5D2EE3C95306E0BBCBD1FBB9CB5C
:10059200D2FBD4DE05D0B9CBD1FBBBCBD2FBCEDEB6
:1005A2000B01CC51CD5D016E000ECE59026E01C021
:1005B200CDFB02C0CEFB800E0218006E800E005CE6
:1005C20002E1000E015C0AE2CA51BB27000ECABF5B
:1005D200FF0EBC23CB51CD27000ECE23B94BBA2B35
:0405E200C8D7120064
:1005E6000CB035EF03F00CA2DBEF03F00E6A000E41
:1005F60002644CEF03F0F00E0214D8A417EF03F0D8
:10060600023A01380F0B02260138F00B016E003852
:100616000F0B01260038F00B006E08380F0B002672
:100626000838F00B086E0E84D89002BE30EF03F047
:1006360008360036013602360E2A02BE30EF03F0C7
:1006460008360036013602360E2A02BE30EF03F0B7
:1006560008360036013602360E2A0E500364D1EFF4
:1006660003F0035E0BBC08AED6EF03F0D880800E15
:1006760008640030000E002201220222D8A0D6EF24
:1006860003F0023201320032034ADBEF03F0D6EF09
:1006960003F001C002F000C001F008C000F0086AD3
:1006A600000E0E86026483EF03F0F00E0214D8A447
:1006B6006BEF03F0023A01380F0B02260138F00BFC
:1006C600016E00380F0B01260038F00B006E0E8409
:1006D600D89002BE30EF03F00036013602360E2AFD
:1006E60002BE30EF03F00036013602360E2A02BE95
:1006F60030EF03F00036013602360E2A30EF03F0F3
:1007060001C002F000C001F0006A000E0E960E88CD
:100716000264B0EF03F0F00E0214D8A49BEF03F0CE
:10072600023A01380F0B02260138F00B016E0E84D7
:10073600D89002BE30EF03F0013602360E2A02BE12
:1007460030EF03F0013602360E2A02BE30EF03F018
:10075600013602360E2A30EF03F001C002F0016ABC
:10076600000E0E860264E0EF03F0F00E0214D8A429
:10077600BFEF03F0023A0E84D89002BE30EF03F0CA
:1007860002360E2A02BE30EF03F002360E2A02BEF1
:1007960030EF03F002360E2A30EF03F0010E0C6E36
:1007A60054DEE3EF03F0020E0C6E5CDEE3EF03F0C3
:1007B600040E0C6E97DDE3EF03F0080E0C6E9EDD63
:0207C60012001F
:1007C800B9CBC9FFC7B002D00000FCD7C9CF00F031
:0207D80012000D
:1007DA00B9CB6FFF6DB002D00000FCD76FCF00F02D
:0207EA001200FB
:1007EC00025006180E6E086A096A0B6A03500764F9
:1007FC00E9EF04F006500A6E068E028E03500B6E63
:10080C000750036E000E0B6439EF04F00B50075EBB
:10081C00D8B4DAEF04F0070E0764A8EF04F0075E13
:10082C0000C008F001C000F002C001F0026A074EDF
:10083C00DAEF04F007647DEF04F0075E00C008F007
:10084C0001C000F0016A074EDAEF04F007645BEFB9
:10085C0004F0075E00C008F0006A074EDAEF04F0FF
:10086C00076442EF04F00AC002F005C001F004C0B6
:10087C0000F0086A04EF06F0030E07644DEF04F075
:10088C00075E08380F0B086E074EDAEF04F0D890AD
:10089C000832074EDAEF04F0D8900832074EDAEF40
:1008AC0004F0D8900832DAEF04F0030E07646CEF12
:1008BC0004F0075E08380F0B086E0038F00B0826A2
:1008CC0000380F0B006E074EDAEF04F0D8900032B0
:1008DC000832074EDAEF04F0D89000320832074E97
:1008EC00DAEF04F0D89000320832DAEF04F0030E9D
:1008FC00076494EF04F0075E08380F0B086E00389D
:10090C00F00B082600380F0B006E0138F00B002698
:10091C0001380F0B016E074EDAEF04F0D89001325C
:10092C0000320832074EDAEF04F0D8900132003270
:10093C000832074EDAEF04F0D89001320032083258
:10094C00DAEF04F0030E0764C5EF04F0075E083815
:10095C000F0B086E0038F00B082600380F0B006EDA
:10096C000138F00B002601380F0B016E0238F00B2A
:10097C00012602380F0B026E074EDAEF04F0D89006
:10098C000232013200320832074EDAEF04F0D8900E
:10099C000232013200320832074EDAEF04F0D890FE
:1009AC000232013200320832096A000E0EAECEEF6E
:1009BC0005F0081E001E011E021E082A002201223C
:1009CC000222CEEF05F00750D8A4EFEF04F004EFAD
:1009DC0006F0096A02C00AF0028E068E0750035C0C
:1009EC00076ED8B4C1EF05F0070E07648FEF05F062
:1009FC00075E0450096E0550046E0650056E066ABB
:100A0C00074EC1EF05F0070E076464EF05F0075EB3
:100A1C000450096E0550046E056A074EC1EF05F0CF
:100A2C00070E076442EF05F0075E0450096E046A76
:100A3C00074EC1EF05F0070E076429EF05F00AC059
:100A4C0002F004EF06F0030E076434EF05F0075EC6
:100A5C0009380F0B096E074EC1EF05F0D89009321B
:100A6C00074EC1EF05F0D8900932074EC1EF05F0E3
:100A7C00D8900932C1EF05F0030E076453EF05F06F
:100A8C00075E09380F0B096E0438F00B0926043881
:100A9C000F0B046E074EC1EF05F0D89004320932EB
:100AAC00074EC1EF05F0D89004320932074EC1EF62
:100ABC0005F0D89004320932C1EF05F0030E07643B
:100ACC007BEF05F0075E09380F0B096E0438F00B4D
:100ADC00092604380F0B046E0538F00B0426053874
:100AEC000F0B056E074EC1EF05F0D890053204329E
:100AFC000932074EC1EF05F0D890053204320932A5
:100B0C00074EC1EF05F0D890053204320932C1EF1F
:100B1C0005F0030E0764ACEF05F0075E09380F0B08
:100B2C00096E0438F00B092604380F0B046E0538D7
:100B3C00F00B042605380F0B056E0638F00B052656
:100B4C0006380F0B066E074EC1EF05F0D890063233
:100B5C00053204320932074EC1EF05F0D890063247
:100B6C00053204320932074EC1EF05F0D890063237
:100B7C00053204320932086A000E0EAECEEF05F0D3
:100B8C00091E041E051E061E092A04220522062221
:100B9C00095008260450002205500122065002225A
:100BAC000EBEE5EF05F0D8A0F4EF05F002320132ED
:100BBC0000320832033EF4EF05F0FEEF05F0D8B03A
:100BCC00F9EF05F0000E081E001E011E021E082A79
:100BDC000022012202220A7EF9EF05F0010E0C6EB2
:100BEC00FCDC06EF06F0020E0C6EF7DC06EF06F0EE
:100BFC00040E0C6E75EC01F006EF06F0000E0C6E98
:020C0C001200D4
:100C0E00086A080E0C6E003408360450085ED8B020
:0E0C1E0002D00826D89000360C2EF5D7120012
:100C2C000B800BAE22EF06F0026A0AAEFF0E026ECC
:0C0C3C00016E006E0A360232FF0E12003C
:0A0C48001D0E0D6E0D2EFED71200DA
:080C52000B6A0B86FF0E120075
:100C5A00220E0C6E086A096A0A6A0B6A0C06D8B474
:100C6A001FD0D8900B320A320932083203320232CC
:100C7A0001320032D8A0F2D70C06D8B409D00450F9
:100C8A0008260550092206500A2207500B22EAD7E5
:100C9A00045008260550092206500A2207500B2242
:020CAA00120036
:100CAC006DB409D01F0E6B14016E0150000A03E1E4
:0A0CBC00010E006E01D0006A120064
:100CC600F250026EF29E0500FF6A0150FE6E005061
:080CD600FD6E02BEF28E120059
:100CDE00B6CBB9FB000E0B01BA6FB7CBBBFB000E48
:100CEE00BC6FB6CBBDFB000EBE6FB851B725BF6F44
:100CFE00C06B000EC023010EBF5F000EC05B39EC4F
:040D0E0002F01200DD
:100D12000B6A0A6A096A086A0E6A033408360450C2
:100D2200085E0550D8A0053C095E0650D8A0063CD6
:100D32000A5E0750D8A0073C0B5EE86AD8A0010EF5
:100D42000E5E0336070E0C6E0334083609360A3679
:100D52000B360E36045003A012D0085E0550D8A000
:100D6200053C095E0650D8A0063C0A5E0750D8A092
:100D7200073C0B5EE86AD8A0010E0E5E11D0082671
:100D82000550D8B0053C09260650D8B0063C0A26C4
:100D92000750D8B0073C0B26E86AD8B0010E0E26E1
:100DA20003360C2ED1D70234083609360A360B36F2
:100DB2000E36045003A012D0085E0550D8A0053CA0
:100DC200095E0650D8A0063C0A5E0750D8A0073C30
:100DD2000B5EE86AD8A0010E0E5E11D008260550FF
:100DE200D8B0053C09260650D8B0063C0A26075062
:100DF200D8B0073C0B26E86AD8B0010E0E260236A0
:100E0200070E0C6E0234083609360A360B360E36D9
:100E1200045002A012D0085E0550D8A0053C095E1D
:100E22000650D8A0063C0A5E0750D8A0073C0B5ECD
:100E3200E86AD8A0010E0E5E11D008260550D8B07F
:100E4200053C09260650D8B0063C0A260750D8B001
:100E5200073C0B26E86AD8B0010E0E2602360C2E8D
:100E6200D1D70134083609360A360B360E3604500D
:100E720002A012D0085E0550D8A0053C095E0650BB
:100E8200D8A0063C0A5E0750D8A0073C0B5EE86A71
:100E9200D8A0010E0E5E11D008260550D8B0053C30
:100EA20009260650D8B0063C0A260750D8B0073C9F
:100EB2000B26E86AD8B0010E0E260136070E0C6E1C
:100EC2000134083609360A360B360E36045001A0B4
:100ED20012D0085E0550D8A0053C095E0650D8A085
:100EE200063C0A5E0750D8A0073C0B5EE86AD8A011
:100EF200010E0E5E11D008260550D8B0053C092619
:100F02000650D8B0063C0A260750D8B0073C0B263C
:100F1200E86AD8B0010E0E2601360C2ED1D7003465
:100F2200083609360A360B360E36045001A012D0A6
:100F3200085E0550D8A0053C095E0650D8A0063CC4
:100F42000A5E0750D8A0073C0B5EE86AD8A0010EE3
:100F52000E5E11D008260550D8B0053C0926065071
:100F6200D8B0063C0A260750D8B0073C0B26E86AE0
:100F7200D8B0010E0E260036070E0C6E003408366D
:100F820009360A360B360E36045000A012D0085E1F
:100F92000550D8A0053C095E0650D8A0063C0A5E62
:100FA2000750D8A0073C0B5EE86AD8A0010E0E5E7F
:100FB20011D008260550D8B0053C09260650D8B0F5
:100FC200063C0A260750D8B0073C0B26E86AD8B080
:100FD200010E0E2600360C2ED1D700B00ED00450D2
:100FE20008260550D8B0053C09260650D8B0063C64
:0C0FF2000A260750D8B0073C0B2612005E
:100FFE000C6A0E6A0250D8A418EF08F001C002F075
:10100E0000C001F0006A0E860250D8A418EF08F056
:10101E0001C002F0016A0E960E880250D8B42AEF73
:10102E0008F00E50035ED8A4D8A030EF08F0D89088
:10103E0002BE36EF08F0003601360236032E1FEFE1
:10104E0008F030EF08F0010E0C6E81EC01F03AEF73
:10105E0008F0020E0C6E28EC02F03AEF08F0040EC7
:08106E000C6E35EC02F01200DB
:101076000134083609360450085E0550D8A0053CF0
:10108600095E003601360F0E0C6E0134083609363D
:10109600045000A006D0085E0550D8A0053C095EA5
:1010A60005D008260550D8B0053C0926003601367D
:1010B6000C2EEBD700B006D0045008260550D8B049
:0810C600053C092600001200A0
:1010CE000450085E0550D8A0053C095E0650D8A015
:1010DE00063C0A5E0750D8A0073C0B5E0336070E8F
:1010EE000C6E0334083609360A360B36045003A04C
:1010FE000ED0085E0550D8A0053C095E0650D8A05B
:10110E00063C0A5E0750D8A0073C0B5E0DD00826A1
:10111E000550D8B0053C09260650D8B0063C0A2624
:10112E000750D8B0073C0B2603360C2EDAD7023404
:10113E00083609360A360B36045003A00ED0085E68
:10114E000550D8A0053C095E0650D8A0063C0A5EA4
:10115E000750D8A0073C0B5E0DD008260550D8B01E
:10116E00053C09260650D8B0063C0A260750D8B0D2
:10117E00073C0B260236070E0C6E02340836093673
:10118E000A360B36045002A00ED0085E0550D8A0C9
:10119E00053C095E0650D8A0063C0A5E0750D8A052
:1011AE00073C0B5E0DD008260550D8B0053C09262D
:1011BE000650D8B0063C0A260750D8B0073C0B267E
:1011CE0002360C2EDAD70134083609360A360B36BB
:1011DE00045002A00ED0085E0550D8A0053C095E52
:1011EE000650D8A0063C0A5E0750D8A0073C0B5EFE
:1011FE000DD008260550D8B0053C09260650D8B0AB
:10120E00063C0A260750D8B0073C0B260136070EBF
:10121E000C6E0134083609360A360B36045001A01E
:10122E000ED0085E0550D8A0053C095E0650D8A029
:10123E00063C0A5E0750D8A0073C0B5E0DD0082670
:10124E000550D8B0053C09260650D8B0063C0A26F3
:10125E000750D8B0073C0B2601360C2EDAD70034D7
:10126E00083609360A360B36045001A00ED0085E39
:10127E000550D8A0053C095E0650D8A0063C0A5E73
:10128E000750D8A0073C0B5E0DD008260550D8B0ED
:10129E00053C09260650D8B0063C0A260750D8B0A1
:1012AE00073C0B260036070E0C6E00340836093646
:1012BE000A360B36045000A00ED0085E0550D8A09A
:1012CE00053C095E0650D8A0063C0A5E0750D8A021
:1012DE00073C0B5E0DD008260550D8B0053C0926FC
:1012EE000650D8B0063C0A260750D8B0073C0B264D
:1012FE0000360C2EDAD700B00ED00450082605505A
:10130E00D8B0053C09260650D8B0063C0A26075030
:08131E00D8B0073C0B261200B9
:101326000B1E0A1E091E081E082AD8B4092AD8B49C
:081336000A2AD8B40B2A1200A8
:10133E000D6A086A0050D8B4000C04180A6E0ABE72
:10134E000D1E0B6A04AE02D0041E042A00AE02D09B
:10135E00001E002A005004100A6E0ABE1FD0045050
:10136E00085E003600340836045008260036060E95
:10137E000C6E00340836045000B0085E00A008263B
:10138E0000360C2EF6D700A008260BB015D00DAEE9
:10139E00000C001E002A081E082A000C04AE09D0FC
:1013AE0000BE04D00050086E006AF1D7006A002A11
:1013BE00000C001E0B2AD3D7082A0450085CD8A4B0
:0E13CE00E6D7086A002A00AEE2D7FF0C120034
:1013DC00086A096A000E0762036473EF0AF0025090
:1013EC0006180A6E075003267E0ED8A004EF0AF0EA
:1013FC00035ED8B078EF0AF008EF0AF0035ED8A0CD
:10140C007DEF0AF0028E068E02C00EF001C00BF0CA
:10141C0000C00DF000500402F4CF0CF00150050296
:10142C00F4CF00F0F3CF08F00402F3500C26F45084
:10143C000822000E00220D500502F3500C26F45029
:10144C000822000E002202500402F3500826F45029
:10145C00002202500502016A000E0122F350002600
:10146C00F45001220D500602F3500826F4500022CD
:10147C00026A000E012202220B500602F3500026D3
:10148C00F4500122000E02220E500602F3500126E7
:10149C00F450022202BE5BEF0AF008360036013629
:1014AC0002360306D8B47DEF0AF06EEF0AF0D8804E
:1014BC00800E08640030000E002201220222D8A007
:1014CC006EEF0AF0023201320032034A78EF0AF072
:1014DC000AAE029E000E80EF0AF0010E81EC01F0C4
:1014EC0080EF0AF0020E75EC01F080EF0AF0040EAA
:0614FC0028EC02F01200D2
:10150200A49EB0CB6FFFA8C8B1FBA9C8B2FBAAC802
:10151200B3FBABC8B4FB6DA423D00801A851A91139
:10152200AA11AB111CE00B01B151B211B311B411EC
:101532000FE16ECBE1FF6FCBE2FF040EE66E6CCBE8
:1015420000F06DCB01F063EC06F0010E006E3CD0B2
:10155200010E0B01B15F000EB25BB35BB45BDBD774
:10156200A8C8B1FBA9C8B2FBAAC8B3FBABC8B4FBFD
:10157200A4BE23D00801A851A911AA11AB111CE0E5
:101582000B01B151B211B311B4110FE16ECBE1FFF6
:101592006FCBE2FF040EE66E6CCB00F06DCB01F078
:1015A20063EC06F0010E006E0FD0010E0B01B15F6D
:1015B200000EB25BB35BB45BDBD76BBC02D0006ADC
:0A15C20003D06B84020E006E1200CD
:1015CC00A8C8B2FBA9C8B3FBAAC8B4FBABC8B5FB8F
:1015DC000B01B06BB16BB151120802E1B0518E0826
:1015EC0009E356EC06F0005201E004D00B01B04BBD
:1015FC00B12BF1D70B01120EB15D02E18F0EB05D74
:10160C0003E37B0E006E27D06B806BA023D0080108
:10161C00A851A911AA11AB111CE00B01B251B311C5
:10162C00B411B5110FE16ECBE1FF6FCBE2FF050EEC
:10163C00E66E6CCB00F06DCB01F063EC06F0010EA6
:10164C00006E09D0010E0B01B25F000EB35BB45BF0
:08165C00B55BDBD7006A120048
:101664000A6A0350D8A40A800750D8A40A820A50F0
:10167400D8B495EF0BF0030AD8B44EEF0BF00AB0D0
:1016840049EF0BF006AE93EF0BF091EF0BF002AEC7
:1016940091EF0BF093EF0BF00250800B0A6E029E59
:1016A4000650800B069E0A18D8B45FEF0BF00A5060
:1016B400D8B491EF0BF093EF0BF00750035CD8B460
:1016C40069EF0BF0D8A085EF0BF08BEF0BF0065011
:1016D400025CD8B473EF0BF0D8A085EF0BF08BEF5E
:1016E4000BF00550015CD8B47DEF0BF0D8A085EF6A
:1016F4000BF08BEF0BF00450005CD8B495EF0BF0BB
:10170400D8B08BEF0BF00A52D8B493EF0BF091EFF3
:101714000BF00A52D8B491EF0BF093EF0BF0D88092
:0E1724001200D8901200D880D8841200120053
:101732000050086E0150006E0250016E0350026E9E
:10174200036A0B6A0C6A9E0E036E0A6A020E0C6E24
:06175200F3EC02F01200AE
:1017580003500718D8A4C0EF0BF002500618D8A4FD
:10176800C0EF0BF001500518D8A4C0EF0BF00050E3
:0E1778000418D8B4D8841200D89412001200BD
:101786000B6A0C6A0A6A0350D8B4F8EF0BF00A9E8B
:10179600028E860E035E03BED6EF0BF0D8B4D6EFEC
:1017A6000BF0FBEF0BF0036C080E035CD8A0E4EF24
:1017B6000BF0036E0236026A0350D8A4D890EDEF00
:1017C6000BF00350D8B4EDEF0BF0D8900232032E95
:1017D600E8EF0BF00BBC02A0F8EF0BF0D8A0F8EF87
:1017E6000BF0022AD8B402EF0CF0016A08EF0CF0F5
:1017F6000B800BAE0CEF0CF0016A0CEF0CF0010E37
:101806000C6E16EC06F00EEF0CF0000E0C6E0EEFE2
:0C1816000CF0FF0E0C6E0250006E120071
:10182200086A096A100E0C6E013408360936045033
:10183200085E0550D8A0053C095ED8B007D0045018
:1018420008260550D8B0053C0926D8900036013646
:061852000C2EEAD7120083
:101858006E0E0B01B05DD8A0C7D0640E046EB0CB7D
:1018680000F007EC06F0120E0024056E066A000E62
:10187800062205C000F006C001F0000E06BEFF0EED
:10188800026E036E003600900136023603360036CB
:101898000090013602360336550E0024F66E8F0E80
:1018A8000120F76E000E0220F86E0900F5CF00F057
:1018B8000900F5CF01F00900F5CF02F00900F5CFD6
:1018C80003F0000E046E000E056E000E066E7E0E0E
:1018D800076E80DD00C0B1FB01C0B2FB02C0B3FBE4
:1018E80003C0B4FB640E046EB0CB00F007EC06F046
:1018F80008C000F00A0E046E07EC06F0090E00247A
:10190800056E066A000E062205C000F006C001F04A
:10191800000E06BEFF0E026E036E00360090013602
:101928000236033600360090013602360336550E6D
:101938000024F66E8F0E0120F76E000E0220F86E5E
:101948000900F5CF00F00900F5CF01F00900F5CF47
:1019580002F00900F5CF03F0B1CB04F0B2CB05F0EB
:10196800B3CB06F0B4CB07F035DD00C0B1FB01C046
:10197800B2FB02C0B3FB03C0B4FB0A0E046EB0CBCB
:1019880000F007EC06F008C000F000C001F0000EFF
:10199800026E036E046E0136019002360336043679
:1019A80001360190023603360436550E0124F66ED0
:1019B8008F0E0220F76E000E0320F86E0900F5CF97
:1019C80000F00900F5CF01F00900F5CF02F0090099
:1019D800F5CF03F0B1CB04F0B2CB05F0B3CB06F0F2
:1019E800B4CB07F0F7DCAED0B0510A08D8B07CD041
:1019F8000A0E046EB0CB00F007EC06F0090E0024C6
:101A0800056E066A000E062205C000F006C001F049
:101A1800000E06BEFF0E026E036E00360090013601
:101A28000236033600360090013602360336550E6C
:101A38000024F66E8F0E0120F76E000E0220F86E5D
:101A48000900F5CF00F00900F5CF01F00900F5CF46
:101A580002F00900F5CF03F0000E046E000E056ECB
:101A6800000E066E7E0E076EB5DC00C0B1FB01C02D
:101A7800B2FB02C0B3FB03C0B4FB0A0E046EB0CBCA
:101A880000F007EC06F008C000F000C001F0000EFE
:101A9800026E036E046E0136019002360336043678
:101AA80001360190023603360436550E0124F66ECF
:101AB8008F0E0220F76E000E0320F86E0900F5CF96
:101AC80000F00900F5CF01F00900F5CF02F0090098
:101AD800F5CF03F0B1CB04F0B2CB05F0B3CB06F0F1
:101AE800B4CB07F077DC2ED0B0CB00F0000E016E3F
:101AF800026E036E00360090013602360336003659
:101B08000090013602360336550E0024F66E8F0E0D
:101B18000120F76E000E0220F86E0900F5CF00F0E4
:101B28000900F5CF01F00900F5CF02F00900F5CF63
:101B380003F0000E046E000E056E000E066E7E0E9B
:061B4800076E48DC1200EC
:101B4E000B01B051390806E3300EB05D03E3010E10
:081B5E00006E01D0006A1200C4
:101B66000050086E0150006E016A026A036A0B6A31
:101B76000C6A960E036E0A6A00C001F008C000F0F7
:0A1B8600086A026AFFEC07F0120083
:041B90006B84120050
:101B94000B01B36B030EB35D0AE2B351B125E16EE1
:101BA400000EB221E26E200EE66EB32BF3D7B351D2
:101BB400B125E16E000EB221E26EE66AB307B351BD
:101BC400B125B46F000EB221B56F0A0E046EB0CB0E
:101BD40000F007EC06F008C000F0300E0026B4CB8D
:101BE400E1FFB5CBE2FF00C0E6FF0A0E046EB0CB06
:101BF40000F007EC06F000C0B0FB0050000A01E161
:081C040002D0B307DCD7120087
:081C0C00067EF6EC03F0120065
:101C14000B6A0C6A0A6A086A0350D8B492EF0EF091
:101C2400028E9E0E035E03BE1DEF0EF0D8B41DEFB0
:101C34000EF082EF0EF0036C080E035CD8A04FEF99
:101C44000EF0036E083600C008F001C000F002C0B8
:101C540001F0026A080E035CD8A04FEF0EF0036E89
:101C6400083600C008F001C000F0016A080E035CE9
:101C7400D8A04FEF0EF0036E083600C008F0006ADB
:101C8400080E035CD8A04FEF0EF0036E0836086A06
:101C94000350D8A4D8905BEF0EF00350D8B45BEF98
:101CA4000EF0D8900232013200320832032E53EF84
:101CB4000EF00BBC08A06CEF0EF0D8A06CEF0EF089
:101CC400082AD8B4002AD8B4012AD8B4022A02BEF9
:101CD40096EF0EF00AAE92EF0EF0021E011E001EE9
:101CE400081E082AD8B4002AD8B4012AD8B4022A73
:101CF40092EF0EF0026A016A006A086A92EF0EF02F
:101D04000B800BAE9CEF0EF0026A0AAE9CEF0EF055
:101D1400026E016E006E086E0A3602329CEF0EF0FF
:101D2400000E0C6A9DEF0EF0010E0C6E16EC06F020
:101D34009DEF0EF0FF0E0250036E0150026E005034
:081D4400016E0850006E120050
:101D4C00800E0B01B019006E800E000A005CD8B03A
:101D5C006DD1B0510008016E01C0B0FB800E0118AE
:101D6C00006E800E6E0A005CD8A0C0D0640E046EAB
:101D7C00B0CB00F09FEC09F0120E0024056E000EA3
:101D8C0000BEFF0E066E000E062205C000F006C057
:101D9C0001F0000E06BEFF0E026E036E00360090C0
:101DAC000136023603360036009001360236033611
:101DBC00550E0024F66E8F0E0120F76E000E0220D9
:101DCC00F86E0900F5CFB1FB0900F5CFB2FB0900A5
:101DDC00F5CFB3FB0900F5CFB4FB640E046EB0CBAA
:101DEC0000F09FEC09F008C000F00A0E046E9FECA6
:101DFC0009F0090E0024056E000E00BEFF0E066EE3
:101E0C00000E062205C000F006C001F0000E06BE52
:101E1C00FF0E026E036E003600900136023603365A
:101E2C0000360090013602360336550E0024F66E4D
:101E3C008F0E0120F76E000E0220F86E0900F5CF10
:101E4C0000F00900F5CF01F00900F5CF02F0090010
:101E5C00F5CF03F0B1CB04F0B2CB05F0B3CB06F069
:101E6C00B4CB07F0EEEC09F000C0B1FB01C0B2FB43
:101E7C0002C0B3FB03C0B4FB0A0E046EB0CB00F07F
:101E8C009FEC09F008C000F000C001F0000E00BE8D
:101E9C00FF0E026E036E046E01360190023603369D
:101EAC00043601360190023603360436550E0124F1
:101EBC00F66E8F0E0220F76E000E0320F86E0900EE
:101ECC00F5CF00F00900F5CF01F00900F5CF02F0D5
:101EDC000900F5CF03F0B1CB04F0B2CB05F0B3CBD6
:101EEC0006F0B4CB07F0EEEC09F007D2800E0A0A2C
:101EFC00006E800EB019005C71E20A0E046EB0CB5D
:101F0C0000F09FEC09F0090E0024056E000E00BED7
:101F1C00FF0E066E000E062205C000F006C001F092
:101F2C00000E06BEFF0E026E036E003600900136E8
:101F3C000236033600360090013602360336550E53
:101F4C000024F66E8F0E0120F76E000E0220F86E44
:101F5C000900F5CFB1FB0900F5CFB2FB0900F5CFB5
:101F6C00B3FB0900F5CFB4FB0A0E046EB0CB00F046
:101F7C009FEC09F008C000F000C001F0000E00BE9C
:101F8C00FF0E026E036E046E0136019002360336AC
:101F9C00043601360190023603360436550E012400
:101FAC00F66E8F0E0220F76E000E0320F86E0900FD
:101FBC00F5CF00F00900F5CF01F00900F5CF02F0E4
:101FCC000900F5CF03F0B1CB04F0B2CB05F0B3CBE5
:101FDC0006F0B4CB07F0EEEC09F08FD1B0CB00F0EB
:101FEC00000EB0BFFF0E016E026E036E0036009045
:101FFC0001360236033600360090013602360336BF
:10200C00550E0024F66E8F0E0120F76E000E022086
:10201C00F86E0900F5CF00F00900F5CF01F00900CA
:10202C00F5CF02F00900F5CF03F067D1800EB0199F
:10203C00006E800E6E0A005CD8A0C0D0640E046ED8
:10204C00B0CB00F09FEC09F0120E0024056E000ED0
:10205C0000BEFF0E066E000E062205C000F006C084
:10206C0001F0000E06BEFF0E026E036E00360090ED
:10207C00013602360336003600900136023603363E
:10208C00890E0024F66E8F0E0120F76E000E0220D2
:10209C00F86E0900F5CFB1FB0900F5CFB2FB0900D2
:1020AC00F5CFB3FB0900F5CFB4FB640E046EB0CBD7
:1020BC0000F09FEC09F008C000F00A0E046E9FECD3
:1020CC0009F0090E0024056E000E00BEFF0E066E10
:1020DC00000E062205C000F006C001F0000E06BE80
:1020EC00FF0E026E036E0036009001360236033688
:1020FC0000360090013602360336890E0024F66E47
:10210C008F0E0120F76E000E0220F86E0900F5CF3D
:10211C0000F00900F5CF01F00900F5CF02F009003D
:10212C00F5CF03F0B1CB04F0B2CB05F0B3CB06F096
:10213C00B4CB07F0EEEC09F000C0B1FB01C0B2FB70
:10214C0002C0B3FB03C0B4FB0A0E046EB0CB00F0AC
:10215C009FEC09F008C000F000C001F0000E00BEBA
:10216C00FF0E026E036E046E0136019002360336CA
:10217C00043601360190023603360436890E0124EA
:10218C00F66E8F0E0220F76E000E0320F86E09001B
:10219C00F5CF00F00900F5CF01F00900F5CF02F002
:1021AC000900F5CF03F0B1CB04F0B2CB05F0B3CB03
:1021BC0006F0B4CB07F0EEEC09F09FD0800E0A0AC3
:1021CC00006E800EB019005C71E20A0E046EB0CB8A
:1021DC0000F09FEC09F0090E0024056E000E00BE05
:1021EC00FF0E066E000E062205C000F006C001F0C0
:1021FC00000E06BEFF0E026E036E00360090013616
:10220C000236033600360090013602360336890E4C
:10221C000024F66E8F0E0120F76E000E0220F86E71
:10222C000900F5CFB1FB0900F5CFB2FB0900F5CFE2
:10223C00B3FB0900F5CFB4FB0A0E046EB0CB00F073
:10224C009FEC09F008C000F000C001F0000E00BEC9
:10225C00FF0E026E036E046E0136019002360336D9
:10226C00043601360190023603360436890E0124F9
:10227C00F66E8F0E0220F76E000E0320F86E09002A
:10228C00F5CF00F00900F5CF01F00900F5CF02F011
:10229C000900F5CF03F0B1CB04F0B2CB05F0B3CB12
:1022AC0006F0B4CB07F0EEEC09F027D0B0CB00F081
:1022BC00000EB0BFFF0E016E026E036E0036009072
:1022CC0001360236033600360090013602360336EC
:1022DC00890E0024F66E8F0E0120F76E000E022080
:1022EC00F86E0900F5CF00F00900F5CF01F00900F8
:0C22FC00F5CF02F00900F5CF03F012004E
:102308000B01B36BB46BB1CB00F0B2CB01F0000E94
:10231800026E036E640E046E000E056E066E076E86
:102328002DEC06F000C0A1F801C0A2F802C0A3F885
:1023380003C0A4F8EBC504F0ECC505F0000E066E6A
:10234800076E89EC06F000C0A1F801C0A2F802C02F
:10235800A3F803C0A4F8000E035C08E1000E025CB9
:1023680005E1030E015C02E1FF0E005C08E3FF0ECD
:102378000801A16F030EA26F000EA36FA46FA1C87E
:10238800B3FBA2C8B4FB0B01B051010A61E1010E15
:102398000801A115016EA2C802F0A3C803F0A4C8E1
:1023A80004F0000E021603160416000E006E041840
:1023B80008E10050031805E10050021802E101503D
:1023C800010A03E10F015D8902D00F015D99020E38
:1023D8000801A115016EA2C802F0A3C803F0A4C8A1
:1023E80004F0000E021603160416000E006E041800
:1023F80008E10050031805E10050021802E10150FD
:10240800020A03E10F015D8B02D00F015D9BA1C899
:1024180000F0A2C801F0A3C802F0A4C803F0033278
:10242800023201320032039E03320232013200329C
:10243800039E00C0A1F801C0A2F802C0A3F803C01F
:10244800A4F800C05EFFB3CB00F0B4CB01F065D0B8
:102458000B01B051020A61E1010E0801A115016EDC
:10246800A2C802F0A3C803F0A4C804F0000E021624
:1024780003160416000E006E041808E10050031835
:1024880005E10050021802E10150010A03E10F01C1
:10249800548902D00F015499020E0801A115016E4A
:1024A800A2C802F0A3C803F0A4C804F0000E0216E4
:1024B80003160416000E006E041808E100500318F5
:1024C80005E10050021802E10150020A03E10F0180
:1024D800548B02D00F01549BA1C800F0A2C801F090
:1024E800A3C802F0A4C803F003320232013200325A
:1024F800039E0332023201320032039E00C0A1F86B
:1025080001C0A2F802C0A3F803C0A4F800C055FF98
:0C251800B3CB00F0B4CB01F000D01200F7
:102524000450000A12E10550000A0FE10650000AA7
:102534000CE10750000A09E1FF0E006EFF0E016E68
:102544007F0E026EFF0E036EA8D0086A096A075058
:10255400D8B43DEF13F00350D8B442EF13F0025057
:1025640006180A6E028E068E0E6A02C008F001C0BA
:102574000CF000C00DF004500D5E0550D8A0053CD1
:102584000C5E0650D8A0063C085E086A0C6A0D6A08
:10259400D8A0D4EF12F0D8900232013200320832BF
:1025A400010E0E6E0750035ED8A0E1EF12F07E0E0E
:1025B4000E240326D8B047EF13F0E7EF12F07E0E97
:1025C4000E240326D8A04CEF13F0180E0B6E0D3614
:1025D4000C3608360036013602360E360450005EDC
:1025E4000550D8A0053C015E0650D8A0063C025E0A
:1025F40006340E120EA002EF13F00D800DEF13F04F
:10260400045000260550D8B0053C01260650D8B029
:10261400062802260D900B2EE9EF12F033EF13F08B
:10262400D8900036013602360E360450005E05504E
:10263400D8A0053C015E0650D8A0063C025E0634D4
:102644000E10010B0D26D8B00C2AD8B4082AD8A431
:1026540033EF13F008320C320D32032AD8B447EFAB
:1026640013F00AAE089E0850026E0C50016E0D5015
:10267400006E4FEF13F0010E29EC06F04FEF13F04C
:10268400020E81EC01F04FEF13F0040E75EC01F033
:0C2694004FEF13F0080E28EC02F01200CB
:1026A000A69CB1CBAAFFB0CBA9FFA69EA680A8CFBF
:0426B00000F0120024
:1026B4000450000A08E10550000A05E1FF0E006E0F
:1026C4007F0E016E58D00D6A096A086A0150001025
:1026D400D8B4000C015005180A6E0ABE0D1E0B6A10
:1026E40005AE05D0041E051E042AD8B4052A01AE81
:1026F40005D0001E011E002AD8B4012A015005107D
:102704000A6E0ABE10D03BEC08F00BB020D00DAE20
:10271400000C001E011E002AD8B4012A081E091E3E
:10272400082AD8B4092A000C05AE0DD001BE07D082
:102734000150096E0050086E016A006AE8D7016A08
:10274400006A002A000C011E001E0B2ADDD7082A8D
:10275400D8B4092A0450085CD8A4D9D70550095C18
:10276400D8A4D5D7096A086A002AD8B4012A01AEC8
:08277400CED70000FF0C12009B
:10277C000B6A0C6A086A0350D8B442EF14F002C01A
:10278C000AF0028E9E0E035E03AE32EF14F0036C61
:10279C00080E035CD8A0FFEF13F0036E083600C0E0
:1027AC0008F001C000F002C001F0026A080E035CE0
:1027BC00D8A0FFEF13F0036E083600C008F001C07C
:1027CC0000F0016A080E035CD8A0FFEF13F0036E53
:1027DC00083600C008F0006A080E035CD8A0FFEFB2
:1027EC0013F0036E0836086A0350D8A4D8900BEF88
:1027FC0014F00350D8B40BEF14F0D890023201321D
:10280C0000320832032E03EF14F00BBC08A01CEFAF
:10281C0014F0D8A01CEF14F0082AD8B4002AD8B4AD
:10282C00012AD8B4022A02BE46EF14F00AAE42EFD7
:10283C0014F0021E011E001E081E082AD8B4002A1D
:10284C00D8B4012AD8B4022A42EF14F0026A016A01
:10285C00006A086A42EF14F00B800BAE4DEF14F0D7
:10286C00026A0AAE4DEF14F0026E016E006E086E35
:10287C000A3602324DEF14F00C6A000E4EEF14F0D3
:10288C00010E0C6E000E16EC06F04EEF14F0FF0E5F
:10289C000250036E0150026E0050016E0850006E23
:0228AC00120018
:1028AE00B0CBB4FB000E0B01B56FB251B025016E6B
:1028BE00026A000E0222800EB519006E800E0218FA
:1028CE00005C02E10150B45D0BE2B4CBB6FBB1CBC0
:1028DE00B7FBB3CBB8FB6FEC06F0B44BB52BE5D71B
:0228EE001200D6
:1028F000B0CBC9FFC7B002D00000FCD7C9CF00F0F1
:022900001200C3
:102902000450000A12E10550000A0FE10650000AC5
:102912000CE10750000A09E1FF0E006EFF0E016E86
:10292200FF0E026E7F0E036E99D00C6A07BE0C2A50
:102932000D6A0B6A0A6A096A086A035002100110DA
:102942000010D8B485D0035007180E6E0EBE0D1EAF
:1029520007AE0BD0041E051E061E071E042AD8B49D
:10296200052AD8B4062AD8B4072A03AE0BD0001E13
:10297200011E021E031E002AD8B4012AD8B4022A5C
:10298200D8B4032A035007100E6E0EBE1DD067EC9A
:1029920008F00CBE36D00DAE5BD0001E011E021E2A
:1029A200031E002AD8B4012AD8B4022AD8B4032AB2
:1029B200081E091E0A1E0B1E082AD8B4092AD8B4FA
:1029C2000A2AD8B40B2A44D007AE15D003BE0DD0C4
:1029D20003500B6E02500A6E0150096E0050086ED1
:1029E200036A026A016A006AD6D7036A026A016A46
:1029F200006A002A000C031E021E011E001E0C8E1D
:102A0200C6D7082AD8B4092AD8B40A2AD8B40B2AB5
:102A12000450085CD8A4BFD70550095CD8A4BBD722
:102A220006500A5CD8A4B7D707500B5CD8A4B3D71A
:102A32000B6A0A6A096A086A002AD8B4012AD8B459
:102A4200022AD8B4032A03AEA6D70E6A0E88FF0C58
:0E2A52000E6A0CA002D093EC09F0000F1200E7
:102A600000C008F00150006E016A026A036A0B6A36
:102A70000C6A016A026A036A960E036E0A6A00AE65
:102A800048EF15F0081E001E082AD8B4002A0A8E46
:102A900000C001F008C000F0086A026AFFEC07F00D
:022AA000120022
:102AA200830EC216B0CB00F00036009000360090C4
:102AB2000050C21224EC06F0C282C2A201D0FDD79D
:102AC200C4CF01F0006A00C0B1FB01C0B2FBC35029
:102AD2000012000E011200C0B1FB01C0B2FB000ED9
:102AE2000014026E0150800B036E000E031802E107
:102AF200000E021803E00B01B16BB26BB1CB00F018
:062B0200B2CB01F012004D
:102B0800C69AF00E0A01CC6F280ECD6FB00ECE6FAC
:102B18000B0ECF6FC80ED86F070ED96FB90EDA6FCC
:102B28000B0EDB6F949A0B01B051040A02E19486F4
:102B380001D094969488C66AC79CC79EB051C612A5
:102B4800B251C612B151C712B25305E0B351000ACF
:102B5800D8B4C78C03D0B353D8A4C78CC68A120084
:102B68000B6A0A6A096A00500402F4CF09F0F3CF2D
:102B780008F001500502F4CF0BF0F3CF0AF0005033
:102B88000502F3500926F4500A22E86A0B22015084
:102B98000402F3500926F4500A22E86A0B2208C0FE
:102BA80000F009C001F00AC002F00BC003F01200E7
:102BB8000B018D6B8E6B8F6B906B916B926B936B24
:102BC800946B956B966B976B986B996B9A6B9B6BE9
:102BD8009C6B9D6B9E6B9F6BA06BA16BA26BA36B99
:102BE800A46BA56B8ACBE9FF8BCBEAFFEECF9DFBED
:102BF800EECF9EFB000EA0BFFF0E9F6FA06F000ED2
:102C08009EBFFF0E9F6FA06F8C05036E046A000EB7
:102C1800045A03C000F004C001F0003600900136E9
:102C280000508A25E96E01508B21EA6EEECFA1FB98
:102C3800EECFA2FB000EA4BFFF0EA36FA46F000E81
:102C4800A2BFFF0EA36FA46F800EA019006E800EA6
:102C580089BF7F0E005C0AE1000E89BFFF0E9F5DF1
:102C680005E189519E5D02E188519D5D12E38CCB9F
:102C780000F0000E016E00360090013600508A25E3
:102C8800E96E01508B21EA6EEECF00F0EECF01F035
:102C98005DD1800E89BF7F0E006E800EA419005C86
:102CA8000CE1000E89BFFF0E006EA351005C05E128
:102CB800A251895D02E1A151885D1EE38C518C25EA
:102CC800006E016A000E0122010E005C036E000E08
:102CD8000158046E03C000F004C001F000360090F3
:102CE800013600508A25E96E01508B21EA6EEECF3D
:102CF80000F0EECF01F02AD1A5CB00F0000E016E56
:102D080000360090013600508A25E96E01508B216B
:102D1800EA6EEECF8DFBEECF8EFB000E90BFFF0E5E
:102D28008F6F906F000E8EBFFF0E8F6F906F000E2B
:102D380089BFFF0E006E901908E100508F1905E158
:102D480089518E1902E18D51881918E18C51A525F8
:102D5800036E046A000E042203C000F004C001F0F0
:102D680000360090013600508A25E96E01508B210B
:102D7800EA6EEECF00F0EECF01F0E8D0800E89BF0A
:102D88007F0E006E800E9019005C0CE1000E89BF6A
:102D9800FF0E006E8F51005C05E18E51895D02E1E6
:102DA8008D51885DD8B0CAD0A5518C25056E066AAC
:102DB800000E062205C000F006C001F000360090A3
:102DC800013600508A25E96E01508B21EA6EEECF5C
:102DD80091FBEECF92FB000E94BFFF0E936F946FA2
:102DE800000E92BFFF0E936F946FA505036E046AE1
:102DF800000E045A03C000F004C001F00036009031
:102E0800013600508A25E96E01508B21EA6EEECF1B
:102E180095FBEECF96FB000E98BFFF0E976F986F4D
:102E2800000E96BFFF0E976F986F010E055C036E3C
:102E3800000E0658046E03C000F004C001F000360E
:102E48000090013600508A25E96E01508B21EA6E08
:102E5800EECF99FBEECF9AFB000E9CBFFF0E9B6F47
:102E68009C6F000E9ABFFF0E9B6F9C6F88CB00F083
:102E780089CB01F0000E89BFFF0E026E036E8D51E3
:102E8800005E8E51015A8F51025A9051035A99CBC4
:102E980004F09ACB05F09BCB06F09CCB07F02DEC09
:102EA80006F000C0A6FB01C0A7FB02C0A8FB03C038
:102EB800A9FB88CB00F089CB01F0000E89BFFF0E7B
:102EC800026E036E9551005E9651015A9751025A4F
:102ED8009851035A91CB04F092CB05F093CB06F0AE
:102EE80094CB07F02DEC06F0A6CB08F0A7CB09F0A1
:102EF800A8CB0AF0A9CB0BF00050085E0150095A84
:102F080002500A5A03500B5A95CB04F096CB05F0A1
:102F180097CB06F098CB07F08D51045E8E51055A79
:102F28008F51065A9051075A08C000F009C001F0A5
:102F38000AC002F00BC003F0E0DC08D00B01A52B9F
:0E2F48008C51A55DD8A0D8D6006A016A12008F
:102F56000801A16BA26BA36BA46B400E0B018B6FD8
:102F6600000E8C6F88CBB0FB99DD000E026E036EEF
:102F760000500801A1270150A2230250A3230350A9
:102F8600A423010E0B018B5F000E8C5B000E006EFE
:102F96008C51005C02E18B510008E4E3060E006EE2
:102FA600A1C804F0A2C805F0A3C806F0A4C807F09B
:102FB600005007E00732063205320432079EFF0F43
:102FC600F8D704C0A1F805C0A2F806C0A3F807C048
:102FD600A4F804C0A5F805C0A6F889CB00F08ACBF2
:102FE60001F0000E026E036E2DEC06F000C0A1F893
:102FF60001C0A2F802C0A3F803C0A4F8640E046ED0
:10300600000E056E066E076E89EC06F000C0A1F88C
:0E30160001C0A2F802C0A3F803C0A4F8120083
:103024000C0E0F01546F48954885FF0E526F518561
:10303400020E0B01B06F88CBB1FB89CBB2FB84ECE1
:0430440011F0120075
:1030480000C08AFB01C08BFB0B01B06BB16B50EC6D
:1030580013F000C08CFB000E8D6F8CCB01F0006A62
:1030680000C08CFB01C08DFB010EB06F000EB16F6C
:1030780050EC13F0000E016E8C5100268D51012288
:1030880000C08CFB01C08DFB020EB06F000EB16F4B
:1030980050EC13F000C08EFB030EB06F000EB16F42
:1030A80050EC13F000C08FFB040EB06F000EB16F30
:1030B80050EC13F000C090FB050E006E8ACBE1FFC8
:1030C8008BCBE2FF8C0EE96E0B0EEA6EEECFE6FFBD
:0630D8000006FCE11200FD
:1030DE00898C030E0B6E080E0C6E770E0D6E0D2E78
:1030EE00FED70C2EFCD70B2EFAD7899C8A86030EA0
:1030FE000B6E080E0C6E770E0D6E0D2EFED70C2E6F
:10310E00FCD70B2EFAD78A968A88030E0B6E080E02
:10311E000C6E770E0D6E0D2EFED70C2EFCD70B2ED1
:06312E00FAD78A98120096
:10313400A20E0A01E06F2A0EE16FB00EE26F0B0ED1
:10314400E36FC26A0801A71D006E0050C1160F0E7E
:08315400C012C08EC2801200FF
:10315C0088CB02F089CB03F002C000F003C001F071
:10316C00024A032A00C0E9FF01C0EAFFEE5201E067
:10317C00F3D70B018851025C006E89510358016E24
:0A318C00010E005E000E015A120051
:103196000C0E0F015D6F499D498DFF0E526F5185D3
:1031A600010E0B01B06F88CBB1FB89CBB2FB84EC6F
:0431B60011F0120002
:1031BA00BB50010F006E016A000E012288CB04F099
:1031CA00000E056ECCDC060E026E00C004F001C0D3
:1031DA0005F0025005E005320432059EFF0FFAD7CA
:1031EA00040E016E04C000F0015004E000360090A5
:1031FA00FF0FFBD7300E0014036E04C000F005C0A9
:10320A0001F001320032019E01320032019E00C0FB
:0E321A0058FF0F0E0F015717035057131200E5
:0A3228000F01586B5799579B1200D5
:103232000B018851010A0BE10A0EAD6EACB201D04E
:10324200FDD70D0EAD6EACB201D0FDD70AD00A0E7D
:10325200736E72B201D0FDD70D0E736E72B201D0D1
:04326200FDD7120082
:1032660000C008F00B6A0C6A9E0E036E0A6A026AB8
:0E327600016A006A020E0C6EF3EC02F0120008
:103284000B018851070A04E10401586B576B0DD1F7
:103294000B018851080A17E1060E04015603F3CF07
:1032A40001F0F4CF02F0800E006E800E0218005C74
:1032B40002E10150575D07E3060E5603F3CF00F019
:1032C4000050575FF2D00B0188510D0A03E104014D
:1032D400576BEBD00B0188510A0A25E156C400F064
:1032E4000036009000360090003600900050040133
:1032F4005825026E02C058F4070E5603F3CF00F0AF
:10330400F4CF01F002500024026E000E0120036E7F
:10331400800E0318006E800E005C02E1400E025C19
:10332400D8B0586BC2D0200E0B01885D04E38851DD
:103334007E0801E302D03F0E886F896B050E895D1C
:103344005CE2200E885D006E016A000E015A050ED3
:10335400046E000E056E06DC89510026000E012263
:103364007A0E0024F66E8D0E0120F76E000EF86EB4
:10337400000E01BEFF0EF8220900F5CF8BFB8A6B0D
:10338400070E8A5D38E28BA104D0010E0601DA6FC4
:1033940002D00601DA6B04015651010A0EE10B0159
:1033A4008951040157250B01D16F8A510401582515
:1033B4000B01D26F9FEC01F019D00B01895104016C
:1033C4005603F3CF00F0005057250B01B06F8A511C
:1033D40004015603F3CF00F0005058250B01B16FE0
:1033E40056C4B2FB56C4B3FB57EC14F00B018A2B42
:1033F4008B338B9FC5D7892BA1D70601DA6B050EBA
:1034040004015603F3CF00F0005057250B01B06FB1
:1034140058C4B1FB56C4B2FB070E04015603F3CFE4
:10342400B3FB57EC14F0060E04015603F3CF00F07F
:1034340000505727495339E0050E5603F3CF00F0E7
:10344400F4CF01F057510024026E000E0120036EE8
:10345400800E0318006E800E005C02E1800E025C98
:1034640024E3576B56C400F00036009000360090F9
:103474000036009000505825026E02C058F4070E22
:103484005603F3CF00F0F4CF01F002500024026E93
:10349400000E0120036E800E0318006E800E005C87
:0C34A40002E1400E025CD8B0586B120030
:1034B000E6EC0AF050CAB0FB81EC0AF00B01B06BED
:1034C00081EC0AF088CBB0FB81EC0AF0C8EC0DF07F
:0234D0001200E8
:1034D2000B01A86BA96B9C6B9D6B8ACB00F08BCB0D
:1034E20001F08CCB02F0010E8A27000E8B238C2375
:1034F20000C0F6FF01C0F7FF02C0F8FF0900F5CFD8
:1035020000F000C099FB0052D8B477EF2AF099512D
:10351200250A0BE088CBE1FF89CBE2FF99CBE6FFDE
:10352200884B892BA84BA92BD8D79A6B9B6B9C6B8A
:103532009D6B23D09C87010E8A27000E8B238C2340
:1035420059D09C81010E8A27000E8B238C2352D0E6
:103552009C83010E8A27000E8B238C234BD09D87E0
:10356200010E8A27000E8B238C2344D09C85010EEA
:103572008A27000E8B238C233DD08ACBF6FF8BCB80
:10358200F7FF8CCBF8FF0900F5CF01F001502D0AAF
:10359200D1E08ACBF6FF8BCBF7FF8CCBF8FF09008B
:1035A200F5CF01F00150200ACCE08ACBF6FF8BCB9D
:1035B200F7FF8CCBF8FF0900F5CF01F001502B0A81
:1035C200C7E08ACBF6FF8BCBF7FF8CCBF8FF090065
:1035D200F5CF01F00150230AC2E08ACBF6FF8BCB74
:1035E200F7FF8CCBF8FF0900F5CF01F00150300A4C
:1035F200BDE001D09ED79CA301D09C919CA701D095
:103602009C958ACBF6FF8BCBF7FF8CCBF8FF09009A
:10361200F5CF00F0000E016E00C0B0FBA7EC0DF07C
:10362200005236E09A6B9B6B9ACB00F09BCB01F079
:103632000A0E046E000E056EB4EC15F08ACBF6FF8E
:103642008BCBF7FF8CCBF8FF0900F5CF02F00250CD
:1036520000249A6F000E01209B6F300E9A5F000EBD
:103662009B5B010E8A27000E8B238C238ACBF6FFED
:103672008BCBF7FF8CCBF8FF0900F5CF00F0000EE3
:10368200016E00C0B0FBA7EC0DF00052CDE133D0CB
:103692008ACBF6FF8BCBF7FF8CCBF8FF0900F5CF77
:1036A20001F001502A0A27E18DCBE9FF8ECBEAFF18
:1036B200EECF00F0EECF01F000C0E9FF01C0EAFF5B
:1036C200EECF9AFBEECF9BFB8DCBE9FF8ECBEAFFD1
:1036D200020EEE24006E000EEE20016E8DCBE1FF95
:1036E2008ECBE2FF00C0E6FF01C0E6FF010E8A2793
:1036F200000E8B238C238ACBF6FF8BCBF7FF8CCB70
:10370200F8FF0900F5CF01F001502E0A70E1010E19
:103712008A27000E8B238C238ACBF6FF8BCBF7FFF5
:103722008CCBF8FF0900F5CF01F001502A0A28E1FD
:103732008DCBE9FF8ECBEAFFEECF00F0EECF01F0AA
:1037420000C0E9FF01C0EAFFEECF97FBEECF98FB86
:103752008DCBE9FF8ECBEAFF020EEE24006E000E47
:10376200EE20016E8DCBE1FF8ECBE2FF00C0E6FFC3
:1037720001C0E6FF010E8A27000E8B238C2336D070
:10378200976B986B8ACBF6FF8BCBF7FF8CCBF8FF4E
:103792000900F5CF00F0000E016E00C0B0FBA7ECEF
:1037A2000DF0005223E097CB00F098CB01F00A0E07
:1037B200046E000E056EB4EC15F08ACBF6FF8BCBCF
:1037C200F7FF8CCBF8FF0900F5CF02F0025000247E
:1037D200976F000E0120986F300E975F000E985B76
:1037E200010E8A27000E8B238C23CCD703D0976B34
:1037F200986B9D898ACB00F08BCB01F08CCB02F0C9
:10380200010E8A27000E8B238C2300C0F6FF01C015
:10381200F7FF02C0F8FF0900F5CF99FBF9D0A8CB5A
:1038220000F0A9CB01F07BEF2AF09C89E3D79D85BC
:103832002ED19C8B9D812BD19D8329D19C8D27D10B
:1038420026D19C8B9C8F23D18DCBE9FF8ECBEAFFB7
:10385200EECF00F0EECF01F000C0E9FF01C0EAFFB9
:10386200EECFA4FBEECFA5FB8DCBE9FF8ECBEAFF1B
:10387200020EEE24006E000EEE20016E8DCBE1FFF3
:103882008ECBE2FF00C0E6FF01C0E6FF000EA519E5
:1038920002E1000EA41904E1980EA46F080EA56FB0
:1038A200A66BA76BA651A425E96EA751A521EA6EC6
:1038B200EE520BE0010EA625006E000EA721016E4E
:1038C20000C0A6FB01C0A7FBEDD7975198110AE0F3
:1038D200A751985D02E1A651975D04E297CBA6FB42
:1038E20098CBA7FB9B51A75D02E19A51A65D05E229
:1038F200A6519A5FA7519B5B02D09A6B9B6B9CB7B8
:1039020016D09ACB00F09BCB01F0010E9A5F000E0D
:103912009B5B005001100BE088CBE1FF89CBE2FFFB
:10392200200EE66E884B892BA84BA92BEAD7A6CB93
:1039320002F0A7CB03F0010EA65D006E000EA759A0
:10394200016E00C0A6FB01C0A7FB0250031019E0E4
:10395200A4CBE9FFA5CBEAFF88CBE1FF89CBE2FF4D
:10396200EECFE6FF884B892B010EA425006E000ED8
:10397200A521016E00C0A4FB01C0A5FBA84BA92B89
:10398200D6D79CA716D09ACB00F09BCB01F0010EA4
:103992009A5F000E9B5B005001100BE088CBE1FFA9
:1039A20089CBE2FF200EE66E884B892BA84BA92B10
:1039B200EAD793D58DCBE9FF8ECBEAFFEECF00F0AD
:1039C200EECF01F000C0E9FF01C0EAFFEECF99FBA4
:1039D2008DCBE9FF8ECBEAFF020EEE24006E000EC5
:1039E200EE20016E8DCBE1FF8ECBE2FF00C0E6FF41
:1039F20001C0E6FF990EA46F0B0EA56F010EA66F14
:103A0200000EA76F62D7C00E9C13000E9D133FD00D
:103A12009951000AD8B403D799516C0AD8B405D782
:103A220099514C0AD8B401D79951660AD8B4FFD635
:103A32009951450AD8B4FDD69951650AD8B4FAD637
:103A42009951670AD8B4F8D699516F0AD8B4F6D604
:103A52009951640AD8B4F4D69951690AD8B4F0D607
:103A62009951700AD8B4EDD69951580AD8B4E9D60A
:103A72009951780AD8B4E6D69951730AD8B4E4D6E3
:103A82009951630A97E09951750ABDE0B3D7000EC8
:103A92009C15006E9D51070B016E00500110D8B4A9
:103AA2001EEF26F09DA904D0060E976F000E986FA8
:103AB2008DCBE9FF8ECBEAFFEECF00F0EECF01F027
:103AC20000C0E9FF01C0EAFFEECF9EFBEECF9FFBF5
:103AD200EECFA0FBEECFA1FB8DCBE9FF8ECBEAFFB1
:103AE200040EEE24006E000EEE20016E8DCBE1FF7F
:103AF2008ECBE2FF00C0E6FF01C0E6FF046A056A62
:103B0200066A076A9ECB00F09FCB01F0A0CB02F0C1
:103B1200A1CB03F032EC0BF0010ED8B0000E006E18
:103B2200005205E0A07F030E9C13000E9D13A26BB2
:103B3200A36B9ECB00F09FCB01F0A0CB02F0A1CBF8
:103B420003F0046A056A066A076AACEC0BF0000E21
:103B5200D8A4010E006E0052D8B48AD0A1CB00F0D6
:103B6200016A026A036AFF0E0016000E01167E0E3B
:103B7200005E000E015A00C0A2FB01C0A3FB010EB1
:103B8200005E000E015A00C0A2FB01C0A3FB030E9F
:103B9200046E000E056EB4EC15F000C0A2FB01C06D
:103BA200A3FB0A0E046E000E056E5AEC13F000C061
:103BB200A2FB01C0A3FB800E0118026E800E025C04
:103BC20002E1000E005C05E2010E0B01A25F000E95
:103BD200A35B0B01A2510008B06FA6EC0EF09ECBC6
:103BE20004F09FCB05F0A0CB06F0A1CB07F0EEECE2
:103BF20009F000C0A4FB01C0A5FB02C0A6FB03C0E4
:103C0200A7FB000E046E000E056E000E066E7F0E00
:103C1200076EA4CB00F0A5CB01F0A6CB02F0A7CB98
:103C220003F032EC0BF0010ED8B0000E006E005221
:103C320005E0010EA25F000EA35B1AD0000E046E17
:103C4200000E056E200E066E820E076EA4CB00F0EB
:103C5200A5CB01F0A6CB02F0A7CB03F032EC0BF020
:103C6200000ED8B0010E006E005202E0A24BA32B50
:103C7200800E006E800EA319005C02E1A2510008C2
:103C820003E3010E996F02D0A2CB99FB9DB118D02C
:103C92009DA315D0800EA319006E7F0E005C02E179
:103CA200FC0EA25D0BE3800EA319006E800E981924
:103CB200005C02E19751A25D01E201D001D0EFD395
:103CC2009751981106E09DA304D0010E975F000E54
:103CD200985B9851000802E19751080803E2080E28
:103CE200996F02D097CB99FB9ECB00F09FCB01F04E
:103CF200A0CB02F0A1CB03F0046A056A066A076A48
:103D0200ACEC0BF0000ED8A4010E006E0052D8B439
:103D12004BD1A2CBB0FBA6EC0EF000C004F001C068
:103D220005F002C006F003C007F09ECB00F09FCB67
:103D320001F0A0CB02F0A1CB03F092EC12F000C094
:103D42009EFB01C09FFB02C0A0FB03C0A1FB0B01B5
:103D520099510008B06FA6EC0EF000C004F001C04B
:103D620005F002C006F003C007F09ECB00F09FCB27
:103D720001F0A0CB02F0A1CB03F092EC12F000C054
:103D8200AAFB01C0ABFB02C0ACFB03C0ADFBAACBDC
:103D92009EFBABCB9FFBACCBA0FBADCBA1FBAACBDD
:103DA20000F0ABCB01F0ACCB02F0ADCB03F00AECF0
:103DB2000EF099EC0BF000C004F001C005F002C057
:103DC20006F003C007F0AACB00F0ABCB01F0ACCBFE
:103DD20002F0ADCB03F006EC0EF0000E046E000E06
:103DE200056E000E066E7E0E076E32EC0BF0000EB4
:103DF200D8B0010E006E00521AE09ECB00F09FCBAD
:103E020001F0A0CB02F0A1CB03F0000E046E000E75
:103E1200056E000E066E7E0E076EF6EC03F000C015
:103E22009EFB01C09FFB02C0A0FB03C0A1FB9ECB77
:103E320000F09FCB01F0A0CB02F0A1CB03F00AEC83
:103E42000EF00B019951010F096E0A6A000E0A2247
:103E520009C004F00AC005F0000E0ABEFF0E066E8D
:103E6200076E04360490053606360736043604908B
:103E7200053606360736ED0E0424F66E8F0E052043
:103E8200F76E000E0620F86E0900F5CF05F0090066
:103E9200F5CF06F00900F5CF07F00900F5CF08F0DD
:103EA2000850035C08E10750025C05E10650015C22
:103EB20002E10550005C1EE30B019ECB00F09FCB9C
:103EC20001F0A0CB02F0A1CB03F0CD0E046ECC0E1C
:103ED200056E4C0E066E7B0E076EEEEC09F000C00E
:103EE2009EFB01C09FFB02C0A0FB03C0A1FBA24B33
:103EF200A32B5AD09ECB00F09FCB01F0A0CB02F0B7
:103F0200A1CB03F00AEC0EF099CB04F0000E056E83
:103F1200066E076E043604900536063607360436FA
:103F22000490053606360736ED0E0424F66E8F0E23
:103F32000520F76E000E0620F86E0900F5CF05F099
:103F42000900F5CF06F00900F5CF07F00900F5CF1B
:103F520008F00850035C08E10750025C05E10650D6
:103F6200015C02E10550005C1FE20B019ECB00F0F8
:103F72009FCB01F0A0CB02F0A1CB03F0000E046EA8
:103F8200000E056E200E066E820E076EEEEC09F034
:103F920000C09EFB01C09FFB02C0A0FB03C0A1FBAF
:103FA200010EA25F000EA35B0B019DA393D09DB7F0
:103FB20091D0800E000A006E800E9819005C02E11A
:103FC20097510A0804E20A0E976F000E986F9ECB73
:103FD20000F09FCB01F0A0CB02F0A1CB03F00AECE2
:103FE2000EF000C0A4FB01C0A5FB02C0A6FB03C0EB
:103FF200A7FBA451A511A611A71142E00A0E046E57
:10400200000E056E066E076EA4CB00F0A5CB01F084
:10401200A6CB02F0A7CB03F089EC06F008C000F0B3
:1040220009C001F00AC002F00BC003F0000E046EDA
:10403200031808E10450021805E10450011802E1D6
:104042000050000A1DE1010E975F000E985B0A0EF8
:10405200046E000E056E066E076EA4CB00F0A5CBB3
:1040620001F0A6CB02F0A7CB03F089EC06F000C06A
:10407200A4FB01C0A5FB02C0A6FB03C0A7FBB9D7E6
:10408200800E9819006E800E005C02E19951975DD6
:1040920021E29751995DB06FA6EC0EF000C004F0DA
:1040A20001C005F002C006F003C007F09ECB00F08D
:1040B2009FCB01F0A0CB02F0A1CB03F092EC12F067
:1040C20000C09EFB01C09FFB02C0A0FB03C0A1FB7E
:1040D20097CB99FB050E0B019725006E000E9821D8
:1040E200016E00509A5F01509B5B9751981103E15A
:1040F2009DB701D004D0010E9A5F000E9B5B030EA8
:104102009C15006E9DCB01F0000E011600500110AF
:1041120004E0010E9A5F000E9B5B9CA539D09CA324
:1041220012D09CA103D02D0E8F6F02D02B0E8F6F59
:1041320088CBE1FF89CBE2FF8FCBE6FF884B892B4F
:10414200A84BA92B0CD09CA10AD088CBE1FF89CB2C
:10415200E2FF200EE66E884B892BA84BA92B800E1E
:10416200006E800E9B19005C02E19A5100080FE27A
:1041720088CBE1FF89CBE2FF300EE66E884B892BBC
:10418200A84BA92B010E9A5F000E9B5BE8D73AD091
:104192009CB718D0800E006E800E9B19005C02E165
:1041A2009A5100080FE288CBE1FF89CBE2FF200E93
:1041B200E66E884B892BA84BA92B010E9A5F000E45
:1041C2009B5BE8D79CA312D09CA103D02D0E906FCD
:1041D20002D02B0E906F88CBE1FF89CBE2FF90CB10
:1041E200E6FF884B892BA84BA92B0CD09CA10AD0A7
:1041F20088CBE1FF89CBE2FF200EE66E884B892B4C
:10420200A84BA92B9ECB00F09FCB01F0A0CB02F0D4
:10421200A1CB03F00AEC0EF000C0A4FB01C0A5FB89
:1042220002C0A6FB03C0A7FB99CB00F0000E016EF3
:10423200026E036E003600900136023603360036F7
:104242000090013602360336ED0E0024F66E8F0E14
:104252000120F76E000E0220F86E0900F5CF04F07F
:104262000900F5CF05F00900F5CF06F00900F5CFFA
:1042720007F0A4CB00F0A5CB01F0A6CB02F0A7CBB0
:1042820003F089EC06F0300E002688CBE1FF89CBE3
:10429200E2FF00C0E6FF884B892BA84BA92B975160
:1042A200981103E19DB701D06FD088CBE1FF89CB94
:1042B200E2FF2E0EE66E884B892BA84BA92B995153
:1042C200975F000E985B99534DE0990799CB00F0E8
:1042D200000E016E026E036E003600900136023649
:1042E200033600360090013602360336ED0E002406
:1042F200F66E8F0E0120F76E000E0220F86E090096
:10430200F5CF04F00900F5CF05F00900F5CF06F06E
:104312000900F5CF07F0A4CB00F0A5CB01F0A6CBA6
:1043220002F0A7CB03F089EC06F00A0E046E000E31
:10433200056E066E076E89EC06F008C000F009C033
:1043420001F00AC002F00BC003F0300E002688CB49
:10435200E1FF89CBE2FF00C0E6FF884B892BA84B27
:10436200A92BB1D7975198110FE088CBE1FF89CBE8
:10437200E2FF300EE66E884B892BA84BA92B010E6B
:10438200975F000E985BEED79CAB0BD088CBE1FF1A
:1043920089CBE2FF450EE66E884B892BA84BA92BF1
:1043A2000AD088CBE1FF89CBE2FF650EE66E884B2F
:1043B200892BA84BA92B800EA319006E800E005CDE
:1043C20002E1000EA25D11E2A2510008A26FA35108
:1043D200000EA35788CBE1FF89CBE2FF2D0EE66EDC
:1043E200884B892BA84BA92B0AD088CBE1FF89CB1C
:1043F200E2FF2B0EE66E884B892BA84BA92B0A0EE7
:10440200046E000E056EA2CB00F0A3CB01F05AECB5
:1044120013F0300E002688CBE1FF89CBE2FF00C00B
:10442200E6FF0B01884B892BA84BA92B0A0E046EC1
:10443200000E056EA2CB00F0A3CB01F05AEC13F0F4
:1044420008C000F009C001F0300E002688CBE1FF61
:1044520089CBE2FF00C0E6FF0B01884B892BA84BFA
:10446200A92B9CA71AD0800E006E800E9B19005CAF
:1044720002E19A51000811E288CBE1FF89CBE2FF09
:10448200200EE66E884B892BA84BA92B010E9A5F52
:10449200000E9B5B9A519B11EFE16EEF1AF09DA308
:1044A200F3D0800EA319006E800E005C02E1000EB4
:1044B200A25D0AE2010EA25D006E000EA359016E1A
:1044C2000050975F0150985B9ECB00F09FCB01F0AC
:1044D200A0CB02F0A1CB03F00AEC0EF000C0A4FBCB
:1044E20001C0A5FB02C0A6FB03C0A7FB010E996F8A
:1044F20099510A0A34E099CB00F0000E016E026E67
:10450200036E003600900136023603360036009004
:10451200013602360336ED0E0024F66E8F0E0120B0
:10452200F76E000E0220F86E0900F5CF01F00900C7
:10453200F5CF02F00900F5CF03F00900F5CF04F042
:104542000450A75D08E10350A65D05E10250A55D98
:1045520002E10150A45D01E202D0992BC9D7995121
:10456200975DAE6F000E9859AF6FAECB97FBAFCB96
:1045720098FBA4CB00F0A5CB01F0A6CB02F0A7CB11
:1045820003F099EC0BF000C004F001C005F002C08A
:1045920006F003C007F09ECB00F09FCB01F0A0CB4A
:1045A20002F0A1CB03F006EC0EF000C0AAFB01C0A2
:1045B200ABFB02C0ACFB03C0ADFBAECBB0FBA6ECC9
:1045C2000EF0AACB04F0ABCB05F0ACCB06F0ADCB32
:1045D20007F0EEEC09F0000E046E000E056E000E00
:1045E200066E7E0E076EF6EC03F00AEC0EF000C0CB
:1045F200A4FB01C0A5FB02C0A6FB03C0A7FB975109
:10460200981142E00A0E046E000E056E066E076EE9
:10461200A4CB00F0A5CB01F0A6CB02F0A7CB03F010
:1046220089EC06F008C000F009C001F00AC002F0EF
:104632000BC003F0000E046E031808E104500218C8
:1046420005E10450011802E10050000A1DE10A0EC2
:10465200046E000E056E066E076EA4CB00F0A5CBAD
:1046620001F0A6CB02F0A7CB03F089EC06F000C064
:10467200A4FB01C0A5FB02C0A6FB03C0A7FB010E61
:10468200975F000E985BBBD7800E006E800E981964
:10469200005C02E197510C0816E397CBB0FB2CECBF
:1046A2000CF09ECB04F09FCB05F0A0CB06F0A1CB83
:1046B20007F0F6EC03F000C09EFB01C09FFB02C0B6
:1046C200A0FB03C0A1FB9ECB00F09FCB01F0A0CBCF
:1046D20002F0A1CB03F0046A056A066A076AACEC31
:1046E2000BF0000ED8A4010E006E0052D8B477D0A1
:1046F2009ECB00F09FCB01F0A0CB02F0A1CB03F048
:104702000AEC0EF0000E046E031808E104500218C1
:1047120005E10450011802E10050000A60E1800E38
:10472200006E800EA319005C02E1A251010857E25B
:10473200A2CBB0FBA6EC0EF000C004F001C005F065
:1047420002C006F003C007F09ECB00F09FCB01F041
:10475200A0CB02F0A1CB03F092EC12F05F0E046E3C
:10476200700E056E090E066E810E076E32EC0BF0AE
:10477200010ED8B0000E006E005206E0090E0B01C9
:10478200A25F000EA35B05D00B01080EA25F000E14
:10479200A35BA2CBB0FBA6EC0EF000C004F001C0FC
:1047A20005F002C006F003C007F09ECB00F09FCBDD
:1047B20001F0A0CB02F0A1CB03F092EC12F00AECD4
:1047C2000EF000C0A4FB01C0A5FB02C0A6FB03C003
:1047D200A7FB0B019E6B9F6BA06BA16B38D09ECB8E
:1047E20000F09FCB01F0A0CB02F0A1CB03F00AECCA
:1047F2000EF000C0A4FB01C0A5FB02C0A6FB03C0D3
:10480200A7FBA4CB00F0A5CB01F0A6CB02F0A7CB6F
:1048120003F099EC0BF000C004F001C005F002C0F7
:1048220006F003C007F09ECB00F09FCB01F0A0CBB7
:1048320002F0A1CB03F006EC0EF000C09EFB01C01B
:104842009FFB02C0A0FB03C0A1FBA26BA36B010EE6
:10485200996F99510A0A34E099CB00F0000E016E6B
:10486200026E036E003600900136023603360036C1
:104872000090013602360336ED0E0024F66E8F0EDE
:104882000120F76E000E0220F86E0900F5CF01F04C
:104892000900F5CF02F00900F5CF03F00900F5CFCA
:1048A20004F00450A75D08E10350A65D05E1025043
:1048B200A55D02E10150A45D01E202D0992BC9D7A6
:1048C20099519725006E000E9821016EA251002683
:1048D200A351012200509A5F01509B5B9DB704D007
:1048E2009751981101E104D0010E9A5F000E9B5B73
:1048F200030E9C15006E9DCB01F0000E01160050B8
:10490200011004E0010E9A5F000E9B5B9CA539D05A
:104912009CA312D09CA103D02D0E916F02D02B0E1E
:10492200916F88CBE1FF89CBE2FF91CBE6FF884B09
:10493200892BA84BA92B0CD09CA10AD088CBE1FFD4
:1049420089CBE2FF200EE66E884B892BA84BA92B60
:10495200800E006E800E9B19005C02E19A510008E5
:104962000FE288CBE1FF89CBE2FF300EE66E884B87
:10497200892BA84BA92B010E9A5F000E9B5BE8D7EF
:104982003AD09CB718D0800E006E800E9B19005C46
:1049920002E19A5100080FE288CBE1FF89CBE2FFE6
:1049A200200EE66E884B892BA84BA92B010E9A5F2D
:1049B200000E9B5BE8D79CA312D09CA103D02D0EC6
:1049C200926F02D02B0E926F88CBE1FF89CBE2FF70
:1049D20092CBE6FF884B892BA84BA92B0CD09CA12C
:1049E2000AD088CBE1FF89CBE2FF200EE66E884B2E
:1049F200892BA84BA92B99CB00F0990700524CE0C8
:104A020099CB00F0000E016E026E036E003600902C
:104A1200013602360336003600900136023603367E
:104A2200ED0E0024F66E8F0E0120F76E000E0220AE
:104A3200F86E0900F5CF04F00900F5CF05F0090082
:104A4200F5CF06F00900F5CF07F0A4CB00F0A5CB17
:104A520001F0A6CB02F0A7CB03F089EC06F00A0E18
:104A6200046E000E056E066E076E89EC06F008C035
:104A720000F009C001F00AC002F00BC003F0300ED2
:104A8200002688CBE1FF89CBE2FF00C0E6FF884B1E
:104A9200892BA84BA92BAFD7800E006E800EA319CD
:104AA200005C02E1A25100080FE288CBE1FF89CB52
:104AB200E2FF300EE66E884B892BA84BA92B010E24
:104AC200A25F000EA35BE8D7800E000A006E800E84
:104AD2009819005C02E19751080803E2080E996FE9
:104AE20002D097CB99FB9951975F000E985B99532F
:104AF20003E19DB701D00AD088CBE1FF89CBE2FF69
:104B02002E0EE66E884B892BA84BA92B99CBB0FBB6
:104B1200A6EC0EF09ECB04F09FCB05F0A0CB06F0E6
:104B2200A1CB07F0EEEC09F0BEEC13F000C0A4FB41
:104B320001C0A5FB02C0A6FB03C0A7FB99534DE031
:104B4200990799CB00F0000E016E026E036E0036DB
:104B520000900136023603360036009001360236E6
:104B62000336ED0E0024F66E8F0E0120F76E000E56
:104B72000220F86E0900F5CF04F00900F5CF05F028
:104B82000900F5CF06F00900F5CF07F0A4CB00F03D
:104B9200A5CB01F0A6CB02F0A7CB03F089EC06F07F
:104BA2000A0E046E000E056E066E076E89EC06F0A4
:104BB20008C000F009C001F00AC002F00BC003F007
:104BC200300E002688CBE1FF89CBE2FF00C0E6FF72
:104BD200884B892BA84BA92BB1D7975198110FE07D
:104BE20088CBE1FF89CBE2FF300EE66E884B892B42
:104BF200A84BA92B010E975F000E985BEED79CA7DE
:104C02001AD0800E006E800E9B19005C02E19A5150
:104C1200000811E288CBE1FF89CBE2FF200EE66EAD
:104C2200884B892BA84BA92B010E9A5F000E9B5B28
:104C32009A519B11EFE16EEF1AF0C00E9C15016EB6
:104C42009DCB02F0000E0216000E021802E1000EC9
:104C52000118D8A480D09CA927D08DCBE9FF8ECB98
:104C6200EAFFEECF00F0EECF01F000C0E9FF01C095
:104C7200EAFFEECFA4FBEECFA5FBEECFA6FBEECF75
:104C8200A7FB8DCBE9FF8ECBEAFF040EEE24006E6C
:104C9200000EEE20016E8DCBE1FF8ECBE2FF00C055
:104CA200E6FF01C0E6FF2FD08DCBE9FF8ECBEAFFF6
:104CB200EECF00F0EECF01F000C0E9FF01C0EAFF45
:104CC200EECF00F0EECF01F0000E01BEFF0E026E3D
:104CD200036E00C0A4FB01C0A5FB02C0A6FB03C07B
:104CE200A7FB8DCBE9FF8ECBEAFF020EEE24006E0E
:104CF200000EEE20016E8DCBE1FF8ECBE2FF00C0F5
:104D0200E6FF01C0E6FF800EA719006E800E005C70
:104D120008E1000EA65D05E1000EA55D02E1000EB0
:104D2200A45D18E2030E9C13000E9D13006A016A33
:104D3200026A036AA451005EA551015AA651025AA1
:104D4200A751035A00C0A4FB01C0A5FB02C0A6FBE9
:104D520003C0A7FB4ED09CA927D08DCBE9FF8ECBF9
:104D6200EAFFEECF00F0EECF01F000C0E9FF01C094
:104D7200EAFFEECFA4FBEECFA5FBEECFA6FBEECF74
:104D8200A7FB8DCBE9FF8ECBEAFF040EEE24006E6B
:104D9200000EEE20016E8DCBE1FF8ECBE2FF00C054
:104DA200E6FF01C0E6FF25D08DCBE9FF8ECBEAFFFF
:104DB200EECF00F0EECF01F000C0E9FF01C0EAFF44
:104DC200EECFA4FBEECFA5FB000EA66FA76F8DCB97
:104DD200E9FF8ECBEAFF020EEE24006E000EEE20FB
:104DE200016E8DCBE1FF8ECBE2FF00C0E6FF01C07A
:104DF200E6FF000E981902E1000E97190FE1000E6E
:104E0200006EA71908E10050A61905E10050A51986
:104E120002E1A451000A02E1974B982BC00E9C15A7
:104E2200006E00C005F0AED0010E996F99510A0ACA
:104E320034E099CB00F0000E016E026E036E003674
:104E420000900136023603360036009001360236F3
:104E52000336ED0E0024F66E8F0E0120F76E000E63
:104E62000220F86E0900F5CF01F00900F5CF02F03B
:104E72000900F5CF03F00900F5CF04F00450A75D57
:104E820008E10350A65D05E10250A55D02E1015073
:104E9200A45D01E202D0992BC9D782D0010E996F8D
:104EA2009951080A34E099CB00F0000E016E026EAF
:104EB200036E00360090013602360336003600904B
:104EC200013602360336150E0024F66E900E0120CE
:104ED200F76E000E0220F86E0900F5CF01F009000E
:104EE200F5CF02F00900F5CF03F00900F5CF04F089
:104EF2000450A75D08E10350A65D05E10250A55DDF
:104F020002E10150A45D01E202D0992BC9D748D039
:104F1200010E996F99510C0A34E099CB00F0000E02
:104F2200016E026E036E00360090013602360336C1
:104F320000360090013602360336BD0E0024F66EAE
:104F42008F0E0120F76E000E0220F86E0900F5CFD9
:104F520001F00900F5CF02F00900F5CF03F00900D6
:104F6200F5CF04F00450A75D08E10350A65D05E10A
:104F72000250A55D02E10150A45D01E202D0992B2D
:104F8200C9D70ED00550000AD8B44ED70550C00A72
:104F9200D8B44AD70550800A81E00550400AB8E0EB
:104FA200800E006E800E9819005C02E19751995DA7
:104FB20003E297CB99FB0DD0800E9819006E800EFC
:104FC200005C02E19951975D04E299CB97FB000ED8
:104FD200986F9A519B110EE0030E9C15006E9DCBAB
:104FE20001F0000E01160050011004E0010E9A5F5C
:104FF200000E9B5B800E9819006E800E9B19005C60
:1050020002E19A51975D05E297519A5F98519B5B35
:1050120002D09A6B9B6BC40E9C15016E9D51080BBE
:10502200026E0250080A02E1400E011808E19A518C
:105032009B1104E0010E9A5F000E9B5B1CD0C00E18
:105042009C15016E9D51080B026E0250080A02E186
:10505200800E011810E1800E006E800E9B19005C1C
:1050620002E19A51020805E2020E9A5F000E9B5B72
:1050720002D09A6B9B6B9CA55DD09CA312D09CA185
:1050820003D02D0E936F02D02B0E936F88CBE1FFCE
:1050920089CBE2FF93CBE6FF884B892BA84BA92B48
:1050A20034D09CA10BD088CBE1FF89CBE2FF200E4C
:1050B200E66E884B892BA84BA92B27D0C00E9C15D6
:1050C200016E9D51080B026E0250080A02E1800E29
:1050D20001181BE188CBE1FF89CBE2FF300EE66EBF
:1050E200884B892BA84BA92B9CAB03D0580E946FED
:1050F20002D0780E946F88CBE1FF89CBE2FF94CB8C
:10510200E6FF884B892BA84BA92B9A519B1111E0E2
:1051120088CBE1FF89CBE2FF300EE66E884B892B0C
:10512200A84BA92B010E9A5F000E9B5B9A519B1113
:10513200EFE174D09A519B1113E09CB711D088CB48
:10514200E1FF89CBE2FF200EE66E884B892BA84B4C
:10515200A92B010E9A5F000E9B5B9A519B11EFE106
:105162009CA312D09CA103D02D0E956F02D02B0EC2
:10517200956F88CBE1FF89CBE2FF95CBE6FF884BA9
:10518200892BA84BA92B0CD09CA10AD088CBE1FF7C
:1051920089CBE2FF200EE66E884B892BA84BA92B08
:1051A200C00E9C15016E9D51080B026E0250080A3A
:1051B20002E1400E01180BE188CBE1FF89CBE2FF4F
:1051C200300EE66E884B892BA84BA92B27D0C00E38
:1051D2009C15016E9D51080B026E0250080A02E1F5
:1051E200800E01181BE188CBE1FF89CBE2FF300E74
:1051F200E66E884B892BA84BA92B9CAB03D0580E8B
:10520200966F02D0780E966F88CBE1FF89CBE2FFD2
:1052120096CBE6FF884B892BA84BA92B800E006EFC
:10522200800E9819005C02E19751995D0BE288CBE0
:10523200E1FF89CBE2FF300EE66E884B892BA84B4B
:10524200A92BECD797CB00F098CB01F0010E975F1A
:10525200000E985B00500110D8B42AD1C00E9C15E4
:10526200006E00C0AAFB0AD197CB00F098CB01F0E8
:10527200000E98BFFF0E026E036E003600900136DC
:105282000236033600360090013602360336ED0E42
:105292000024F66E8F0E0120F76E000E0220F86ECB
:1052A2000900F5CF04F00900F5CF05F00900F5CFAC
:1052B20006F00900F5CF07F0A4CB00F0A5CB01F072
:1052C200A6CB02F0A7CB03F089EC06F00A0E046E1F
:1052D200000E056E066E076E89EC06F008C000F03F
:1052E20009C001F00AC002F00BC003F0300E002426
:1052F200996FD3D09CAB45D097CB00F098CB01F0FF
:10530200000E98BFFF0E026E036E0036009001364B
:105312000236033600360090013602360336150E89
:105322000024F66E900E0120F76E000E0220F86E39
:105332000900F5CF04F00900F5CF05F00900F5CF1B
:1053420006F00900F5CF07F0A4CB00F0A5CB01F0E1
:10535200A6CB02F0A7CB03F089EC06F00F0E0016E5
:10536200000E0116021603165F0E0024F66E900E52
:105372000120F76E000E0220F86E0900F5CF99FBAE
:1053820044D097CB00F098CB01F0000E98BFFF0EEF
:10539200026E036E00360090013602360336003686
:1053A2000090013602360336150E0024F66E900E7A
:1053B2000120F76E000E0220F86E0900F5CF04F00E
:1053C2000900F5CF05F00900F5CF06F00900F5CF89
:1053D20007F0A4CB00F0A5CB01F0A6CB02F0A7CB3F
:1053E20003F089EC06F00F0E0016000E01160216ED
:1053F20003164E0E0024F66E900E0120F76E000E7C
:105402000220F86E0900F5CF99FB47D097CB00F048
:1054120098CB01F0000E98BFFF0E026E036E0036AD
:10542200009001360236033600360090013602360D
:105432000336BD0E0024F66E8F0E0120F76E000EAD
:105442000220F86E0900F5CF04F00900F5CF05F04F
:105452000900F5CF06F00900F5CF07F0A4CB00F064
:10546200A5CB01F0A6CB02F0A7CB03F089EC06F0A6
:10547200070E0014996F300E99270FD0AA51000A17
:10548200D8B4F2D6AA51C00AD8B4EED6AA51800A2C
:10549200D8B430D7AA51400AB9E088CBE1FF89CB12
:1054A200E2FF99CBE6FF884B892BA84BA92BCAD6E2
:1054B2009CA71AD0800E006E800E9B19005C02E140
:1054C2009A51000811E288CBE1FF89CBE2FF200E5E
:1054D200E66E884B892BA84BA92B010E9A5F000E12
:1054E2009B5B9A519B11EFE16EEF1AF0A8CB00F093
:0654F200A9CB01F012003D
:1054F8000B6A0350D8B4C2EF2AF002500A6E028E2B
:105508008E0E035E03AEC6EF2AF0036C080E035C32
:10551800D8A0A1EF2AF0036E013602C001F0026A9A
:10552800080E035CD8A0A1EF2AF0036E0136016AC9
:105538000350D8A4D890ABEF2AF00350D8B4ABEFFF
:105548002AF0D89002320132032EA5EF2AF00BBCC4
:1055580001A0B8EF2AF0D8A0B8EF2AF0012AD8B4F1
:10556800022A02BED5EF2AF00AAEDBEF2AF0021EAD
:10557800011E012AD8B4022ADBEF2AF0026A016A66
:10558800DBEF2AF00B800BAEDFEF2AF0026A0AAEDF
:10559800DFEF2AF0FF0E026E016E0A360232DFEFED
:1055A8002AF0010E0C6E16EC06F0E1EF2AF0000E60
:1055B8000C6EE1EF2AF0FF0E0C6E0150006E0250E7
:0455C800016E12005E
:0C55CC009390BA840C0E0F0157131200CC
:1055D8000B018D6B8E6B88CB8FFB000E88BFFF0E87
:1055E800906F800E8819006E800E000A005C0AE237
:1055F8008D4B8E2B885100088F6F906B000E88BFE3
:10560800FF0E905B8FCBB0FB89CBB1FB8ACBB2FB93
:10561800CAEC0DF0040E8B6F000E8C6F000E006E3E
:105628008C51005C02E18B51000819E28B518925ED
:10563800E16E8C518A21E26E010E8B5D006E000EC8
:105648008C59016E00508925E96E01508A21EA6E55
:10565800EECFE6FF010E8B5F000E8C5BDFD789CBA8
:10566800E1FF8ACBE2FF200EE66E8D518E111AE023
:105678008B6B8C6B8B518925E96E8C518A21EA6E74
:10568800EE50200A03E18B4B8C2BF4D7010E8B5F75
:10569800000E8C5B8B518925E16E8C518A21E26E5C
:0656A8002D0EE66E12005B
:1056AE0089CB00F00032009E0032009E0032009E38
:1056BE000032009E700E0024F66E900EF76E000EF5
:1056CE00F722000EF86E000EF8220900F5CF00F05A
:1056DE008ACBE1FF8BCBE2FF00C0E6FF010E0B0190
:1056EE008A25E16E000E8B21E26E0F0E8915006E7B
:1056FE00700E0024F66E900EF76E000EF722000E5E
:10570E00F86E000EF8220900F5CF00F000C0E6FF9B
:10571E00020E8A25E16E000E8B21E26E88CB00F020
:10572E000032009E0032009E0032009E0032009E2B
:10573E00700E0024F66E900EF76E000EF722000E1D
:10574E00F86E000EF8220900F5CF00F000C0E6FF5B
:10575E00030E8A25E16E000E8B21E26E0F0E881568
:10576E00006E700E0024F66E900EF76E000EF7228D
:10577E00000EF86E000EF8220900F5CF00F000C002
:10578E00E6FF040E8A25E16E000E8B21E26EE66ABC
:02579E001200F7
:1057A00089CBE9FF8ACBEAFFEE501F0820E20B010C
:1057B0008851010A0CE189CBE9FF8ACBEAFFEECFE1
:1057C000ADFF894B8A2BACB201D0FDD70FD00B01B6
:1057D0008851020A0BE189CBE9FF8ACBEAFFEECFC1
:1057E00073FF894B8A2B72B201D0FDD7D9D7120033
:1057F000020E0B01B06F800EB16FB26BB36B84EC15
:1058000015F0340E0C6EF10E0D6E0D2EFED70C2E13
:10581000FCD7000000008B9289CB00F0016A00C029
:10582000B0FB78EC14F000C08AFB88CBB0FB78ECBE
:1058300014F08B828ACB03F0026A000E016E0250D4
:085840000026035001221200B2
:105848000B018C6B050E8C5D0AE28C518A25E16E8A
:10585800000E8B21E26E200EE66E8C2BF3D78C5156
:105868008A25E16E000E8B21E26EE66A8C078C5168
:105878008A258D6F000E8B218E6F0A0E046E000E26
:10588800056E88CB00F089CB01F011EC0CF008C054
:1058980000F009C001F0300E00268DCBE1FF8ECB61
:1058A800E2FF00C0E6FF0A0E046E000E056E88CB0C
:1058B80000F089CB01F011EC0CF000C088FB01C0AE
:1058C80089FB000E011802E1000E001801E102D068
:0658D8008C07CDD7120081
:1058DE000B01916B926B89518B5D8D6F8A518C5937
:1058EE008E6F89CB8FFB8ACB90FB8851000A05E126
:1058FE00D20E916F000E926F07D08851010A04E10B
:10590E00AA0E916F000E926F000E08018E6F000EA0
:10591E008F6F200E906F800E916F9A0E8A6F990E78
:10592E008B6F190E8C6F7E0E8D6F000E756F000EC5
:10593E00766F000E776F7F0E786F8DCB00F08ECB6B
:10594E0001F030EC15F0000E046E000E056EA00E88
:10595E00066E800E076EEEEC09F000C06DF801C009
:10596E006EF802C06FF803C070F80B018D510A017A
:10597E00C625016E0B018E510A01C721026E01C0B0
:10598E00C6FA02C0C7FA800E08017419006E800EA6
:10599E000218005C02E10150735D04E273C8C6FA9E
:1059AE0074C8C7FA800E0A01C719006E800E08016E
:1059BE007219005C03E171510A01C65D04E271C8FF
:1059CE00C6FA72C8C7FA000E08018A190B01936F46
:1059DE00000E08018B190B01946F800E08018C19B3
:1059EE000B01956F000E08018D190B01966FC6CA3B
:1059FE0000F0C7CA01F030EC15F093CB04F094CB55
:105A0E0005F095CB06F096CB07F0EEEC09F000C052
:105A1E0097FB01C098FB02C099FB03C09AFB97CB82
:105A2E00F9F998CBFAF999CBFBF99ACBFCF9000E60
