:10000000B4EF1EF0FFFFFFFF00C019F001C018F0B1
:1000100002C017F00CC016F00DC015F0E1CF1AF0B9
:10002000E2CF1BF07EA44ED07DA44CD004018151C0
:10003000FF0A02E1898C0ED08151000A02E1899CFD
:1000400009D0000E2C5D02E181512B5D03E3897C18
:100050002B6B2C6B0201C151FF0A02E18A8611D081
:10006000C151000A02E18A960CD0000E0301FA5D2C
:1000700004E10201C1510301F95D03E38A76F96BE2
:10008000FA6B0201C051FF0A02E18A8811D0C05107
:10009000000A02E18A980CD0000E0301FC5D04E125
:1000A0000201C0510301FB5D03E38A78FB6BFC6B2B
:1000B00004012B4B2C2B0301F94BFA2BFB4BFC2B94
:1000C0007E9403D1F2A40ED0F2AA0CD00201342BFC
:1000D000312B010E0101EB6F3C0ED76EB00ED66EC8
:1000E000F294F3D09EAAF1D09DAAEFD00A0E02019D
:1000F000C06F06018E958EB502D08E9101D08E8193
:100100008EB102D08E9301D08E838E87956B966BC5
:10011000976B986B8F6B8EB18DD08EB38BD08EB565
:1001200089D09EAA70D0ABB403D0ABB201D016D0A8
:10013000AB98ABB802D0AC9A01D0AC8AACBA02D0C2
:10014000AB9E01D0AB8EAB88ABB802D0AC9A01D0DD
:10015000AC8AACBA02D0AB9E01D0AB8E0601AECF5A
:100160008FF6010E995D016E000E9A59026E0250D3
:10017000985D02E10150975D44E292532FE0905365
:100180001AE08F511F0812E26D0E9725E16E060EE0
:100190009821E26E8FC6E6FF010E9725006E000ED5
:1001A0009821016E00C097F601C098F68F51911901
:1001B000D8B48E8512D06D0E9725E16E060E98216B
:1001C000E26E8FC6E6FF010E9725006E000E9821A5
:1001D000016E00C097F601C098F612D06D0E9725FB
:1001E000E16E060E9821E26E8FC6E6FF010E97259E
:1001F000006E000E9821016E00C097F601C098F6BF
:1002000002D08E818E97010E9525006E000E9621EC
:10021000016E00C095F601C096F69651945D02E11C
:100220009551935DD8A08E83020E0D6E0D2EFED7D4
:10023000000071D76D0E9725E16E060E9821E26ED3
:10024000E66A8EA307D0925305E0905303E08EB583
:1002500001D08E978EA138D0340E0C6EF10E0D6E3B
:100260000D2EFED70C2EFCD7000000009EAA2BD02E
:10027000ABB403D0ABB201D016D0AB98ABB802D0C0
:10028000AC9A01D0AC8AACBA02D0AB9E01D0AB8E96
:10029000AB88ABB802D0AC9A01D0AC8AACBA02D071
:1002A000AB9E01D0AB8E6D0EE16E060EE26E8F51ED
:1002B000E126D8B0E22AAECFE6FF1A0E0D6E0D2E63
:1002C000FED70000D3D78E9700D019C000F018C019
:1002D00001F017C002F016C00CF015C00DF01AC0E6
:1002E000E1FF1BC0E2FF11000AAE029E000E1200E9
:1002F0000B820BAE82EF01F00368026801680068B0
:100300000A360232FF0E1200026A016A006A086AA7
:10031000036A000E12000B840BAE96EF01F0010E83
:10032000036E026A016A006A0A360232FF0E120088
:10033000220E0C6E086A096A0A6A0B6A0C06D8B4A7
:100340001FD0D8900B320A320932083203320232FF
:1003500001320032D8A0F2D70C06D8B409D004502C
:1003600008260550092206500A2207500B22EAD718
:10037000045008260550092206500A2207500B2275
:1003800012000B6A0A6A096A086A0E6A03340836A0
:100390000450085E0550D8A0053C095E0650D8A060
:1003A000063C0A5E0750D8A0073C0B5EE86AD8A05E
:1003B000010E0E5E0336070E0C6E03340836093646
:1003C0000A360B360E36045003A012D0085E0550D4
:1003D000D8A0053C095E0650D8A0063C0A5E07502E
:1003E000D8A0073C0B5EE86AD8A0010E0E5E11D0C3
:1003F00008260550D8B0053C09260650D8B0063C62
:100400000A260750D8B0073C0B26E86AD8B0010E80
:100410000E2603360C2ED1D70234083609360A369A
:100420000B360E36045003A012D0085E0550D8A03B
:10043000053C095E0650D8A0063C0A5E0750D8A0CD
:10044000073C0B5EE86AD8A0010E0E5E11D00826AC
:100450000550D8B0053C09260650D8B0063C0A26FF
:100460000750D8B0073C0B26E86AD8B0010E0E261C
:100470000236070E0C6E0234083609360A360B3681
:100480000E36045002A012D0085E0550D8A0053CDC
:10049000095E0650D8A0063C0A5E0750D8A0073C6B
:1004A0000B5EE86AD8A0010E0E5E11D0082605503A
:1004B000D8B0053C09260650D8B0063C0A2607509D
:1004C000D8B0073C0B26E86AD8B0010E0E260236DB
:1004D0000C2ED1D70134083609360A360B360E36C3
:1004E000045002A012D0085E0550D8A0053C095E59
:1004F0000650D8A0063C0A5E0750D8A0073C0B5E09
:10050000E86AD8A0010E0E5E11D008260550D8B0BA
:10051000053C09260650D8B0063C0A260750D8B03C
:10052000073C0B26E86AD8B0010E0E260136070EEE
:100530000C6E0134083609360A360B360E36045076
:1005400001A012D0085E0550D8A0053C095E0650F7
:10055000D8A0063C0A5E0750D8A0073C0B5EE86AAC
:10056000D8A0010E0E5E11D008260550D8B0053C6B
:1005700009260650D8B0063C0A260750D8B0073CDA
:100580000B26E86AD8B0010E0E2601360C2ED1D704
:100590000034083609360A360B360E36045001A0F0
:1005A00012D0085E0550D8A0053C095E0650D8A0C0
:1005B000063C0A5E0750D8A0073C0B5EE86AD8A04C
:1005C000010E0E5E11D008260550D8B0053C092654
:1005D0000650D8B0063C0A260750D8B0073C0B2678
:1005E000E86AD8B0010E0E260036070E0C6E0034F5
:1005F000083609360A360B360E36045000A012D0E3
:10060000085E0550D8A0053C095E0650D8A0063CFF
:100610000A5E0750D8A0073C0B5EE86AD8A0010E1E
:100620000E5E11D008260550D8B0053C09260650AC
:10063000D8B0063C0A260750D8B0073C0B26E86A1B
:10064000D8B0010E0E2600360C2ED1D700B00ED039
:10065000045008260550D8B0053C09260650D8B0ED
:10066000063C0A260750D8B0073C0B2612000CB0F7
:1006700079EF03F00CA21FEF04F00E6A000E026483
:1006800090EF03F0F00E0214D8A45BEF03F0023AEF
:1006900001380F0B02260138F00B016E00380F0BEA
:1006A00001260038F00B006E08380F0B00260838C2
:1006B000F00B086E0E84D89002BE74EF03F008367B
:1006C0000036013602360E2A02BE74EF03F00836F9
:1006D0000036013602360E2A02BE74EF03F00836E9
:1006E0000036013602360E2A0E50036415EF04F070
:1006F000035E0BBC08AE1AEF04F0D880800E0864CD
:100700000030000E002201220222D8A01AEF04F0CD
:10071000023201320032034A1FEF04F01AEF04F0F4
:1007200001C002F000C001F008C000F0086A000E2D
:100730000E860264C7EF03F0F00E0214D8A4AFEFE8
:1007400003F0023A01380F0B02260138F00B016E5C
:1007500000380F0B01260038F00B006E0E84D89085
:1007600002BE74EF03F00036013602360E2A02BED6
:1007700074EF03F00036013602360E2A02BE74EF23
:1007800003F00036013602360E2A74EF03F001C082
:1007900002F000C001F0006A000E0E960E8802649E
:1007A000F4EF03F0F00E0214D8A4DFEF03F0023AE6
:1007B00001380F0B02260138F00B016E0E84D89021
:1007C00002BE74EF03F0013602360E2A02BE74EF49
:1007D00003F0013602360E2A02BE74EF03F0013632
:1007E00002360E2A74EF03F001C002F0016A000E17
:1007F0000E86026424EF04F0F00E0214D8A403EF76
:1008000004F0023A0E84D89002BE74EF03F0023670
:100810000E2A02BE74EF03F002360E2A02BE74EFF7
:1008200003F002360E2A74EF03F0010E0C6E73DD36
:1008300027EF04F0020E0C6E57DD27EF04F0040ED4
:100840000C6E56DD27EF04F0080E0C6E5DDD120015
:100850000C6A0E6A0250D8A441EF04F001C002F005
:1008600000C001F0006A0E860250D8A441EF04F0E7
:1008700001C002F0016A0E960E880250D8B453EF00
:1008800004F00E50035ED8A4D8A058EF04F0D8901E
:1008900002BE5DEF04F0003601360236032E48EF4B
:1008A00004F058EF04F0010E0C6E2EDD60EF04F042
:1008B000020E0C6E30DD60EF04F0040E0C6E14DDE1
:1008C00012000B800BAE6DEF04F0026A0AAEFF0E51
:1008D000026E016E006E0A360232FF0E12001D0E0D
:1008E0000D6E0D2EFED712000450085E0550D8A0E4
:1008F000053C095E0650D8A0063C0A5E0750D8A009
:10090000073C0B5E0336070E0C6E033408360936BF
:100910000A360B36045003A00ED0085E0550D8A04E
:10092000053C095E0650D8A0063C0A5E0750D8A0D8
:10093000073C0B5E0DD008260550D8B0053C0926B3
:100940000650D8B0063C0A260750D8B0073C0B2604
:1009500003360C2EDAD70234083609360A360B363F
:10096000045003A00ED0085E0550D8A0053C095ED7
:100970000650D8A0063C0A5E0750D8A0073C0B5E84
:100980000DD008260550D8B0053C09260650D8B031
:10099000063C0A260750D8B0073C0B260236070E45
:1009A0000C6E0234083609360A360B36045002A0A3
:1009B0000ED0085E0550D8A0053C095E0650D8A0B0
:1009C000063C0A5E0750D8A0073C0B5E0DD00826F7
:1009D0000550D8B0053C09260650D8B0063C0A267A
:1009E0000750D8B0073C0B2602360C2EDAD701345C
:1009F000083609360A360B36045002A00ED0085EBF
:100A00000550D8A0053C095E0650D8A0063C0A5EF9
:100A10000750D8A0073C0B5E0DD008260550D8B073
:100A2000053C09260650D8B0063C0A260750D8B027
:100A3000073C0B260136070E0C6E013408360936CA
:100A40000A360B36045001A00ED0085E0550D8A01F
:100A5000053C095E0650D8A0063C0A5E0750D8A0A7
:100A6000073C0B5E0DD008260550D8B0053C092682
:100A70000650D8B0063C0A260750D8B0073C0B26D3
:100A800001360C2EDAD70034083609360A360B3612
:100A9000045001A00ED0085E0550D8A0053C095EA8
:100AA0000650D8A0063C0A5E0750D8A0073C0B5E53
:100AB0000DD008260550D8B0053C09260650D8B000
:100AC000063C0A260750D8B0073C0B260036070E16
:100AD0000C6E0034083609360A360B36045000A076
:100AE0000ED0085E0550D8A0053C095E0650D8A07F
:100AF000063C0A5E0750D8A0073C0B5E0DD00826C6
:100B00000550D8B0053C09260650D8B0063C0A2648
:100B10000750D8B0073C0B2600360C2EDAD700B0B1
:100B20000ED0045008260550D8B0053C09260650C2
:100B3000D8B0063C0A260750D8B0073C0B26120056
:100B4000086A080E0C6E003408360450085ED8B0EF
:100B500002D00826D89000360C2EF5D712000B1EB6
:100B60000A1E091E081E082AD8B4092AD8B40A2A5F
:100B7000D8B40B2A1200830EC21671C700F00036DB
:100B80000090003600900050C212A9DEC282C2A2BC
:100B900001D0FDD7C4CF01F0006A00C072F701C0D8
:100BA00073F7C3500012000E011200C072F701C0AB
:100BB00073F7000E0014026E0150800B036E000EDE
:100BC000031802E1000E021803E00701726B736B59
:100BD00072C700F073C701F0120000C008F00150A6
:100BE000006E016A026A036A0B6A0C6A016A026A91
:100BF000036A960E036E0A6A00AE05EF06F0081E41
:100C0000001E082AD8B4002A0A8E00C001F008C0CD
:100C100000F0086A026A1CDE12000450000A12E1A9
:100C20000550000A0FE10650000A0CE10750000AC7
:100C300009E1FF0E006EFF0E016EFF0E026E7F0EC9
:100C4000036E97D00C6A07BE0C2A0D6A0B6A0A6AFB
:100C5000096A086A0350021001100010D8B484D049
:100C6000035007180E6E0EBE0D1E07AE0BD0041EED
:100C7000051E061E071E042AD8B4052AD8B4062A63
:100C8000D8B4072A03AE0BD0001E011E021E031E9D
:100C9000002AD8B4012AD8B4022AD8B4032A0350AF
:100CA00007100E6E0EBE1CD01FDE0CBE36D00DAE71
:100CB0005BD0001E011E021E031E002AD8B4012AAA
:100CC000D8B4022AD8B4032A081E091E0A1E0B1E15
:100CD000082AD8B4092AD8B40A2AD8B40B2A44D08E
:100CE00007AE15D003BE0DD003500B6E02500A6E36
:100CF0000150096E0050086E036A026A016A006AB8
:100D0000D6D7036A026A016A006A002A000C031E31
:100D1000021E011E001E0C8EC7D7082AD8B4092A4D
:100D2000D8B40A2AD8B40B2A0450085CD8A4BFD778
:100D30000550095CD8A4BBD706500A5CD8A4B7D725
:100D400007500B5CD8A4B3D70B6A0A6A096A086A11
:100D5000002AD8B4012AD8B4022AD8B4032A03AE90
:100D6000A6D70E6A0E88FF0C0E6A0CA001D0F7DE23
:100D7000000F12000701746B756B72C700F073C728
:100D800001F0000E026E036E640E046E000E056E1E
:100D9000066E076E98EC01F000C0AFF401C0B0F42D
:100DA00002C0B1F403C0B2F41EC004F01FC005F0CD
:100DB000000E066E076EC1EC01F000C0AFF401C07A
:100DC000B0F402C0B1F403C0B2F4000E035C08E159
:100DD000000E025C05E1030E015C02E1FF0E005C07
:100DE00008E3FF0E0401AF6F030EB06F000EB16F8A
:100DF000B26FAFC474F7B0C475F707017151010A3F
:100E000061E1010E0401AF15016EB0C402F0B1C47E
:100E100003F0B2C404F0000E021603160416000E0E
:100E2000006E041808E10050031805E10050021894
:100E300002E10150010A03E10F015D8902D00F01B7
:100E40005D99020E0401AF15016EB0C402F0B1C489
:100E500003F0B2C404F0000E021603160416000ECE
:100E6000006E041808E10050031805E10050021854
:100E700002E10150020A03E10F015D8B02D00F0174
:100E80005D9BAFC400F0B0C401F0B1C402F0B2C4C5
:100E900003F00332023201320032039E0332023287
:100EA00001320032039E00C0AFF401C0B0F402C0B2
:100EB000B1F403C0B2F400C05EFF74C700F075C7A0
:100EC00001F065D007017151020A61E1010E0401D0
:100ED000AF15016EB0C402F0B1C403F0B2C404F0A7
:100EE000000E021603160416000E006E041808E128
:100EF0000050031805E10050021802E10150010AF8
:100F000003E10F01548902D00F015499020E04012C
:100F1000AF15016EB0C402F0B1C403F0B2C404F066
:100F2000000E021603160416000E006E041808E1E7
:100F30000050031805E10050021802E10150020AB6
:100F400003E10F01548B02D00F01549BAFC400F09A
:100F5000B0C401F0B1C402F0B2C403F003320232F3
:100F600001320032039E0332023201320032039E0C
:100F700000C0AFF401C0B0F402C0B1F403C0B2F4D9
:100F800000C055FF74C700F075C701F000D0120013
:100F900071C7C9FFC7B002D00000FCD7C9CF00F0AD
:100FA00012000B6A0A6A096A00500402F4CF09F0C1
:100FB000F3CF08F001500502F4CF0BF0F3CF0AF0A5
:100FC00000500502F3500926F4500A22E86A0B2269
:100FD00001500402F3500926F4500A22E86A0B2259
:100FE00008C000F009C001F00AC002F00BC003F015
:100FF00012000B6A0C6A0A6A0350D8B42EEF08F08C
:101000000A9E028E860E035E03BE0CEF08F0D8B473
:101010000CEF08F031EF08F0036C080E035CD8A069
:101020001AEF08F0036E0236026A0350D8A4D89073
:1010300023EF08F00350D8B423EF08F0D890023221
:10104000032E1EEF08F00BBC02A02EEF08F0D8A074
:101050002EEF08F0022AD8B438EF08F0016A3DEF0D
:1010600008F00B800BAE41EF08F0016A41EF08F089
:10107000010E0C6E26DC43EF08F0000E0C6E43EF01
:1010800008F0FF0E0C6E0250006E1200C69A900E11
:101090000701316F0F0E326F710E336F070E346F11
:1010A000FF0E356FFF0E366FFF0E376FFF0E386F76
:1010B000949A7151040A02E1948601D0949694881E
:1010C000C66AC79CC79E7151C6127351C61272512F
:1010D000C712735305E07451000AD8B4C78C03D00B
:1010E0007453D8A4C78CC68A12000701746B030E10
:1010F000745D0AE274517225E16E000E7321E26E96
:10110000200EE66E742BF3D774517225E16E000E3B
:101110007321E26EE66A740774517225756F000ED2
:101120007321766F0A0E046E71C700F009DD08C0E6
:1011300000F0300E002675C7E1FF76C7E2FF00C061
:10114000E6FF0A0E046E71C700F0FADC00C071F70A
:101150000050000A01E102D07407DED712000B6ACA
:101160000B86FF0E12000A6A0350D8A40A800750AB
:10117000D8A40A820A50D8B416EF09F0030AD8B4EA
:10118000CFEF08F00AB0CAEF08F006AE14EF09F08E
:1011900012EF09F002AE12EF09F014EF09F002505D
:1011A000800B0A6E029E0650800B069E0A18D8B469
:1011B000E0EF08F00A50D8B412EF09F014EF09F08C
:1011C0000750035CD8B4EAEF08F0D8A006EF09F0A6
:1011D0000CEF09F00650025CD8B4F4EF08F0D8A088
:1011E00006EF09F00CEF09F00550015CD8B4FEEFF2
:1011F00008F0D8A006EF09F00CEF09F00450005CED
:10120000D8B416EF09F0D8B00CEF09F00A52D8B4F0
:1012100014EF09F012EF09F00A52D8B412EF09F0F6
:1012200014EF09F0D8801200D8901200D880D8842A
:1012300012001200086A096A000E076203649FEF39
:1012400009F0025006180A6E075003267E0ED8A039
:1012500030EF09F0035ED8B0A4EF09F034EF09F0E5
:10126000035ED8A0A9EF09F0028E068E02C00EF030
:1012700001C00BF000C00DF000500402F4CF0CF0E0
:1012800001500502F4CF00F0F3CF08F00402F35050
:101290000C26F4500822000E00220D500502F350D7
:1012A0000C26F4500822000E002202500402F350D3
:1012B0000826F450002202500502016A000E0122A5
:1012C000F3500026F45001220D500602F350082678
:1012D000F4500022026A000E012202220B50060284
:1012E000F3500026F4500122000E02220E50060296
:1012F000F3500126F450022202BE87EF09F00836AF
:101300000036013602360306D8B4A9EF09F09AEF89
:1013100009F0D880800E08640030000E00220122FF
:101320000222D8A09AEF09F0023201320032034AB9
:10133000A4EF09F00AAE029E000EACEF09F0010E18
:1013400084EC01F0ACEF09F0020E78EC01F0ACEFA8
:1013500009F0040E8BEC01F01200086A096A100E05
:101360000C6E0134083609360450085E0550D8A0CA
:10137000053C095ED8B007D0045008260550D8B007
:10138000053C0926D890003601360C2EEAD712000B
:10139000025006180E6E086A096A0B6A0350076449
:1013A000BBEF0AF006500A6E068E028E03500B6EDB
:1013B0000750036E000E0B640BEF0AF00B50075E34
:1013C000D8B4ACEF0AF0070E07647AEF0AF0075EB4
:1013D00000C008F001C000F002C001F0026A074E30
:1013E000ACEF0AF007644FEF0AF0075E00C008F0A8
:1013F00001C000F0016A074EACEF0AF007642DEF60
:101400000AF0075E00C008F0006A074EACEF0AF071
:10141000076414EF0AF00AC002F005C001F004C02E
:1014200000F0086AD8EF0BF0030E07641FEF0AF014
:10143000075E08380F0B086E074EACEF0AF0D89025
:101440000832074EACEF0AF0D8900832074EACEFE6
:101450000AF0D8900832ACEF0AF0030E07643EEFB2
:101460000AF0075E08380F0B086E0038F00B0826EC
:1014700000380F0B006E074EACEF0AF0D890003228
:101480000832074EACEF0AF0D89000320832074E0F
:10149000ACEF0AF0D89000320832ACEF0AF0030E3D
:1014A000076466EF0AF0075E08380F0B086E003815
:1014B000F00B082600380F0B006E0138F00B0026E9
:1014C00001380F0B016E074EACEF0AF0D8900132D5
:1014D00000320832074EACEF0AF0D89001320032E9
:1014E0000832074EACEF0AF0D890013200320832D1
:1014F000ACEF0AF0030E076497EF0AF0075E0838B6
:101500000F0B086E0038F00B082600380F0B006E2A
:101510000138F00B002601380F0B016E0238F00B7A
:10152000012602380F0B026E074EACEF0AF0D8907E
:101530000232013200320832074EACEF0AF0D89086
:101540000232013200320832074EACEF0AF0D89076
:101550000232013200320832096A000E0EAEA0EFEC
:101560000BF0081E001E011E021E082A0022012286
:101570000222A0EF0BF00750D8A4C1EF0AF0D8EF79
:101580000BF0096A02C00AF0028E068E0750035C57
:10159000076ED8B493EF0BF0070E076461EF0BF002
:1015A000075E0450096E0550046E0650056E066A0B
:1015B000074E93EF0BF0070E076436EF0BF0075E54
:1015C0000450096E0550046E056A074E93EF0BF048
:1015D000070E076414EF0BF0075E0450096E046AEF
:1015E000074E93EF0BF0070E0764FBEF0AF00AC0FB
:1015F00002F0D8EF0BF0030E076406EF0BF0075E66
:1016000009380F0B096E074E93EF0BF0D890093293
:10161000074E93EF0BF0D8900932074E93EF0BF083
:10162000D890093293EF0BF0030E076425EF0BF00F
:10163000075E09380F0B096E0438F00B09260438D1
:101640000F0B046E074E93EF0BF0D8900432093263
:10165000074E93EF0BF0D89004320932074E93EF08
:101660000BF0D8900432093293EF0BF0030E0764AD
:101670004DEF0BF0075E09380F0B096E0438F00BC5
:10168000092604380F0B046E0538F00B04260538C4
:101690000F0B056E074E93EF0BF0D8900532043216
:1016A0000932074E93EF0BF0D8900532043209321D
:1016B000074E93EF0BF0D89005320432093293EFC6
:1016C0000BF0030E07647EEF0BF0075E09380F0B7B
:1016D000096E0438F00B092604380F0B046E053828
:1016E000F00B042605380F0B056E0638F00B0526A7
:1016F00006380F0B066E074E93EF0BF0D8900632AC
:10170000053204320932074E93EF0BF0D8900632BF
:10171000053204320932074E93EF0BF0D8900632AF
:10172000053204320932086A000E0EAEA0EF0BF04B
:10173000091E041E051E061E092A04220522062271
:1017400009500826045000220550012206500222AA
:101750000EBEB7EF0BF0D8A0C6EF0BF0023201328D
:1017600000320832033EC6EF0BF0D2EF0BF0D8B0D8
:10177000CCEF0BF0000E081E001E011E021E082AF0
:101780000022012202220A7ECCEF0BF0010E0C6E29
:1017900037EC03F0DAEF0BF0020E0C6E37EC03F0CF
:1017A000DAEF0BF0040E0C6E78EC01F0DAEF0BF0D0
:1017B000000E0C6E12000050086E0150006E016A9F
:1017C000026A036A0B6A0C6A960E036E0A6A00C00C
:1017D00001F008C000F0086A026A28EC04F0120068
:1017E000A69C72C7AAFF71C7A9FFA69EA680A8CF14
:1017F00000F012000C0E0F015D6F499D498DFF0E28
:10180000526F5185010E0701716F4FC772F750C7B4
:1018100073F7BAEC06F012000C0E0F01546F4895E6
:101820004885FF0E526F5185020E0701716F4FC739
:1018300072F750C773F7BAEC06F012009390BA84AF
:101840000C0E0F0157131200067EA2DD12000401D8
:10185000AF6BB06BB16BB26B400E0701526F000EF5
:10186000536F4FC771F7BBEC05F0000E026E036EAD
:1018700000500401AF270150B0230250B1230350A0
:10188000B223010E0701525F000E535B000E006E83
:101890005351005C02E152510008E3E3060E006E72
:1018A000AFC404F0B0C405F0B1C406F0B2C407F090
:1018B000005007E00732063205320432079EFF0F60
:1018C000F8D704C0AFF405C0B0F406C0B1F407C047
:1018D000B2F404C0C8F305C0C9F350C700F051C743
:1018E00001F0000E026E036E98EC01F000C0AFF440
:1018F00001C0B0F402C0B1F403C0B2F4640E046ECF
:10190000000E056E066E076EC1EC01F000C0AFF46C
:1019100001C0B0F402C0B1F403C0B2F4120004502C
:10192000000A12E10550000A0FE10650000A0CE11E
:101930000750000A09E1FF0E006EFF0E016E7F0ED8
:10194000026EFF0E036EA8D0086A096A0750D8B469
:101950003AEF0DF00350D8B43FEF0DF002500618E7
:101960000A6E028E068E0E6A02C008F001C00CF0EC
:1019700000C00DF004500D5E0550D8A0053C0C5E73
:101980000650D8A0063C085E086A0C6A0D6AD8A00A
:10199000D1EF0CF0D8900232013200320832010E41
:1019A0000E6E0750035ED8A0DEEF0CF07E0E0E2404
:1019B0000326D8B044EF0DF0E4EF0CF07E0E0E24B9
:1019C0000326D8A049EF0DF0180E0B6E0D360C361D
:1019D00008360036013602360E360450005E0550D9
:1019E000D8A0053C015E0650D8A0063C025E063435
:1019F0000E120EA0FFEF0CF00D800AEF0DF0045058
:101A000000260550D8B0053C01260650D8B006285F
:101A100002260D900B2EE6EF0CF030EF0DF0D89073
:101A20000036013602360E360450005E0550D8A04E
:101A3000053C015E0650D8A0063C025E06340E103E
:101A4000010B0D26D8B00C2AD8B4082AD8A430EF40
:101A50000DF008320C320D32032AD8B444EF0DF0E9
:101A60000AAE089E0850026E0C50016E0D50006EBA
:101A70004CEF0DF0010EAFEC08F04CEF0DF0020E44
:101A800084EC01F04CEF0DF0040E78EC01F04CEF1B
:101A90000DF0080E8BEC01F012000B6A0350D8B465
:101AA00093EF0DF002500A6E028E8E0E035E03AEAF
:101AB00097EF0DF0036C080E035CD8A072EF0DF0E9
:101AC000036E013602C001F0026A080E035CD8A062
:101AD00072EF0DF0036E0136016A0350D8A4D8905E
:101AE0007CEF0DF00350D8B47CEF0DF0D8900232AB
:101AF0000132032E76EF0DF00BBC01A089EF0DF043
:101B0000D8A089EF0DF0012AD8B4022A02BEA6EFB0
:101B10000DF00AAEACEF0DF0021E011E012AD8B482
:101B2000022AACEF0DF0026A016AACEF0DF00B80F7
:101B30000BAEB0EF0DF0026A0AAEB0EF0DF0FF0E83
:101B4000026E016E0A360232B0EF0DF0010E0C6E1D
:101B500061EC04F0B2EF0DF0000E0C6EB2EF0DF080
:101B6000FF0E0C6E0150006E0250016E1200BB5051
:101B7000010F006E016A000E01224FC704F0000E33
:101B8000056ED1EC07F0060E026E00C004F001C035
:101B900005F0025005E005320432059EFF0FFAD72A
:101BA000040E016E04C000F0015004E00036009005
:101BB000FF0FFBD7300E0014036E04C000F005C009
:101BC00001F001320032019E01320032019E00C05C
:101BD00058FF0F0E0F01571703505713120050C72D
:101BE000E9FF51C7EAFFEE501F0820E207014F51FD
:101BF000010A0CE150C7E9FF51C7EAFFEECFADFF84
:101C0000504B512BACB201D0FDD70FD007014F5133
:101C1000020A0BE150C7E9FF51C7EAFFEECF73FF9D
:101C2000504B512B72B201D0FDD7D9D7120007010A
:101C3000536B050E535D0AE253515125E16E000EC0
:101C40005221E26E200EE66E532BF3D753515125ED
:101C5000E16E000E5221E26EE66A530753515125A0
:101C6000546F000E5221556F0A0E046E000E056E61
:101C70004FC700F050C701F0ADEC09F008C000F00C
:101C800009C001F0300E002654C7E1FF55C7E2FF3E
:101C900000C0E6FF0A0E046E000E056E4FC700F08E
:101CA00050C701F0ADEC09F000C04FF701C050F78C
:101CB000000E011802E1000E001801E102D05307E6
:101CC000CDD712004FC702F050C703F002C000F09A
:101CD00003C001F0024A032A00C0E9FF01C0EAFF85
:101CE000EE5201E0F3D707014F51025C006E5051F4
:101CF0000358016E010E005E000E015A120000C072
:101D000051F701C052F70701716B726B69DD00C0BA
:101D100053F7000E546F53C701F0006A00C053F729
:101D200001C054F7010E716F000E726F59DD000E85
:101D3000016E535100265451012200C053F701C0D7
:101D400054F7020E716F000E726F4ADD00C055F736
:101D5000030E716F000E726F43DD00C056F7040E64
:101D6000716F000E726F3CDD00C057F7050E006EFC
:101D700051C7E1FF52C7E2FF530EE96E070EEA6E4C
:101D8000EECFE6FF0006FCE11200760E06019B6F27
:101D90000B0E9C6F710E9D6F070E9E6FC26A1D1C0D
:101DA000006E0050C1160F0EC012C08EC28012000D
:101DB00050C700F00032009E0032009E0032009EAC
:101DC0000032009E250E0024F66E500EF76E000EB7
:101DD000F722000EF86E000EF8220900F5CF00F091
:101DE00051C7E1FF52C7E2FF00C0E6FF010E070145
:101DF0005125E16E000E5221E26E0F0E5015006E5D
:101E0000250E0024F66E500EF76E000EF722000E1F
:101E1000F86E000EF8220900F5CF00F000C0E6FFD2
:101E2000020E5125E16E000E5221E26E4FC700F006
:101E30000032009E0032009E0032009E0032009E62
:101E4000250E0024F66E500EF76E000EF722000EDF
:101E5000F86E000EF8220900F5CF00F000C0E6FF92
:101E6000030E5125E16E000E5221E26E0F0E4F154A
:101E7000006E250E0024F66E500EF76E000EF7224F
:101E8000000EF86E000EF8220900F5CF00F000C039
:101E9000E6FF040E5125E16E000E5221E26EE66A65
:101EA0001200898C030E0B6E080E0C6E770E0D6EF1
:101EB0000D2EFED70C2EFCD70B2EFAD7899C8A86C6
:101EC000030E0B6E080E0C6E770E0D6E0D2EFED7E8
:101ED0000C2EFCD70B2EFAD78A968A88030E0B6E2F
:101EE000080E0C6E770E0D6E0D2EFED70C2EFCD745
:101EF0000B2EFAD78A9812000701546B556B566B5C
:101F0000576B586B596B5A6B5B6B5C6B5D6B5E6BA5
:101F10005F6B606B616B626B636B646B656B666B55
:101F2000676B686B696B6A6B6B6B6C6B51C7E9FFB6
:101F300052C7EAFFEECF64F7EECF65F7000E67BF3A
:101F4000FF0E666F676F000E65BFFF0E666F676FEF
:101F50005305036E046A000E045A03C000F004C067
:101F600001F000360090013600505125E96E015015
:101F70005221EA6EEECF68F7EECF69F7000E6BBF25
:101F8000FF0E6A6F6B6F000E69BFFF0E6A6F6B6F9B
:101F9000800E6719006E800E50BF7F0E005C0AE154
:101FA000000E50BFFF0E665D05E15051655D02E118
:101FB0004F51645D12E353C700F0000E016E00360E
:101FC0000090013600505125E96E01505221EA6E11
:101FD000EECF00F0EECF01F05ED1800E50BF7F0E4D
:101FE000006E800E6B19005C0CE1000E50BFFF0EFE
:101FF000006E6A51005C05E16951505D02E1685173
:102000004F5D1EE353515325006E016A000E0122FD
:10201000010E005C036E000E0158046E03C000F058
:1020200004C001F000360090013600505125E96EE1
:1020300001505221EA6EEECF00F0EECF01F02BD12D
:102040006CC700F0000E016E0036009001360050A3
:102050005125E96E01505221EA6EEECF54F7EECFD2
:1020600055F7000E57BFFF0E566F576F000E55BF46
:10207000FF0E566F576F000E50BFFF0E006E5719C0
:1020800008E10050561905E15051551902E154512B
:102090004F1918E153516C25036E046A000E042297
:1020A00003C000F004C001F000360090013600507B
:1020B0005125E96E01505221EA6EEECF00F0EECFCD
:1020C00001F0E9D0800E50BF7F0E006E800E5719D0
:1020D000005C0CE1000E50BFFF0E006E5651005C1C
:1020E00005E15551505D02E154514F5DD8B0CBD060
:1020F0006C515325056E066A000E062205C000F0DD
:1021000006C001F000360090013600505125E96EFE
:1021100001505221EA6EEECF58F7EECF59F7000E7C
:102120005BBFFF0E5A6F5B6F000E59BFFF0E5A6FF9
:102130005B6F6C05036E046A000E045A03C000F066
:1021400004C001F000360090013600505125E96EC0
:1021500001505221EA6EEECF5CF7EECF5DF7000E34
:102160005FBFFF0E5E6F5F6F000E5DBFFF0E5E6FA5
:102170005F6F010E055C036E000E0658046E03C00F
:1021800000F004C001F000360090013600505125E7
:10219000E96E01505221EA6EEECF60F7EECF61F7A3
:1021A000000E63BFFF0E626F636F000E61BFFF0E14
:1021B000626F636F4FC700F050C701F0000E50BF51
:1021C000FF0E026E036E5451005E5551015A565176
:1021D000025A5751035A60C704F061C705F062C73D
:1021E00006F063C707F098EC01F000C06DF701C07E
:1021F0006EF702C06FF703C070F74FC700F050C70B
:1022000001F0000E50BFFF0E026E036E5C51005EC7
:102210005D51015A5E51025A5F51035A58C704F08A
:1022200059C705F05AC706F05BC707F098EC01F0F4
:102230006DC708F06EC709F06FC70AF070C70BF0E2
:102240000050085E0150095A02500A5A03500B5AB6
:102250005CC704F05DC705F05EC706F05FC707F016
:102260005451045E5551055A5651065A5751075A52
:1022700008C000F009C001F00AC002F00BC003F072
:102280000DEC06F008D007016C2B53516C5DD8A003
:10229000D7D6006A016A12000701586B596B50517A
:1022A000525D546F51515359556F50C756F751C72E
:1022B00057F74F51000A05E1D20E586F000E596FC3
:1022C00007D04F51010A04E1AA0E586F000E596F52
:1022D000000E05010D6F000E0E6F200E0F6F800EA9
:1022E000106F9A0E016F990E026F190E036F7E0E1A
:1022F000046F000E056F000E066F000E076F7F0E55
:10230000086F54C700F055C701F0EDEC05F0000E62
:10231000046E000E056EA00E066E800E076E1AEC9F
:1023200009F000C009F501C00AF502C00BF503C0B1
:102330000CF5070154512625016E55512721026ED7
:1023400001C026F702C027F7800E0001CC19006EED
:10235000800E0218005C02E10150CB5D04E2CBC0AC
:1023600026F7CCC027F7800E07012719006E800ED4
:102370000001CE19005C03E1CD510701265D04E2A6
:10238000CDC026F7CEC027F7000E050101190701C1
:102390005A6F000E0501021907015B6F800E0501DF
:1023A000031907015C6F000E0501041907015D6F39
:1023B00026C700F027C701F0EDEC05F05AC704F07E
:1023C0005BC705F05CC706F05DC707F01AEC09F0C3
:1023D00000C05EF701C05FF702C060F703C061F79D
:1023E0005EC7D3F05FC7D4F060C7D5F061C7D6F041
:1023F000000E0501051907015A6F000E05010619A7
:1024000007015B6F800E0501071907015C6F000E65
:102410000501081907015D6F5651245D006E575183
:102420002559016EEDEC05F05AC704F05BC705F0C5
:102430005CC706F05DC707F01AEC09F000C05AF758
:1024400001C05BF702C05CF703C05DF75AC7CFF06D
:102450005BC7D0F05CC7D1F05DC7D2F056C724F798
:1024600057C725F709C500F00AC501F00BC502F0F2
:102470000CC503F05EC704F05FC705F060C706F047
:1024800061C707F0C8EC09F05AC704F05BC705F054
:102490005CC706F05DC707F0C8EC09F000C05AF74A
:1024A00001C05BF702C05CF703C05DF75AC7A2F03A
:1024B0005BC7A3F05CC7A4F05DC7A5F058C700F0E8
:1024C00059C701F0DBEC0BF05AC704F05BC705F00D
:1024D0005CC706F05DC707F0B3EC08F0010ED8B09A
:1024E000000E006E00520EE058C700F059C701F010
:1024F000DBEC0BF000C0A2F001C0A3F002C0A4F01E
:1025000003C0A5F0046A056A066A076AA2C000F063
:10251000A3C001F0A4C002F0A5C003F0B3EC08F022
:10252000010ED8B0000E006E005205E00001A26B53
:10253000A36BA46BA56BA2C000F0A3C001F0A4C064
:1025400002F0A5C003F0F9EC07F0000E016E1200D6
:1025500000C008F00B6A0C6A9E0E036E0A6A026ADB
:10256000016A006A020E0C6E37EC03F01200020ED4
:102570000701716F800E726F736B746B46EC08F01D
:10258000340E0C6EF10E0D6E0D2EFED70C2EFCD7F8
:10259000000000008B9250C700F0016A00C071F784
:1025A000C8EC07F000C051F74FC771F7C8EC07F04F
:1025B0008B8251C703F0026A000E016E02500026A2
:1025C0000350012212000F01586B5799579B1200BC
:1025D00007014F51390806E3300E4F5D03E3010E4A
:1025E000006E01D0006A120007014F51010A0BE191
:1025F0000A0EAD6EACB201D0FDD70D0EAD6EACB211
:1026000001D0FDD70AD00A0E736E72B201D0FDD789
:102610000D0E736E72B201D0FDD712000701546B1C
:10262000556B4FC756F7000E4FBFFF0E576F800E0A
:102630004F19006E800E000A005C0AE2544B552BC5
:102640004F510008566F576B000E4FBFFF0E575B80
:1026500056C771F750C772F751C773F775EC08F09A
:10266000040E526F000E536F000E006E5351005C4B
:1026700002E15251000819E252515025E16E5351C6
:102680005121E26E010E525D006E000E5359016E33
:1026900000505025E96E01505121EA6EEECFE6FF61
:1026A000010E525F000E535BDFD750C7E1FF51C7E9
:1026B000E2FF200EE66E545155111AE0526B536B37
:1026C00052515025E96E53515121EA6EEE50200AC5
:1026D00003E1524B532BF4D7010E525F000E535BB4
:1026E00052515025E16E53515121E26E2D0EE66E8E
:1026F0001200010E07014F6F6E0E506F000E516FEA
:10270000EFEC0DF07CC04FF77DC050F7390E07019C
:10271000516F070E526F17EC0EF0010E4F6F390E0E
:10272000506F070E516FEFEC0DF0010E07014F6F68
:10273000740E506F000E516FEFEC0DF053C44FF755
:1027400054C450F7390E0701516F070E526F17EC42
:102750000EF0010E4F6F390E506F070E516FEFECF8
:102760000DF0010E07014F6F1D0E506F030E516FDC
:10277000EFEC0DF01BC34FF71CC350F7390E0701E8
:10278000516F070E526F17EC0EF0010E4F6F390E9E
:10279000506F070E516FEFEC0DF0010E07014F6FF8
:1027A000220E506F030E516FEFEC0DF072C44FF715
:1027B00073C450F7390E0701516F070E526F17ECB3
:1027C0000EF0010E4F6F390E506F070E516FEFEC88
:1027D0000DF0010E07014F6F2E0E506F030E516F5B
:1027E000EFEC0DF082C44FF783C450F7390E0701A8
:1027F000516F070E526F17EC0EF0010E4F6F390E2E
:10280000506F070E516FEFEC0DF0010E07014F6F87
:10281000270E506F030E516FEFEC0DF086C04FF78F
:1028200087C050F7390E0701516F070E526F17EC32
:102830000EF0010E4F6F390E506F070E516FEFEC17
:102840000DF0010E07014F6F140E506F030E516F04
:10285000EFEC0DF06CC04FF76DC050F7390E07016B
:10286000516F070E526F17EC0EF0010E4F6F390EBD
:10287000506F070E516FEFEC0DF0010E07014F6F17
:10288000B3DE1200896A89CF80FF270E0F01386FEF
:10289000AF0E926E8A6A8ACF81FF396BC20E936E39
:1028A000030E8B6E8BCF82FF3A6BD00E946E500E60
:1028B000D36E9B8CD3B401D0FDD7D2BE01D0FDD74F
:1028C0003F6B060E0B6E130E0C6EAD0E0D6E0D2EC5
:1028D000FED70C2EFCD70B2EFAD700000000AB6AF7
:1028E000ABCFACFFB886AC84B06A220EAF6EAC98AA
:1028F000AB8EAB88ABB802D0AC9A01D0AC8A0601E3
:102900008E6B906B0A0E916F010E926F400E936F5B
:102910009C0E946F956B966B976B986B210E996FCD
:10292000000E9A6F810ED56E3C0ED76EB00ED66E2D
:10293000F294F29A4E0E0F014A6F7E94FA0E4B6F8C
:102940007D84C5EC0EF08B828B9451EC0FF01C6AE9
:102950000A0E1C5C11E21CC000F0000E016E003675
:1029600000900136370E0024E16E060E0120E26E63
:10297000E66AE66A1C2AECD71C6A800E006E800E9E
:10298000000A005C02E1210E1C5C0BE26D0EE16EA0
:10299000060EE26E1C50E126D8B0E22AE66A1C2A36
:1029A000ECD71C6A200E1C5C0CE24D0EE16E060E8C
:1029B000E26E1C50E126D8B0E22A1CC0E6FF1C2AB9
:1029C000F1D7ABB403D0ABB201D016D0AB98ABB853
:1029D00002D0AC9A01D0AC8AACBA02D0AB9E01D086
:1029E000AB8EAB88ABB802D0AC9A01D0AC8AACBA93
:1029F00002D0AB9E01D0AB8EAECF1CF074CF1CF0DA
:102A000007014F6B506B450E006E070E016E7FEC99
:102A10000EF0050E006E9F0EE16E060EE26E450E84
:102A2000E96E070EEA6EEECFE6FF0006FCE1070155
:102A3000100E716F000E726FF0EC0BF000C0D7F04B
:102A4000680E0C6EE40E0D6E0D2EFED70C2EFCD70C
:102A50000000800E0001D719006E800E320A005C63
:102A600008E3800ECE0A006E800ED719005CD8B045
:102A7000D76BE90E0401296F010E2A6F0001D751AF
:102A800004012927000E0001D7BFFF0E04012A23ED
:102A9000680E0C6EE40E0D6E0D2EFED70C2EFCD7BC
:102AA0000000120E0701716F000E726FF0EC0BF058
:102AB00000C0E3F0800E0018016E800E280A015C51
:102AC0000AE3800ED80A006E800E0001E319005C54
:102AD00002E3050EE36F0001E351E9081E6E000EEC
:102AE000E3BFFF0E1F6E010E1F56680E0C6EE40E44
:102AF0000D6E0D2EFED70C2EFCD70000110E070117
:102B0000716F000E726FF0EC0BF000C047F0680EB2
:102B10000C6EE40E0D6E0D2EFED70C2EFCD70000B1
:102B2000800E4718006E800E320A005C08E3800EAB
:102B3000CE0A006E800E4718005CD8B0476A030EBC
:102B400004019C6F150E9D6F47509C27000E47BED9
:102B5000FF0E9D23BA80BA82F90EBB6E34DD0701E9
:102B60004F6BB7EC0DF02C0E07014F6F010E506F3D
:102B7000FAEC0BF02C0E07014F6F010E506F0CECAE
:102B80000CF09D8AF28CF28E12000701456B030156
:102B9000C46BC56B8B84030E0B6E080E0C6E770E28
:102BA0000D6E0D2EFED70C2EFCD70B2EFAD7400E35
:102BB00007014F6F5A0E506FDADC00C07FF401C07E
:102BC00080F4020E0B6E040E0C6EBA0E0D6E0D2EFE
:102BD000FED70C2EFCD70B2EFAD7000004017F6B1A
:102BE000806B000E07014F6F480E506FC0DC00C0B5
:102BF0007FF401C080F4010E07014F6F550E506F36
:102C0000040E516FEFEC0DF004018051280A02E12F
:102C1000620E7F190AE1010E07014F6FF70E506F28
:102C2000040E516FEFEC0DF014D004018051280A0E
:102C300002E1630E7F190AE1010E07014F6FC60E14
:102C4000506F040E516FEFEC0DF003D0010E070131
:102C5000456F0701010E4F6FB50E506F040E516F97
:102C6000EFEC0DF07FC44FF780C450F7390E070129
:102C7000516F070E526FD8EC0EF0010E4F6FF60E2B
:102C8000506F030E516FEFEC0DF0010E07014F6F07
:102C9000390E506F070E516FEFEC0DF0010E07016A
:102CA0004F6FA2DC455319E0010E4F6FCA0E506FF3
:102CB000030E516FEFEC0DF00A0E0401816F020E4E
:102CC0000B6E040E0C6EBA0E0D6E0D2EFED70C2E72
:102CD000FCD70B2EFAD70000EFD7040E07014F6F79
:102CE0009CC450F79DC451F727EC0CF000C0C4F30E
:102CF00001C0C5F3010E4F6F77DC010E4F6FA20EBE
:102D0000506F040E516FEFEC0DF0C4C34FF7C5C305
:102D100050F7390E0701516F070E526F17EC0EF086
:102D2000010E4F6F390E506F070E516FEFEC0DF023
:102D3000010E07014F6F9E0E506F040E516FEFECA6
:102D40000DF0010E07014F6F4FDC010E4F6F4CDC91
:102D50007FC400F080C401F012000900F5CFE6FF47
:102D60000006FBE10106F9E11200010E0701496FBF
:102D7000000E4A6F010E4F6F45C750F746C751F717
:102D800047C752F748C753F74CEC11F000C049F75A
:102D9000000E07014A6F49C74FF7B7EC0DF049C75E
:102DA00000F04AC701F0120049C700F007014907C7
:102DB000005228E045C7E9FF46C7EAFFEE50000A87
:102DC0000CE045C7E9FF46C7EAFF47C7D9FF48C738
:102DD000DAFFEE50DE1801E10FD045C7E9FF46C724
:102DE000EAFF47C7D9FF48C7DAFFDE50EE5C006E46
:102DF000016A000E015A08D00701454B462B474B8C
:102E0000482BD2D7006A016A120007014A6B45516C
:102E1000010A08E1400E466F1F0E476FB40E486F5F
:102E2000020E496F010E4F6FB7EC0DF01EEC0CF067
:102E3000899C010E07014F6FF4EC12F0010E4F6FE9
:102E4000F4EC12F0360E0401545D02E1B00E535D55
:102E500006E3210E07014F6FB7EC0DF005D0260EEB
:102E600007014F6FB7EC0DF0010E07014F6F2F0EEA
:102E7000506F040E516FEFEC0DF007014A6B000E1E
:102E80004F6F780E506FB7EC12F000C07FF401C0A6
:102E900080F407014A2B040E4F6F9CC450F79DC469
:102EA00051F727EC0CF000C053F401C054F4020EAB
:102EB0004F6F29C450F72AC451F727EC0CF000C01B
:102EC00072F401C073F44AC771F72D0E726F070ECA
:102ED000736F75EC08F0010E4F6F2D0E506F070EDB
:102EE000516FEFEC0DF0010E07014F6FC60E506FE2
:102EF000030E516FEFEC0DF072C44FF773C450F72F
:102F0000390E0701516F070E526F17EC0EF0010ECC
:102F10004F6F390E506F070E516FEFEC0DF0010E31
:102F200007014F6FF40E506F030E516FEFEC0DF071
:102F3000030E0B6E080E0C6E770E0D6E0D2EFED767
:102F40000C2EFCD70B2EFAD7320E07014A5D08E291
:102F500004017351070802E17251D00801E299D7C8
:102F6000010E07014F6FF4EC12F0010E4F6FF4ECFD
:102F700012F046C72DF447C72EF4010E4F6F840E92
:102F8000506F040E516FEFEC0DF0010E07014F6F03
:102F9000F4EC12F0040E4F6F9CC450F79DC451F72F
:102FA00027EC0CF000C053F401C054F40A0E046E78
:102FB000000E056EADEC09F000C053F401C054F4EE
:102FC00000C004F001C005F02DC400F02EC401F0D3
:102FD000ADEC09F0190E046E000E056ED1EC07F091
:102FE00000C082F401C083F40701020E4F6F29C4B0
:102FF00050F72AC451F727EC0CF000C072F401C05E
:1030000073F4000E0401835D04E1070148510401DB
:10301000825D04E348C782F4000E836F010E07014E
:103020004F6F740E506F040E516FEFEC0DF072C4C1
:103030004FF773C450F7390E0701516F070E526FE7
:1030400017EC0EF0010E4F6F390E506F070E516FD7
:10305000EFEC0DF0010E07014F6F790E506F040E6B
:10306000516FEFEC0DF082C44FF783C450F7390E67
:103070000701516F070E526F17EC0EF0010E4F6FE4
:10308000390E506F070E516FEFEC0DF082C44FF701
:10309000B7EC0DF00701495104018227000E83238C
:1030A000060E0B6E130E0C6EAD0E0D6E0D2EFED7B2
:1030B0000C2EFCD70B2EFAD700000000000E0701E3
:1030C0004F6F780E506FB7EC12F000C07FF401C064
:1030D00080F40150280A02E1FF0E001812E0010EF0
:1030E00007014F6FFD0E506F030E516FEFEC0DF0A7
:1030F000010E07014F6FF4EC12F0B3C472F4B4C4C4
:1031000073F4C80E0401B325016E000EB421026EE3
:103110000250735D02E10150725DD8B065D7010EB7
:1031200007014F6FF4EC12F0010E4F6FF4EC12F048
:103130001200000E046E000E056E7A0E066E880EEA
:10314000076E45C700F046C701F047C702F048C701
:1031500003F08FEC0CF000C045F701C046F702C049
:1031600047F703C048F7000E046E000E056E400ED0
:10317000066E7F0E076E24EC0CF0000E046E000E3F
:10318000056E7A0E066E880E076E1AEC09F000C006
:103190004AF701C04BF702C04CF703C04DF749C7CF
:1031A00000F0A8EC12F09A0E046E990E056E770EE0
:1031B000066E840E076E1AEC09F000C004F001C020
:1031C00005F002C006F003C007F04AC700F04BC785
:1031D00001F04CC702F04DC703F08FEC0CF0000E6D
:1031E000046E000E056E7A0E066E880E076E1AECDF
:1031F00009F04DEC0DF0120007014D6B4E6B45C709
:103200004FF746C750F762EC0EF000C04BF701C015
:103210004CF745C74FF746C750F762EC0EF0800EEB
:103220004819026E800E0118025C02E10050475DF1
:103230003FE247C749F748C74AF745C74FF746C770
:1032400050F762EC0EF0800E4A19026E800E0118E3
:10325000025C02E10050495D13E24D514525E16EEB
:103260004E514621E26E49514525E96E4A514621AB
:10327000EA6EEECFE6FF4D4B4E2B494B4A2BDDD786
:103280004DC749F74EC74AF7800E4A19006E800EA7
:103290004C19005C02E14B51495D0AE24951452558
:1032A000E16E4A514621E26EE66A494B4A2BECD761
:1032B0001200A6A202D00000FCD7A69C46C7AAFF17
:1032C00045C7A9FF47C7A8FFA69EA684F2CF00F076
:1032D000F29E550EA76EAA0EA76EA68200BE02D061
:1032E000F29E01D0F28EA694A1B802D00000FCD7C5
:1032F000A198120045C7E9FF46C7EAFFEECF47F79E
:10330000000E0701486F000E486F000E481902E1D9
:10331000200E471907E0000E481902E1090E47196F
:1033200001E003D0454B462BE5D7496B4A6B4B6B0D
:103330004C6B000E481902E12D0E471905E14B4B6D
:103340004C2B454B462B08D0000E481902E12B0EA2
:10335000471902E1454B462B45C7E9FF46C7EAFF3F
:10336000EECF47F7000E486F000E486F47C74FF784
:10337000E8EC12F0005219E049C700F04AC701F02A
:103380000A0E046E000E056ED1EC07F0300E475D9C
:10339000026E000E4859036E02500024496F03501C
:1033A00001204A6F454B462BD7D74B514C1108E0B3
:1033B00049510008006E4AC701F0000E015604D0C2
:1033C00049C700F04AC701F0120007014551010A40
:1033D00007E146C7ADFF0000ACB201D0FDD709D070
:1033E0004551020A06E146C773FF000072B201D0E0
:1033F000FDD7120045C74FF746C750F77E0E0701AD
:10340000516F000E526F020E536F7CEC0FF000C034
:1034100086F001C087F0010E0701716F00C072F7DE
:1034200001C073F7BAEC06F00701475311E045C736
:103430004FF746C750F7480E516F000E526F090EF6
:10344000536F7CEC0FF000C06CF001C06DF011D038
:1034500045C74FF746C750F77E0E0701516F000E64
:10346000526F020E536F7CEC0FF000C06CF001C085
:103470006DF0020E0701716F6CC072F76DC073F7CB
:10348000BAEC06F0120045C74FF7F4EC12F045C74E
:103490004FF7F4EC12F04551010AD8A466D145C7A4
:1034A0004FF78A0E506F000E516FEFEC0DF045C7CD
:1034B0004FF7F4EC12F045C74FF7A60E506F000E11
:1034C000516FEFEC0DF045C74FF7F4EC12F045C724
:1034D0004FF7C60E506F000E516FEFEC0DF046C760
:1034E0004FF747C750F7390E0701516F070E526F5C
:1034F000D8EC0EF045C74FF7C30E506F000E516F5A
:10350000EFEC0DF045C74FF7390E0701506F070E6E
:10351000516FEFEC0DF045C74FF7F4EC12F045C7D3
:103520004FF7090E506F010E516FEFEC0DF048C7C9
:1035300071F72D0E0701726F070E736F75EC08F0AF
:1035400045C74FF72D0E506F070E516FEFEC0DF082
:1035500045C74FF7F4EC12F045C74FF7000E506F18
:10356000010E516FEFEC0DF049C771F72D0E0701F9
:10357000726F070E736F75EC08F045C74FF72D0E8D
:10358000506F070E516FEFEC0DF045C74FF7F4EC9D
:1035900012F045C74FF7120E506F010E516FEFEC4E
:1035A0000DF04AC771F72D0E0701726F070E736F8A
:1035B00075EC08F045C74FF72D0E506F070E516F91
:1035C000EFEC0DF045C74FF7F4EC12F045C74FF79D
:1035D000F4EC12F045C74FF7380E506F010E516FE3
:1035E000EFEC0DF045C74FF7F4EC12F045C74FF77D
:1035F0001B0E506F010E516FEFEC0DF045C74FF7EA
:10360000F4EC12F0010E4F6FF20E506F000E516F7E
:10361000EFEC0DF0D7C04FF7280E0701506F070EE3
:10362000516F0EEC13F045C74FF7280E506F070E81
:10363000516FEFEC0DF045C74FF7D80E0701506FF3
:10364000000E516FEFEC0DF029C44FF72AC450F76C
:10365000390E0701516F070E526F17EC0EF045C778
:103660004FF7390E506F070E516FEFEC0DF045C755
:103670004FF7F4EC12F0010E4F6FE40E506F000E96
:10368000516FEFEC0DF0E3C04FF7280E0701506FBC
:10369000070E516F0EEC13F045C74FF7280E506F11
:1036A000070E516FEFEC0DF045C74FF7200E0701E5
:1036B000506F000E516FEFEC0DF01EC04FF71FC0A2
:1036C00050F7390E0701516F070E526F17EC0EF0CD
:1036D00045C74FF7390E506F070E516FEFEC0DF0E5
:1036E00045C74FF7F4EC12F0010E4F6F2C0E506FE0
:1036F000000E516FEFEC0DF047C04FF7280E070199
:10370000506F070E516F0EEC13F045C74FF7280EA0
:10371000506F070E516FEFEC0DF045C74FF73B0EA2
:103720000701506F000E516FEFEC0DF09CC44FF786
:103730009DC450F7390E0701516F070E526F17ECF9
:103740000EF045C74FF7390E506F070E516FEFEC73
:103750000DF045C74FF7F4EC12F045C74FF7F4EC06
:1037600012F045C74FF7F4EC12F012000A0E0701F1
:10377000456F04017F6B806B536B546B0301C46B0B
:10378000C56B010E07014F6FF4EC12F00701040E38
:103790004F6F9CC450F79DC451F727EC0CF000C04C
:1037A000C4F301C0C5F3010E4F6FE00E506F040E5D
:1037B000516FEFEC0DF0C4C34FF7C5C350F7390E8E
:1037C0000701516F070E526F17EC0EF0010E4F6F8D
:1037D000390E506F070E516FEFEC0DF0010E07011F
:1037E0004F6FF4EC12F00B0E0B6E260E0C6E5D0E8E
:1037F0000D6E0D2EFED70C2EFCD70B2EFAD7000027
:1038000000000301C551290802E1C4510408BEE2C9
:10381000C5513C0802E1C4518C08B8E3C5513208D7
:1038200002E1C4516408D8A088D0040E07014F6F8C
:103830009CC450F79DC451F727EC0CF000C053F422
:1038400001C054F4010E4F6FF10E506F040E516F12
:10385000EFEC0DF053C44FF754C450F7390E070185
:10386000516F070E526F17EC0EF0010E4F6F390EAD
:10387000506F070E516FEFEC0DF0010E07014F6F07
:10388000CF0E506F040E516FEFEC0DF0290E0401B6
:10389000545D02E1040E535D34E33C0E545D02E1DD
:1038A0008C0E535D2EE2580E0301C425016E020EEC
:1038B000C521026E02500401545D02E10150535DC6
:1038C00003E30701450703D007010A0E456F45C70B
:1038D00071F72D0E726F070E736F75EC08F0010E05
:1038E0004F6F2D0E506F070E516FEFEC0DF0010E64
:1038F00007014F6F110E506F050E516FEFEC0DF079
:1039000009D0010E07014F6F140E506F050E516F55
:10391000EFEC0DF00B0E0B6E260E0C6E5D0E0D6EA9
:103920000D2EFED70C2EFCD70B2EFAD70000000070
:10393000070145510008D8A078D70701010E4F6F45
:10394000F4EC12F0010E4F6F240E506F050E516F04
:10395000EFEC0DF0010E07014F6FF4EC12F01200C6
:103960000701466B476B486B496B4A6B4B6B010E0B
:103970004F6FF4EC12F0200E486F030E496FB00E3B
:103980004A6F040E4B6F9D0E4F6F560E506FB7EC83
:1039900012F000C07FF401C080F407014751010A12
:1039A000D8B41CD1050E465DD8B018D19D0E4F6F0E
:1039B000560E506FB7EC12F000C07FF401C080F4D7
:1039C0000B0E0B6E260E0C6E5D0E0D6E0D2EFED7C1
:1039D0000C2EFCD70B2EFAD700000000010E0701B9
:1039E0004F6F29C450F72AC451F727EC0CF000C0E0
:1039F00091F501C092F5020E4F6F29C450F72AC409
:103A000051F727EC0CF000C0B3F401C0B4F401503E
:103A10004B5D02E100504A5D0AE349510401B45D87
:103A200004E1070148510401B35D01E334D0400EC5
:103A300007014F6F5A0E506FB7EC12F0010E0701DD
:103A40004F6F0B0E506F060E516FEFEC0DF0B3C4BD
:103A50004FF7B4C450F7390E0701516F070E526F7C
:103A600017EC0EF0010E4F6F390E506F070E516FAD
:103A7000EFEC0DF0010E07014F6F140E506F060EA4
:103A8000516FEFEC0DF0010E07014F6FF4EC12F0E7
:103A90000A0E476F03D00701010E476F47510A0A0C
:103AA0000DE1010E4F6FEF0E506F050E516FEFECF1
:103AB0000DF0010E07014F6FF4EC12F0880E4F6FFE
:103AC000560E506FB7EC12F0880E07014F6F560E6E
:103AD000506FB7EC12F0010E07014F6F930E506F4D
:103AE000050E516FEFEC0DF0010E07014F6FF4EC76
:103AF00012F04551010A23E1020E4F6F5A0E506F2A
:103B0000B7EC12F000C07FF401C080F4020E070190
:103B10004F6F5A0E506FB7EC12F000C07FF401C027
:103B200080F4010E07014F6FC70E506F050E516FE5
:103B3000EFEC0DF0010E07014F6FF4EC12F0010EE7
:103B40004F6FE30E506F050E516FEFEC0DF091C506
:103B50004FF792C550F7390E0701516F070E526F9C
:103B600017EC0EF0010E4F6F390E506F070E516FAC
:103B7000EFEC0DF0010E07014F6FD20E506F040EE7
:103B8000516FEFEC0DF0B3C44FF7B4C450F7390EDA
:103B90000701516F070E526F17EC0EF0010E4F6FB9
:103BA000390E506F070E516FEFEC0DF0010E07014B
:103BB0004F6FF4EC12F04751010A0EE00B0E0B6E42
:103BC000260E0C6E5D0E0D6E0D2EFED70C2EFCD744
:103BD0000B2EFAD700000000462BDFD6010E4F6FE8
:103BE000F4EC12F0010E4F6FF4EC12F047C700F046
:103BF000120004017F6B806B010E07014F6FF4EC24
:103C000012F0010E4F6F630E506F050E516FEFEC07
:103C10000DF0000E07014F6F780E506FB7EC12F0E9
:103C200000C07FF401C080F40150280A02E1FF0EB9
:103C300000180AE1010E07014F6F800E506F050E4C
:103C4000516FEFEC0DF02BD004018051280A02E1F6
:103C50007F0E7F190AE1010E07014F6F830E506F2F
:103C6000050E516FEFEC0DF01AD004018051280AB7
:103C700002E1550E7F190AE1010E07014F6F5A0E3E
:103C8000506F050E516FEFEC0DF009D0010E0701DA
:103C90004F6F370E506F050E516FEFEC0DF0010EA8
:103CA00007014F6F450E506F050E516FEFEC0DF091
:103CB0007FC44FF780C450F7390E0701516F070ECC
:103CC000526FD8EC0EF0010E4F6F570E506F050E6D
:103CD000516FEFEC0DF0010E07014F6F390E506F71
:103CE000070E516FEFEC0DF07FC400F080C401F0BF
:103CF000120007014B6B4C6B48510001895D04E1D8
:103D0000070147510001885D09E20701495100019F
:103D1000882707014A510001892302D0886B896BEB
:103D2000885107014525006E000189510701462190
:103D3000016E00C04BF701C04CF7010E716F00C05F
:103D400072F701C073F7BAEC06F0020E0701716F4B
:103D50004BC772F74CC773F7BAEC06F0010E0701B8
:103D60004F6FF4EC12F012001BEC28F007013F6BD0
:103D7000406B0501006B0701416B426B436B7D8417
:103D800042EC14F00401816B0201C16BC06B010EA7
:103D90000701456F050E006E460EE16E070EE26EDE
:103DA0009F0EE96E060EEA6EEECFE6FF0006FCE11E
:103DB00043EC1AF00601A35303E0010E006E01D09C
:103DC000006A00C041F700520EE0010E07014F6F7C
:103DD000C20E506F020E516FEFEC0DF0010E070195
:103DE0004F6FF4EC12F006018EA726EF23F0650E5C
:103DF00007013F6F000E406F6C0E426F0C0E436F59
:103E0000010E716F6C0E726F0C0E736FBAEC06F0D0
:103E1000020E0701716F42C772F743C773F7BAEC1E
:103E200006F0010E07014F6FF4EC12F0010E4F6F18
:103E3000DB0E506F020E516FEFEC0DF06C0E0701B0
:103E40004F6F0C0E506F390E516F070E526F17ECFB
:103E50000EF0010E4F6F390E506F070E516FEFECE1
:103E60000DF0010E07014F6FD80E506F020E516F0B
:103E7000EFEC0DF0010E07014F6FF4EC12F0010EA4
:103E80004F6FF4EC12F0660E3F6F000E406F010EA4
:103E90000501006FFF0E0401816FFF0E0201C16F6B
:103EA000FF0EC06F06018E976D0E0701456F060E5F
:103EB000466FA70E476F030E486F040E496FD4EC90
:103EC00016F00050011059E1100E0701716F000E3D
:103ED000726FF0EC0BF000C0D7F0680E0C6EE40EC1
:103EE0000D6E0D2EFED70C2EFCD700006D0E456F0B
:103EF000060E466F040E476F000E486FFCEC18F07C
:103F00006D0E456F060E466F7AEC19F000C042F751
:103F100001C043F7010E4F6F970E506F030E516FA4
:103F2000EFEC0DF042C74FF743C750F7390E0701CA
:103F3000516F070E526F17EC0EF0010E4F6F390ED6
:103F4000506F070E516FEFEC0DF0010E0701716F0E
:103F500042C772F743C773F7BAEC06F0020E0701C7
:103F6000716F42C772F743C773F7BAEC06F0010EE0
:103F700007014F6FF4EC12F069D307016D0E456F26
:103F8000060E466FAC0E476F030E486F050E496F65
:103F9000D4EC16F0005001103FE1110E0701716FD3
:103FA000000E726FF0EC0BF000C047F0680E0C6E64
:103FB000E40E0D6E0D2EFED70C2EFCD70000040E65
:103FC0004F6F9CC450F79DC451F727EC0CF000C014
:103FD00053F401C054F4010E4F6FBC0E506F030E2A
:103FE000516FEFEC0DF053C44FF754C450F7390E36
:103FF0000701516F070E526F17EC0EF0010E4F6F55
:10400000390E506F070E516FEFEC0DF0010E0701E6
:104010004F6FF4EC12F01AD307016D0E456F060EC8
:10402000466FB20E476F030E486F090E496FD4EC0E
:1040300016F000500110D8A4D9D0110E0701716FED
:10404000000E726FF0EC0BF000C047F0680E0C6EC3
:10405000E40E0D6E0D2EFED70C2EFCD70000010EC7
:104060004F6F7F0E506F030E516FEFEC0DF047C096
:104070004FF7280E0701506F070E516F0EEC13F02B
:10408000010E4F6F280E506F070E516FEFEC0DF0C1
:10409000010E07014F6FF4EC12F06D0E456F060E26
:1040A000466F090E476F000E486FFCEC18F06D0E5E
:1040B000456F060E466F7AEC19F0110E456F000E33
:1040C000466F00C047F759EC19F0680E0C6EE40E0D
:1040D0000D6E0D2EFED70C2EFCD70000110E070121
:1040E000716F000E726FF0EC0BF000C044F744C724
:1040F00047F029C400F02AC401F00B0E046E000E34
:10410000056ED1EC07F04451002404019C6F000EB1
:10411000070144BFFF0E012004019D6F010E07013E
:104120004F6F400E506F030E516FEFEC0DF047C014
:104130004FF7280E0701506F070E516F0EEC13F06A
:10414000010E4F6F280E506F070E516FEFEC0DF000
:10415000010E07014F6F340E506F030E516FEFECDD
:104160000DF09CC44FF79DC450F7390E0701516FF5
:10417000070E526F17EC0EF0010E4F6F390E506F95
:10418000070E516FEFEC0DF0010E07014F6FF4ECCD
:1041900012F0040E4F6F9CC450F79DC451F727ECEA
:1041A0000CF000C053F401C054F4010E4F6F580ED0
:1041B000506F030E516FEFEC0DF053C44FF754C422
:1041C00050F7390E0701516F070E526F17EC0EF0C2
:1041D000010E4F6F390E506F070E516FEFEC0DF05F
:1041E000010E07014F6FF4EC12F030D207016D0E93
:1041F000456F060E466F760E476F030E486F080E2A
:10420000496FD4EC16F000500110D8A402D1100E62
:104210000701716F000E726FF0EC0BF000C0D7F069
:10422000010E4F6F610E506F030E516FEFEC0DF0EA
:10423000D7C04FF7280E0701506F070E516F0EECD5
:1042400013F0010E4F6F280E506F070E516FEFECF9
:104250000DF0010E07014F6FBF0E506F010E516F31
:10426000EFEC0DF029C44FF72AC450F7390E0701BF
:10427000516F070E526F17EC0EF0010E4F6F390E93
:10428000506F070E516FEFEC0DF0010E07014F6FED
:10429000F4EC12F0680E0C6EE40E0D6E0D2EFED7CF
:1042A0000C2EFCD700006D0E456F060E466F080EF3
:1042B000476F000E486FFCEC18F06D0E456F060E50
:1042C000466F7AEC19F0100E456F000E466F00C075
:1042D00047F759EC19F0680E0C6EE40E0D6E0D2EBA
:1042E000FED70C2EFCD70000100E0701716F000ED8
:1042F000726FF0EC0BF000C0D7F0E90E0401296FEB
:10430000010E2A6F00502927000E00BEFF0E2A233F
:10431000010E07014F6FAA0E506F010E516FEFECA7
:104320000DF0D7C04FF7280E0701506F070E516FE1
:104330000EEC13F0010E4F6F280E506F070E516FE9
:10434000EFEC0DF0010E07014F6FCE0E506F010E16
:10435000516FEFEC0DF029C44FF72AC450F7390E16
:104360000701516F070E526F17EC0EF0010E4F6FE1
:10437000390E506F070E516FEFEC0DF0010E070173
:104380004F6FF4EC12F0110E716F000E726FF0ECC3
:104390000BF000C047F0680E0C6EE40E0D6E0D2E93
:1043A000FED70C2EFCD7000029C400F02AC401F06F
:1043B0000B0E046E000E056ED1EC07F04750002482
:1043C00004019C6F000E47BEFF0E01209D6F010E81
:1043D00007014F6FE20E506F010E516FEFEC0DF0C1
:1043E00053C44FF754C450F7390E0701516F070EED
:1043F000526F17EC0EF0010E4F6F390E506F070E13
:10440000516FEFEC0DF0010E07014F6FF4EC12F05D
:104410001DD107016D0E456F060E466FD90E476F11
:10442000010E486F080E496FD4EC16F000500110D1
:10443000D8A4ECD0120E0701716F000E726FF0EC71
:104440000BF000C0E3F0010E4F6F950E506F010EA0
:10445000516FEFEC0DF0E3C04FF7280E0701506FDE
:10446000070E516F0EEC13F0010E4F6F280E506FB8
:10447000070E516FEFEC0DF0010E07014F6F660E46
:10448000506F010E516FEFEC0DF01EC04FF71FC0C3
:1044900050F7390E0701516F070E526F17EC0EF0EF
:1044A000010E4F6F390E506F070E516FEFEC0DF08C
:1044B000010E07014F6FF4EC12F0680E0C6EE40E63
:1044C0000D6E0D2EFED70C2EFCD700006D0E456F25
:1044D000060E466F080E476F000E486FFCEC18F092
:1044E0006D0E456F060E466F7AEC19F0120E456F91
:1044F000000E466F00C047F759EC19F0680E0C6EBD
:10450000E40E0D6E0D2EFED70C2EFCD70000120E01
:104510000701716F000E726FF0EC0BF000C0E3F05A
:104520000050E9081E6E000E00BEFF0E1F6E010E49
:104530001F56010E4F6F510E506F010E516FEFEC71
:104540000DF0E3C04FF7280E0701506F070E516FB3
:104550000EEC13F0010E4F6F280E506F070E516FC7
:10456000EFEC0DF0010E07014F6F750E506F010E4D
:10457000516FEFEC0DF01EC04FF71FC050F7390E12
:104580000701516F070E526F17EC0EF0010E4F6FBF
:10459000390E506F070E516FEFEC0DF0010E070151
:1045A0004F6FF4EC12F0010E716F42C772F743C700
:1045B00073F7BAEC06F0020E0701716F42C772F78B
:1045C00043C773F7BAEC06F0010E07014F6F850E73
:1045D000506F010E516FEFEC0DF042C74FF743C71C
:1045E00050F7390E0701516F070E526F17EC0EF09E
:1045F000010E4F6F390E506F070E516FEFEC0DF03B
:10460000010E07014F6FF4EC12F020D007016D0E80
:10461000456F060E466F800E476F010E486F040E01
:10462000496FD4EC16F00050011010E1010E0701A3
:104630004F6F570E506F020E516FEFEC0DF0010EE1
:1046400007014F6FF4EC12F00501006B000E006ED5
:1046500007014051005C02E13F51640805E2660E2B
:104660003F6F000E406F08D0010E456F2D0E466F54
:10467000E5EC19F03F4B402B680E0C6EE40E0D6E0E
:104680000D2EFED70C2EFCD70000000E405D02E17F
:10469000640E3F5DD8A0F3EF1EF005010051010A42
:1046A000D8B4F3EF1EF09D9A0401816B0201C16B37
:1046B000C06BC5EC15F0010E456FB0EC1CF00A0E96
:1046C0000201C06FF9EC1DF000C07FF401C080F45E
:1046D000320E0701456F000E466F320E476F000E17
:1046E000486F320E496F000E4A6F79EC1EF00B0EC8
:1046F0000B6E260E0C6E5D0E0D6E0D2EFED70C2E63
:10470000FCD70B2EFAD70000000004018051280AC4
:1047100002E1FF0E7F19D6E10001886B896B0A0E5A
:104720000401816F900E0701456F010E466F476BC4
:10473000FAEC19F0C20E0701456F010E466FC20E6A
:10474000476F010E486F320E496F000E4A6F79ECC9
:104750001EF0B6EC1BF0FF0E0401816F0201C06B6E
:10476000010E0701456F05EC17F00401816BF28A19
:10477000640E0201C16F000E07014F6F780E506F7B
:10478000B7EC12F000C07FF401C080F40150280A99
:1047900002E1FF0E001877E0010E07014F6F350EA2
:1047A000506F020E516FEFEC0DF00401826B836BC2
:1047B000F29A010E07014F6F670E506F020E516F94
:1047C000EFEC0DF0010E07014F6FF4EC12F0070152
:1047D000000E4F6F780E506FB7EC12F000C07FF4F0
:1047E00001C080F40B0E0B6E260E0C6E5D0E0D6E6E
:1047F0000D2EFED70C2EFCD70B2EFAD70000000092
:10480000010E07014F6FBE0E506F020E516FEFEC9D
:104810000DF00401816B0201C16BC06B0A0EC06F09
:10482000320E0701456F000E466F320E476F000EC5
:10483000486F320E496F000E4A6F79EC1EF004018A
:104840008051280A02E17F0E7F19C1E0010E0701A5
:104850004F6F840E506F020E516FEFEC0DF0010E92
:1048600007014F6FF4EC12F0150E0B6E4B0E0C6E31
:10487000BE0E0D6E0D2EFED70C2EFCD70B2EFAD7CA
:104880000000C0EF1EF0050E0201345D1CE3346B26
:10489000020E07014F6F29C450F72AC451F727ECC5
:1048A0000CF000C072F401C073F400C045F701C001
:1048B00046F7B3C447F7B4C448F7B5EC16F000C0E8
:1048C00082F401C083F4050E0101EC5D65E3EB6B3E
:1048D000EC6B07013F6B406B000E006E4051005CBB
:1048E00002E13F51050816E33FC700F040C701F061
:1048F000003600900136370E0024D96E060E0120D6
:10490000DA6EDE5003011B27DE501C2307013F4BEC
:10491000402BE2D7060E046E000E056E1BC300F09E
:104920001CC301F0ADEC09F000C01BF301C01CF387
:10493000DBEC0BF000C045F701C046F702C047F7BB
:1049400003C048F7080E496F99EC18F000C04FF704
:1049500001C050F7ED0E0701516F010E526F110E9D
:10496000536F7CEC0FF000C07CF001C07DF0040EB2
:1049700007014F6F9CC450F79DC451F727EC0CF012
:1049800000C053F401C054F47CC045F77DC046F725
:10499000476BFAEC19F021D0010E07014F6F29C4C3
:1049A00050F72AC451F727EC0CF000C032F201C0D6
:1049B00033F2ECC102F0000E036E023602900336B1
:1049C000370E0224E16E060E0320E26E00C0E6FF01
:1049D00001C0E6FF0101EB6BEC2B050E0201315D1E
:1049E00006E3316B0701415302E079EC13F0C3D6C3
:1049F000FFD7000F00002C204441435F4B4F45463A
:104A00003D002020564241545F4F46465345543D99
:104A1000002C564241545F4B4F45463D0000200359
:104A2000E803B00414057805BE05DC054006080758
:104A3000DE032A035802EA01860145011301AA0098
:104A400001000000204146523D0020566261743D45
:104A50002000000084036C0784032413000000007E
:104A60004D53335F4D45502057424F20436F6E7476
:104A7000726F6C6C65723A00000000003D3D3D3D78
:104A80003D3D3D3D3D3D3D3D3D3D3D3D3D3D3D3D56
:104A90003D3D3D3D3D3D3D3D00307800534E3A208B
:104AA00000FA0006FF0000000000000000002C20BB
:104AB00041445F4B4F45463D000020204441435F49
:104AC0004F46465345543D0020204144435F4F46E6
:104AD000465345543D0053575F5645523A200048CF
:104AE000575F5645523A20004F5054494F4E3A2096
:104AF000003D3D3D3D3D3D3D3D3D3D3D3D3D3D3D23
:104B00003D3D3D3D3D3D3D3D3D3D3D3D3D00454502
:104B100050524F4D2043414C4942524154494F4E0F
:104B200020444154413A004441435F4B4F45465F66
:104B30004F46465345545F4E45573D002044414340
:104B40005F4B4F45465F4F4C443D00204441435F1F
:104B50004B4F45463D004558495400203E44414393
:104B6000782073657420746F203D004441435F4B8F
:104B70004F45465F4F46465345545F4F4C443D00BA
:104B80004144435F4B4F45465F4F46465345545F54
:104B90004E45573D00204144435F4B4F45465F4FD4
:104BA0004C443D00204144435F4B4F45463D00444B
:104BB00041435F4F46533D002020566261743D20C3
:104BC00000000030F8BEF925FB61FCE0FC74FD6BD1
:104BD000FE49FF96FFD8FF00000F006100C100FAF8
:104BE0000049019F02BB0305044F049804B804E286
:104BF000042B0575059105AF05C205CD05080651C5
:104C0000068006C5063408000000004C535520738A
:104C1000656E736F7220646973636F6E6E65637423
:104C200065642F6661696C7572652C200045786932
:104C30007420636667206D6F64652E2E007761694E
:104C400074696E6720666F72207265636F6E6E6541
:104C50006374696E672E2E2E2E0053656E736F720D
:104C60002072652D636F6E6E65637465642C2067BA
:104C70006F696E67206261636B20746F207374616B
:104C80007274696E672070726F6365647572652EE9
:104C90002E2E2E002E000000555345205541525413
:104CA0003120666F72206C697374696E67006D568F
:104CB00000456E65746572656420746F2074657359
:104CC00074206D6F64652C20444143312F32206F76
:104CD0007574707574732073657420746F2031342B
:104CE0002E37414652203D3E200020444143323D74
:104CF0000000002055413D002055523D0020444118
:104D000043313D002050574D3D0020564241545FF5
:104D10004B4F45463D002020564241545F4B4F4586
:104D2000465F4F46465345545F4E45573D00202051
:104D3000566261743D20004144435F4B4F45465FDE
:104D40004F46465345545F4F4C443D004144435FFA
:104D50004F46533D002020564241545F4B4F45463D
:104D60005F4F46465345545F4F4C443D00203E4400
:104D70004143782073657420746F203D00444143A3
:104D80003D00564241543D00564241545F4F465308
:104D90003D003E566261743D20000000200000008E
:104DA0004572726F7220647572696E6720434A3172
:104DB000323520696E69742E2050726F6772616D92
:104DC0002073746F707065642E00200030780000CE
:104DD0000000002053656E736F72206661696C7508
:104DE00072652F646973636F6E6E6563742064759A
:104DF00072696E6720686561742D75702E2E0000D3
:104E00000000000000434A31323520636F6E646554
:104E10006E736174696F6E2068656174696E672076
:104E200073746172742E2E2E000000426F736368DB
:104E300020434A3132352C206368697020766572D0
:104E400073696F6E203D200000002055523D002008
:104E500050574D3D000000000000434A31323520DC
:104E600068656174696E672073746172742E2E2E8A
:104E70002E000000206D5600496E69742056626154
:104E800074203D20000000000000002C20537461BD
:104E900074757320636F6465203D2000307836336D
:104EA00028424229002C20002C2055522072656691
:104EB0005B6D565D3D00496E697420566261745B9E
:104EC0006D565D203D2000566261743D003078369D
:104ED00032284241290000000000000000000000CC
:104EE0000000000000002C200056626174206D69F3
:104EF0006D6F206D657A65200056424154205445FF
:104F000053542046494E4953484544004F74686500
:104F100072206661696C75726500202D2053746182
:104F200074757320636F6465203D20003078004EF7
:104F30006F20706F7765720057424F204C53552099
:104F4000342E392053656E736F72207374617475DB
:104F500073202D20004F4B004E6F7420636F6E6ED8
:104F60006563746564000000434A31323520616D29
:104F7000706C696669636174696F6E207365742013
:104F8000746F2076203D20382028392E3535202D8D
:104F90002032312E30302041465229004970207293
:104FA00065662E2063757272656E74207365742059
:104FB000746F2032307541005541207265665B6D1B
:104FC000565D3D002055525F7265662063616C69D5
:104FD00062726174696F6E206661696C65642E002F
:104FE00055525F726566203D00202D2076616C75FC
:104FF00065206F757473696465206C696D6974737D
:10500000205B3830302D313230305D000000000040
:105010000000000000000000000000000000000090
:105020000000000000303132333435363738394132
:105030004243444546FF10EE1CF0E40E006E050EA0
:10504000016EF20EF66E490EF76E000EF86EADECC4
:1050500016F015EE01F0360E006E020E016ED60E41
:10506000F66E4E0EF76E000EF86EADEC16F01200F6
:10507000FFFFFFFFFFFFFFFFFFFFFFFFFFFFFFFF40
:10508000FFFFFFFFFFFFFFFFFFFFFFFFFFFFFFFF30
:10509000FFFFFFFFFFFFFFFFFFFFFFFFFFFFFFFF20
:1050A000FFFFFFFFFFFFFFFFFFFFFFFFFFFFFFFF10
:0200000400F00A
:1000000006900202FFFFFFFFFFFFFFFFFFFFFFFF62
:10001000051E02FFFFFFFFFFFFFFFFFFFFFFFFFFC8
:10002000FFFFFFFFFFFFFFFFFFFFFFFFFFFFFFFFE0
:10003000FFFFFFFFFFFFFFFFFFFFFFFFFFFFFFFFD0
:10004000FFFFFFFFFFFFFFFFFFFFFFFFFFFFFFFFC0
:10005000FFFFFFFFFFFFFFFFFFFFFFFFFFFFFFFFB0
:020000040030CA
:10000000FF28023CFF3F81FF00C00FE00F40FFFFD1
:020000040020DA
:08000000FFFFFFFFFFFFFFFF00
:00000001FF
