:04000000EDEF3AF0F6
:1000080000C019F001C018F002C017F00CC016F0BB
:100018000DC015F0E1CF1AF0E2CF1BF07EA450D04E
:100028007DA44ED009010051FF0A02E1898C11D04C
:100038000051000A02E1899C0CD0000E0801ED5D18
:1000480004E1090100510801EC5D03E3897CEC6BD4
:10005800ED6B00017B51FF0A02E18A8611D07B51CA
:10006800000A02E18A960CD0000E0801EF5D04E157
:1000780000017B510801EE5D03E38A76EE6BEF6BBE
:100088000001B751FF0A02E18A8811D0B751000A6E
:1000980002E18A980CD0000E0801F15D04E100012C
:1000A800B7510801F05D03E38A78F06BF16B080142
:1000B800EC4BED2BEE4BEF2BF04BF12B7E9403D159
:1000C800F2A40ED0F2AA0CD006019E2B0701712BC8
:1000D800010E6F6F3C0ED76EB00ED66EF294F3D051
:1000E8009EAAF1D09DAAEFD00A0E0001B76F0A01AF
:1000F800579557B502D0579101D0578157B102D0C3
:10010800579301D0578357875E6B5F6B606B616B4A
:10011800586B57B18DD057B38BD057B589D09EAA9D
:1001280070D0ABB403D0ABB201D016D0AB98ABB89B
:1001380002D0AC9A01D0AC8AACBA02D0AB9E01D046
:10014800AB8EAB88ABB802D0AC9A01D0AC8AACBA53
:1001580002D0AB9E01D0AB8E0A01AECF58FA010E89
:10016800625D016E000E6359026E0250615D02E12C
:100178000150605D44E25B532FE059531AE0585137
:100188001F0812E2890E6025E16E0A0E6121E26EF7
:1001980058CAE6FF010E6025006E000E6121016E4F
:1001A80000C060FA01C061FA58515A19D8B457858D
:1001B80012D0890E6025E16E0A0E6121E26E58CADE
:1001C800E6FF010E6025006E000E6121016E00C081
:1001D80060FA01C061FA12D0890E6025E16E0A0E3C
:1001E8006121E26E58CAE6FF010E6025006E000E1E
:1001F8006121016E00C060FA01C061FA02D0578126
:100208005797010E5E25006E000E5F21016E00C03B
:100218005EFA01C05FFA5F515D5D02E15E515C5DAF
:10022800D8A05783020E0D6E0D2EFED7000071D791
:10023800890E6025E16E0A0E6121E26EE66A57A317
:1002480007D05B5305E0595303E057B501D05797E2
:1002580057A138D0340E0C6EF10E0D6E0D2EFED750
:100268000C2EFCD7000000009EAA2BD0ABB403D004
:10027800ABB201D016D0AB98ABB802D0AC9A01D0D3
:10028800AC8AACBA02D0AB9E01D0AB8EAB88ABB80F
:1002980002D0AC9A01D0AC8AACBA02D0AB9E01D0E5
:1002A800AB8E890EE16E0A0EE26E5851E126D8B087
:1002B800E22AAECFE6FF1A0E0D6E0D2EFED7000015
:1002C800D3D7579700D019C000F018C001F017C055
:1002D80002F016C00CF015C00DF01AC0E1FF1BC0EB
:0402E800E2FF110020
:0E02EC00026A016A006A086A036A000E1200C4
:1002FA00800E0B01E419006E800E005C02E1000E14
:10030A00E35D08E2E3510008006EE4CB01F0000E61
:0E031A00015604D0E3CB00F0E4CB01F012005A
:10032800800E0B01E35D04E2400EE45D01E201D0C2
:100338007FD0060144533EE0E4CB00F00032009E3B
:100348000032009E0032009E00C003F0000E046ED2
:10035800070E026E03C000F004C001F0025005E071
:10036800003600900136FF0FFAD70B01E351002643
:10037800000E0122440E0024026E020E0120036EBC
:10038800070EE415006E00C001F0010E006E01506A
:1003980004E000360090FF0FFBD702C0E9FF03C05E
:1003A800EAFFEE50001202C0E1FF03C0E2FF00C006
:1003B800E6FF3ED0E4CB00F00032009E0032009E03
:1003C8000032009E00C003F0000E046E070E026E9D
:1003D80003C000F004C001F0025005E000360090B0
:1003E8000136FF0FFAD70B01E3510026000E012258
:1003F800440E0024026E020E0120036E070EE4155F
:10040800006E00C001F0010E006E015004E00036DD
:100418000090FF0FFBD7001E02C0E9FF03C0EAFFF0
:10042800EE50001602C0E1FF03C0E2FF00C0E6FF85
:020438001200B0
:10043A000B840BAE28EF02F0010E036E026A016A0A
:0A044A00006A0A360232FF0E1200AB
:080454000AAE029E000E120028
:10045C000B820BAE38EF02F003680268016800688B
:08046C000A360232FF0E1200F5
:100474000CB07CEF02F00CA222EF03F00E6A000E27
:10048400026493EF02F0F00E0214D8A45EEF02F0BF
:10049400023A01380F0B02260138F00B016E0038C6
:1004A4000F0B01260038F00B006E08380F0B0026E6
:1004B4000838F00B086E0E84D89002BE77EF02F075
:1004C40008360036013602360E2A02BE77EF02F0F5
:1004D40008360036013602360E2A02BE77EF02F0E5
:1004E40008360036013602360E2A0E50036418EF21
:1004F40003F0035E0BBC08AE1DEF03F0D880800E42
:1005040008640030000E002201220222D8A01DEF50
:1005140003F0023201320032034A22EF03F01DEFEE
:1005240003F001C002F000C001F008C000F0086A46
:10053400000E0E860264CAEF02F0F00E0214D8A474
:10054400B2EF02F0023A01380F0B02260138F00B29
:10055400016E00380F0B01260038F00B006E0E847C
:10056400D89002BE77EF02F00036013602360E2A2A
:1005740002BE77EF02F00036013602360E2A02BEC2
:1005840077EF02F00036013602360E2A77EF02F0DA
:1005940001C002F000C001F0006A000E0E960E8841
:1005A4000264F7EF02F0F00E0214D8A4E2EF02F0B6
:1005B400023A01380F0B02260138F00B016E0E844B
:1005C400D89002BE77EF02F0013602360E2A02BE40
:1005D40077EF02F0013602360E2A02BE77EF02F000
:1005E400013602360E2A77EF02F001C002F0016AEA
:1005F400000E0E86026427EF03F0F00E0214D8A456
:1006040006EF03F0023A0E84D89002BE77EF02F0B0
:1006140002360E2A02BE77EF02F002360E2A02BE1E
:1006240077EF02F002360E2A77EF02F0010E0C6E1D
:1006340002DF2AEF03F0020E0C6E0ADF2AEF03F04A
:10064400040E0C6E09DF2AEF03F0080E0C6E4CDE6C
:02065400120092
:100656000B01CD51D15DE36FCE51D259E46F4ADE25
:1006660000C0E1FB01C0E2FBCB51CF5DE36FCC5193
:10067600D059E46F3FDE800E0118026E800EE2193B
:10068600025C02E1E151005C010ED8B0000E026E80
:1006960002C0DBFB025218E0CBCBD3FBCCCBD4FBA6
:1006A600CDCBCBFBCECBCCFBD3CBCDFBD4CBCEFBB8
:1006B600CFCBD5FBD0CBD6FBD1CBCFFBD2CBD0FB90
:1006C600D5CBD1FBD6CBD2FB800ED019006E800ED7
:1006D600CC19005C02E1CB51CF5D18E2CBCBD7FB46
:1006E600CCCBD8FBCFCBCBFBD0CBCCFBD7CBCFFB6C
:1006F600D8CBD0FBCDCBD9FBCECBDAFBD1CBCDFB48
:10070600D2CBCEFBD9CBD1FBDACBD2FBCB51CF5D53
:10071600DD6FCD51D15DE36FCE51D259E46FEADD85
:1007260000C0DEFBDDCBDFFB000EE06FDF33DF9FBB
:10073600000EE06F800ECE19006E800ED219005C9E
:1007460002E1D151CD5D03E2010EDC6F02D0FF0E56
:10075600DC6F800ED019006E800ECC19005C02E1B1
:10076600CB51CF5D2EE3DB5306E0CDCBE3FBCBCB0A
:10077600E4FBD7DD05D0CBCBE3FBCDCBE4FBD1DD72
:100786000B01DE51DF5D016E000EE059026E01C005
:10079600DFFB02C0E0FB800E0218006E800E005CDC
:1007A60002E1000E015C0AE2DC51CD27000EDCBF3F
:1007B600FF0ECE23DD51DF27000EE023CB4BCC2BE3
:0407C600C8D712007E
:1007CA00CBCBC9FFC7B002D00000FCD7C9CF00F01D
:0207DA0012000B
:1007DC00CBCB6FFF6DB002D00000FCD76FCF00F019
:0207EC001200F9
:1007EE00025006180E6E086A096A0B6A03500764F7
:1007FE00EAEF04F006500A6E068E028E03500B6E60
:10080E000750036E000E0B643AEF04F00B50075EB8
:10081E00D8B4DBEF04F0070E0764A9EF04F0075E0F
:10082E0000C008F001C000F002C001F0026A074EDD
:10083E00DBEF04F007647EEF04F0075E00C008F003
:10084E0001C000F0016A074EDBEF04F007645CEFB5
:10085E0004F0075E00C008F0006A074EDBEF04F0FC
:10086E00076443EF04F00AC002F005C001F004C0B3
:10087E0000F0086A04EF06F0030E07644EEF04F072
:10088E00075E08380F0B086E074EDBEF04F0D890AA
:10089E000832074EDBEF04F0D8900832074EDBEF3C
:1008AE0004F0D8900832DBEF04F0030E07646DEF0E
:1008BE0004F0075E08380F0B086E0038F00B0826A0
:1008CE0000380F0B006E074EDBEF04F0D8900032AD
:1008DE000832074EDBEF04F0D89000320832074E94
:1008EE00DBEF04F0D89000320832DBEF04F0030E99
:1008FE00076495EF04F0075E08380F0B086E00389A
:10090E00F00B082600380F0B006E0138F00B002696
:10091E0001380F0B016E074EDBEF04F0D890013259
:10092E0000320832074EDBEF04F0D890013200326D
:10093E000832074EDBEF04F0D89001320032083255
:10094E00DBEF04F0030E0764C6EF04F0075E083811
:10095E000F0B086E0038F00B082600380F0B006ED8
:10096E000138F00B002601380F0B016E0238F00B28
:10097E00012602380F0B026E074EDBEF04F0D89003
:10098E000232013200320832074EDBEF04F0D8900B
:10099E000232013200320832074EDBEF04F0D890FB
:1009AE000232013200320832096A000E0EAECFEF6B
:1009BE0005F0081E001E011E021E082A002201223A
:1009CE000222CFEF05F00750D8A4F0EF04F004EFA9
:1009DE0006F0096A02C00AF0028E068E0750035C0A
:1009EE00076ED8B4C2EF05F0070E076490EF05F05E
:1009FE00075E0450096E0550046E0650056E066AB9
:100A0E00074EC2EF05F0070E076465EF05F0075EAF
:100A1E000450096E0550046E056A074EC2EF05F0CC
:100A2E00070E076443EF05F0075E0450096E046A73
:100A3E00074EC2EF05F0070E07642AEF05F00AC055
:100A4E0002F004EF06F0030E076435EF05F0075EC3
:100A5E0009380F0B096E074EC2EF05F0D890093218
:100A6E00074EC2EF05F0D8900932074EC2EF05F0DF
:100A7E00D8900932C2EF05F0030E076454EF05F06B
:100A8E00075E09380F0B096E0438F00B092604387F
:100A9E000F0B046E074EC2EF05F0D89004320932E8
:100AAE00074EC2EF05F0D89004320932074EC2EF5E
:100ABE0005F0D89004320932C2EF05F0030E076438
:100ACE007CEF05F0075E09380F0B096E0438F00B4A
:100ADE00092604380F0B046E0538F00B0426053872
:100AEE000F0B056E074EC2EF05F0D890053204329B
:100AFE000932074EC2EF05F0D890053204320932A2
:100B0E00074EC2EF05F0D890053204320932C2EF1B
:100B1E0005F0030E0764ADEF05F0075E09380F0B05
:100B2E00096E0438F00B092604380F0B046E0538D5
:100B3E00F00B042605380F0B056E0638F00B052654
:100B4E0006380F0B066E074EC2EF05F0D890063230
:100B5E00053204320932074EC2EF05F0D890063244
:100B6E00053204320932074EC2EF05F0D890063234
:100B7E00053204320932086A000E0EAECFEF05F0D0
:100B8E00091E041E051E061E092A0422052206221F
:100B9E000950082604500022055001220650022258
:100BAE000EBEE6EF05F0D8A0F5EF05F002320132E9
:100BBE0000320832033EF5EF05F0FFEF05F0D8B036
:100BCE00FAEF05F0000E081E001E011E021E082A76
:100BDE000022012202220A7EFAEF05F0010E0C6EAF
:100BEE0042DC06EF06F0020E0C6E3DDC06EF06F060
:100BFE00040E0C6E2CDC06EF06F0000E0C6E1200CE
:100C0E00086A080E0C6E003408360450085ED8B020
:0E0C1E0002D00826D89000360C2EF5D7120012
:100C2C000B800BAE22EF06F0026A0AAEFF0E026ECC
:0C0C3C00016E006E0A360232FF0E12003C
:100C48000D6A086A0050D8B4000C04180A6E0ABE6F
:100C58000D1E0B6A04AE02D0041E042A00AE02D098
:100C6800001E002A005004100A6E0ABE1FD004504D
:100C7800085E003600340836045008260036060E92
:100C88000C6E00340836045000B0085E00A0082638
:100C980000360C2EF6D700A008260BB015D00DAEE6
:100CA800000C001E002A081E082A000C04AE09D0F9
:100CB80000BE04D00050086E006AF1D7006A002A0E
:100CC800000C001E0B2AD3D7082A0450085CD8A4AD
:0E0CD800E6D7086A002A00AEE2D7FF0C120031
:100CE6000134083609360450085E0550D8A0053C84
:100CF600095E003601360F0E0C6E013408360936D1
:100D0600045000A006D0085E0550D8A0053C095E38
:100D160005D008260550D8B0053C09260036013610
:100D26000C2EEBD700B006D0045008260550D8B0DC
:080D3600053C09260000120033
:080D3E000B6A0B86FF0E120088
:100D4600086A096A000E0762036428EF07F002507A
:100D560006180A6E075003267E0ED8A0B9EF06F0D5
:100D6600035ED8B02DEF07F0BDEF06F0035ED8A006
:100D760032EF07F0028E068E02C00EF001C00BF0B5
:100D860000C00DF000500402F4CF0CF00150050233
:100D9600F4CF00F0F3CF08F00402F3500C26F45021
:100DA6000822000E00220D500502F3500C26F450C6
:100DB6000822000E002202500402F3500826F450C6
:100DC600002202500502016A000E0122F35000269D
:100DD600F45001220D500602F3500826F45000226A
:100DE600026A000E012202220B500602F350002670
:100DF600F4500122000E02220E500602F350012684
:100E0600F450022202BE10EF07F008360036013613
:100E160002360306D8B432EF07F023EF07F0D88086
:100E2600800E08640030000E002201220222D8A0A3
:100E360023EF07F0023201320032034A2DEF07F0AA
:100E46000AAE029E000E35EF07F0010E76EC01F0B9
:100E560035EF07F0020E2EEC02F035EF07F0040E28
:060E66001DEC02F0120079
:100E6C00C8CBCBFB000E0B01CC6FC9CBCDFB000E5E
:100E7C00CE6FC8CBCFFB000ED06FCA51C925D16F36
:100E8C00D26B000ED223010ED15F000ED25B2BEC85
:040E9C0003F012004D
:100EA000F250026EF29E0500FF6A0150FE6E005085
:080EB000FD6E02BEF28E12007D
:100EB8006DB409D01F0E6B14016E0150000A03E1D6
:0A0EC800010E006E01D0006A120056
:100ED20058C6C4FB59C6C5FB5AC6C6FB5BC6C7FB90
:100EE2000B01C26BC36BC351120802E1C2518E08DF
:100EF20008E3E1DF005201E004D00B01C24BC32B37
:100F0200F2D70B01120EC35D02E18F0EC25D03E345
:100F12007B0E006E26D06B806BA022D0060158514A
:100F220059115A115B111BE00B01C451C511C611B5
:100F3200C7110EE143CBE1FF44CBE2FF050EE66EA3
:100F420041CB00F042CB01F0AADF010E006E09D0C6
:100F5200010E0B01C45F000EC55BC65BC75BDCD72D
:040F6200006A12000F
:100F66000450000A08E10550000A05E1FF0E006E74
:100F76007F0E016E57D00D6A096A086A015000108B
:100F8600D8B4000C015005180A6E0ABE0D1E0B6A75
:100F960005AE05D0041E051E042AD8B4052A01AEE6
:100FA60005D0001E011E002AD8B4012A01500510E2
:100FB6000A6E0ABE10D094DE0BB020D00DAE000C27
:100FC600001E011E002AD8B4012A081E091E082A7E
:100FD600D8B4092A000C05AE0DD001BE07D00150C9
:100FE600096E0050086E016A006AE8D7016A006A55
:100FF600002A000C011E001E0B2ADDD7082AD8B4D1
:10100600092A0450085CD8A4D9D70550095CD8A48D
:10101600D5D7096A086A002AD8B4012A01AECED704
:061026000000FF0C1200A7
:10102C0003500718D8A42AEF08F002500618D8A4C9
:10103C002AEF08F001500518D8A42AEF08F0005048
:0E104C000418D8B4D8841200D89412001200F0
:10105A00800E0B01C219006E800E000A005CD8B027
:10106A0064D1C2510008016E01C0C2FB800E011892
:10107A00006E800E6E0A005CD8A0BAD0640E046EB0
:10108A00C2CB00F0DCDD120E0024056E000E00BE9D
:10109A00FF0E066E000E062205C000F006C001F023
:1010AA00000E06BEFF0E026E036E00360090013679
:1010BA000236033600360090013602360336600ED9
:1010CA000024F66E8E0E0120F76E000E0220F86ED6
:1010DA000900F5CFC3FB0900F5CFC4FB0900F5CF22
:1010EA00C5FB0900F5CFC6FB640E046EC2CB00F047
:1010FA00A6DD08C000F00A0E046EA1DD090E002468
:10110A00056E000E00BEFF0E066E000E062205C01A
:10111A0000F006C001F0000E06BEFF0E026E036E5E
:10112A00003600900136023603360036009001364A
:10113A0002360336600E0024F66E8E0E0120F76E1C
:10114A00000E0220F86E0900F5CF00F00900F5CF75
:10115A0001F00900F5CF02F00900F5CF03F0C3CB87
:10116A0004F0C4CB05F0C5CB06F0C6CB07F0E6DD2C
:10117A0000C0C3FB01C0C4FB02C0C5FB03C0C6FB61
:10118A000A0E046EC2CB00F05ADD08C000F000C09F
:10119A0001F0000E00BEFF0E026E036E046E0136F1
:1011AA0001900236033604360136019002360336C0
:1011BA000436600E0124F66E8E0E0220F76E000EC3
:1011CA000320F86E0900F5CF00F00900F5CF01F011
:1011DA000900F5CF02F00900F5CF03F0C3CB04F004
:1011EA00C4CB05F0C5CB06F0C6CB07F0A7DDFFD10F
:1011FA00800E0A0A006E800EC219005C6EE20A0EA8
:10120A00046EC2CB00F01BDD090E0024056E000E31
:10121A0000BEFF0E066E000E062205C000F006C0D4
:10122A0001F0000E06BEFF0E026E036E003600903D
:10123A00013602360336003600900136023603368E
:10124A00600E0024F66E8E0E0120F76E000E02204C
:10125A00F86E0900F5CFC3FB0900F5CFC4FB0900FE
:10126A00F5CFC5FB0900F5CFC6FB0A0E046EC2CB4B
:10127A0000F0E5DC08C000F000C001F0000E00BE7E
:10128A00FF0E026E036E046E0136019002360336BB
:10129A00043601360190023603360436600E012404
:1012AA00F66E8E0E0220F76E000E0320F86E09000D
:1012BA00F5CF00F00900F5CF01F00900F5CF02F0F3
:1012CA000900F5CF03F0C3CB04F0C4CB05F0C5CBBE
:1012DA0006F0C6CB07F032DD8AD1C2CB00F0000E91
:1012EA00C2BFFF0E016E026E036E00360090013619
:1012FA000236033600360090013602360336600E97
:10130A000024F66E8E0E0120F76E000E0220F86E93
:10131A000900F5CF00F00900F5CF01F00900F5CF7B
:10132A0002F00900F5CF03F062D1800EC219006EF7
:10133A00800E6E0A005CD8A0BBD0640E046EC2CBCD
:10134A0000F07DDC120E0024056E000E00BEFF0EBA
:10135A00066E000E062205C000F006C001F0000E5F
:10136A0006BEFF0E026E036E00360090013602368C
:10137A000336003600900136023603362C0E00245E
:10138A00F66E8E0E0120F76E000E0220F86E09002E
:10139A00F5CFC3FB0900F5CFC4FB0900F5CFC5FBA8
:1013AA000900F5CFC6FB640E046EC2CB00F047DC21
:1013BA0008C000F00A0E046E42DC090E0024056E15
:1013CA00000E00BEFF0E066E000E062205C000F0DB
:1013DA0006C001F0000E06BEFF0E026E036E003656
:1013EA000090013602360336003600900136023686
:1013FA0003362C0E0024F66E8E0E0120F76E000EB8
:10140A000220F86E0900F5CF00F00900F5CF01F0CF
:10141A000900F5CF02F00900F5CF03F0C3CB04F0C1
:10142A00C4CB05F0C5CB06F0C6CB07F087DC00C0FD
:10143A00C3FB01C0C4FB02C0C5FB03C0C6FB0A0E46
:10144A00046EC2CB00F024EC06F008C000F000C025
:10145A0001F0000E00BEFF0E026E036E046E01362E
:10146A0001900236033604360136019002360336FD
:10147A0004362C0E0124F66E8E0E0220F76E000E34
:10148A000320F86E0900F5CF00F00900F5CF01F04E
:10149A000900F5CF02F00900F5CF03F0C3CB04F041
:1014AA00C4CB05F0C5CB06F0C6CB07F047DC9FD00E
:1014BA00800E0A0A006E800EC219005C71E20A0EE2
:1014CA00046EC2CB00F024EC06F0090E0024056E6F
:1014DA00000E00BEFF0E066E000E062205C000F0CA
:1014EA0006C001F0000E06BEFF0E026E036E003645
:1014FA000090013602360336003600900136023675
:10150A0003362C0E0024F66E8E0E0120F76E000EA6
:10151A000220F86E0900F5CFC3FB0900F5CFC4FB22
:10152A000900F5CFC5FB0900F5CFC6FB0A0E046E0C
:10153A00C2CB00F024EC06F008C000F000C001F0B5
:10154A00000E00BEFF0E026E036E046E013601909D
:10155A000236033604360136019002360336043663
:10156A002C0E0124F66E8E0E0220F76E000E03205A
:10157A00F86E0900F5CF00F00900F5CF01F0090077
:10158A00F5CF02F00900F5CF03F0C3CB04F0C4CBCA
:10159A0005F0C5CB06F0C6CB07F0A3EC06F027D0C2
:1015AA00C2CB00F0000EC2BFFF0E016E026E036EC8
:1015BA0000360090013602360336003600900136B6
:1015CA00023603362C0E0024F66E8E0E0120F76EBC
:1015DA00000E0220F86E0900F5CF00F00900F5CFE1
:1015EA0001F00900F5CF02F00900F5CF03F012006F
:1015FA000450000A12E10550000A0FE10650000AE1
:10160A000CE10750000A09E1FF0E006EFF0E016EA1
:10161A007F0E026EFF0E036EA8D0086A096A075091
:10162A00D8B4A8EF0BF00350D8B4ADEF0BF00250CA
:10163A0006180A6E028E068E0E6A02C008F001C0F3
:10164A000CF000C00DF004500D5E0550D8A0053C0A
:10165A000C5E0650D8A0063C085E086A0C6A0D6A41
:10166A00D8A03FEF0BF0D890023201320032083294
:10167A00010E0E6E0750035ED8A04CEF0BF07E0EE3
:10168A000E240326D8B0B2EF0BF052EF0BF07E0E09
:10169A000E240326D8A0B7EF0BF0180E0B6E0D36EA
:1016AA000C3608360036013602360E360450005E15
:1016BA000550D8A0053C015E0650D8A0063C025E43
:1016CA0006340E120EA06DEF0BF00D8078EF0BF0C2
:1016DA00045000260550D8B0053C01260650D8B063
:1016EA00062802260D900B2E54EF0BF09EEF0BF0FE
:1016FA00D8900036013602360E360450005E055088
:10170A00D8A0053C015E0650D8A0063C025E06340D
:10171A000E10010B0D26D8B00C2AD8B4082AD8A46A
:10172A009EEF0BF008320C320D32032AD8B4B2EF16
:10173A000BF00AAE089E0850026E0C50016E0D5056
:10174A00006EBAEF0BF0010E9FEC06F0BAEF0BF049
:10175A00020E76EC01F0BAEF0BF0040E2EEC02F05A
:0C176A00BAEF0BF0080E1DEC02F01200AC
:101776000B6A0A6A096A086A0E6A03340836045054
:10178600085E0550D8A0053C095E0650D8A0063C68
:101796000A5E0750D8A0073C0B5EE86AD8A0010E87
:1017A6000E5E0336070E0C6E0334083609360A360B
:1017B6000B360E36045003A012D0085E0550D8A092
:1017C600053C095E0650D8A0063C0A5E0750D8A024
:1017D600073C0B5EE86AD8A0010E0E5E11D0082603
:1017E6000550D8B0053C09260650D8B0063C0A2656
:1017F6000750D8B0073C0B26E86AD8B0010E0E2673
:1018060003360C2ED1D70234083609360A360B3683
:101816000E36045003A012D0085E0550D8A0053C31
:10182600095E0650D8A0063C0A5E0750D8A0073CC1
:101836000B5EE86AD8A0010E0E5E11D00826055090
:10184600D8B0053C09260650D8B0063C0A260750F3
:10185600D8B0073C0B26E86AD8B0010E0E26023631
:10186600070E0C6E0234083609360A360B360E366B
:10187600045002A012D0085E0550D8A0053C095EAF
:101886000650D8A0063C0A5E0750D8A0073C0B5E5F
:10189600E86AD8A0010E0E5E11D008260550D8B011
:1018A600053C09260650D8B0063C0A260750D8B093
:1018B600073C0B26E86AD8B0010E0E2602360C2E1F
:1018C600D1D70134083609360A360B360E3604509F
:1018D60002A012D0085E0550D8A0053C095E06504D
:1018E600D8A0063C0A5E0750D8A0073C0B5EE86A03
:1018F600D8A0010E0E5E11D008260550D8B0053CC2
:1019060009260650D8B0063C0A260750D8B0073C30
:101916000B26E86AD8B0010E0E260136070E0C6EAD
:101926000134083609360A360B360E36045001A045
:1019360012D0085E0550D8A0053C095E0650D8A016
:10194600063C0A5E0750D8A0073C0B5EE86AD8A0A2
:10195600010E0E5E11D008260550D8B0053C0926AA
:101966000650D8B0063C0A260750D8B0073C0B26CE
:10197600E86AD8B0010E0E2601360C2ED1D70034F7
:10198600083609360A360B360E36045001A012D038
:10199600085E0550D8A0053C095E0650D8A0063C56
:1019A6000A5E0750D8A0073C0B5EE86AD8A0010E75
:1019B6000E5E11D008260550D8B0053C0926065003
:1019C600D8B0063C0A260750D8B0073C0B26E86A72
:1019D600D8B0010E0E260036070E0C6E00340836FF
:1019E60009360A360B360E36045000A012D0085EB1
:1019F6000550D8A0053C095E0650D8A0063C0A5EF4
:101A06000750D8A0073C0B5EE86AD8A0010E0E5E10
:101A160011D008260550D8B0053C09260650D8B086
:101A2600063C0A260750D8B0073C0B26E86AD8B011
:101A3600010E0E2600360C2ED1D700B00ED0045063
:101A460008260550D8B0053C09260650D8B0063CF5
:0C1A56000A260750D8B0073C0B261200EF
:101A6200220E0C6E086A096A0A6A0B6A0C06D8B45E
:101A72001FD0D8900B320A320932083203320232B6
:101A820001320032D8A0F2D70C06D8B409D00450E3
:101A920008260550092206500A2207500B22EAD7CF
:101AA200045008260550092206500A2207500B222C
:021AB200120020
:101AB4000450085E0550D8A0053C095E0650D8A025
:101AC400063C0A5E0750D8A0073C0B5E0336070E9F
:101AD4000C6E0334083609360A360B36045003A05C
:101AE4000ED0085E0550D8A0053C095E0650D8A06B
:101AF400063C0A5E0750D8A0073C0B5E0DD00826B2
:101B04000550D8B0053C09260650D8B0063C0A2634
:101B14000750D8B0073C0B2603360C2EDAD7023414
:101B2400083609360A360B36045003A00ED0085E78
:101B34000550D8A0053C095E0650D8A0063C0A5EB4
:101B44000750D8A0073C0B5E0DD008260550D8B02E
:101B5400053C09260650D8B0063C0A260750D8B0E2
:101B6400073C0B260236070E0C6E02340836093683
:101B74000A360B36045002A00ED0085E0550D8A0D9
:101B8400053C095E0650D8A0063C0A5E0750D8A062
:101B9400073C0B5E0DD008260550D8B0053C09263D
:101BA4000650D8B0063C0A260750D8B0073C0B268E
:101BB40002360C2EDAD70134083609360A360B36CB
:101BC400045002A00ED0085E0550D8A0053C095E62
:101BD4000650D8A0063C0A5E0750D8A0073C0B5E0E
:101BE4000DD008260550D8B0053C09260650D8B0BB
:101BF400063C0A260750D8B0073C0B260136070ED0
:101C04000C6E0134083609360A360B36045001A02E
:101C14000ED0085E0550D8A0053C095E0650D8A039
:101C2400063C0A5E0750D8A0073C0B5E0DD0082680
:101C34000550D8B0053C09260650D8B0063C0A2603
:101C44000750D8B0073C0B2601360C2EDAD70034E7
:101C5400083609360A360B36045001A00ED0085E49
:101C64000550D8A0053C095E0650D8A0063C0A5E83
:101C74000750D8A0073C0B5E0DD008260550D8B0FD
:101C8400053C09260650D8B0063C0A260750D8B0B1
:101C9400073C0B260036070E0C6E00340836093656
:101CA4000A360B36045000A00ED0085E0550D8A0AA
:101CB400053C095E0650D8A0063C0A5E0750D8A031
:101CC400073C0B5E0DD008260550D8B0053C09260C
:101CD4000650D8B0063C0A260750D8B0073C0B265D
:101CE40000360C2EDAD700B00ED00450082605506A
:101CF400D8B0053C09260650D8B0063C0A26075041
:081D0400D8B0073C0B261200C9
:101D0C000B1E0A1E091E081E082AD8B4092AD8B4AC
:081D1C000A2AD8B40B2A1200B8
:101D24000C6A0E6A0250D8A4ABEF0EF001C002F0A8
:101D340000C001F0006A0E860250D8A4ABEF0EF08A
:101D440001C002F0016A0E960E880250D8B4BDEFAD
:101D54000EF00E50035ED8A4D8A0C3EF0EF0D890B6
:101D640002BEC9EF0EF0003601360236032EB2EF82
:101D74000EF0C3EF0EF0010E0C6E76EC01F0CDEF19
:101D84000EF0020E0C6E1DEC02F0CDEF0EF0040E00
:081D94000C6E2AEC02F01200B3
:0A1D9C001D0E0D6E0D2EFED7120075
:101DA6000A6A0350D8A40A800750D8A40A820A50A7
:101DB600D8B436EF0FF0030AD8B4EFEF0EF00AB03E
:101DC600EAEF0EF006AE34EF0FF032EF0FF002AE90
:101DD60032EF0FF034EF0FF00250800B0A6E029EC6
:101DE6000650800B069E0A18D8B400EF0FF00A5072
:101DF600D8B432EF0FF034EF0FF00750035CD8B4CD
:101E06000AEF0FF0D8A026EF0FF02CEF0FF00650D8
:101E1600025CD8B414EF0FF0D8A026EF0FF02CEF29
:101E26000FF00550015CD8B41EEF0FF0D8A026EFD6
:101E36000FF02CEF0FF00450005CD8B436EF0FF023
:101E4600D8B02CEF0FF00A52D8B434EF0FF032EFBF
:101E56000FF00A52D8B432EF0FF034EF0FF0D880FB
:0E1E66001200D8901200D880D884120012000A
:101E74000B6A0A6A096A00500402F4CF09F0F3CF2E
:101E840008F001500502F4CF0BF0F3CF0AF0005034
:101E94000502F3500926F4500A22E86A0B22015085
:101EA4000402F3500926F4500A22E86A0B2208C0FF
:101EB40000F009C001F00AC002F00BC003F01200E8
:101EC4000B01C251390806E3300EC25D03E3010E73
:081ED400006E01D0006A12004B
:041EDC006B84120001
:101EE000C2CBC6FB000E0B01C76FC451C225016EE9
:101EF000026A000E0222800EC719006E800E0218C0
:101F0000005C02E10150C65D0BE2C6CBC8FBC3CB4F
:101F1000C9FBC5CBCAFB36EC07F0C64BC72BE5D7D0
:021F20001200AD
:101F2200A49EC2CB6FFF58C6C3FB59C6C4FB5AC698
:101F3200C5FB5BC6C6FB6DA423D0060158515911DF
:101F42005A115B111CE00B01C351C411C511C6111A
:101F52000FE143CBE1FF44CBE2FF040EE66E41CB3F
:101F620000F042CB01F050EC07F0010E006E3CD0C5
:101F7200010E0B01C35F000EC45BC55BC65BDBD702
:101F820058C6C3FB59C6C4FB5AC6C5FB5BC6C6FBD3
:101F9200A4BE23D00601585159115A115B111CE0FD
:101FA2000B01C351C411C511C6110FE143CBE1FFAF
:101FB20044CBE2FF040EE66E41CB00F042CB01F0CF
:101FC20050EC07F0010E006E0FD0010E0B01C35F43
:101FD200000EC45BC55BC65BDBD76BBC02D0006A7C
:0A1FE20003D06B84020E006E1200A3
:101FEC000B6A0C6A086A0350D8B47AEF10F002C07E
:101FFC000AF0028E9E0E035E03AE6AEF10F0036CC5
:10200C00080E035CD8A037EF10F0036E083600C042
:10201C0008F001C000F002C001F0026A080E035C77
:10202C00D8A037EF10F0036E083600C008F001C0DE
:10203C0000F0016A080E035CD8A037EF10F0036EB5
:10204C00083600C008F0006A080E035CD8A037EF11
:10205C0010F0036E0836086A0350D8A4D89043EFEA
:10206C0010F00350D8B443EF10F0D8900232013284
:10207C0000320832032E3BEF10F00BBC08A054EFDB
:10208C0010F0D8A054EF10F0082AD8B4002AD8B415
:10209C00012AD8B4022A02BE7EEF10F00AAE7AEF03
:1020AC0010F0021E011E001E081E082AD8B4002AB9
:1020BC00D8B4012AD8B4022A7AEF10F0026A016A65
:1020CC00006A086A7AEF10F00B800BAE85EF10F007
:1020DC00026A0AAE85EF10F0026E016E006E086E99
:1020EC000A36023285EF10F00C6A000E86EF10F003
:1020FC00010E0C6E000E16EC06F086EF10F0FF0EC3
:10210C000250036E0150026E0050016E0850006EBA
:02211C001200AF
:10211E006E0E0B01C25DD8A0CAD0640E046EC2CB87
:10212E0000F007EC06F0120E0024056E066A000E93
:10213E00062205C000F006C001F0000E06BEFF0E1E
:10214E00026E036E003600900136023603360036FC
:10215E000090013602360336600E0024F66E8E0EA7
:10216E000120F76E000E0220F86E0900F5CF00F088
:10217E000900F5CF01F00900F5CF02F00900F5CF07
:10218E0003F0000E046E000E056E000E066E7E0E3F
:10219E00076EA3EC06F000C0C3FB01C0C4FB02C077
:1021AE00C5FB03C0C6FB640E046EC2CB00F007EC89
:1021BE0006F008C000F00A0E046E07EC06F0090ED9
:1021CE000024056E066A000E062205C000F006C049
:1021DE0001F0000E06BEFF0E026E036E003600907A
:1021EE0001360236033600360090013602360336CB
:1021FE00600E0024F66E8E0E0120F76E000E022089
:10220E00F86E0900F5CF00F00900F5CF01F00900D6
:10221E00F5CF02F00900F5CF03F0C3CB04F0C4CB29
:10222E0005F0C5CB06F0C6CB07F0A3EC06F000C058
:10223E00C3FB01C0C4FB02C0C5FB03C0C6FB0A0E34
:10224E00046EC2CB00F007EC06F008C000F000C030
:10225E0001F0000E026E036E046E0136019002361E
:10226E000336043601360190023603360436600E0C
:10227E000124F66E8E0E0220F76E000E0320F86E0D
:10228E000900F5CF00F00900F5CF01F00900F5CFF8
:10229E0002F00900F5CF03F0C3CB04F0C4CB05F078
:1022AE00C5CB06F0C6CB07F0A3EC06F0B1D0C251F9
:1022BE000A08D8B07ED00A0E046EC2CB00F007EC2E
:1022CE0006F0090E0024056E066A000E062205C0F1
:1022DE0000F006C001F0000E06BEFF0E026E036E89
:1022EE000036009001360236033600360090013675
:1022FE0002360336600E0024F66E8E0E0120F76E47
:10230E00000E0220F86E0900F5CF00F00900F5CF9F
:10231E0001F00900F5CF02F00900F5CF03F0000E31
:10232E00046E000E056E000E066E7E0E076EA3EC9A
:10233E0006F000C0C3FB01C0C4FB02C0C5FB03C056
:10234E00C6FB0A0E046EC2CB00F007EC06F008C006
:10235E0000F000C001F0000E026E036E046E013636
:10236E0001900236033604360136019002360336EA
:10237E000436600E0124F66E8E0E0220F76E000EED
:10238E000320F86E0900F5CF00F00900F5CF01F03B
:10239E000900F5CF02F00900F5CF03F0C3CB04F02E
:1023AE00C4CB05F0C5CB06F0C6CB07F0A3EC06F008
:1023BE002FD0C2CB00F0000E016E026E036E0036FF
:1023CE000090013602360336003600900136023692
:1023DE000336600E0024F66E8E0E0120F76E000E90
:1023EE000220F86E0900F5CF00F00900F5CF01F0DC
:1023FE000900F5CF02F00900F5CF03F0000E046ED0
:10240E00000E056E000E066E7E0E076EA3EC06F035
:02241E001200AA
:102420000050086E0150006E0250016E0350026EA3
:10243000036A0B6A0C6A9E0E036E0A6A020E0C6E29
:062440003AEC02F012006C
:102446000B6A0C6A0A6A086A0350D8B4ABEF12F03A
:10245600028E9E0E035E03BE36EF12F0D8B436EF40
:1024660012F09BEF12F0036C080E035CD8A068EF25
:1024760012F0036E083600C008F001C000F002C07A
:1024860001F0026A080E035CD8A068EF12F0036E32
:10249600083600C008F001C000F0016A080E035CAF
:1024A600D8A068EF12F0036E083600C008F0006A84
:1024B600080E035CD8A068EF12F0036E0836086AAF
:1024C6000350D8A4D89074EF12F00350D8B474EF28
:1024D60012F0D8900232013200320832032E6CEF2D
:1024E60012F00BBC08A085EF12F0D8A085EF12F011
:1024F600082AD8B4002AD8B4012AD8B4022A02BEBF
:10250600AFEF12F00AAEABEF12F0021E011E001E74
:10251600081E082AD8B4002AD8B4012AD8B4022A38
:10252600ABEF12F0026A016A006A086AABEF12F0BA
:102536000B800BAEB5EF12F0026A0AAEB5EF12F0E1
:10254600026E016E006E086E0A360232B5EF12F0A8
:10255600000E0C6AB6EF12F0010E0C6E16EC06F0C9
:10256600B6EF12F0FF0E0250036E0150026E0050DD
:08257600016E0850006E120016
:08257E00067EF7EC03F01200E9
:102586000B01BA6BBB6BAE6BAF6B9CCB00F09DCBFC
:1025960001F09ECB02F0010E9C27000E9D239E2388
:1025A60000C0F6FF01C0F7FF02C0F8FF0900F5CF33
:1025B60000F000C0ABFB0052D8B4D1EF22F0AB5113
:1025C600250A0BE09ACBE1FF9BCBE2FFABCBE6FF04
:1025D6009A4B9B2BBA4BBB2BD8D7AC6BAD6BAE6B68
:1025E600AF6B23D0AE87010E9C27000E9D239E2342
:1025F60059D0AE81010E9C27000E9D239E2352D0FA
:10260600AE83010E9C27000E9D239E234BD0AF87E1
:10261600010E9C27000E9D239E2344D0AE85010EFD
:102626009C27000E9D239E233DD09CCBF6FF9DCB81
:10263600F7FF9ECBF8FF0900F5CF01F001502D0AF8
:10264600D1E09CCBF6FF9DCBF7FF9ECBF8FF0900B0
:10265600F5CF01F00150200ACCE09CCBF6FF9DCBD4
:10266600F7FF9ECBF8FF0900F5CF01F001502B0ACA
:10267600C7E09CCBF6FF9DCBF7FF9ECBF8FF09008A
:10268600F5CF01F00150230AC2E09CCBF6FF9DCBAB
:10269600F7FF9ECBF8FF0900F5CF01F00150300A95
:1026A600BDE001D09ED7AEA301D0AE91AEA701D0BA
:1026B600AE959CCBF6FF9DCBF7FF9ECBF8FF0900AE
:1026C600F5CF00F0000E016E00C0C2FB62EC0FF009
:1026D600005236E0AC6BAD6BACCB00F0ADCB01F08D
:1026E6000A0E046E000E056E3AEC0FF09CCBF6FF58
:1026F6009DCBF7FF9ECBF8FF0900F5CF02F0025005
:102706000024AC6F000E0120AD6F300EAC5F000EE2
:10271600AD5B010E9C27000E9D239E239CCBF6FFEE
:102726009DCBF7FF9ECBF8FF0900F5CF00F0000E1A
:10273600016E00C0C2FB62EC0FF00052CDE133D057
:102746009CCBF6FF9DCBF7FF9ECBF8FF0900F5CF9C
:1027560001F001502A0A27E19FCBE9FFA0CBEAFF4F
:10276600EECF00F0EECF01F000C0E9FF01C0EAFFB6
:10277600EECFACFBEECFADFB9FCBE9FFA0CBEAFFE4
:10278600020EEE24006E000EEE20016E9FCBE1FFDE
:10279600A0CBE2FF00C0E6FF01C0E6FF010E9C27CA
:1027A600000E9D239E239CCBF6FF9DCBF7FF9ECB71
:1027B600F8FF0900F5CF01F001502E0A70E1010E75
:1027C6009C27000E9D239E239CCBF6FF9DCBF7FFF7
:1027D6009ECBF8FF0900F5CF01F001502A0A28E147
:1027E6009FCBE9FFA0CBEAFFEECF00F0EECF01F0E2
:1027F60000C0E9FF01C0EAFFEECFA9FBEECFAAFBBE
:102806009FCBE9FFA0CBEAFF020EEE24006E000E7E
:10281600EE20016E9FCBE1FFA0CBE2FF00C0E6FFFA
:1028260001C0E6FF010E9C27000E9D239E2336D095
:10283600A96BAA6B9CCBF6FF9DCBF7FF9ECBF8FF4F
:102846000900F5CF00F0000E016E00C0C2FB62EC7D
:102856000FF0005223E0A9CB00F0AACB01F00A0E3C
:10286600046E000E056E3AEC0FF09CCBF6FF9DCB86
:10287600F7FF9ECBF8FF0900F5CF02F002500024C7
:10288600A96F000E0120AA6F300EA95F000EAA5B89
:10289600010E9C27000E9D239E23CCD703D0A96B47
:1028A600AA6BAF899CCB00F09DCB01F09ECB02F0CA
:1028B600010E9C27000E9D239E2300C0F6FF01C03B
:1028C600F7FF02C0F8FF0900F5CFABFBF9D0BACB92
:1028D60000F0BBCB01F0D5EF22F0AE89E3D7AF8590
:1028E6002ED1AE8BAF812BD1AF8329D1AE8D27D11F
:1028F60026D1AE8BAE8F23D19FCBE9FFA0CBEAFFCB
:10290600EECF00F0EECF01F000C0E9FF01C0EAFF14
:10291600EECFB6FBEECFB7FB9FCBE9FFA0CBEAFF2E
:10292600020EEE24006E000EEE20016E9FCBE1FF3C
:10293600A0CBE2FF00C0E6FF01C0E6FF000EB7191C
:1029460002E1000EB61904E1F20EB66F080EB76F7B
:10295600B86BB96BB851B625E96EB951B721EA6EB5
:10296600EE520BE0010EB825006E000EB921016E85
:1029760000C0B8FB01C0B9FBEDD7A951AA110AE006
:10298600B951AA5D02E1B851A95D04E2A9CBB8FB31
:10299600AACBB9FBAD51B95D02E1AC51B85D05E218
:1029A600B851AC5FB951AD5B02D0AC6BAD6BAEB795
:1029B60016D0ACCB00F0ADCB01F0010EAC5F000E33
:1029C600AD5B005001100BE09ACBE1FF9BCBE2FF21
:1029D600200EE66E9A4B9B2BBA4BBB2BEAD7B8CB95
:1029E60002F0B9CB03F0010EB85D006E000EB959C6
:1029F600016E00C0B8FB01C0B9FB0250031019E01C
:102A0600B6CBE9FFB7CBEAFF9ACBE1FF9BCBE2FF60
:102A1600EECFE6FF9A4B9B2B010EB625006E000EFD
:102A2600B721016E00C0B6FB01C0B7FBBA4BBB2B8A
:102A3600D6D7AEA716D0ACCB00F0ADCB01F0010EC9
:102A4600AC5F000EAD5B005001100BE09ACBE1FFCE
:102A56009BCBE2FF200EE66E9A4B9B2BBA4BBB2B11
:102A6600EAD793D59FCBE9FFA0CBEAFFEECF00F0E4
:102A7600EECF01F000C0E9FF01C0EAFFEECFABFBED
:102A86009FCBE9FFA0CBEAFF020EEE24006E000EFC
:102A9600EE20016E9FCBE1FFA0CBE2FF00C0E6FF78
:102AA60001C0E6FFAB0EB66F0B0EB76F010EB86F27
:102AB600000EB96F62D7C00EAE13000EAF133FD033
:102AC600AB51000AD8B403D7AB516C0AD8B405D7BA
:102AD600AB514C0AD8B401D7AB51660AD8B4FFD66D
:102AE600AB51450AD8B4FDD6AB51650AD8B4FAD66F
:102AF600AB51670AD8B4F8D6AB516F0AD8B4F6D63C
:102B0600AB51640AD8B4F4D6AB51690AD8B4F0D63E
:102B1600AB51700AD8B4EDD6AB51580AD8B4E9D641
:102B2600AB51780AD8B4E6D6AB51730AD8B4E4D61A
:102B3600AB51630A97E0AB51750ABDE0B3D7000EFF
:102B4600AE15006EAF51070B016E00500110D8B4E0
:102B560078EF1EF0AFA904D0060EA96F000EAA6F7B
:102B66009FCBE9FFA0CBEAFFEECF00F0EECF01F05E
:102B760000C0E9FF01C0EAFFEECFB0FBEECFB1FB2C
:102B8600EECFB2FBEECFB3FB9FCBE9FFA0CBEAFFC4
:102B9600040EEE24006E000EEE20016E9FCBE1FFC8
:102BA600A0CBE2FF00C0E6FF01C0E6FF046A056AAB
:102BB600066A076AB0CB00F0B1CB01F0B2CB02F0E7
:102BC600B3CB03F0D3EC0EF0010ED8B0000E006EBE
:102BD600005205E0B27F030EAE13000EAF13B46BC6
:102BE600B56BB0CB00F0B1CB01F0B2CB02F0B3CBFA
:102BF60003F0046A056A066A076A16EC08F0000E16
:102C0600D8A4010E006E0052D8B48AD0B3CB00F01F
:102C1600016A026A036AFF0E0016000E01167E0E96
:102C2600005E000E015A00C0B4FB01C0B5FB010EE8
:102C3600005E000E015A00C0B4FB01C0B5FB030ED6
:102C4600046E000E056E3AEC0FF000C0B4FB01C036
:102C5600B5FB0A0E046E000E056EB3EC07F000C05D
:102C6600B4FB01C0B5FB800E0118026E800E025C3B
:102C760002E1000E005C05E2010E0B01B45F000EDE
:102C8600B55B0B01B4510008C26F2DEC08F0B0CB58
:102C960004F0B1CB05F0B2CB06F0B3CB07F0A3EC52
:102CA60006F000C0B6FB01C0B7FB02C0B8FB03C00C
:102CB600B9FB000E046E000E056E000E066E7F0E4A
:102CC600076EB6CB00F0B7CB01F0B8CB02F0B9CBAC
:102CD60003F0D3EC0EF0010ED8B0000E006E0052D9
:102CE60005E0010EB45F000EB55B1AD0000E046E4F
:102CF600000E056E200E066E820E076EB6CB00F035
:102D0600B7CB01F0B8CB02F0B9CB03F0D3EC0EF0A1
:102D1600000ED8B0010E006E005202E0B44BB52B87
:102D2600800E006E800EB519005C02E1B4510008F9
:102D360003E3010EAB6F02D0B4CBABFBAFB118D03F
:102D4600AFA315D0800EB519006E7F0E005C02E1B0
:102D5600FC0EB45D0BE3800EB519006E800EAA1949
:102D6600005C02E1A951B45D01E201D001D0EFD3CC
:102D7600A951AA1106E0AFA304D0010EA95F000E67
:102D8600AA5BAA51000802E1A951080803E2080E4D
:102D9600AB6F02D0A9CBABFBB0CB00F0B1CB01F04F
:102DA600B2CB02F0B3CB03F0046A056A066A076A7F
:102DB60016EC08F0000ED8A4010E006E0052D8B42E
:102DC6004BD1B4CBC2FB2DEC08F000C004F001C01F
:102DD60005F002C006F003C007F0B0CB00F0B1CB9F
:102DE60001F0B2CB02F0B3CB03F0FDEC0AF000C069
:102DF600B0FB01C0B1FB02C0B2FB03C0B3FB0B01C9
:102E0600AB510008C26F2DEC08F000C004F001C001
:102E160005F002C006F003C007F0B0CB00F0B1CB5E
:102E260001F0B2CB02F0B3CB03F0FDEC0AF000C028
:102E3600BCFB01C0BDFB02C0BEFB03C0BFFBBCCBDD
:102E4600B0FBBDCBB1FBBECBB2FBBFCBB3FBBCCBA8
:102E560000F0BDCB01F0BECB02F0BFCB03F023ECFC
:102E660012F010EC12F000C004F001C005F002C030
:102E760006F003C007F0BCCB00F0BDCB01F0BECB23
:102E860002F0BFCB03F0BFEC12F0000E046E000E92
:102E9600056E000E066E7E0E076ED3EC0EF0000E6B
:102EA600D8B0010E006E00521AE0B0CB00F0B1CBE4
:102EB60001F0B2CB02F0B3CB03F0000E046E000EAD
:102EC600056E000E066E7E0E076EF7EC03F000C070
:102ED600B0FB01C0B1FB02C0B2FB03C0B3FBB0CB79
:102EE60000F0B1CB01F0B2CB02F0B3CB03F023EC90
:102EF60012F00B01AB51010F096E0A6A000E0A228D
:102F060009C004F00AC005F0000E0ABEFF0E066EE8
:102F1600076E0436049005360636073604360490E6
:102F2600053606360736C40E0424F66E8E0E0520C8
:102F3600F76E000E0620F86E0900F5CF05F00900C1
:102F4600F5CF06F00900F5CF07F00900F5CF08F038
:102F56000850035C08E10750025C05E10650015C7D
:102F660002E10550005C1EE30B01B0CB00F0B1CBD3
:102F760001F0B2CB02F0B3CB03F0CD0E046ECC0E53
:102F8600056E4C0E066E7B0E076EA3EC06F000C0B7
:102F9600B0FB01C0B1FB02C0B2FB03C0B3FBB44B34
:102FA600B52B5AD0B0CB00F0B1CB01F0B2CB02F0CA
:102FB600B3CB03F023EC12F0ABCB04F0000E056E9E
:102FC600066E076E04360490053606360736043656
:102FD6000490053606360736C40E0424F66E8E0EA9
:102FE6000520F76E000E0620F86E0900F5CF05F0F5
:102FF6000900F5CF06F00900F5CF07F00900F5CF77
:1030060008F00850035C08E10750025C05E1065031
:10301600015C02E10550005C1FE20B01B0CB00F041
:10302600B1CB01F0B2CB02F0B3CB03F0000E046ECD
:10303600000E056E200E066E820E076EA3EC06F0DD
:1030460000C0B0FB01C0B1FB02C0B2FB03C0B3FBC2
:10305600010EB45F000EB55B0B01AFA393D0AFB703
:1030660091D0800E000A006E800EAA19005C02E163
:10307600A9510A0804E20A0EA96F000EAA6FB0CB86
:1030860000F0B1CB01F0B2CB02F0B3CB03F023ECEE
:1030960012F000C0B6FB01C0B7FB02C0B8FB03C00C
:1030A600B9FBB651B711B811B91142E00A0E046E58
:1030B600000E056E066E076EB6CB00F0B7CB01F0BC
:1030C600B8CB02F0B9CB03F0BBEC0BF008C000F0B4
:1030D60009C001F00AC002F00BC003F0000E046E36
:1030E600031808E10450021805E10450011802E132
:1030F6000050000A1DE1010EA95F000EAA5B0A0E30
:10310600046E000E056E066E076EB6CB00F0B7CBEA
:1031160001F0B8CB02F0B9CB03F0BBEC0BF000C06A
:10312600B6FB01C0B7FB02C0B8FB03C0B9FBB9D7F9
:10313600800EAA19006E800E005C02E1AB51A95DFB
:1031460021E2A951AB5DC26F2DEC08F000C004F07E
:1031560001C005F002C006F003C007F0B0CB00F0D6
:10316600B1CB01F0B2CB02F0B3CB03F0FDEC0AF029
:1031760000C0B0FB01C0B1FB02C0B2FB03C0B3FB91
:10318600A9CBABFB050E0B01A925006E000EAA21EB
:10319600016E0050AC5F0150AD5BA951AA1103E16D
:1031A600AFB701D004D0010EAC5F000EAD5B030ECD
:1031B600AE15006EAFCB01F0000E011600500110E7
:1031C60004E0010EAC5F000EAD5BAEA539D0AEA338
:1031D60012D0AEA103D02D0EA16F02D02B0EA16F7F
:1031E6009ACBE1FF9BCBE2FFA1CBE6FF9A4B9B2B51
:1031F600BA4BBB2B0CD0AEA10AD09ACBE1FF9BCB2E
:10320600E2FF200EE66E9A4B9B2BBA4BBB2B800E31
:10321600006E800EAD19005C02E1AC5100080FE2B1
:103226009ACBE1FF9BCBE2FF300EE66E9A4B9B2BCF
:10323600BA4BBB2B010EAC5F000EAD5BE8D73AD0A4
:10324600AEB718D0800E006E800EAD19005C02E19C
:10325600AC5100080FE29ACBE1FF9BCBE2FF200EB8
:10326600E66E9A4B9B2BBA4BBB2B010EAC5F000E46
:10327600AD5BE8D7AEA312D0AEA103D02D0EA26FE0
:1032860002D02B0EA26F9ACBE1FF9BCBE2FFA2CB23
:10329600E6FF9A4B9B2BBA4BBB2B0CD0AEA10AD0A8
:1032A6009ACBE1FF9BCBE2FF200EE66E9A4B9B2B5F
:1032B600BA4BBB2BB0CB00F0B1CB01F0B2CB02F0D6
:1032C600B3CB03F023EC12F000C0B6FB01C0B7FB92
:1032D60002C0B8FB03C0B9FBABCB00F0000E016E19
:1032E600026E036E00360090013602360336003653
:1032F6000090013602360336C40E0024F66E8E0E9A
:103306000120F76E000E0220F86E0900F5CF04F0DA
:103316000900F5CF05F00900F5CF06F00900F5CF55
:1033260007F0B6CB00F0B7CB01F0B8CB02F0B9CBC3
:1033360003F0BBEC0BF0300E00269ACBE1FF9BCBE3
:10334600E2FF00C0E6FF9A4B9B2BBA4BBB2BA95161
:10335600AA1103E1AFB701D06FD09ACBE1FF9BCBA7
:10336600E2FF2E0EE66E9A4B9B2BBA4BBB2BAB5154
:10337600A95F000EAA5BAB534DE0AB07ABCB00F0E9
:10338600000E016E026E036E0036009001360236A4
:10339600033600360090013602360336C40E00248A
:1033A600F66E8E0E0120F76E000E0220F86E0900F2
:1033B600F5CF04F00900F5CF05F00900F5CF06F0CA
:1033C6000900F5CF07F0B6CB00F0B7CB01F0B8CBCC
:1033D60002F0B9CB03F0BBEC0BF00A0E046E000E44
:1033E600056E066E076EBBEC0BF008C000F009C058
:1033F60001F00AC002F00BC003F0300E00269ACB93
:10340600E1FF9BCBE2FF00C0E6FF9A4B9B2BBA4B3A
:10341600BB2BB1D7A951AA110FE09ACBE1FF9BCBE9
:10342600E2FF300EE66E9A4B9B2BBA4BBB2B010E7E
:10343600A95F000EAA5BEED7AEAB0BD09ACBE1FF2D
:103446009BCBE2FF450EE66E9A4B9B2BBA4BBB2BF2
:103456000AD09ACBE1FF9BCBE2FF650EE66E9A4B54
:103466009B2BBA4BBB2B800EB519006E800E005CF1
:1034760002E1000EB45D11E2B4510008B46FB5511B
:10348600000EB5579ACBE1FF9BCBE2FF2D0EE66E01
:103496009A4B9B2BBA4BBB2B0AD09ACBE1FF9BCB0B
:1034A600E2FF2B0EE66E9A4B9B2BBA4BBB2B0A0EFA
:1034B600046E000E056EB4CB00F0B5CB01F0B3EC94
:1034C60007F0300E00269ACBE1FF9BCBE2FF00C04F
:1034D600E6FF0B019A4B9B2BBA4BBB2B0A0E046ED5
:1034E600000E056EB4CB00F0B5CB01F0B3EC07F0DF
:1034F60008C000F009C001F0300E00269ACBE1FFAB
:103506009BCBE2FF00C0E6FF0B019A4B9B2BBA4B0D
:10351600BB2BAEA71AD0800E006E800EAD19005CD4
:1035260002E1AC51000811E29ACBE1FF9BCBE2FF2E
:10353600200EE66E9A4B9B2BBA4BBB2B010EAC5F53
:10354600000EAD5BAC51AD11EFE1C8EF12F0AFA3C9
:10355600F3D0800EB519006E800E005C02E1000EFD
:10356600B45D0AE2010EB45D006E000EB559016E3F
:103576000050A95F0150AA5BB0CB00F0B1CB01F0BF
:10358600B2CB02F0B3CB03F023EC12F000C0B6FBD3
:1035960001C0B7FB02C0B8FB03C0B9FB010EAB6F9D
:1035A600AB510A0A34E0ABCB00F0000E016E026E9E
:1035B600036E003600900136023603360036009060
:1035C600013602360336C40E0024F66E8E0E012036
:1035D600F76E000E0220F86E0900F5CF01F0090023
:1035E600F5CF02F00900F5CF03F00900F5CF04F09E
:1035F6000450B95D08E10350B85D05E10250B75DBE
:1036060002E10150B65D01E202D0AB2BC9D7AB5146
:10361600A95DC06F000EAA59C16FC0CBA9FBC1CB73
:10362600AAFBB6CB00F0B7CB01F0B8CB02F0B9CB12
:1036360003F010EC12F000C004F001C005F002C067
:1036460006F003C007F0B0CB00F0B1CB01F0B2CB6F
:1036560002F0B3CB03F0BFEC12F000C0BCFB01C01C
:10366600BDFB02C0BEFB03C0BFFBC0CBC2FB2DEC43
:1036760008F0BCCB04F0BDCB05F0BECB06F0BFCB4B
:1036860007F0A3EC06F0000E046E000E056E000EA9
:10369600066E7E0E076EF7EC03F023EC12F000C008
:1036A600B6FB01C0B7FB02C0B8FB03C0B9FBA9510A
:1036B600AA1142E00A0E046E000E056E066E076E33
:1036C600B6CB00F0B7CB01F0B8CB02F0B9CB03F024
:1036D600BBEC0BF008C000F009C001F00AC002F014
:1036E6000BC003F0000E046E031808E10450021824
:1036F60005E10450011802E10050000A1DE10A0E1E
:10370600046E000E056E066E076EB6CB00F0B7CBE4
:1037160001F0B8CB02F0B9CB03F0BBEC0BF000C064
:10372600B6FB01C0B7FB02C0B8FB03C0B9FB010E74
:10373600A95F000EAA5BBBD7800E006E800EAA1989
:10374600005C02E1A9510C0816E3A9CBC2FB8FEC81
:1037560010F0B0CB04F0B1CB05F0B2CB06F0B3CB92
:1037660007F0F7EC03F000C0B0FB01C0B1FB02C0EC
:10377600B2FB03C0B3FBB0CB00F0B1CB01F0B2CBD0
:1037860002F0B3CB03F0046A056A066A076A16EC10
:1037960008F0000ED8A4010E006E0052D8B477D0FF
:1037A600B0CB00F0B1CB01F0B2CB02F0B3CB03F05B
:1037B60023EC12F0000E046E031808E10450021800
:1037C60005E10450011802E10050000A60E1800E94
:1037D600006E800EB519005C02E1B451010857E293
:1037E600B4CBC2FB2DEC08F000C004F001C005F01C
:1037F60002C006F003C007F0B0CB00F0B1CB01F079
:10380600B2CB02F0B3CB03F0FDEC0AF05F0E046E10
:10381600700E056E090E066E810E076ED3EC0EF065
:10382600010ED8B0000E006E005206E0090E0B0124
:10383600B45F000EB55B05D00B01080EB45F000E39
:10384600B55BB4CBC2FB2DEC08F000C004F001C0A0
:1038560005F002C006F003C007F0B0CB00F0B1CB14
:1038660001F0B2CB02F0B3CB03F0FDEC0AF023EC8F
:1038760012F000C0B6FB01C0B7FB02C0B8FB03C024
:10388600B9FB0B01B06BB16BB26BB36B38D0B0CB7D
:1038960000F0B1CB01F0B2CB02F0B3CB03F023ECD6
:1038A60012F000C0B6FB01C0B7FB02C0B8FB03C0F4
:1038B600B9FBB6CB00F0B7CB01F0B8CB02F0B9CB71
:1038C60003F010EC12F000C004F001C005F002C0D5
:1038D60006F003C007F0B0CB00F0B1CB01F0B2CBDD
:1038E60002F0B3CB03F0BFEC12F000C0B0FB01C096
:1038F600B1FB02C0B2FB03C0B3FBB46BB56B010EE8
:10390600AB6FAB510A0A34E0ABCB00F0000E016E90
:10391600026E036E0036009001360236033600361C
:103926000090013602360336C40E0024F66E8E0E63
:103936000120F76E000E0220F86E0900F5CF01F0A7
:103946000900F5CF02F00900F5CF03F00900F5CF25
:1039560004F00450B95D08E10350B85D05E102507A
:10396600B75D02E10150B65D01E202D0AB2BC9D7CB
:10397600AB51A925006E000EAA21016EB451002696
:10398600B55101220050AC5F0150AD5BAFB704D01A
:10399600A951AA1101E104D0010EAC5F000EAD5B86
:1039A600030EAE15006EAFCB01F0000E01160050EF
:1039B600011004E0010EAC5F000EAD5BAEA539D080
:1039C600AEA312D0AEA103D02D0EA36F02D02B0E44
:1039D600A36F9ACBE1FF9BCBE2FFA3CBE6FF9A4B0B
:1039E6009B2BBA4BBB2B0CD0AEA10AD09ACBE1FFD6
:1039F6009BCBE2FF200EE66E9A4B9B2BBA4BBB2B62
:103A0600800E006E800EAD19005C02E1AC5100081C
:103A16000FE29ACBE1FF9BCBE2FF300EE66E9A4BAC
:103A26009B2BBA4BBB2B010EAC5F000EAD5BE8D7F0
:103A36003AD0AEB718D0800E006E800EAD19005C7D
:103A460002E1AC5100080FE29ACBE1FF9BCBE2FF0B
:103A5600200EE66E9A4B9B2BBA4BBB2B010EAC5F2E
:103A6600000EAD5BE8D7AEA312D0AEA103D02D0EEB
:103A7600A46F02D02B0EA46F9ACBE1FF9BCBE2FF83
:103A8600A4CBE6FF9A4B9B2BBA4BBB2B0CD0AEA11B
:103A96000AD09ACBE1FF9BCBE2FF200EE66E9A4B53
:103AA6009B2BBA4BBB2BABCB00F0AB0700524CE0C9
:103AB600ABCB00F0000E016E026E036E0036009076
:103AC60001360236033600360090013602360336DA
:103AD600C40E0024F66E8E0E0120F76E000E022034
:103AE600F86E0900F5CF04F00900F5CF05F00900DE
:103AF600F5CF06F00900F5CF07F0B6CB00F0B7CB4F
:103B060001F0B8CB02F0B9CB03F0BBEC0BF00A0E18
:103B1600046E000E056E066E076EBBEC0BF008C059
:103B260000F009C001F00AC002F00BC003F0300E2D
:103B360000269ACBE1FF9BCBE2FF00C0E6FF9A4B43
:103B46009B2BBA4BBB2BAFD7800E006E800EB519E0
:103B5600005C02E1B45100080FE29ACBE1FF9BCB77
:103B6600E2FF300EE66E9A4B9B2BBA4BBB2B010E37
:103B7600B45F000EB55BE8D7800E000A006E800EBB
:103B8600AA19005C02E1A951080803E2080EAB6F0E
:103B960002D0A9CBABFBAB51A95F000EAA5BAB531E
:103BA60003E1AFB701D00AD09ACBE1FF9BCBE2FF8E
:103BB6002E0EE66E9A4B9B2BBA4BBB2BABCBC2FBA6
:103BC6002DEC08F0B0CB04F0B1CB05F0B2CB06F08B
:103BD600B3CB07F0A3EC06F0F6EC0FF000C0B6FB93
:103BE60001C0B7FB02C0B8FB03C0B9FBAB534DE045
:103BF600AB07ABCB00F0000E016E026E036E003613
:103C06000090013602360336003600900136023641
:103C16000336C40E0024F66E8E0E0120F76E000EDB
:103C26000220F86E0900F5CF04F00900F5CF05F083
:103C36000900F5CF06F00900F5CF07F0B6CB00F086
:103C4600B7CB01F0B8CB02F0B9CB03F0BBEC0BF06D
:103C56000A0E046E000E056E066E076EBBEC0BF0C8
:103C660008C000F009C001F00AC002F00BC003F062
:103C7600300E00269ACBE1FF9BCBE2FF00C0E6FFA9
:103C86009A4B9B2BBA4BBB2BB1D7A951AA110FE06C
:103C96009ACBE1FF9BCBE2FF300EE66E9A4B9B2B55
:103CA600BA4BBB2B010EA95F000EAA5BEED7AEA7DF
:103CB6001AD0800E006E800EAD19005C02E1AC5188
:103CC600000811E29ACBE1FF9BCBE2FF200EE66EE5
:103CD6009A4B9B2BBA4BBB2B010EAC5F000EAD5B18
:103CE600AC51AD11EFE1C8EF12F0C00EAE15016E8A
:103CF600AFCB02F0000E0216000E021802E1000E13
:103D06000118D8A480D0AEA927D09FCBE9FFA0CBBD
:103D1600EAFFEECF00F0EECF01F000C0E9FF01C0F0
:103D2600EAFFEECFB6FBEECFB7FBEECFB8FBEECF9A
:103D3600B9FB9FCBE9FFA0CBEAFF040EEE24006E91
:103D4600000EEE20016E9FCBE1FFA0CBE2FF00C08C
:103D5600E6FF01C0E6FF2FD09FCBE9FFA0CBEAFF2D
:103D6600EECF00F0EECF01F000C0E9FF01C0EAFFA0
:103D7600EECF00F0EECF01F0000E01BEFF0E026E98
:103D8600036E00C0B6FB01C0B7FB02C0B8FB03C0A0
:103D9600B9FB9FCBE9FFA0CBEAFF020EEE24006E33
:103DA600000EEE20016E9FCBE1FFA0CBE2FF00C02C
:103DB600E6FF01C0E6FF800EB919006E800E005CBA
:103DC60008E1000EB85D05E1000EB75D02E1000EE8
:103DD600B65D18E2030EAE13000EAF13006A016A59
:103DE600026A036AB651005EB751015AB851025AC7
:103DF600B951035A00C0B6FB01C0B7FB02C0B8FBFD
:103E060003C0B9FB4ED0AEA927D09FCBE9FFA0CB0C
:103E1600EAFFEECF00F0EECF01F000C0E9FF01C0EF
:103E2600EAFFEECFB6FBEECFB7FBEECFB8FBEECF99
:103E3600B9FB9FCBE9FFA0CBEAFF040EEE24006E90
:103E4600000EEE20016E9FCBE1FFA0CBE2FF00C08B
:103E5600E6FF01C0E6FF25D09FCBE9FFA0CBEAFF36
:103E6600EECF00F0EECF01F000C0E9FF01C0EAFF9F
:103E7600EECFB6FBEECFB7FB000EB86FB96F9FCB98
:103E8600E9FFA0CBEAFF020EEE24006E000EEE2044
:103E9600016E9FCBE1FFA0CBE2FF00C0E6FF01C0B1
:103EA600E6FF000EAA1902E1000EA9190FE1000EA5
:103EB600006EB91908E10050B81905E10050B719AC
:103EC60002E1B651000A02E1A94BAA2BC00EAE15BB
:103ED600006E00C005F0AED0010EAB6FAB510A0A02
:103EE60034E0ABCB00F0000E016E026E036E0036BE
:103EF600009001360236033600360090013602364F
:103F06000336C40E0024F66E8E0E0120F76E000EE8
:103F16000220F86E0900F5CF01F00900F5CF02F096
:103F26000900F5CF03F00900F5CF04F00450B95DA0
:103F360008E10350B85D05E10250B75D02E10150AA
:103F4600B65D01E202D0AB2BC9D782D0010EAB6FB2
:103F5600AB51080A34E0ABCB00F0000E016E026EE6
:103F6600036E0036009001360236033600360090A6
:103F7600013602360336EC0E0024F66E8E0E012054
:103F8600F76E000E0220F86E0900F5CF01F0090069
:103F9600F5CF02F00900F5CF03F00900F5CF04F0E4
:103FA6000450B95D08E10350B85D05E10250B75D04
:103FB60002E10150B65D01E202D0AB2BC9D748D071
:103FC600010EAB6FAB510C0A34E0ABCB00F0000E28
:103FD600016E026E036E003600900136023603361D
:103FE60000360090013602360336940E0024F66E33
:103FF6008E0E0120F76E000E0220F86E0900F5CF36
:1040060001F00900F5CF02F00900F5CF03F0090031
:10401600F5CF04F00450B95D08E10350B85D05E141
:104026000250B75D02E10150B65D01E202D0AB2B52
:10403600C9D70ED00550000AD8B44ED70550C00ACD
:10404600D8B44AD70550800A81E00550400AB8E046
:10405600800E006E800EAA19005C02E1A951AB5DCC
:1040660003E2A9CBABFB0DD0800EAA19006E800E21
:10407600005C02E1AB51A95D04E2ABCBA9FB000EEB
:10408600AA6FAC51AD110EE0030EAE15006EAFCBAC
:1040960001F0000E01160050011004E0010EAC5FA5
:1040A600000EAD5B800EAA19006E800EAD19005C85
:1040B60002E1AC51A95D05E2A951AC5FAA51AD5B25
:1040C60002D0AC6BAD6BC40EAE15016EAF51080BD2
:1040D600026E0250080A02E1400E011808E1AC51D6
:1040E600AD1104E0010EAC5F000EAD5B1CD0C00E3E
:1040F600AE15016EAF51080B026E0250080A02E1BE
:10410600800E011810E1800E006E800EAD19005C65
:1041160002E1AC51020805E2020EAC5F000EAD5B97
:1041260002D0AC6BAD6BAEA55DD0AEA312D0AEA186
:1041360003D02D0EA56F02D02B0EA56F9ACBE1FFF3
:104146009BCBE2FFA5CBE6FF9A4B9B2BBA4BBB2B37
:1041560034D0AEA10BD09ACBE1FF9BCBE2FF200E71
:10416600E66E9A4B9B2BBA4BBB2B27D0C00EAE15D7
:10417600016EAF51080B026E0250080A02E1800E72
:1041860001181BE19ACBE1FF9BCBE2FF300EE66EF6
:104196009A4B9B2BBA4BBB2BAEAB03D0580EA66FDC
:1041A60002D0780EA66F9ACBE1FF9BCBE2FFA6CB9F
:1041B600E6FF9A4B9B2BBA4BBB2BAC51AD1111E0D2
:1041C6009ACBE1FF9BCBE2FF300EE66E9A4B9B2B20
:1041D600BA4BBB2B010EAC5F000EAD5BAC51AD1103
:1041E600EFE174D0AC51AD1113E0AEB711D09ACB5C
:1041F600E1FF9BCBE2FF200EE66E9A4B9B2BBA4B60
:10420600BB2B010EAC5F000EAD5BAC51AD11EFE107
:10421600AEA312D0AEA103D02D0EA76F02D02B0EE7
:10422600A76F9ACBE1FF9BCBE2FFA7CBE6FF9A4BAA
:104236009B2BBA4BBB2B0CD0AEA10AD09ACBE1FF7D
:104246009BCBE2FF200EE66E9A4B9B2BBA4BBB2B09
:10425600C00EAE15016EAF51080B026E0250080A71
:1042660002E1400E01180BE19ACBE1FF9BCBE2FF86
:10427600300EE66E9A4B9B2BBA4BBB2B27D0C00E4B
:10428600AE15016EAF51080B026E0250080A02E12C
:10429600800E01181BE19ACBE1FF9BCBE2FF300EAB
:1042A600E66E9A4B9B2BBA4BBB2BAEAB03D0580E8C
:1042B600A86F02D0780EA86F9ACBE1FF9BCBE2FFE6
:1042C600A8CBE6FF9A4B9B2BBA4BBB2B800E006EFE
:1042D600800EAA19005C02E1A951AB5D0BE29ACBF4
:1042E600E1FF9BCBE2FF300EE66E9A4B9B2BBA4B5F
:1042F600BB2BECD7A9CB00F0AACB01F0010EA95F2E
:10430600000EAA5B00500110D8B42AD1C00EAE151B
:10431600006E00C0BCFB0AD1A9CB00F0AACB01F00D
:10432600000EAABFFF0E026E036E00360090013625
:104336000236033600360090013602360336C40EC6
:104346000024F66E8E0E0120F76E000E0220F86E27
:104356000900F5CF04F00900F5CF05F00900F5CF07
:1043660006F00900F5CF07F0B6CB00F0B7CB01F0A9
:10437600B8CB02F0B9CB03F0BBEC0BF00A0E046E1F
:10438600000E056E066E076EBBEC0BF008C000F063
:1043960009C001F00AC002F00BC003F0300E002481
:1043A600AB6FD3D0AEAB45D0A9CB00F0AACB01F012
:1043B600000EAABFFF0E026E036E00360090013695
:1043C6000236033600360090013602360336EC0E0E
:1043D6000024F66E8E0E0120F76E000E0220F86E97
:1043E6000900F5CF04F00900F5CF05F00900F5CF77
:1043F60006F00900F5CF07F0B6CB00F0B7CB01F019
:10440600B8CB02F0B9CB03F0BBEC0BF00F0E0016E5
:10441600000E011602160316250E0024F66E8F0EE8
:104426000120F76E000E0220F86E0900F5CFABFBF7
:1044360044D0A9CB00F0AACB01F0000EAABFFF0E14
:10444600026E036E003600900136023603360036E1
:104456000090013602360336EC0E0024F66E8E0E00
:104466000120F76E000E0220F86E0900F5CF04F069
:104476000900F5CF05F00900F5CF06F00900F5CFE4
:1044860007F0B6CB00F0B7CB01F0B8CB02F0B9CB52
:1044960003F0BBEC0BF00F0E0016000E0116021611
:1044A6000316360E0024F66E8F0E0120F76E000EF0
:1044B6000220F86E0900F5CFABFB47D0A9CB00F080
:1044C600AACB01F0000EAABFFF0E026E036E0036E5
:1044D6000090013602360336003600900136023669
:1044E6000336940E0024F66E8E0E0120F76E000E33
:1044F6000220F86E0900F5CF04F00900F5CF05F0AB
:104506000900F5CF06F00900F5CF07F0B6CB00F0AD
:10451600B7CB01F0B8CB02F0B9CB03F0BBEC0BF094
:10452600070E0014AB6F300EAB270FD0BC51000A3C
:10453600D8B4F2D6BC51C00AD8B4EED6BC51800A63
:10454600D8B430D7BC51400AB9E09ACBE1FF9BCB37
:10455600E2FFABCBE6FF9A4B9B2BBA4BBB2BCAD6E3
:10456600AEA71AD0800E006E800EAD19005C02E177
:10457600AC51000811E29ACBE1FF9BCBE2FF200E83
:10458600E66E9A4B9B2BBA4BBB2B010EAC5F000E13
:10459600AD5BAC51AD11EFE1C8EF12F0BACB00F054
:0645A600BBCB01F0120086
:1045AC000B6A0C6A0A6A0350D8B40BEF23F00A9E0C
:1045BC00028E860E035E03BEE9EF22F0D8B4E9EF5B
:1045CC0022F00EEF23F0036C080E035CD8A0F7EF7B
:1045DC0022F0036E0236026A0350D8A4D89000EF82
:1045EC0023F00350D8B400EF23F0D8900232032EFE
:1045FC00FBEF22F00BBC02A00BEF23F0D8A00BEFCB
:10460C0023F0022AD8B415EF23F0016A1BEF23F034
:10461C000B800BAE1FEF23F0016A1FEF23F0010E8E
:10462C000C6E16EC06F021EF23F0000E0C6E21EF51
:0C463C0023F0FF0E0C6E0250006E120006
:1046480000C008F00150006E016A026A036A0B6A32
:104658000C6A016A026A036A960E036E0A6A00AE61
:104668003CEF23F0081E001E082AD8B4002A0A8E40
:1046780000C001F008C000F0086A026A92EC0EF06F
:0246880012001E
:10468A00086A096A100E0C6E01340836093604509D
:10469A00085E0550D8A0053C095ED8B007D0045082
:1046AA0008260550D8B0053C0926D89000360136B0
:0646BA000C2EEAD71200ED
:1046C0000B019D6B030E9D5D0AE29D519B25E16EE2
:1046D000000E9C21E26E200EE66E9D2BF3D79D51BD
:1046E0009B25E16E000E9C21E26EE66A9D079D51BE
:1046F0009B259E6F000E9C219F6F0A0E046E9ACB25
:1047000000F007EC06F008C000F0300E00269ECB4B
:10471000E1FF9FCBE2FF00C0E6FF0A0E046E9ACBDA
:1047200000F007EC06F000C09AFB0050000A01E11F
:0847300002D09D07DCD7120046
:104738000450000A12E10550000A0FE10650000A71
:104748000CE10750000A09E1FF0E006EFF0E016E32
:10475800FF0E026E7F0E036E99D00C6A07BE0C2AFC
:104768000D6A0B6A0A6A096A086A03500210011086
:104778000010D8B485D0035007180E6E0EBE0D1E5B
:1047880007AE0BD0041E051E061E071E042AD8B449
:10479800052AD8B4062AD8B4072A03AE0BD0001EBF
:1047A800011E021E031E002AD8B4012AD8B4022A08
:1047B800D8B4032A035007100E6E0EBE1DD05AEC53
:1047C8000DF00CBE36D00DAE5BD0001E011E021ED1
:1047D800031E002AD8B4012AD8B4022AD8B4032A5E
:1047E800081E091E0A1E0B1E082AD8B4092AD8B4A6
:1047F8000A2AD8B40B2A44D007AE15D003BE0DD070
:1048080003500B6E02500A6E0150096E0050086E7C
:10481800036A026A016A006AD6D7036A026A016AF1
:10482800006A002A000C031E021E011E001E0C8EC8
:10483800C6D7082AD8B4092AD8B40A2AD8B40B2A61
:104848000450085CD8A4BFD70550095CD8A4BBD7CE
:1048580006500A5CD8A4B7D707500B5CD8A4B3D7C6
:104868000B6A0A6A096A086A002AD8B4012AD8B405
:10487800022AD8B4032A03AEA6D70E6A0E88FF0C04
:0E4888000E6A0CA002D086EC0EF0000F12009B
:104896009ACBC9FFC7B002D00000FCD7C9CF00F041
:0248A6001200FE
:1048A800C69A960E0B013D6F480E3E6F9A0E3F6FEB
:1048B8000B0E406FCA0E456F070E466FCB0E476F43
:1048C8000B0E486F949A9A51040A02E1948601D01B
:1048D80094969488C66AC79CC79E9A51C6129C51E2
:1048E800C6129B51C7129C5305E09D51000AD8B4CB
:0E48F800C78C03D09D53D8A4C78CC68A12006B
:104906000B019A51070A04E10601566B576B1BD13E
:104916000B019A51080A1AE1060E02014303F3CF6E
:1049260001F0F4CF02F0800E006E800E0218005CDB
:1049360003E101500601575D09E3060E0201430338
:10494600F3CF00F000500601575FFDD00B019A51DE
:104956000D0A03E10601576BF6D00B019A510A0ABC
:1049660027E143C200F00036009000360090003682
:104976000090005006015625026E02C056F6070E3C
:1049860002014303F3CF00F0F4CF01F002500024FC
:10499600026E000E0120036E800E0318006E800E5C
:1049A600005C02E1400E025C02E30601566BCBD0CE
:1049B600200E0B019A5D04E39A517E0801E302D0B2
:1049C6003F0E9A6F9B6B050E9B5D5FE2200E9A5D14
:1049D600006E016A000E015A050E046E000E056E89
:1049E6003AEC0FF09B510026000E0122150E002412
:1049F600F66E8B0E0120F76E000EF86E000E01BEED
:104A0600FF0EF8220900F5CF9DFB9C6B070E9C5DFF
:104A16003AE29DA104D0010E0601446F02D00601C0
:104A2600446B02014351010A0EE10B019B51060141
:104A360057250B01E36F9C51060156250B01E46FC8
:104A460094EC01F01BD00B019B5102014303F3CF01
:104A560000F00050060157250B01C26F9C51020160
:104A66004303F3CF00F00050060156250B01C36F38
:104A760043C2C4FB43C2C5FB70EC0FF00B019C2B79
:104A86009D339D9FC3D79B2B9ED70601446B050E76
:104A960002014303F3CF00F00050060157250B0136
:104AA600C26F56C6C3FB43C2C4FB070E02014303D3
:104AB600F3CFC5FB70EC0FF0060E02014303F3CFF4
:104AC60000F0005006015727020142533CE0050E54
:104AD6004303F3CF00F0F4CF01F006015751002451
:104AE600026E000E0120036E800E0318006E800E0B
:104AF600005C02E1800E025C26E3576B43C200F0C5
:104B06000036009000360090003600900050562582
:104B1600026E02C056F6070E02014303F3CF00F001
:104B2600F4CF01F002500024026E000E0120036E45
:104B3600800E0318006E800E005C02E1400E025CDF
:084B460002E30601566B1200A8
:104B4E0069EC07F030CBC2FB91EC0FF00B01C26B9E
:104B5E0091EC0FF09ACBC2FB91EC0FF06EEC0FF0D4
:024B6E00120033
:104B70000B019D6B9E6B9BCB00F09CCB01F0000E5C
:104B8000026E036E640E046E000E056E066E076EF6
:104B900031EC0DF000C001F901C002F902C003F9C7
:104BA00003C004F966C104F067C105F0000E066E8B
:104BB000076EBBEC0BF000C001F901C002F902C0A6
:104BC00003F903C004F9000E035C08E1000E025C67
:104BD00005E1030E015C02E1FF0E005C08E3FF0E3D
:104BE0000901016F030E026F000E036F046F01C90C
:104BF0009DFB02C99EFB0B019A51010A61E1010E66
:104C000009010115016E02C902F003C903F004C9CC
:104C100004F0000E021603160416000E006E0418AF
:104C200008E10050031805E10050021802E10150AC
:104C3000010A03E10F015D8902D00F015D99020EA7
:104C400009010115016E02C902F003C903F004C98C
:104C500004F0000E021603160416000E006E04186F
:104C600008E10050031805E10050021802E101506C
:104C7000020A03E10F015D8B02D00F015D9B01C9A8
:104C800000F002C901F003C902F004C903F00332C5
:104C9000023201320032039E03320232013200320C
:104CA000039E00C001F901C002F902C003F903C06C
:104CB00004F900C05EFF9DCB00F09ECB01F065D0F3
:104CC0000B019A51020A61E1010E09010115016E01
:104CD00002C902F003C903F004C904F0000E021671
:104CE00003160416000E006E041808E100500318A5
:104CF00005E10050021802E10150010A03E10F0131
:104D0000548902D00F015499020E09010115016E58
:104D100002C902F003C903F004C904F0000E021630
:104D200003160416000E006E041808E10050031864
:104D300005E10050021802E10150020A03E10F01EF
:104D4000548B02D00F01549B01C900F002C901F03D
:104D500003C902F004C903F0033202320132003207
:104D6000039E0332023201320032039E00C001F979
:104D700001C002F902C003F903C004F900C055FFE5
:0C4D80009DCB00F09ECB01F000D0120093
:104D8C00830EC2169ACB00F00036009000360090CD
:104D9C000050C212CEEC0EF0C282C2A201D0FDD7DE
:104DAC00C4CF01F0006A00C09BFB01C09CFBC35048
:104DBC000012000E011200C09BFB01C09CFB000EF8
:104DCC000014026E0150800B036E000E031802E1FA
:104DDC00000E021803E00B019B6B9C6B9BCB00F04D
:064DEC009CCB01F0120057
:104DF2000050086E0150006E016A026A036A0B6A73
:104E02000C6A960E036E0A6A00C001F008C000F038
:0A4E1200086A026A92EC0EF012002A
:104E1C00A69C9BCBAAFF9ACBA9FFA69EA680A8CF47
:044E2C0000F0120080
:104E300079CBE9FF7ACBEAFFEE501F0820E20B01A5
:104E40007851010A0CE179CBE9FF7ACBEAFFEECF8A
:104E5000ADFF794B7A2BACB201D0FDD70FD00B014F
:104E60007851020A0BE179CBE9FF7ACBEAFFEECF6A
:104E700073FF794B7A2B72B201D0FDD7D9D71200CC
:104E800079CB00F00032009E0032009E0032009E7E
:104E90000032009E470E0024F66E8F0EF76E000E55
:104EA000F722000EF86E000EF8220900F5CF00F090
:104EB0007ACBE1FF7BCBE2FF00C0E6FF010E0B01E6
:104EC0007A25E16E000E7B21E26E0F0E7915006EE1
:104ED000470E0024F66E8F0EF76E000EF722000EBE
:104EE000F86E000EF8220900F5CF00F000C0E6FFD2
:104EF000020E7A25E16E000E7B21E26E78CB00F087
:104F00000032009E0032009E0032009E0032009E61
:104F1000470E0024F66E8F0EF76E000EF722000E7D
:104F2000F86E000EF8220900F5CF00F000C0E6FF91
:104F3000030E7A25E16E000E7B21E26E0F0E7815CE
:104F4000006E470E0024F66E8F0EF76E000EF722ED
:104F5000000EF86E000EF8220900F5CF00F000C038
:104F6000E6FF040E7A25E16E000E7B21E26EE66A12
:024F700012002D
:104F72000B017D6B7E6B78CB7FFB000E78BFFF0E43
:104F8200806F800E7819006E800E000A005C0AE2C3
:104F92007D4B7E2B785100087F6F806B000E78BFAF
:104FA200FF0E805B7FCB9AFB79CB9BFB7ACB9CFB82
:104FB20060EC23F0040E7B6F000E7C6F000E006E1F
:104FC2007C51005C02E17B51000819E27B5179259A
:104FD200E16E7C517A21E26E010E7B5D006E000E65
:104FE2007C59016E00507925E96E01507A21EA6EF2
:104FF200EECFE6FF010E7B5F000E7C5BDFD779CB45
:10500200E1FF7ACBE2FF200EE66E7D517E111AE0BF
:105012007B6B7C6B7B517925E96E7C517A21EA6E40
:10502200EE50200A03E17B4B7C2BF4D7010E7B5F11
:10503200000E7C5B7B517925E16E7C517A21E26E18
:065042002D0EE66E1200C7
:1050480078CB02F079CB03F002C000F003C001F086
:10505800024A032A00C0E9FF01C0EAFFEE5201E05C
:10506800F3D70B017851025C006E79510358016E39
:0A507800010E005E000E015A120046
:10508200020E0B019A6F800E9B6F9C6B9D6B0BDC6B
:10509200340E0C6EF10E0D6E0D2EFED70C2EFCD7BB
:1050A200000000008B9279CB00F0016A00C09AFBED
:1050B2004BEC24F000C07AFB78CB9AFB4BEC24F04B
:1050C2008B827ACB03F0026A000E016E0250002638
:0650D20003500122120050
:1050D8000B017C6B050E7C5D0AE27C517A25E16E42
:1050E800000E7B21E26E200EE66E7C2BF3D77C51FE
:1050F8007A25E16E000E7B21E26EE66A7C077C5120
:105108007A257D6F000E7B217E6F0A0E046E000EDD
:10511800056E78CB00F079CB01F045EC23F008C0A0
:1051280000F009C001F0300E00267DCBE1FF7ECBF8
:10513800E2FF00C0E6FF0A0E046E000E056E78CB93
:1051480000F079CB01F045EC23F000C078FB01C0FA
:1051580079FB000E011802E1000E001801E102D0EF
:065168007C07CDD7120008
:10516E000B017A6B7A517825E96E000E7921EA6E81
:10517E00EE50000A21E07A517825E96E000E792171
:10518E00EA6EEE50200A0AE106015751000A06E1C6
:10519E000201425303E00B017A2B0DD00B017A5121
:1051AE007825E96E000E7921EA6EEECF9AFB83EC3C
:0A51BE0024F00B017A2BD6D7120063
:1051C80000C07AFB01C07BFB0B019A6B9B6B22DE54
:1051D80000C07CFB000E7D6F7CCB01F0006A00C034
:1051E8007CFB01C07DFB010E9A6F000E9B6F12DEE7
:1051F800000E016E7C5100267D51012200C07CFB0F
:1052080001C07DFB020E9A6F000E9B6F03DE00C08B
:105218007EFB030E9A6F000E9B6FFCDD00C07FFBC8
:10522800040E9A6F000E9B6FF5DD00C080FB050E23
:10523800006E7ACBE1FF7BCBE2FF7C0EE96E0B0EB2
:0C524800EA6EEECFE6FF0006FCE112006B
:0A5254000F01586B5799579B120089
:10525E008C0E0B01496F4D0E4A6F9A0E4B6F0B0E53
:10526E004C6FC26A06015C1D006E0050C1160F0E17
:08527E00C012C08EC2801200B4
:10528600898C030E0B6E080E0C6E770E0D6E0D2EAE
:10529600FED70C2EFCD70B2EFAD7899C8A86030ED6
:1052A6000B6E080E0C6E770E0D6E0D2EFED70C2EA5
:1052B600FCD70B2EFAD78A968A88030E0B6E080E39
:1052C6000C6E770E0D6E0D2EFED70C2EFCD70B2E08
:0652D600FAD78A981200CD
:1052DC00BB50010F006E016A000E012278CB04F066
:1052EC00000E056E3AEC0FF0060E026E00C004F0D4
:1052FC0001C005F0025005E005320432059EFF0F97
:10530C00FAD7040E016E04C000F0015004E0003620
:10531C000090FF0FFBD7300E0014036E04C000F09A
:10532C0005C001F001320032019E01320032019EB3
:10533C0000C058FF0F0E0F015717035057131200E0
:10534C000C0E0F01546F48954885FF0E526F518516
:10535C00020E0B019A6F78CB9BFB79CB9CFB02DC8A
:02536C0012002D
:10536E000B017851010A0BE10A0EAD6EACB201D001
:10537E00FDD70D0EAD6EACB201D0FDD70AD00A0E20
:10538E00736E72B201D0FDD70D0E736E72B201D074
:04539E00FDD7120025
:1053A2000C0E0F015D6F499D498DFF0E526F5185A5
:1053B200010E0B019A6F78CB9BFB79CB9CFBB8EC6F
:0453C20025F01200C0
:1053C600210E0B019A6FA7EC25F00B019A6BA7EC47
:1053D60025F07F0E0B019A6FA7EC25F0220E0B012C
:1053E6009A6FA7EC25F00B019A6BA7EC25F0070E38
:1053F6000B019A6FA7EC25F00B01786B796B040E05
:10540600795D02E1000E785D28E269EC07F030CBA9
:10541600C2FB91EC0FF0400E0B01C26F91EC0FF046
:105426000B017A6B100E7A5D0FE2440E7825E96E59
:10543600020E7921EA6EEECFC2FB91EC0FF00B0162
:10544600784B792B7A2BEED7010E785F000E795BBD
:0C5456006EEC0FF0784B792BD2D71200CF
:10546200800E0B01785D04E2400E795D01E201D00D
:0C54720004D078CB57F679CB56F6120028
:0C547E009390BA840C0E0F01571312001B
:10548A00016A026A800E0218006E800E040A005C2D
:10549A0002E1000E015C0AE2440E0124E16E020EF2
:0E54AA000220E26EE66A014A022AECD71200E6
:1054B8000B01816B826B79517B5D7D6F7A517C59D1
:1054C8007E6F79CB7FFB7ACB80FB7851000A05E1B0
:1054D800D20E816F000E826F07D07851010A04E165
:1054E800AA0E816F000E826F000E0701C06F000EBA
:1054F800C16F200EC26F800EC36F9A0EBC6F990EDB
:10550800BD6F190EBE6F7E0EBF6F000EB86F000E16
:10551800B96F000EBA6F7F0EBB6F7DCB00F07ECBEC
:1055280001F024EC23F0000E046E000E056EA00EB0
:10553800066E800E076EA3EC06F000C0C4F701C02B
:10554800C5F702C0C6F703C0C7F70B017D5159253F
:10555800016E7E515A21026E01C059FB02C05AFBEE
:10556800800E0701CB19006E800E0218005C02E164
:105578000150CA5D04E2CAC759FBCBC75AFB800E6B
:105588000B015A19006E800E0701C919005C03E16E
:10559800C8510B01595D04E2C8C759FBC9C75AFB7A
:1055A800000E0701BC190B01836F000E0701BD191E
:1055B8000B01846F800E0701BE190B01856F000E69
:1055C8000701BF190B01866F59CB00F05ACB01F0C8
:1055D80024EC23F083CB04F084CB05F085CB06F0D4
:1055E80086CB07F0A3EC06F000C087FB01C088FB60
:1055F80002C089FB03C08AFB87CB79F888CB7AF88D
:1056080089CB7BF88ACB7CF8000E0701B8190B010F
:10561800836F000E0701B9190B01846F800E070113
:10562800BA190B01856F000E0701BB190B01866FB4
:105638007F515F5D006E80516059016E24EC23F04C
:1056480083CB04F084CB05F085CB06F086CB07F03E
:10565800A3EC06F000C083FB01C084FB02C085FBFD
:1056680003C086FB83CB75F884CB76F885CB77F8B7
:1056780086CB78F87FCB5FFB80CB60FBC4C700F09C
:10568800C5C701F0C6C702F0C7C703F087CB04F04F
:1056980088CB05F089CB06F08ACB07F0F7EC03F04E
:1056A80083CB04F084CB05F085CB06F086CB07F0DE
:1056B800F7EC03F000C083FB01C084FB02C085FB4C
:1056C80003C086FB83CB7DF884CB7EF885CB7FF83F
:1056D80086CB80F881CB00F082CB01F0F9EC26F084
:1056E80083CB04F084CB05F085CB06F086CB07F09E
:1056F800D3EC0EF0010ED8B0000E006E00520EE092
:1057080081CB00F082CB01F0F9EC26F000C07DF8E7
:1057180001C07EF802C07FF803C080F8046A056AF9
:10572800066A076A7DC800F07EC801F07FC802F0EB
:1057380080C803F0D3EC0EF0010ED8B0000E006E56
:10574800005205E008017D6B7E6B7F6B806B7DC826
:1057580000F07EC801F07FC802F080C803F0D6ECE4
:0857680022F0000E016E120098
:105770000B6A0350D8B4FEEF2BF002500A6E028E73
:105780008E0E035E03AE02EF2CF0036C080E035C7A
:10579000D8A0DDEF2BF0036E013602C001F0026AE3
:1057A000080E035CD8A0DDEF2BF0036E0136016A12
:1057B0000350D8A4D890E7EF2BF00350D8B4E7EF0C
:1057C0002BF0D89002320132032EE1EF2BF00BBC0C
:1057D00001A0F4EF2BF0D8A0F4EF2BF0012AD8B4FD
:1057E000022A02BE11EF2CF00AAE17EF2CF0021EB7
:1057F000011E012AD8B4022A17EF2CF0026A016AAE
:1058000017EF2CF00B800BAE1BEF2CF0026A0AAEE8
:105810001BEF2CF0FF0E026E016E0A3602321BEFF8
:105820002CF0010E0C6E16EC06F01DEF2CF0000EA5
:105830000C6E1DEF2CF0FF0E0C6E0150006E02502E
:04584000016E1200E3
:105844007D0E0B01816F0B0E826F78CB9AFB79CBA7
:105854009BFB7ACB9CFB7BCB9DFB7CCB9EFB810E85
:105864009F6F0B0EA06FC3EC12F000C07FFB01C052
:1058740080FB00507825E16E01507921E26EE66AE2
:0A5884007FCB00F080CB01F0120092
:10588E000B017D6B7E6B7F6B806B816B826B836B91
:10589E00846B856B866B876B886B896B8A6B8B6B66
:1058AE008C6B8D6B8E6B8F6B906B916B926B936B16
:1058BE00946B956B7ACBE9FF7BCBEAFFEECF8DFB3A
:1058CE00EECF8EFB000E90BFFF0E8F6F906F000E0F
:1058DE008EBFFF0E8F6F906F7C05036E046A000EF5
:1058EE00045A03C000F004C001F0003600900136E7
:1058FE0000507A25E96E01507B21EA6EEECF91FBC6
:10590E00EECF92FB000E94BFFF0E936F946F000EBE
:10591E0092BFFF0E936F946F800E9019006E800EE3
:10592E0079BF7F0E005C0AE1000E79BFFF0E8F5D1E
:10593E0005E179518E5D02E178518D5D12E37CCBEC
:10594E0000F0000E016E00360090013600507A25F0
:10595E00E96E01507B21EA6EEECF00F0EECF01F042
:10596E005ED1800E79BF7F0E006E800E9419005CA2
:10597E000CE1000E79BFFF0E006E9351005C05E145
:10598E009251795D02E19151785D1EE37C517C2547
:10599E00006E016A000E0122010E005C036E000E05
:1059AE000158046E03C000F004C001F000360090F0
:1059BE00013600507A25E96E01507B21EA6EEECF5A
:1059CE0000F0EECF01F02BD195CB00F0000E016E62
:1059DE0000360090013600507A25E96E01507B2189
:1059EE00EA6EEECF7DFBEECF7EFB000E80BFFF0E8C
:1059FE007F6F806F000E7EBFFF0E7F6F806F000E79
:105A0E0079BFFF0E006E801908E100507F1905E185
:105A1E0079517E1902E17D51781918E17C51952555
:105A2E00036E046A000E042203C000F004C001F0ED
