:0400000070EF1BF092
:1000080000C01CF001C01BF002C01AF003C019F0B8
:1000180004C018F005C017F006C016F00DC015F0A2
:10002800E1CF1DF0E2CF1EF0F2A414D0F2AA12D054
:100038000201B12B0101B82B010E0201B26F3C0E77
:10004800D76EB00ED66EF2948AA802D08A9801D0E4
:100058008A882DD17EA410D07DA40ED0050E010172
:10006800C55D07E380A603D0010EB76FC56B7D940D
:1000780001D0C52B7E941BD19EAA19D19DAA17D158
:100088008A860201B46BB56B056A066A0101B38101
:100098000201E451010AD8A476D005500A0A48E0C2
:1000A8009C0EB55D02E1400EB45D42E29EAA37D0D7
:1000B800ABB403D0ABB201D016D0AB98ABB802D07A
:1000C800AC9A01D0AC8AACBA02D0AB9E01D0AB8E50
:1000D800AB88ABB802D0AC9A01D0AC8AACBA02D02B
:1000E800AB9E01D0AB8EAECF05F005501F0817E2CE
:1000F800800E006E800E000A005C02E1080E065CAD
:100108000CE23E0EE16E040EE26E0650E126D8B017
:10011800E22A05C0E6FF062A02D00101B3910201D6
:10012800B44BB52B060E0D6E0D2EFED70000B5D7BD
:100138003E0EE16E040EE26E0650E126D8B0E22AC9
:10014800E66A9C0EB55D02E1400EB45D04E2010171
:10015800B3A101D017D00101B391066A800E006ED9
:10016800800E000A005C02E1090E065C0BE23E0EFE
:10017800E16E040EE26E0650E126D8B0E22AE66A85
:10018800062AECD794D00201E451000AD8A46DD015
:10019800B46BB56B0101B391010E066E0201E56BFC
:1001A8009D9A400EE55D5EE29C0EB55D02E1400E53
:1001B800B45D58E29EAA4ED0ABB403D0ABB201D026
:1001C80016D0AB98ABB802D0AC9A01D0AC8AACBA16
:1001D80002D0AB9E01D0AB8EAB88ABB802D0AC9A44
:1001E80001D0AC8AACBA02D0AB9E01D0AB8E06501F
:1001F800010A05E1020E066EAECF46F22BD006507C
:10020800020A28E10201010E066E46C201F0006AE8
:1002180000C0CDF301C0CEF3AECF46F24651002464
:10022800036E000E0120046E03C0CDF304C0CEF3AC
:10023800E5C200F0000E016E003600900136470E50
:100248000024E16E040E0120E26E03C0E6FF04C044
:10025800E6FFE52B0D0E0D6E02010D2EFDD7B44BFA
:10026800B52B9FD7020EE46F22D09EAA1ED0ABB446
:1002780003D0ABB201D016D0AB98ABB802D0AC9AD1
:1002880001D0AC8AACBA02D0AB9E01D0AB8EAB88A1
:10029800ABB802D0AC9A01D0AC8AACBA02D0AB9E53
:1002A80001D0AB8EAECF05F0E0D70101B3911CC0F1
:1002B80000F01BC001F01AC002F019C003F018C00A
:1002C80004F017C005F016C006F015C00DF01DC0EB
:0802D800E1FF1EC0E2FF11006E
:0E02E000026A016A006A086A036A000E1200D0
:1002EE000B840BAE82EF01F0010E036E026A016AFF
:0A02FE00006A0A360232FF0E1200F9
:100308000B820BAE8EEF01F003680268016800688B
:080318000A360232FF0E12004A
:080320000AAE029E000E12005D
:10032800C69A9E0E0401EB6F0C0EEC6F250EED6F56
:10033800050EEE6F880EEF6F030EF06F280EF16F4B
:10034800050EF26F949A05012851040A02E1948679
:1003580001D094969488C66AC79CC79E2851C61235
:100368002A51C6122951C7122A5305E02B51000AF7
:10037800D8B4C78C03D02B53D8A4C78CC68A120014
:1003880028C5C9FFC7B002D00000FCD7C9CF00F00C
:02039800120051
:10039A000B800BAED9EF01F0026A0AAEFF0E026EB5
:0C03AA00016E006E0A360232FF0E1200D7
:1003B6000C6A0E6A0250D8A4F4EF01F001C002F0F4
:1003C60000C001F0006A0E860250D8A4F4EF01F0D6
:1003D60001C002F0016A0E960E880250D8B406EFEC
:1003E60002F00E50035ED8A4D8A00BEF02F0D8900E
:1003F60002BE10EF02F0003601360236032EFBEF86
:1004060001F00BEF02F0010E0C6E67DF13EF02F046
:10041600020E0C6E69DF13EF02F0040E0C6E7DDF28
:020426001200C2
:100428000B1E0A1E091E081E082AD8B4092AD8B4A9
:080438000A2AD8B40B2A1200B5
:10044000220E0C6E086A096A0A6A0B6A0C06D8B496
:100450001FD0D8900B320A320932083203320232EE
:1004600001320032D8A0F2D70C06D8B409D004501B
:1004700008260550092206500A2207500B22EAD707
:10048000045008260550092206500A2207500B2264
:02049000120058
:100492000CB08BEF02F00CA231EF03F00E6A000EEB
:1004A2000264A2EF02F0F00E0214D8A46DEF02F083
:1004B200023A01380F0B02260138F00B016E0038A8
:1004C2000F0B01260038F00B006E08380F0B0026C8
:1004D2000838F00B086E0E84D89002BE86EF02F048
:1004E20008360036013602360E2A02BE86EF02F0C8
:1004F20008360036013602360E2A02BE86EF02F0B8
:1005020008360036013602360E2A0E50036427EFF3
:1005120003F0035E0BBC08AE2CEF03F0D880800E14
:1005220008640030000E002201220222D8A02CEF23
:1005320003F0023201320032034A31EF03F02CEFB2
:1005420003F001C002F000C001F008C000F0086A28
:10055200000E0E860264D9EF02F0F00E0214D8A447
:10056200C1EF02F0023A01380F0B02260138F00BFC
:10057200016E00380F0B01260038F00B006E0E845E
:10058200D89002BE86EF02F00036013602360E2AFD
:1005920002BE86EF02F00036013602360E2A02BE95
:1005A20086EF02F00036013602360E2A86EF02F09E
:1005B20001C002F000C001F0006A000E0E960E8823
:1005C200026406EF03F0F00E0214D8A4F1EF02F079
:1005D200023A01380F0B02260138F00B016E0E842D
:1005E200D89002BE86EF02F0013602360E2A02BE13
:1005F20086EF02F0013602360E2A02BE86EF02F0C4
:10060200013602360E2A86EF02F001C002F0016ABC
:10061200000E0E86026436EF03F0F00E0214D8A428
:1006220015EF03F0023A0E84D89002BE86EF02F074
:1006320002360E2A02BE86EF02F002360E2A02BEF1
:1006420086EF02F002360E2A86EF02F0010E0C6EE1
:100652004DDE39EF03F0020E0C6E61DE39EF03F06E
:10066200040E0C6E50DE39EF03F0080E0C6E37DE0E
:02067200120074
:100674000B6A0A6A096A086A0E6A03340836045067
:10068400085E0550D8A0053C095E0650D8A0063C7B
:100694000A5E0750D8A0073C0B5EE86AD8A0010E9A
:1006A4000E5E0336070E0C6E0334083609360A361E
:1006B4000B360E36045003A012D0085E0550D8A0A5
:1006C400053C095E0650D8A0063C0A5E0750D8A037
:1006D400073C0B5EE86AD8A0010E0E5E11D0082616
:1006E4000550D8B0053C09260650D8B0063C0A2669
:1006F4000750D8B0073C0B26E86AD8B0010E0E2686
:1007040003360C2ED1D70234083609360A360B3696
:100714000E36045003A012D0085E0550D8A0053C44
:10072400095E0650D8A0063C0A5E0750D8A0073CD4
:100734000B5EE86AD8A0010E0E5E11D008260550A3
:10074400D8B0053C09260650D8B0063C0A26075006
:10075400D8B0073C0B26E86AD8B0010E0E26023644
:10076400070E0C6E0234083609360A360B360E367E
:10077400045002A012D0085E0550D8A0053C095EC2
:100784000650D8A0063C0A5E0750D8A0073C0B5E72
:10079400E86AD8A0010E0E5E11D008260550D8B024
:1007A400053C09260650D8B0063C0A260750D8B0A6
:1007B400073C0B26E86AD8B0010E0E2602360C2E32
:1007C400D1D70134083609360A360B360E360450B2
:1007D40002A012D0085E0550D8A0053C095E065060
:1007E400D8A0063C0A5E0750D8A0073C0B5EE86A16
:1007F400D8A0010E0E5E11D008260550D8B0053CD5
:1008040009260650D8B0063C0A260750D8B0073C43
:100814000B26E86AD8B0010E0E260136070E0C6EC0
:100824000134083609360A360B360E36045001A058
:1008340012D0085E0550D8A0053C095E0650D8A029
:10084400063C0A5E0750D8A0073C0B5EE86AD8A0B5
:10085400010E0E5E11D008260550D8B0053C0926BD
:100864000650D8B0063C0A260750D8B0073C0B26E1
:10087400E86AD8B0010E0E2601360C2ED1D700340A
:10088400083609360A360B360E36045001A012D04B
:10089400085E0550D8A0053C095E0650D8A0063C69
:1008A4000A5E0750D8A0073C0B5EE86AD8A0010E88
:1008B4000E5E11D008260550D8B0053C0926065016
:1008C400D8B0063C0A260750D8B0073C0B26E86A85
:1008D400D8B0010E0E260036070E0C6E0034083612
:1008E40009360A360B360E36045000A012D0085EC4
:1008F4000550D8A0053C095E0650D8A0063C0A5E07
:100904000750D8A0073C0B5EE86AD8A0010E0E5E23
:1009140011D008260550D8B0053C09260650D8B099
:10092400063C0A260750D8B0073C0B26E86AD8B024
:10093400010E0E2600360C2ED1D700B00ED0045076
:1009440008260550D8B0053C09260650D8B0063C08
:0C0954000A260750D8B0073C0B26120002
:0A0960001D0E0D6E0D2EFED71200C5
:10096A000450085E0550D8A0053C095E0650D8A080
:10097A00063C0A5E0750D8A0073C0B5E0336070EFA
:10098A000C6E0334083609360A360B36045003A0B7
:10099A000ED0085E0550D8A0053C095E0650D8A0C6
:1009AA00063C0A5E0750D8A0073C0B5E0DD008260D
:1009BA000550D8B0053C09260650D8B0063C0A2690
:1009CA000750D8B0073C0B2603360C2EDAD7023470
:1009DA00083609360A360B36045003A00ED0085ED4
:1009EA000550D8A0053C095E0650D8A0063C0A5E10
:1009FA000750D8A0073C0B5E0DD008260550D8B08A
:100A0A00053C09260650D8B0063C0A260750D8B03D
:100A1A00073C0B260236070E0C6E023408360936DE
:100A2A000A360B36045002A00ED0085E0550D8A034
:100A3A00053C095E0650D8A0063C0A5E0750D8A0BD
:100A4A00073C0B5E0DD008260550D8B0053C092698
:100A5A000650D8B0063C0A260750D8B0073C0B26E9
:100A6A0002360C2EDAD70134083609360A360B3626
:100A7A00045002A00ED0085E0550D8A0053C095EBD
:100A8A000650D8A0063C0A5E0750D8A0073C0B5E69
:100A9A000DD008260550D8B0053C09260650D8B016
:100AAA00063C0A260750D8B0073C0B260136070E2B
:100ABA000C6E0134083609360A360B36045001A08A
:100ACA000ED0085E0550D8A0053C095E0650D8A095
:100ADA00063C0A5E0750D8A0073C0B5E0DD00826DC
:100AEA000550D8B0053C09260650D8B0063C0A265F
:100AFA000750D8B0073C0B2601360C2EDAD7003443
:100B0A00083609360A360B36045001A00ED0085EA4
:100B1A000550D8A0053C095E0650D8A0063C0A5EDE
:100B2A000750D8A0073C0B5E0DD008260550D8B058
:100B3A00053C09260650D8B0063C0A260750D8B00C
:100B4A00073C0B260036070E0C6E003408360936B1
:100B5A000A360B36045000A00ED0085E0550D8A005
:100B6A00053C095E0650D8A0063C0A5E0750D8A08C
:100B7A00073C0B5E0DD008260550D8B0053C092667
:100B8A000650D8B0063C0A260750D8B0073C0B26B8
:100B9A0000360C2EDAD700B00ED0045008260550C5
:100BAA00D8B0053C09260650D8B0063C0A2607509C
:080BBA00D8B0073C0B26120025
:100BC20000C008F00150006E016A026A036A0B6AF3
:100BD2000C6A016A026A036A960E036E0A6A00AE22
:100BE200F9EF05F0081E001E082AD8B4002A0A8E62
:100BF20000C001F008C000F0086A026ADBEC01F0F4
:020C02001200DE
:100C0400830EC21625C500F0003600900036009011
:100C14000050C212A3DEC282C2A201D0FDD7C4CF4B
:100C240001F0006A00C026F501C027F5C350001288
:100C3400000E011200C026F501C027F5000E0014B5
:100C4400026E0150800B036E000E031802E1000EC9
:100C5400021803E00501266B276B26C500F027C5A3
:040C640001F0120089
:100C6800086A096A100E0C6E0134083609360450F9
:100C7800085E0550D8A0053C095ED8B007D00450DE
:100C880008260550D8B0053C0926D890003601360C
:060C98000C2EEAD7120049
:100C9E0025C5C9FFC7B002D00000FCD7C9CF00F0F0
:020CAE00120032
:100CB000086A080E0C6E003408360450085ED8B07E
:0E0CC00002D00826D89000360C2EF5D7120070
:0E0CCE00ACB202D00000FCD725C5ADFF12006D
:100CDC00010E0501286F800E296F2A6B010E2B6FF8
:100CEC0094EC01F08B902651010F286FC4EC01F0AD
:0C0CFC0025C528F5C4EC01F08B80120027
:0C0D080072B201D0FDD725C573FF1200A8
:100D1400086A096A000E076203640FEF07F00250C5
:100D240006180A6E075003267E0ED8A0A0EF06F020
:100D3400035ED8B014EF07F0A4EF06F0035ED8A06A
:100D440019EF07F0028E068E02C00EF001C00BF000
:100D540000C00DF000500402F4CF0CF00150050265
:100D6400F4CF00F0F3CF08F00402F3500C26F45053
:100D74000822000E00220D500502F3500C26F450F8
:100D84000822000E002202500402F3500826F450F8
:100D9400002202500502016A000E0122F3500026CF
:100DA400F45001220D500602F3500826F45000229C
:100DB400026A000E012202220B500602F3500026A2
:100DC400F4500122000E02220E500602F3500126B6
:100DD400F450022202BEF7EF06F008360036013660
:100DE40002360306D8B419EF07F00AEF07F0D880EB
:100DF400800E08640030000E002201220222D8A0D6
:100E04000AEF07F0023201320032034A14EF07F00E
:100E14000AAE029E000E1CEF07F0010E70EC01F00A
:100E24001CEF07F0020E84EC01F01CEF07F0040E37
:060E340077EC01F0120052
:100E3A000B6A0A6A096A00500402F4CF09F0F3CF78
:100E4A0008F001500502F4CF0BF0F3CF0AF000507E
:100E5A000502F3500926F4500A22E86A0B220150CF
:100E6A000402F3500926F4500A22E86A0B2208C049
:100E7A0000F009C001F00AC002F00BC003F0120032
:080E8A000B6A0B86FF0E12003B
:100E92000450000A12E10550000A0FE10650000A50
:100EA2000CE10750000A09E1FF0E006EFF0E016E11
:100EB200FF0E026E7F0E036E98D00C6A07BE0C2ADC
:100EC2000D6A0B6A0A6A096A086A03500210011065
:100ED2000010D8B484D0035007180E6E0EBE0D1E3B
:100EE20007AE0BD0041E051E061E071E042AD8B428
:100EF200052AD8B4062AD8B4072A03AE0BD0001E9E
:100F0200011E021E031E002AD8B4012AD8B4022AE6
:100F1200D8B4032A035007100E6E0EBE1CD024DD77
:100F22000CBE36D00DAE5BD0001E011E021E031E8B
:100F3200002AD8B4012AD8B4022AD8B4032A081E37
:100F4200091E0A1E0B1E082AD8B4092AD8B40A2A76
:100F5200D8B40B2A44D007AE15D003BE0DD003502F
:100F62000B6E02500A6E0150096E0050086E036A41
:100F7200026A016A006AD6D7036A026A016A006AD3
:100F8200002A000C031E021E011E001E0C8EC7D773
:100F9200082AD8B4092AD8B40A2AD8B40B2A045089
:100FA200085CD8A4BFD70550095CD8A4BBD70650AB
:100FB2000A5CD8A4B7D707500B5CD8A4B3D70B6A86
:100FC2000A6A096A086A002AD8B4012AD8B4022A2D
:100FD200D8B4032A03AEA6D70E6A0E88FF0C0E6A97
:0C0FE2000CA002D014EC02F0000F120072
:100FEE0026C500F027C501F0000E026E036E640EDA
:100FFE00046E000E056E066E076E20EC02F000C049
:10100E00FAF201C0FBF202C0FCF203C0FDF2E90EDF
:10101E00046E010E056E000E066E076E3AEC03F0BE
:10102E0000C0FAF201C0FBF202C0FCF203C0FDF2F6
:10103E0005012551010A5DE1010E0201FA15016E4D
:10104E00FBC202F0FCC203F0FDC204F0000E021659
:10105E0003160416000E006E041808E10050031863
:10106E0005E10050021802E10150010A03E10F01EF
:10107E005D8902D00F015D99020E0201FA15016E13
:10108E00FBC202F0FCC203F0FDC204F0000E021619
:10109E0003160416000E006E041808E10050031823
:1010AE0005E10050021802E10150020A03E10F01AE
:1010BE005D8B02D00F015D9BFAC200F0FBC201F006
:1010CE00FCC202F0FDC203F00332023201320032E2
:1010DE00039E0332023201320032039E00C0FAF246
:1010EE0001C0FBF202C0FCF203C0FDF200C05EFFC5
:1010FE0061D005012551020A5DE1010E0201FA15CA
:10110E00016EFBC202F0FCC203F0FDC204F0000E41
:10111E00021603160416000E006E041808E10050A5
:10112E00031805E10050021802E10150010A03E123
:10113E000F01548902D00F015499020E0201FA15C3
:10114E00016EFBC202F0FCC203F0FDC204F0000E01
:10115E00021603160416000E006E041808E1005065
:10116E00031805E10050021802E10150020A03E1E2
:10117E000F01548B02D00F01549BFAC200F0FBC238
:10118E0001F0FCC202F0FDC203F003320232013262
:10119E000032039E0332023201320032039E00C03F
:1011AE00FAF201C0FBF202C0FCF203C0FDF200C075
:0611BE0055FF00D01200F5
:1011C400340E0C6EF10E0D6E0D2EFED70C2EFCD7C8
:0611D40000000000120003
:1011DA00025006180E6E086A096A0B6A0350076401
:1011EA00E0EF09F006500A6E068E028E03500B6E6F
:1011FA000750036E000E0B6430EF09F00B50075EC8
:10120A00D8B4D1EF09F0070E07649FEF09F0075E23
:10121A0000C008F001C000F002C001F0026A074EE7
:10122A00D1EF09F0076474EF09F0075E00C008F017
:10123A0001C000F0016A074ED1EF09F0076452EFCE
:10124A0009F0075E00C008F0006A074ED1EF09F006
:10125A00076439EF09F00AC002F005C001F004C0C2
:10126A0000F0086AFDEF0AF0030E076444EF09F084
:10127A00075E08380F0B086E074ED1EF09F0D890B9
:10128A000832074ED1EF09F0D8900832074ED1EF55
:10129A0009F0D8900832D1EF09F0030E076463EF22
:1012AA0009F0075E08380F0B086E0038F00B0826A5
:1012BA0000380F0B006E074ED1EF09F0D8900032BC
:1012CA000832074ED1EF09F0D89000320832074EA3
:1012DA00D1EF09F0D89000320832D1EF09F0030EAD
:1012EA0007648BEF09F0075E08380F0B086E0038A9
:1012FA00F00B082600380F0B006E0138F00B0026A1
:10130A0001380F0B016E074ED1EF09F0D890013268
:10131A0000320832074ED1EF09F0D890013200327C
:10132A000832074ED1EF09F0D89001320032083264
:10133A00D1EF09F0030E0764BCEF09F0075E083825
:10134A000F0B086E0038F00B082600380F0B006EE2
:10135A000138F00B002601380F0B016E0238F00B32
:10136A00012602380F0B026E074ED1EF09F0D89012
:10137A000232013200320832074ED1EF09F0D8901A
:10138A000232013200320832074ED1EF09F0D8900A
:10139A000232013200320832096A000E0EAEC5EF7F
:1013AA000AF0081E001E011E021E082A002201223F
:1013BA000222C5EF0AF00750D8A4E6EF09F0FDEFC4
:1013CA000AF0096A02C00AF0028E068E0750035C10
:1013DA00076ED8B4B8EF0AF0070E076486EF0AF072
:1013EA00075E0450096E0550046E0650056E066AC3
:1013FA00074EB8EF0AF0070E07645BEF0AF0075EC4
:10140A000450096E0550046E056A074EB8EF0AF0DB
:10141A00070E076439EF0AF0075E0450096E046A82
:10142A00074EB8EF0AF0070E076420EF0AF00AC069
:10143A0002F0FDEF0AF0030E07642BEF0AF0075ED5
:10144A0009380F0B096E074EB8EF0AF0D890093227
:10145A00074EB8EF0AF0D8900932074EB8EF0AF0F3
:10146A00D8900932B8EF0AF0030E07644AEF0AF07F
:10147A00075E09380F0B096E0438F00B0926043889
:10148A000F0B046E074EB8EF0AF0D89004320932F7
:10149A00074EB8EF0AF0D89004320932074EB8EF77
:1014AA000AF0D89004320932B8EF0AF0030E076442
:1014BA0072EF0AF0075E09380F0B096E0438F00B59
:1014CA00092604380F0B046E0538F00B042605387C
:1014DA000F0B056E074EB8EF0AF0D89005320432AA
:1014EA000932074EB8EF0AF0D890053204320932B1
:1014FA00074EB8EF0AF0D890053204320932B8EF35
:10150A000AF0030E0764A3EF0AF0075E09380F0B0F
:10151A00096E0438F00B092604380F0B046E0538DF
:10152A00F00B042605380F0B056E0638F00B05265E
:10153A0006380F0B066E074EB8EF0AF0D89006323F
:10154A00053204320932074EB8EF0AF0D890063253
:10155A00053204320932074EB8EF0AF0D890063243
:10156A00053204320932086A000E0EAEC5EF0AF0DF
:10157A00091E041E051E061E092A04220522062229
:10158A000950082604500022055001220650022262
:10159A000EBEDCEF0AF0D8A0EBEF0AF002320132FD
:1015AA0000320832033EEBEF0AF0F7EF0AF0D8B048
:1015BA00F1EF0AF0000E081E001E011E021E082A84
:1015CA000022012202220A7EF1EF0AF0010E0C6EBD
:1015DA0049EC02F0FFEF0AF0020E0C6E49EC02F041
:1015EA00FFEF0AF0040E0C6E84EC01F0FFEF0AF034
:0615FA00000E0C6E120051
:101600000050086E0150006E016A026A036A0B6A9C
:101610000C6A960E036E0A6A00C001F008C000F062
:0A162000086A026ADBEC01F0120018
:10162A000A6A0350D8A40A800750D8A40A820A502A
:10163A00D8B478EF0BF0030AD8B431EF0BF00AB044
:10164A002CEF0BF006AE76EF0BF074EF0BF002AE58
:10165A0074EF0BF076EF0BF00250800B0A6E029ECD
:10166A000650800B069E0A18D8B442EF0BF00A50B7
:10167A00D8B474EF0BF076EF0BF00750035CD8B4D4
:10168A004CEF0BF0D8A068EF0BF06EEF0BF00650A2
:10169A00025CD8B456EF0BF0D8A068EF0BF06EEFEF
:1016AA000BF00550015CD8B460EF0BF0D8A068EFDE
:1016BA000BF06EEF0BF00450005CD8B478EF0BF02F
:1016CA00D8B06EEF0BF00A52D8B476EF0BF074EF85
:1016DA000BF00A52D8B474EF0BF076EF0BF0D88007
:0E16EA001200D8901200D880D884120012008E
:1016F8000B6A0C6A0A6A0350D8B4B1EF0BF00A9E61
:10170800028E860E035E03BE8FEF0BF0D8B48FEF08
:101718000BF0B4EF0BF0036C080E035CD8A09DEF40
:101728000BF0036E0236026A0350D8A4D890A6EFD5
:101738000BF00350D8B4A6EF0BF0D8900232032E6A
:10174800A1EF0BF00BBC02A0B1EF0BF0D8A0B1EFEA
:101758000BF0022AD8B4BBEF0BF0016AC1EF0BF013
:101768000B800BAEC5EF0BF0016AC5EF0BF0010E55
:101778000C6ECDEC01F0C7EF0BF0000E0C6EC7EF4E
:0C1788000BF0FF0E0C6E0250006E120001
:101794000450000A12E10550000A0FE10650000A45
:1017A4000CE10750000A09E1FF0E006EFF0E016E06
:1017B4007F0E026EFF0E036EA8D0086A096A0750F6
:1017C400D8B475EF0CF00350D8B47AEF0CF0025093
:1017D40006180A6E028E068E0E6A02C008F001C058
:1017E4000CF000C00DF004500D5E0550D8A0053C6F
:1017F4000C5E0650D8A0063C085E086A0C6A0D6AA6
:10180400D8A00CEF0CF0D89002320132003208322A
:10181400010E0E6E0750035ED8A019EF0CF07E0E79
:101824000E240326D8B07FEF0CF01FEF0CF07E0ED1
:101834000E240326D8A084EF0CF0180E0B6E0D3680
:101844000C3608360036013602360E360450005E79
:101854000550D8A0053C015E0650D8A0063C025EA7
:1018640006340E120EA03AEF0CF00D8045EF0CF08A
:10187400045000260550D8B0053C01260650D8B0C7
:10188400062802260D900B2E21EF0CF06BEF0CF0C6
:10189400D8900036013602360E360450005E0550EC
:1018A400D8A0053C015E0650D8A0063C025E063472
:1018B4000E10010B0D26D8B00C2AD8B4082AD8A4CF
:1018C4006BEF0CF008320C320D32032AD8B47FEFE0
:1018D4000CF00AAE089E0850026E0C50016E0D50BA
:1018E400006E87EF0CF0010E45EC07F087EF0CF06B
:1018F400020E70EC01F087EF0CF0040E84EC01F0A2
:0C19040087EF0CF0080E77EC01F01200E9
:101910000501086B096B0A6B0B6B0C6B0D6B0E6B87
:101920000F6B106B116B126B136B146B156B166BCB
:10193000176B186B196B1A6B1B6B1C6B1D6B1E6B7B
:101940001F6B206B05C5E9FF06C5EAFFEECF18F552
:10195000EECF19F5000E1BBFFF0E1A6F1B6F000EA6
:1019600019BFFF0E1A6F1B6F0705036E046A000E86
:10197000045A03C000F004C001F0003600900136A4
:1019800000500525E96E01500621EA6EEECF1CF5E8
:10199000EECF1DF5000E1FBFFF0E1E6F1F6F000E56
:1019A0001DBFFF0E1E6F1F6F800E1B19006E800E75
:1019B00004BF7F0E005C0AE1000E04BFFF0E1A5D3B
:1019C00005E10451195D02E10351185D12E307C5F9
:1019D00000F0000E016E0036009001360050052523
:1019E000E96E01500621EA6EEECF00F0EECF01F075
:1019F0005ED1800E04BF7F0E006E800E1F19005C4A
:101A00000CE1000E04BFFF0E006E1E51005C05E1EC
:101A10001D51045D02E11C51035D1EE307510725C2
:101A2000006E016A000E0122010E005C036E000EC2
:101A30000158046E03C000F004C001F000360090AD
:101A4000013600500525E96E01500621EA6EEECF01
:101A500000F0EECF01F02BD120C500F0000E016E9A
:101A600000360090013600500525E96E0150062130
:101A7000EA6EEECF08F5EECF09F5000E0BBFFF0EB4
:101A80000A6F0B6F000E09BFFF0E0A6F0B6F000E7F
:101A900004BFFF0E006E0B1908E100500A1905E1A2
:101AA0000451091902E10851031918E107512025D1
:101AB000036E046A000E042203C000F004C001F0AB
:101AC00000360090013600500525E96E01500621D0
:101AD000EA6EEECF00F0EECF01F0E9D0800E04BF49
:101AE0007F0E006E800E0B19005C0CE1000E04BF2F
:101AF000FF0E006E0A51005C05E10951045D02E130
:101B00000851035DD8B0CBD020510725056E066A79
:101B1000000E062205C000F006C001F0003600905D
:101B2000013600500525E96E01500621EA6EEECF20
:101B30000CF5EECF0DF5000E0FBFFF0E0E6F0F6F01
:101B4000000E0DBFFF0E0E6F0F6F2005036E046AAF
:101B5000000E045A03C000F004C001F000360090EB
:101B6000013600500525E96E01500621EA6EEECFE0
:101B700010F5EECF11F5000E13BFFF0E126F136FAD
:101B8000000E11BFFF0E126F136F010E055C036E86
:101B9000000E0658046E03C000F004C001F00036C9
:101BA0000090013600500525E96E01500621EA6ECD
:101BB000EECF14F5EECF15F5000E17BFFF0E166F22
:101BC000176F000E15BFFF0E166F176F03C500F0DD
:101BD00004C501F0000E04BFFF0E026E036E085133
:101BE000005E0951015A0A51025A0B51035A14C599
:101BF00004F015C505F016C506F017C507F020EC72
:101C000002F000C021F501C022F502C023F503C097
:101C100024F503C500F004C501F0000E04BFFF0E5B
:101C2000026E036E1051005E1151015A1251025A98
:101C30001351035A0CC504F00DC505F00EC506F08E
:101C40000FC507F020EC02F021C508F022C509F00D
:101C500023C50AF024C50BF00050085E0150095A54
:101C600002500A5A03500B5A10C504F011C505F072
:101C700012C506F013C507F00851045E0951055A54
:101C80000A51065A0B51075A08C000F009C001F06A
:101C90000AC002F00BC003F049EC07F008D00501C0
:101CA000202B0751205DD8A0D7D6006A016A120008
:101CB0008A84030E0B6E080E0C6E770E0D6E0D2EC1
:101CC000FED70C2EFCD70B2EFAD78A948A86030EE9
:101CD0000B6E080E0C6E770E0D6E0D2EFED70C2EB1
:101CE000FCD70B2EFAD78A968A88030E0B6E080E45
:101CF0000C6E770E0D6E0D2EFED70C2EFCD70B2E14
:061D0000FAD78A981200D8
:081D0600067EEDEC08F012006E
:101D0E000C0E0F015D6F499D498DFF0E526F51856F
:101D1E00010E0501256F03C526F504C527F5F7EC61
:041D2E0007F01200A8
:101D320005010351010A0AE10A0E256F67EC06F05C
:101D42000D0E0501256F67EC06F00AD00A0E05019B
:101D5200256F84EC06F00D0E0501256F84EC06F06C
:021D620012006D
:0A1D64000F01586B5799579B1200AE
:101D6E00006A005005010325E96E000E0421EA6E9B
:101D7E00EE520EE0ACB201D0FDD7050100500325A6
:101D8E00E96E000E0421EA6EEECFADFF002AE9D710
:021D9E00120031
:101DA0000C0E0F01546F48954885FF0E526F5185F8
:101DB000020E0501256F03C526F504C527F5F7ECCE
:041DC00007F0120016
:101DC400010E0501286F800E296F2A6B010E2B6FFF
:101DD40094EC01F08B900C0E286FC4EC01F003C559
:0A1DE40028F5C4EC01F08B8012001A
:101DEE000501066B03C5E9FF04C5EAFFEECF05F555
:101DFE000551000A0FE005C525F567EC06F0050153
:101E0E00062B06510325E96E000E0421EA6EEECF75
:061E1E0005F5EED71200ED
:101E2400BB50010F006E016A000E012203C504F0CD
:101E3400000E056E1DEC07F0060E026E00C004F0E5
:101E440001C005F0025005E005320432059EFF0F83
:101E5400FAD7040E016E04C000F0015004E000360D
:101E64000090FF0FFBD7300E0014036E04C000F087
:101E740005C001F001320032019E01320032019EA0
:101E840000C058FF0F0E0F015717035057131200CD
:101E94000501076B050E075D0AE207510525E16E92
:101EA400000E0621E26E200EE66E072BF3D70751D3
:101EB4000525E16E000E0621E26EE66A070707516A
:101EC4000525086F000E0621096F0A0E046E000E28
:101ED400056E03C500F004C501F034EC06F008C03B
:101EE40000F009C001F0300E002608C5E1FF09C565
:101EF400E2FF00C0E6FF0A0E046E000E056E03C585
:101F040000F004C501F034EC06F000C003F501C094
:101F140004F5000E011802E1000E001801E102D0E0
:061F24000707CDD71200F3
:101F2A000B6A0350D8B4DBEF0FF002500A6E028E30
:101F3A008E0E035E03AEDFEF0FF0036C080E035C38
:101F4A00D8A0BAEF0FF0036E013602C001F0026AA0
:101F5A00080E035CD8A0BAEF0FF0036E0136016ACF
:101F6A000350D8A4D890C4EF0FF00350D8B4C4EFEC
:101F7A000FF0D89002320132032EBEEF0FF00BBCE5
:101F8A0001A0D1EF0FF0D8A0D1EF0FF0012AD8B4F9
:101F9A00022A02BEEEEF0FF00AAEF4EF0FF0021EB5
:101FAA00011E012AD8B4022AF4EF0FF0026A016A6C
:101FBA00F4EF0FF00B800BAEF8EF0FF0026A0AAEE7
:101FCA00F8EF0FF0FF0E026E016E0A360232F8EFDA
:101FDA000FF0010E0C6ECDEC01F0FAEF0FF0000ECF
:101FEA000C6EFAEF0FF0FF0E0C6E0150006E0250ED
:041FFA00016E120062
:101FFE0000C008F00B6A0C6A9E0E036E0A6A026A33
:0E200E00016A006A020E0C6E49EC02F012002C
:10201C0005010B6B0C6B0351055D076F04510659E1
:10202C00086F03C509F504C50AF5BE0E0B6F000E4B
:10203C000C6F000E0101446F000E456F400E466F91
:10204C00800E476F9A0E406F990E416F190E426FBA
:10205C007E0E436F000E4C6F000E4D6F000E4E6FD8
:10206C007E0E4F6F07C500F008C501F0E1EC05F0DE
:10207C00000E046E000E056EC00E066E800E076E0E
:10208C008AEC06F000C048F101C049F102C04AF1E7
:10209C0003C04BF10501075104013A25016E0501FE
:1020AC00085104013B21026E01C03AF402C03BF41A
:1020BC00800E01013919006E800E0218005C02E1DD
:1020CC000150385D04E238C13AF439C13BF4800E5A
:1020DC0004013B19006E800E01013F19005C03E105
:1020EC003E5104013A5D04E23EC13AF43FC13BF477
:1020FC00000E0101401905010D6F000E010141197F
:10210C0005010E6F800E0101421905010F6F000EC3
:10211C00010143190501106F3AC400F03BC401F0F2
:10212C00E1EC05F00DC504F00EC505F00FC506F089
:10213C0010C507F08AEC06F000C011F501C012F5CD
:10214C0002C013F503C014F511C53AF112C53BF1E9
:10215C0013C53CF114C53DF1000E01014C190501EC
:10216C000D6F000E01014D1905010E6F800E01015E
:10217C004E1905010F6F000E01014F190501106F6B
:10218C00095104013C5D006E05010A5104013D59E1
:10219C00016EE1EC05F00DC504F00EC505F00FC5A0
:1021AC0006F010C507F08AEC06F000C00DF501C072
:1021BC000EF502C00FF503C010F50DC5A9F10EC543
:1021CC00AAF10FC5ABF110C5ACF109C53CF40AC5B9
:1021DC003DF448C100F049C101F04AC102F04BC1C5
:1021EC0003F011C504F012C505F013C506F014C5B3
:1021FC0007F0EDEC08F00DC504F00EC505F00FC5A9
:10220C0006F010C507F0EDEC08F000C00DF501C0AC
:10221C000EF502C00FF503C010F50DC5AFF10EC5DC
:10222C00B0F10FC5B1F110C5B2F10BC500F00CC582
:10223C0001F000EC0BF00DC504F00EC505F00FC558
:10224C0006F010C507F015EC0BF0010ED8B0000E1F
:10225C00006E00520EE00BC500F00CC501F000EC56
:10226C000BF000C0AFF101C0B0F102C0B1F103C07E
:10227C00B2F1046A056A066A076AAFC100F0B0C120
:10228C0001F0B1C102F0B2C103F015EC0BF0010E7C
:10229C00D8B0000E006E005205E00101AF6BB06BC0
:1022AC00B16BB26BAFC100F0B0C101F0B1C102F0C3
:0E22BC00B2C103F07CEC0BF0000E016E1200BC
:1022CA00010E0501286F800E296F2A6B010E2B6FF4
:1022DA0094EC01F08B900B0E286FC4EC01F0030E06
:1022EA000501286FC4EC01F08B80010E0501076F10
:1022FA000751040860E38B9007510508286FC4EC66
:10230A0001F005010751030A17E10551000814E21B
:10231A000A0E046E000E056E03C500F004C501F036
:10232A0034EC06F008C000F009C001F0800E00107D
:10233A00286FC4EC01F02DD005010751040A17E1FA
:10234A000651010A14E10A0E046E000E056E03C559
:10235A0000F004C501F034EC06F008C000F009C032
:10236A0001F0800E0010286FC4EC01F012D00A0EA2
:10237A00046E000E056E03C500F004C501F034ECCE
:10238A0006F008C000F009C001F000C028F5C4EC4E
:10239A0001F08B800A0E046E000E056E03C500F074
:1023AA0004C501F034EC06F000C003F501C004F5E1
:0823BA000501072B9DD712005D
:0C23C2009390BA840C0E0F015713120008
:1023CE000501066B8B80010E286F800E296F2A6B1C
:1023DE00010E2B6F94EC01F08B90090E286FC4EC5C
:1023EE0001F00501056B0551035D05E30637069106
:1023FE00062B052BF8D706C528F5C4EC01F08B800B
:10240E00E2EC08F08B900A0E0501286FC4EC01F087
:10241E0004C528F5C4EC01F08B80E2EC08F08B903B
:10242E000B0E0501286FC4EC01F003C528F5C4ECB2
:10243E0001F08B808B900C0E0501286FC4EC01F01F
:10244E00010E0501286FC4EC01F08B808B90050105
:10245E00286BC4EC01F0FF0E0501286FC4EC01F0EF
:10246E008B800A0E0501256F266B6EEC06F00A0EA8
:10247E000501256F010E266F6EEC06F00A0E0501A2
:10248E00256F020E266F6EEC06F00A0E0501256F03
:0A249E00030E266F6EEC06F012002C
:1024A8000B6A0C6A0A6A0350D8B49EEF12F0028EC7
:1024B8008E0E035E03BE66EF12F0D8B466EF12F01C
:1024C800A2EF12F0036C080E035CD8A07DEF12F0A7
:1024D800036E013602C001F0026A080E035CD8A040
:1024E8007DEF12F00136016A0350D8A4D89087EF27
:1024F80012F00350D8B487EF12F0D89002320132AC
:10250800032E81EF12F00BBC01A094EF12F0D8A0BB
:1025180094EF12F0012AD8B4022A02BEB1EF12F0E9
:102528000AAEB7EF12F0021E011E012AD8B4022A21
:10253800B7EF12F0026A016AB7EF12F00B800BAE28
:10254800BBEF12F0026A0AAEBBEF12F0FF0E026E8A
:10255800016E0A360232BBEF12F0010E0C6ECDECA2
:1025680001F0BDEF12F0000E0C6EBDEF12F0FF0E81
:0C2578000C6E0150006E0250016E12004B
:0A2584009380F00E0F0157171200AC
:10258E00040E0401326F0C0E336F250E346F050EE0
:10259E00356FC26A0001F51D006E0050C1160F0E98
:0825AE00C012C08EC2801200B1
:1025B60004C500F00032009E0032009E0032009EEC
:1025C6000032009E620E0024F66E3E0EF76E000E7E
:1025D600F722000EF86E000EF8220900F5CF00F083
:1025E60005C5E1FF06C5E2FF00C0E6FF010E0501D5
:1025F6000525E16E000E0621E26E0F0E0415006E33
:10260600620E0024F66E3E0EF76E000EF722000EE6
:10261600F86E000EF8220900F5CF00F000C0E6FFC4
:10262600020E0525E16E000E0621E26E03C500F0DE
:102636000032009E0032009E0032009E0032009E54
:10264600620E0024F66E3E0EF76E000EF722000EA6
:10265600F86E000EF8220900F5CF00F000C0E6FF84
:10266600030E0525E16E000E0621E26E0F0E031520
:10267600006E620E0024F66E3E0EF76E000EF72216
:10268600000EF86E000EF8220900F5CF00F000C02B
:10269600E6FF040E0525E16E000E0621E26EE66AEF
:0226A600120020
:1026A8000501066B030E065D0AE206510425E16E7C
:1026B800000E0521E26E200EE66E062BF3D70651BA
:1026C8000425E16E000E0521E26EE66A0607065152
:1026D8000425076F000E0521086F0A0E046E03C556
:1026E80000F058EC06F008C000F0300E002607C5D0
:1026F800E1FF08C5E2FF00C0E6FF0A0E046E03C54D
:1027080000F058EC06F000C003F50050000A01E1A3
:0827180002D00607DCD7120015
:102720000201FA6BFB6BFC6BFD6B400E0501066F43
:10273000000E076F03C525F502EC06F0000E026ED1
:10274000036E00500201FA270150FB230250FC23C4
:102750000350FD23010E0501065F000E075B000E0E
:10276000006E0751005C02E106510008E3E3060E2B
:10277000006EFAC204F0FBC205F0FCC206F0FDC216
:1027800007F0005007E00732063205320432079E98
:10279000FF0FF8D704C0FAF205C0FBF206C0FCF246
:1027A00007C0FDF204C0F8F205C0F9F204C500F05C
:1027B00005C501F0000E026E036E20EC02F000C0B1
:1027C000FAF201C0FBF202C0FCF203C0FDF2640E9B
:1027D000046E000E056E066E076E3AEC03F000C044
:1027E000FAF201C0FBF202C0FCF203C0FDF21200DB
:1027F000020E0501286F800E296F2A6B2B6B94EC5B
:1028000001F0340E0C6EF10E0D6E0D2EFED70C2E57
:10281000FCD7000000008B9204C500F0016A00C0E4
:1028200025F54FEC06F000C005F503C525F54FEC86
:1028300006F08B8205C503F0026A000E016E02509D
:082840000026035001221200E2
:10284800896A89CF80FF270E0F01386F2F0E926E8D
:102858008A6A8ACF81FF396B820E936E030E8B6E64
:102868008BCF82FF3A6B900E946E500ED36E9B8C7A
:10287800D3B401D0FDD7D2BE01D0FDD7060E0B6E62
:10288800130E0C6EAD0E0D6E0D2EFED70C2EFCD752
:102898000B2EFAD700000000AB6AABCFACFFB886AE
:1028A800B06A220EAF6EAC84AC98AB88ABB802D0DD
:1028B800AC9A01D0AC8AACBA02D0AB9E01D0AB8E38
:1028C800F28CF2BC02D09D9A01D09D8A810ED56E01
:1028D8003C0ED76EB00ED66EF294F29A4E0E4A6F38
:1028E8007E94FA0E4B6F7D948B828BB202D08B90C4
:1028F80001D08B808B9458EC0EF0030E0501036F0A
:10290800080E046F60DD010E0501036FE2EC0EF0A6
:10291800BA80BA82F90EBB6EB2EC0EF00501036BF9
:1029280012EC0FF0580E0501036F020E046F87ECCE
:102938000EF0C20E0501036F010E046FD0EC0EF00D
:102948000201466B0A0E465D11E246C200F0000E17
:10295800016E003600900136C70E0024E16E040EA9
:102968000120E26EE66AE66A462BECD70CDE030E1F
:102978000B6E080E0C6E770E0D6E0D2EFED70C2EFC
:0C298800FCD70B2EFAD7F28CF28E120056
:10299400F8C403F5F9C404F50A0E0501056F020E27
:1029A400066F030E076F88EC0CF000C047F201C0FD
:1029B40048F2010E0501256F00C026F501C027F578
:1029C400F7EC07F00401FA5312E0F8C403F5F9C474
:1029D40004F5220E0501056F020E066F090E076F3E
:1029E40088EC0CF000C008F201C009F211D0F8C460
:1029F40003F5F9C404F5160E0501056F020E066F02
:102A0400030E076F88EC0CF000C008F201C009F255
:102A1400020E0501256F08C226F509C227F5F7EC59
:042A240007F01200A5
:102A2800FCC400F00401FC07005228E0F8C4E9FFE8
:102A3800F9C4EAFFEE50000A0CE0F8C4E9FFF9C453
:102A4800EAFFFAC4D9FFFBC4DAFFEE50DE1801E151
:102A58000FD0F8C4E9FFF9C4EAFFFAC4D9FFFBC4F0
:102A6800DAFFDE50EE5C006E016A000E015A08D0F3
:102A78000401F84BF92BFA4BFB2BD2D7006A016AF9
:022A880012003A
:102A8A00000E046E000E056E7A0E066E880E076E34
:102A9A00F8C400F0F9C401F0FAC402F0FBC403F070
:102AAA00CAEC0BF000C0F8F401C0F9F402C0FAF461
:102ABA0003C0FBF4000E046E000E056E400E066E97
:102ACA007F0E076E83EC0EF0000E046E000E056E8C
:102ADA007A0E066E880E076E8AEC06F000C0FDF4C8
:102AEA0001C0FEF402C0FFF403C000F5FCC400F00C
:102AFA00FFEC0FF09A0E046E990E056E770E066EB5
:102B0A00840E076E8AEC06F000C004F001C005F0DE
:102B1A0002C006F003C007F0FDC400F0FEC401F0D5
:102B2A00FFC402F000C503F0CAEC0BF0000E046EFD
:102B3A00000E056E7A0E066E880E076E8AEC06F097
:062B4A0095EC0FF01200F3
:102B5000E50E0501036F010E046FF7EC0EF049C29C
:102B600003F54AC204F5E40E056F040E066F4AEC45
:102B70000FF0E40E036F040E046FF7EC0EF0FF0E7F
:102B8000036F010E046FF7EC0EF0FBC100F0FCC107
:102B900001F0FDC102F0FEC103F086DC00C003F5C8
:102BA00001C004F5E40E056F040E066F4AEC0FF049
:102BB000E40E036F040E046FF7EC0EF0CF0E036FFC
:102BC000010E046FF7EC0EF00FC303F510C304F50C
:102BD000E40E056F040E066F4AEC0FF0E40E036F6F
:102BE000040E046FF7EC0EF0C60E036F010E046FB7
:102BF000F7EC0EF04BC203F54CC204F5E40E056F82
:102C0000040E066F4AEC0FF0E40E036F040E046F1F
:102C1000F7EC0EF0DF0E036F010E046FF7EC0EF011
:102C2000ADC103F5AEC104F5E40E056F040E066FE9
:102C30004AEC0FF0E40E036F040E046FF7EC0EF095
:102C4000D80E036F010E046FF7EC0EF0A7C103F569
:102C5000A8C104F5E40E056F040E066F4AEC0FF0F0
:102C6000E40E036F040E046FF7EC0EF0010E036F19
:062C700099EC0EF01200C9
:102C76000900F5CFE6FF0006FBE10106F9E11200C7
:102C8600010E0401FC6F000EFD6FF8C403F5F9C4D4
:102C960004F5FAC405F5FBC406F50EEC10F000C009
:102CA600FCF4000E0401FD6FFCC403F512EC0FF0FA
:0A2CB600FCC400F0FDC401F01200A0
:102CC000010E0501286F800E296F2A6B010E2B6FF4
:102CD00094EC01F0000E0401F91902E10A0EF81952
:102CE00032E00D0E0501256F266B6EEC06F00A0E24
:102CF0000501256F010E266F6EEC06F0840E0501AE
:102D0000256F020E266F6EEC06F0000E0401F91915
:102D100002E1000EF81908E1020E0501256F030E0D
:102D2000266F6EEC06F00ED0000E0401F91902E1D8
:102D3000010EF81907E1090E0501256F030E266F34
:102D40006EEC06F01BD00F0E0501256F266B6EECA6
:102D500006F00B0E0501256F010E266F6EEC06F0D6
:102D60000B0E0501256F020E266F6EEC06F00F0E9E
:0E2D70000501256F030E266F6EEC06F01200B3
:102D7E00130E0501036F010E046FB7EC0EF0010E7A
:102D8E00036F99EC0EF0F60E0501036F000E046F43
:102D9E00B7EC0EF0010E036F99EC0EF0330E050139
:102DAE00036F010E046FB7EC0EF0F8C403F5F9C40F
:102DBE0004F5E40E056F040E066FDBEC12F0300E18
:102DCE00036F010E046FF7EC0EF0E40E036F040EAA
:102DDE00046FF7EC0EF0010E036F99EC0EF0EC0E93
:102DEE000501036F000E046FB7EC0EF0FAC403F585
:102DFE00000E046FE40E056F040E066F4AEC0FF022
:102E0E00E40E036F040E046FF7EC0EF0010E036F69
:102E1E0099EC0EF0E20E0501036F000E046FB7EC95
:102E2E000EF0FBC403F5FCC404F5F7EC0EF0010E36
:082E3E00036F99EC0EF0120085
:102E46000401F86B8B84400E0501036F5A0E046F64
:102E5600CCDC00C00DF301C00EF303010D6B0E6B4D
:102E66000F6B106BFE0E0501036F020E046FF7EC7D
:102E76000EF0290E0301105D02E1040E0F5D05E35D
:102E86000A0E0401F85D01E32BD0040E0501036F61
:102E96000E0E046F150E056F40DC00C00FF301C067
:102EA60010F3000E036F480E046F9FDC00C00DF395
:102EB60001C00EF3030E0B6E080E0C6E770E0D6E30
:102EC6000D2EFED70C2EFCD70B2EFAD70401F82BAD
:102ED6000B0E0501036F030E046FF7EC0EF0C9D756
:102EE6000501010E036F99EC0EF0D30E0501036F79
:102EF600020E046FF7EC0EF00FC303F510C304F5D2
:102F0600E40E056F040E066F4AEC0FF0E40E036F35
:102F1600040E046FF7EC0EF0010E036F99EC0EF041
:102F26008A84B60E0501036F020E046FF7EC0EF0ED
:102F360003010E51280A02E1620E0D1908E1E60EA0
:102F46000501036F020E046FF7EC0EF018D00301B3
:102F56000E51280A02E1630E0D1908E1EF0E050174
:102F6600036F020E046FF7EC0EF009D005018A9488
:102F76008A88110E036F030E046FF7EC0EF0010E34
:102F8600036F99EC0EF0D50E0501036F030E046F67
:102F9600F7EC0EF0000E036F780E046F26DC00C00F
:102FA6000DF301C00EF30150280A02E17F0E00184E
:102FB6000AE1E90E0501036F030E046FF7EC0EF04C
:102FC6008A968A882FD003010E51280A02E1FF0E45
:102FD6000D190EE1CF0E0501036F030E046FF7EC1A
:102FE6000EF08A868A980DC300F00EC301F037D022
:102FF60003010E51280A02E1550E0D190AE1260EAB
:103006000501036F040E046FF7EC0EF08A968A88AA
:1030160009D005011B0E036F040E046FF7EC0EF0CA
:103026008A968A980DC303F50EC304F5E40E056F60
:10303600040E066F4AEC0FF0E40E036F040E046FE5
:10304600F7EC0EF0010E036F99EC0EF0010E050180
:10305600036F99EC0EF00DC300F00EC301F01200E1
:103066000401F86B0501036B12EC0FF0E1EC11F0B3
:10307600040E0501036F0E0E046F150E056F90EC1E
:1030860013F000C00FF301C010F3020E036FEA0E37
:10309600046F010E056F90EC13F000C0ADF101C096
:1030A600AEF103011051290802E10F510408D8B00E
:1030B600EBD03A0E105D02E1980E0F5DD8B0E4D069
:1030C6000101AE51070802E1AD51D0080CE36D0EC7
:1030D6000501036F010E046FF7EC0EF0010E036F8E
:1030E60099EC0EF087D1500E0501036F010E046FA7
:1030F600F7EC0EF00FC303F510C304F5E40E056FED
:10310600040E066F4AEC0FF0E40E036F040E046F14
:10311600F7EC0EF0010E036F99EC0EF010C304F0FD
:10312600056A04C0A7F105C0A8F1C20E006E010E23
:10313600016E34EC06F000C0A7F101C0A8F1000E44
:10314600026E0150025C02E10050000825E2000E0A
:103156000101A85D02E1500EA75D1EE2A7C103F5BD
:1031660012EC0FF08E0E0501036F010E046FF7ECE3
:103176000EF0A7C103F5360E046F040E056F54EC6E
:1031860013F0360E036F040E046FF7EC0EF0010E0B
:10319600036F99EC0EF00FD0C2EC12F08A90790E04
:1031A6000501036F000E046FF7EC0EF0010E036FBE
:1031B60099EC0EF01FD1500E0501036F000E046F3F
:1031C600F7EC0EF00401F86B320EF85D57E2040ED0
:1031D6000501036F0E0E046F150E056F90EC13F0CC
:1031E60000C00FF301C010F301C004F0056A04C06B
:1031F600A7F105C0A8F1C20E006E010E016E34ECF7
:1032060006F000C0A7F101C0A8F1000E015C02E1C2
:103216003C0E005C05E2A7C103F512EC0FF005D0E9
:103226000A0E0501036F12EC0FF0A7C103F5360E67
:103236000501046F040E056F54EC13F0360E036F90
:10324600040E046FF7EC0EF0E00E036F000E046F31
:10325600F7EC0EF08AA802D08A9801D08A88030E6D
:103266000B6E080E0C6E770E0D6E0D2EFED70C2E05
:10327600FCD70B2EFAD70401F82BA6D7010E0501B1
:10328600036F99EC0EF012D0010E0501036F12ECDC
:103296000FF08A90A40E0501036F000E046FF7EC81
:1032A6000EF0010E036F99EC0EF0A4D0A00E3E6E48
:1032B6000F0E3F6E1F0E0501036F000E046FF7EC35
:1032C6000EF0010E036F99EC0EF0040E0501036F6C
:1032D6000E0E046F150E056F90EC13F000C00FF381
:1032E60001C010F30A0E046E000E056E34EC06F0F3
:1032F60000C00FF301C010F300C004F001C005F0D8
:103306003EC000F03FC001F034EC06F0190E046E2A
:10331600000E056E1DEC07F000C0A7F101C0A8F174
:10332600450E036F000E046FF7EC0EF08AA802D06C
:103336008A9801D08A880501020E036FEA0E046F8F
:10334600010E056F90EC13F000C0ADF101C0AEF1B7
:10335600400E036F000E046FF7EC0EF0ADC103F5DF
:10336600AEC104F5E40E056F040E066F4AEC0FF0CD
:10337600E40E036F040E046FF7EC0EF0000E01016D
:10338600A85D02E1A00EA75D04E3A00EA76F000EE4
:10339600A86FA7C103F512EC0FF0040E0101A727D1
:1033A600000EA823ADC103F5AEC104F50501056BFA
:1033B600066B65EC11F0080E0B6E1B0E0C6E270EDD
:1033C6000D6E0D2EFED70C2EFCD70B2EFAD72C0E1B
:1033D60003011C25016E010E1D21026E0250010122
:1033E600AE5D02E10150AD5DA1E2010E0501036F84
:0633F60099EC0EF012003C
:1033FC000401F96BFA6BFB6BFC6BFD6BFE6B05014F
:10340C00016B026B0401F851000A14E18A0EFB6F88
:10341C00020EFC6FB60EFD6F030EFE6F200E050143
:10342C00016F030E026FF90E036F030E046FF7ECBE
:10343C000EF021D00401F851010A1DE1EE0EFB6FD4
:10344C00020EFC6FDC0EFD6F050EFE6FE80E050123
:10345C00016F030E026F0A0E036F040E046FF7EC7C
:10346C000EF09D0E036F560E046FF8EC13F000C0B7
:10347C000DF301C00EF3010E0501036F99EC0EF074
:10348C000401FA51010AD8B404D1050EF95DD8B083
:10349C0000D19D0E0501036F560E046FF8EC13F06E
:1034AC0000C00DF301C00EF30B0E0B6E260E0C6E4E
:1034BC005D0E0D6E0D2EFED70C2EFCD70B2EFAD7F3
:1034CC0000000000010E0501036FEA0E046F010EEF
:1034DC00056F90EC13F000C042F301C043F3020EF1
:1034EC00036FEA0E046F010E056F90EC13F000C031
:1034FC001CF301C01DF301500401FE5D02E10050FC
:10350C00FD5D0AE3FC5103011D5D04E10401FB5167
:10351C0003011C5D01E32FD0400E0501036F5A0E11
:10352C00046FF8EC13F01E0E0501036F030E046F0D
:10353C00F7EC0EF01CC303F51DC304F5E40E056F88
:10354C00040E066F4AEC0FF0E40E036F040E046FCA
:10355C00F7EC0EF0010E036F99EC0EF0010E050165
:10356C00036F99EC0EF001C51CF302C51DF30A0E96
:10357C000401FA6F03D00401010EFA6FFA510A0A22
:10358C000BE1850E0501036F030E046FF7EC0EF0D3
:10359C00010E036F99EC0EF0880E0501036F560EA9
:1035AC00046FF8EC13F0880E0501036F560E046FD0
:1035BC00F8EC13F00401F851010A21E1020E0501A7
:1035CC00036F5A0E046FF8EC13F000C00DF301C03A
:1035DC000EF3020E0501036F5A0E046FF8EC13F094
:1035EC0000C00DF301C00EF3690E0501036F030E4D
:1035FC00046FF7EC0EF0010E036F99EC0EF05D0EFC
:10360C000501036F030E046FF7EC0EF042C303F5D4
:10361C0043C304F5E40E056F040E066F4AEC0FF07D
:10362C00E40E036F040E046FF7EC0EF0010E036F43
:10363C0099EC0EF0C10E0501036F030E046FF7EC4D
:10364C000EF01CC303F51DC304F5E40E056F040E48
:10365C00066F4AEC0FF0E40E036F040E046FF7ECE8
:10366C000EF0010E036F99EC0EF00401FA51010AF1
:10367C000EE00B0E0B6E260E0C6E5D0E0D6E0D2EEF
:10368C00FED70C2EFCD70B2EFAD700000000F92B1E
:10369C00F7D60B0E0B6E260E0C6E5D0E0D6E0D2EF0
:1036AC00FED70C2EFCD70B2EFAD700000000440ED0
:1036BC000501036F030E046FF7EC0EF0010E036FA0
:1036CC0099EC0EF0010E0501036F99EC0EF0FAC4A3
:0436DC0000F01200E8
:1036E00039EC1FF00401F36BF46BF56BF66BF76BC1
:1036F00024EC14F0070E006EF80EE16E040EE26E7C
:10370000DD0EE96E040EEA6EEECFE6FF0006FCE188
:10371000BFEC16F0010E0401F86F000EF96F60ECBB
:1037200016F023EC17F000C0F6F401C0F7F4060E13
:103730000B6E130E0C6EAD0E0D6E0D2EFED70C2EF5
:10374000FCD70B2EFAD7000000000401F751280A1D
:1037500002E1FF0EF619E5E1010EF86F4FDE00C041
:10376000F6F4000E0401F76FF651010A01E0C0D72C
:10377000010EF86F43DE00C0F6F4000E0401F76F8F
:1037800072DCF28A7D84050E0201B15D1CE3B16B2F
:10379000020E0501036FEA0E046F010E056F90EC37
:1037A00013F000C0ADF101C0AEF100C0F8F401C0EB
:1037B000F9F41CC3FAF41DC3FBF443EC16F000C08B
:1037C000A7F101C0A8F1050E0201B35D6BE3B26B76
:1037D000B36B0401F46BF56B000E006EF551005CE9
:1037E00002E1F451050816E3F4C400F0F5C401F059
:1037F000003600900136C70E0024D96E040E012059
:10380000DA6EDE5002014B27DE504C230401F44BEC
:10381000F52BE2D7060E046E000E056E4BC200F0CB
:103820004CC201F034EC06F000C04BF201C04CF287
:103830004BC200F04CC201F000EC0BF000C0F8F4F9
:1038400001C0F9F402C0FAF403C0FBF4080EFC6FE7
:1038500045EC15F000C003F501C004F54D0E05015F
:10386000056F020E066F110E076F88EC0CF000C09A
:1038700049F201C04AF2040E0501036F0E0E046FF7
:10388000150E056F90EC13F000C00FF301C010F39C
:1038900049C2F8F44AC2F9F4010E0401FA6FCAEC05
:1038A00014F021D0010E0501036FEA0E046F010E22
:1038B000056F90EC13F000C006F201C007F2B3C22E
:1038C00002F0000E036E023602900336C70E022489
:1038D000E16E040E0320E26E00C0E6FF01C0E6FFC9
:1038E0000201B26BB32B050E0101B85D55E3B86B55
:1038F000A8EC15F00401F351000A10E1010E0501D6
:10390000036FE2EC0EF049C203F54AC204F5010E62
:103910000501056F066B65EC11F03ED00401F35113
:10392000010A16E10A0E046E000E056E0FC300F0C8
:1039300010C301F034EC06F000C003F501C004F53B
:10394000010E0501056F010E066F65EC11F024D024
:103950000401F351020A0AE1ADC103F5AEC104F559
:103960000501056B066B65EC11F016D00401F351EF
:10397000030A0AE106C203F507C204F50501056B57
:10398000066B65EC11F008D00401F351040A04E160
:103990000501036BE2EC0EF080A613D07DB411D0CC
:1039A0000101B751000A0DE1C56B7D84B90E050117
:1039B000036F010E046FF7EC0EF0010E036F99EC2C
:1039C0000EF00101B751010A09E10A0EB76F0401B7
:1039D000F32BF3510408D8A0F36B06D00101B751C3
:1039E0000A0A02E180A6B76B0101B3A122D0B3910C
:1039F0003E0E0401F86F040EF96FB40EFA6F010E5B
:103A0000FB6F040EFC6F14EC15F00050011011E177
:103A1000EC0E0501036F010E046FF7EC0EF0DC0EE7
:103A200003011C6F050E1D6F010E0501036F99EC5C
:063A30000EF0A9D6FFD73D
:103E720010EE1FF0130E006E050E016E360EF66E7A
:0E3E82003A0EF76E000EF86E3BEC16F01200D2
:103A3600434A3132352052616D7055702068656198
:0F3A460074696E672073746172742E2E2E2E00B9
:023A550000006F
:053A57002055523D0066
:0B3A5C0020486561742050574D3D006C
:103A6700434A31323520436F6E64656E7361746902
:103A77006F6E2068656174696E6720696E20707269
:093A87006F67726573733A200049
:103A9000434A31323520436F6E64656E73617469D9
:103AA0006F6E2068656174696E67206572726F72EF
:0B3AB000202D2073746F70706564009F
:103ABB00434A31323520436F6E64656E73617469AE
:103ACB006F6E2068656174696E67206572726F72C4
:103ADB00202D205662617420746F6F206C6F7720DD
:0C3AEB006F7220746F6F206869676800BC
:023AF7002000AD
:0A3AF90048575F4E414D453A20004A
:093B030048575F5645523A200074
:013B0C000FA9
:103B0D003D3D3D3D3D3D3D3D3D3D3D3D3D3D3D3DD8
:0D3B1D003D3D3D3D3D3D3D3D3D3D3D3D00BF
:103B2A004D4550205769646562616E6420436F6E2B
:0D3B3A0074726F6C6C65722076312E300055
:033B4700307800D3
:053B4A00534E3A20007B
:023B4F00FA007A
:043B51000000000070
:023B550006FF69
:043B5700000000006A
:043B5B000000000066
:043B5F000000000062
:043B6300000000005E
:103B6700434A31323520436F6E64656E7361746901
:0D3B77006F6E20566261745B6D565D3D00FF
:103B8400434A31323520486F742073746172742C47
:103B940020736B6970207072652D7761726D75701A
:013BA4000020
:103BA500434A31323520436F6E64656E73617469C3
:093BB5006F6E2050574D203D00B9
:023BBE00000005
:043BC0000000000001
:023BC4000000FF
:043BC60000000000FB
:013BCA0000FA
:033BCB0055520050
:013BCE0000F6
:013BCF0000F5
:0C3BD000425554205052455353454400C8
:013BDC0000E8
:093BDD002055415F6176673D004F
:093BE6002056626174203D2000AC
:073BEF002050574D203D005E
:063BF600205552203D00A5
:073BFC0020414652203D006C
:0F3C030055525F726566203D20313530306D00BF
:043C120000000000AE
:073C1600204D4150203D004C
:023C1D000000A5
:023C1F000000A3
:0C3C21008005BE05E0054C045B00560069
:0C3C2D008403BE054E079600B80B8813F8
:103C39002003E803B00414057805BE05DC05400639
:103C49000807DE032A035802EA0186014501130128
:043C5900AA000100BC
:013C5D000066
:023C5E00000064
:023C6000000062
:023C6200000060
:103C640030F8BEF925FB61FCE0FC74FD6BFE49FFF6
:103C740096FFD8FF00000F006100C100FA0049015F
:103C84009F02BB0305044F049804B804E2042B0507
:103C940075059105AF05C205CD05080651068006D8
:043CA400C506340815
:103CA80040F7C6F8C8FB08FD2AFE00005401A80228
:103CB800BB0305049804E2042B05CB05C7063608A8
:013CC80000FB
:013CC90000FA
:013CCA0000F9
:023CCB000000F7
:103CCD00426F73636820434A3132352C2063686933
:0D3CDD00702076657273696F6E203D2000C7
:103CEA00496E697420566261745B6D565D203D2091
:013CFA0000C9
:013CFB0001C7
:013CFC0000C7
:093CFD00307836322842412900DA
:093D0600307836332842422900CE
:023D0F000000B2
:043D110000000000AE
:0D3D1500434A31323520496E69743A20006E
:023D22002D0072
:023D240000009D
:023D260000009B
:0B3D28004943206661696C75726500FC
:023D330000008E
:103D35005552206F757473696465206C696D69747B
:103D45007320202D2061637475616C2076616C751C
:043D550065203D00A8
:023D5900000068
:103D5B00555220726566202D206B6F6E6563206B4C
:093D6B00616C696272616365001C
:0C3D74005541207265665B6D565D3D0098
:103D80004970207265662E2063757272656E7420AC
:0C3D900073657420746F203230754100A0
:103D9C00555220726566202D207620707265646302
:103DAC00686F7A696D206B726F6B752063687962CE
:103DBC00612070726920707265706E757469206410
:0C3DCC006F206B616C69627261636500BE
:0C3DD8005552207265665B6D565D3D0023
:023DE4000000DD
:063DE6004F4B202D2000D0
:103DEC0057424F2053656E736F72207374617475F4
:043DFC00733A2000F6
:103E00004E6F20436F6E6E6563746564202D2000D5
:103E10004C535520342E322073656C656374656491
:013E200000A1
:103E21004C535520342E392073656C656374656479
:013E31000090
:0B3E32004661696C757265202D200050
:0C3E3D004E6F20706F776572202D200002
:043E49000000000075
:043E4D000000000071
:043E5100000000006D
:043E55000000000069
:043E59000000000065
:043E5D000000000061
:013E61000060
:103E620030313233343536373839414243444546AE
:020000040030CA
:0D00010028023CFF3F81FF0FC00FE00F40C1
:0200000400F00A
:1000000015DE01434A5F5049435F302E32FFFFFF48
:10001000FFFFFFFFFFFFFFFFFFFFFFFFFFFFFFFFF0
:10002000FFFFFFFFFFFFFFFFFFFFFFFFFFFFFFFFE0
:10003000FFFFFFFFFFFFFFFFFFFFFFFFFFFFFFFFD0
:10004000FFFFFFFFFFFFFFFFFFFFFFFFFFFFFFFFC0
:00000001FF
